{
  "_format": "hh-sol-artifact-1",
  "contractName": "TheVault",
  "sourceName": "contracts/TheVault.sol",
  "abi": [
    {
      "inputs": [
        {
          "internalType": "string",
          "name": "walletName",
          "type": "string"
        }
      ],
      "name": "getWalletBalance",
      "outputs": [
        {
          "internalType": "uint256",
          "name": "",
          "type": "uint256"
        }
      ],
      "stateMutability": "view",
      "type": "function"
    },
    {
      "inputs": [
        {
          "internalType": "string",
          "name": "walletName",
          "type": "string"
        }
      ],
      "name": "getWalletId",
      "outputs": [
        {
          "internalType": "uint256",
          "name": "",
          "type": "uint256"
        }
      ],
      "stateMutability": "view",
      "type": "function"
    },
    {
      "inputs": [
        {
          "internalType": "string",
          "name": "walletName",
          "type": "string"
        },
        {
          "internalType": "address[]",
          "name": "membersAddresses",
          "type": "address[]"
        },
        {
          "internalType": "string[]",
          "name": "membersFirstNames",
          "type": "string[]"
        },
        {
          "internalType": "string[]",
          "name": "membersLastNames",
          "type": "string[]"
        }
      ],
      "name": "initializeWallet",
      "outputs": [],
      "stateMutability": "payable",
      "type": "function"
    },
    {
      "inputs": [
        {
          "internalType": "string",
          "name": "",
          "type": "string"
        }
      ],
      "name": "wallet",
      "outputs": [
        {
          "internalType": "uint256",
          "name": "id",
          "type": "uint256"
        },
        {
          "internalType": "uint256",
          "name": "creationDate",
          "type": "uint256"
        },
        {
          "internalType": "string",
          "name": "name",
          "type": "string"
        },
        {
          "internalType": "uint256",
          "name": "balance",
          "type": "uint256"
        }
      ],
      "stateMutability": "view",
      "type": "function"
    },
    {
      "inputs": [],
      "name": "walletCounter",
      "outputs": [
        {
          "internalType": "uint8",
          "name": "",
          "type": "uint8"
        }
      ],
      "stateMutability": "view",
      "type": "function"
    }
  ],
  "bytecode": "0x608060405234801561001057600080fd5b50610e9d806100206000396000f3fe60806040526004361061004a5760003560e01c8063263c82e11461004f5780639dafb3911461008c578063a6fd4158146100c9578063af0be257146100e5578063f64d706014610125575b600080fd5b34801561005b57600080fd5b506100766004803603810190610071919061060a565b610150565b604051610083919061066c565b60405180910390f35b34801561009857600080fd5b506100b360048036038101906100ae919061060a565b61017a565b6040516100c0919061066c565b60405180910390f35b6100e360048036038101906100de919061088e565b6101a4565b005b3480156100f157600080fd5b5061010c6004803603810190610107919061060a565b6103cf565b60405161011c94939291906109e4565b60405180910390f35b34801561013157600080fd5b5061013a61049d565b6040516101479190610a4c565b60405180910390f35b600080826040516101619190610aa3565b9081526020016040518091039020600301549050919050565b6000808260405161018b9190610aa3565b9081526020016040518091039020600001549050919050565b600080856040516101b59190610aa3565b90815260200160405180910390209050600160009054906101000a900460ff1660ff168160000181905550428160010181905550848160020190816101fa9190610cc6565b5034816003018190555060005b845181101561038f57600082600501600087848151811061022b5761022a610d98565b5b602002602001015173ffffffffffffffffffffffffffffffffffffffff1673ffffffffffffffffffffffffffffffffffffffff168152602001908152602001600020905084828151811061028257610281610d98565b5b602002602001015181600001908161029a9190610cc6565b508382815181106102ae576102ad610d98565b5b60200260200101518160010190816102c69190610cc6565b508582815181106102da576102d9610d98565b5b60200260200101518160020160006101000a81548173ffffffffffffffffffffffffffffffffffffffff021916908373ffffffffffffffffffffffffffffffffffffffff160217905550600160009054906101000a900460ff1660ff16816003018190555060008160040160006101000a81548160ff021916908360ff16021790555060058160040160016101000a81548160ff021916908360ff16021790555050808061038790610df6565b915050610207565b506001600081819054906101000a900460ff16809291906103af90610e3e565b91906101000a81548160ff021916908360ff160217905550505050505050565b60008180516020810182018051848252602083016020850120818352809550505050505060009150905080600001549080600101549080600201805461041490610ae9565b80601f016020809104026020016040519081016040528092919081815260200182805461044090610ae9565b801561048d5780601f106104625761010080835404028352916020019161048d565b820191906000526020600020905b81548152906001019060200180831161047057829003601f168201915b5050505050908060030154905084565b600160009054906101000a900460ff1681565b6000604051905090565b600080fd5b600080fd5b600080fd5b600080fd5b6000601f19601f8301169050919050565b7f4e487b7100000000000000000000000000000000000000000000000000000000600052604160045260246000fd5b610517826104ce565b810181811067ffffffffffffffff82111715610536576105356104df565b5b80604052505050565b60006105496104b0565b9050610555828261050e565b919050565b600067ffffffffffffffff821115610575576105746104df565b5b61057e826104ce565b9050602081019050919050565b82818337600083830152505050565b60006105ad6105a88461055a565b61053f565b9050828152602081018484840111156105c9576105c86104c9565b5b6105d484828561058b565b509392505050565b600082601f8301126105f1576105f06104c4565b5b813561060184826020860161059a565b91505092915050565b6000602082840312156106205761061f6104ba565b5b600082013567ffffffffffffffff81111561063e5761063d6104bf565b5b61064a848285016105dc565b91505092915050565b6000819050919050565b61066681610653565b82525050565b6000602082019050610681600083018461065d565b92915050565b600067ffffffffffffffff8211156106a2576106a16104df565b5b602082029050602081019050919050565b600080fd5b600073ffffffffffffffffffffffffffffffffffffffff82169050919050565b60006106e3826106b8565b9050919050565b6106f3816106d8565b81146106fe57600080fd5b50565b600081359050610710816106ea565b92915050565b600061072961072484610687565b61053f565b9050808382526020820190506020840283018581111561074c5761074b6106b3565b5b835b8181101561077557806107618882610701565b84526020840193505060208101905061074e565b5050509392505050565b600082601f830112610794576107936104c4565b5b81356107a4848260208601610716565b91505092915050565b600067ffffffffffffffff8211156107c8576107c76104df565b5b602082029050602081019050919050565b60006107ec6107e7846107ad565b61053f565b9050808382526020820190506020840283018581111561080f5761080e6106b3565b5b835b8181101561085657803567ffffffffffffffff811115610834576108336104c4565b5b80860161084189826105dc565b85526020850194505050602081019050610811565b5050509392505050565b600082601f830112610875576108746104c4565b5b81356108858482602086016107d9565b91505092915050565b600080600080608085870312156108a8576108a76104ba565b5b600085013567ffffffffffffffff8111156108c6576108c56104bf565b5b6108d2878288016105dc565b945050602085013567ffffffffffffffff8111156108f3576108f26104bf565b5b6108ff8782880161077f565b935050604085013567ffffffffffffffff8111156109205761091f6104bf565b5b61092c87828801610860565b925050606085013567ffffffffffffffff81111561094d5761094c6104bf565b5b61095987828801610860565b91505092959194509250565b600081519050919050565b600082825260208201905092915050565b60005b8381101561099f578082015181840152602081019050610984565b60008484015250505050565b60006109b682610965565b6109c08185610970565b93506109d0818560208601610981565b6109d9816104ce565b840191505092915050565b60006080820190506109f9600083018761065d565b610a06602083018661065d565b8181036040830152610a1881856109ab565b9050610a27606083018461065d565b95945050505050565b600060ff82169050919050565b610a4681610a30565b82525050565b6000602082019050610a616000830184610a3d565b92915050565b600081905092915050565b6000610a7d82610965565b610a878185610a67565b9350610a97818560208601610981565b80840191505092915050565b6000610aaf8284610a72565b915081905092915050565b7f4e487b7100000000000000000000000000000000000000000000000000000000600052602260045260246000fd5b60006002820490506001821680610b0157607f821691505b602082108103610b1457610b13610aba565b5b50919050565b60008190508160005260206000209050919050565b60006020601f8301049050919050565b600082821b905092915050565b600060088302610b7c7fffffffffffffffffffffffffffffffffffffffffffffffffffffffffffffffff82610b3f565b610b868683610b3f565b95508019841693508086168417925050509392505050565b6000819050919050565b6000610bc3610bbe610bb984610653565b610b9e565b610653565b9050919050565b6000819050919050565b610bdd83610ba8565b610bf1610be982610bca565b848454610b4c565b825550505050565b600090565b610c06610bf9565b610c11818484610bd4565b505050565b5b81811015610c3557610c2a600082610bfe565b600181019050610c17565b5050565b601f821115610c7a57610c4b81610b1a565b610c5484610b2f565b81016020851015610c63578190505b610c77610c6f85610b2f565b830182610c16565b50505b505050565b600082821c905092915050565b6000610c9d60001984600802610c7f565b1980831691505092915050565b6000610cb68383610c8c565b9150826002028217905092915050565b610ccf82610965565b67ffffffffffffffff811115610ce857610ce76104df565b5b610cf28254610ae9565b610cfd828285610c39565b600060209050601f831160018114610d305760008415610d1e578287015190505b610d288582610caa565b865550610d90565b601f198416610d3e86610b1a565b60005b82811015610d6657848901518255600182019150602085019450602081019050610d41565b86831015610d835784890151610d7f601f891682610c8c565b8355505b6001600288020188555050505b505050505050565b7f4e487b7100000000000000000000000000000000000000000000000000000000600052603260045260246000fd5b7f4e487b7100000000000000000000000000000000000000000000000000000000600052601160045260246000fd5b6000610e0182610653565b91507fffffffffffffffffffffffffffffffffffffffffffffffffffffffffffffffff8203610e3357610e32610dc7565b5b600182019050919050565b6000610e4982610a30565b915060ff8203610e5c57610e5b610dc7565b5b60018201905091905056fea2646970667358221220f63cabc7a1710ca552327d26be57b1e6edc023a3b54d5364877536ac7bbe7f7164736f6c63430008110033",
  "linkReferences": {},
  "deployedLinkReferences": {}
}