{
  "_format": "hh-sol-artifact-1",
  "contractName": "TheVault",
  "sourceName": "contracts/TheVault.sol",
  "abi": [
    {
      "inputs": [
        {
          "internalType": "address",
          "name": "memberAddress",
          "type": "address"
        }
      ],
      "name": "getWalletData",
      "outputs": [
        {
          "internalType": "uint8",
          "name": "",
          "type": "uint8"
        },
        {
          "internalType": "address",
          "name": "",
          "type": "address"
        },
        {
          "internalType": "uint256",
          "name": "",
          "type": "uint256"
        },
        {
          "internalType": "address[]",
          "name": "",
          "type": "address[]"
        },
        {
          "internalType": "string[]",
          "name": "",
          "type": "string[]"
        },
        {
          "internalType": "string[]",
          "name": "",
          "type": "string[]"
        }
      ],
      "stateMutability": "view",
      "type": "function"
    },
    {
      "inputs": [
        {
          "internalType": "string",
          "name": "walletName",
          "type": "string"
        },
        {
          "internalType": "address[]",
          "name": "membersAddresses",
          "type": "address[]"
        },
        {
          "internalType": "string[]",
          "name": "membersFirstNames",
          "type": "string[]"
        },
        {
          "internalType": "string[]",
          "name": "membersLastNames",
          "type": "string[]"
        }
      ],
      "name": "initializeWallet",
      "outputs": [],
      "stateMutability": "payable",
      "type": "function"
    },
    {
      "inputs": [
        {
          "internalType": "address",
          "name": "memberAddress",
          "type": "address"
        }
      ],
      "name": "leaveWallet",
      "outputs": [],
      "stateMutability": "nonpayable",
      "type": "function"
    },
    {
      "inputs": [
        {
          "internalType": "address",
          "name": "",
          "type": "address"
        }
      ],
      "name": "memberWalletId",
      "outputs": [
        {
          "internalType": "uint8",
          "name": "",
          "type": "uint8"
        }
      ],
      "stateMutability": "view",
      "type": "function"
    },
    {
      "inputs": [
        {
          "internalType": "uint8",
          "name": "",
          "type": "uint8"
        }
      ],
      "name": "wallet",
      "outputs": [
        {
          "internalType": "uint8",
          "name": "id",
          "type": "uint8"
        },
        {
          "internalType": "uint256",
          "name": "creationDate",
          "type": "uint256"
        },
        {
          "internalType": "string",
          "name": "name",
          "type": "string"
        },
        {
          "internalType": "uint256",
          "name": "balance",
          "type": "uint256"
        },
        {
          "internalType": "uint8",
          "name": "memberCounter",
          "type": "uint8"
        },
        {
          "internalType": "address",
          "name": "ownerAddress",
          "type": "address"
        },
        {
          "internalType": "string",
          "name": "ownerFirstName",
          "type": "string"
        },
        {
          "internalType": "string",
          "name": "ownerLastName",
          "type": "string"
        }
      ],
      "stateMutability": "view",
      "type": "function"
    },
    {
      "inputs": [],
      "name": "walletCounter",
      "outputs": [
        {
          "internalType": "uint8",
          "name": "",
          "type": "uint8"
        }
      ],
      "stateMutability": "view",
      "type": "function"
    }
  ],
  "bytecode": "0x608060405234801561001057600080fd5b50612913806100206000396000f3fe6080604052600436106100555760003560e01c8063265c42141461005a578063857923c414610083578063a6fd4158146100c5578063e428c289146100e1578063f64d706014610125578063fbca237314610150575b600080fd5b34801561006657600080fd5b50610081600480360381019061007c9190611a47565b61018d565b005b34801561008f57600080fd5b506100aa60048036038101906100a59190611a47565b610926565b6040516100bc96959493929190611cc8565b60405180910390f35b6100df60048036038101906100da919061201c565b6110bf565b005b3480156100ed57600080fd5b506101086004803603810190610103919061211f565b611788565b60405161011c989796959493929190612196565b60405180910390f35b34801561013157600080fd5b5061013a6119a2565b6040516101479190612229565b60405180910390f35b34801561015c57600080fd5b5061017760048036038101906101729190611a47565b6119b5565b6040516101849190612229565b60405180910390f35b60005b600080600160008573ffffffffffffffffffffffffffffffffffffffff1673ffffffffffffffffffffffffffffffffffffffff16815260200190815260200160002060009054906101000a900460ff1660ff1660ff16815260200190815260200160002060040160009054906101000a900460ff1660ff168160ff1610156104a5578173ffffffffffffffffffffffffffffffffffffffff16600080600160008673ffffffffffffffffffffffffffffffffffffffff1673ffffffffffffffffffffffffffffffffffffffff16815260200190815260200160002060009054906101000a900460ff1660ff1660ff16815260200190815260200160002060070160008360ff1660ff16815260200190815260200160002060020160009054906101000a900473ffffffffffffffffffffffffffffffffffffffff1673ffffffffffffffffffffffffffffffffffffffff1603610492576040518060c00160405280604051806020016040528060008152508152602001604051806020016040528060008152508152602001600073ffffffffffffffffffffffffffffffffffffffff168152602001600060ff16815260200160008152602001600060ff16815250600080600160008673ffffffffffffffffffffffffffffffffffffffff1673ffffffffffffffffffffffffffffffffffffffff16815260200190815260200160002060009054906101000a900460ff1660ff1660ff16815260200190815260200160002060070160008360ff1660ff16815260200190815260200160002060008201518160000190816103e49190612450565b5060208201518160010190816103fa9190612450565b5060408201518160020160006101000a81548173ffffffffffffffffffffffffffffffffffffffff021916908373ffffffffffffffffffffffffffffffffffffffff16021790555060608201518160020160146101000a81548160ff021916908360ff1602179055506080820151816003015560a08201518160040160006101000a81548160ff021916908360ff1602179055509050505b808061049d90612551565b915050610190565b50600080600160008473ffffffffffffffffffffffffffffffffffffffff1673ffffffffffffffffffffffffffffffffffffffff16815260200190815260200160002060009054906101000a900460ff1660ff1660ff168152602001908152602001600020600401600081819054906101000a900460ff168092919061052a9061257a565b91906101000a81548160ff021916908360ff160217905550506000600160008373ffffffffffffffffffffffffffffffffffffffff1673ffffffffffffffffffffffffffffffffffffffff16815260200190815260200160002060006101000a81548160ff021916908360ff1602179055506000806000600160008573ffffffffffffffffffffffffffffffffffffffff1673ffffffffffffffffffffffffffffffffffffffff16815260200190815260200160002060009054906101000a900460ff1660ff1660ff16815260200190815260200160002060040160009054906101000a900460ff1660ff1603610923576000806000600160008573ffffffffffffffffffffffffffffffffffffffff1673ffffffffffffffffffffffffffffffffffffffff16815260200190815260200160002060009054906101000a900460ff1660ff1660ff16815260200190815260200160002060000160006101000a81548160ff021916908360ff1602179055506000806000600160008573ffffffffffffffffffffffffffffffffffffffff1673ffffffffffffffffffffffffffffffffffffffff16815260200190815260200160002060009054906101000a900460ff1660ff1660ff1681526020019081526020016000206001018190555060405180602001604052806000815250600080600160008573ffffffffffffffffffffffffffffffffffffffff1673ffffffffffffffffffffffffffffffffffffffff16815260200190815260200160002060009054906101000a900460ff1660ff1660ff168152602001908152602001600020600201908161078c9190612450565b506000806000600160008573ffffffffffffffffffffffffffffffffffffffff1673ffffffffffffffffffffffffffffffffffffffff16815260200190815260200160002060009054906101000a900460ff1660ff1660ff168152602001908152602001600020600301819055506000806000600160008573ffffffffffffffffffffffffffffffffffffffff1673ffffffffffffffffffffffffffffffffffffffff16815260200190815260200160002060009054906101000a900460ff1660ff1660ff16815260200190815260200160002060040160006101000a81548160ff021916908360ff1602179055506000806000600160008573ffffffffffffffffffffffffffffffffffffffff1673ffffffffffffffffffffffffffffffffffffffff16815260200190815260200160002060009054906101000a900460ff1660ff1660ff16815260200190815260200160002060040160016101000a81548173ffffffffffffffffffffffffffffffffffffffff021916908373ffffffffffffffffffffffffffffffffffffffff1602179055505b50565b600080600060608060606000806000600160008b73ffffffffffffffffffffffffffffffffffffffff1673ffffffffffffffffffffffffffffffffffffffff16815260200190815260200160002060009054906101000a900460ff1660ff1660ff16815260200190815260200160002060040160009054906101000a900460ff1660ff1667ffffffffffffffff8111156109c3576109c2611d48565b5b6040519080825280602002602001820160405280156109f15781602001602082028036833780820191505090505b5090506000806000600160008c73ffffffffffffffffffffffffffffffffffffffff1673ffffffffffffffffffffffffffffffffffffffff16815260200190815260200160002060009054906101000a900460ff1660ff1660ff16815260200190815260200160002060040160009054906101000a900460ff1660ff1667ffffffffffffffff811115610a8757610a86611d48565b5b604051908082528060200260200182016040528015610aba57816020015b6060815260200190600190039081610aa55790505b5090506000806000600160008d73ffffffffffffffffffffffffffffffffffffffff1673ffffffffffffffffffffffffffffffffffffffff16815260200190815260200160002060009054906101000a900460ff1660ff1660ff16815260200190815260200160002060040160009054906101000a900460ff1660ff1667ffffffffffffffff811115610b5057610b4f611d48565b5b604051908082528060200260200182016040528015610b8357816020015b6060815260200190600190039081610b6e5790505b50905060005b600080600160008e73ffffffffffffffffffffffffffffffffffffffff1673ffffffffffffffffffffffffffffffffffffffff16815260200190815260200160002060009054906101000a900460ff1660ff1660ff16815260200190815260200160002060040160009054906101000a900460ff1660ff168160ff161015610f6657600080600160008e73ffffffffffffffffffffffffffffffffffffffff1673ffffffffffffffffffffffffffffffffffffffff16815260200190815260200160002060009054906101000a900460ff1660ff1660ff16815260200190815260200160002060070160008260ff1660ff1681526020019081526020016000206000018054610c9790612273565b80601f0160208091040260200160405190810160405280929190818152602001828054610cc390612273565b8015610d105780601f10610ce557610100808354040283529160200191610d10565b820191906000526020600020905b815481529060010190602001808311610cf357829003601f168201915b5050505050838260ff1681518110610d2b57610d2a6125a3565b5b6020026020010181905250600080600160008e73ffffffffffffffffffffffffffffffffffffffff1673ffffffffffffffffffffffffffffffffffffffff16815260200190815260200160002060009054906101000a900460ff1660ff1660ff16815260200190815260200160002060070160008260ff1660ff1681526020019081526020016000206001018054610dc290612273565b80601f0160208091040260200160405190810160405280929190818152602001828054610dee90612273565b8015610e3b5780601f10610e1057610100808354040283529160200191610e3b565b820191906000526020600020905b815481529060010190602001808311610e1e57829003601f168201915b5050505050828260ff1681518110610e5657610e556125a3565b5b6020026020010181905250600080600160008e73ffffffffffffffffffffffffffffffffffffffff1673ffffffffffffffffffffffffffffffffffffffff16815260200190815260200160002060009054906101000a900460ff1660ff1660ff16815260200190815260200160002060070160008260ff1660ff16815260200190815260200160002060020160009054906101000a900473ffffffffffffffffffffffffffffffffffffffff16848260ff1681518110610f1957610f186125a3565b5b602002602001019073ffffffffffffffffffffffffffffffffffffffff16908173ffffffffffffffffffffffffffffffffffffffff16815250508080610f5e90612551565b915050610b89565b50600160008b73ffffffffffffffffffffffffffffffffffffffff1673ffffffffffffffffffffffffffffffffffffffff16815260200190815260200160002060009054906101000a900460ff16600080600160008e73ffffffffffffffffffffffffffffffffffffffff1673ffffffffffffffffffffffffffffffffffffffff16815260200190815260200160002060009054906101000a900460ff1660ff1660ff16815260200190815260200160002060040160019054906101000a900473ffffffffffffffffffffffffffffffffffffffff16600080600160008f73ffffffffffffffffffffffffffffffffffffffff1673ffffffffffffffffffffffffffffffffffffffff16815260200190815260200160002060009054906101000a900460ff1660ff1660ff1681526020019081526020016000206003015485858598509850985098509850985050505091939550919395565b82825160008111611105576040517f08c379a00000000000000000000000000000000000000000000000000000000081526004016110fc9061261e565b60405180910390fd5b60005b8181101561129057600060016000858481518110611129576111286125a3565b5b602002602001015173ffffffffffffffffffffffffffffffffffffffff1673ffffffffffffffffffffffffffffffffffffffff16815260200190815260200160002060009054906101000a900460ff1660ff16146111bc576040517f08c379a00000000000000000000000000000000000000000000000000000000081526004016111b3906126b0565b60405180910390fd5b60005b8181101561127c578381815181106111da576111d96125a3565b5b602002602001015173ffffffffffffffffffffffffffffffffffffffff1684838151811061120b5761120a6125a3565b5b602002602001015173ffffffffffffffffffffffffffffffffffffffff1603611269576040517f08c379a000000000000000000000000000000000000000000000000000000000815260040161126090612742565b60405180910390fd5b808061127490612762565b9150506111bf565b50808061128890612762565b915050611108565b508560008151036112d6576040517f08c379a00000000000000000000000000000000000000000000000000000000081526004016112cd906127f6565b60405180910390fd5b8484805182511480156112eb57506000825114155b61132a576040517f08c379a000000000000000000000000000000000000000000000000000000000815260040161132190612888565b60405180910390fd5b60005b82518110156113d057600083828151811061134b5761134a6125a3565b5b6020026020010151511415801561137e57506000828281518110611372576113716125a3565b5b60200260200101515114155b6113bd576040517f08c379a00000000000000000000000000000000000000000000000000000000081526004016113b490612888565b60405180910390fd5b80806113c890612762565b91505061132d565b506000806000600a600260009054906101000a900460ff166113f291906128a8565b60ff1660ff1681526020019081526020016000209050600a600260009054906101000a900460ff1661142491906128a8565b8160000160006101000a81548160ff021916908360ff1602179055504281600101819055508981600201908161145a9190612450565b5034816003018190555088600081518110611478576114776125a3565b5b60200260200101518160040160016101000a81548173ffffffffffffffffffffffffffffffffffffffff021916908373ffffffffffffffffffffffffffffffffffffffff160217905550876000815181106114d6576114d56125a3565b5b60200260200101518160050190816114ee9190612450565b5086600081518110611503576115026125a3565b5b602002602001015181600601908161151b9190612450565b5060005b89518160ff1610156117435760008260070160008360ff1660ff1681526020019081526020016000209050898260ff16815181106115605761155f6125a3565b5b60200260200101518160000190816115789190612450565b50888260ff168151811061158f5761158e6125a3565b5b60200260200101518160010190816115a79190612450565b508a8260ff16815181106115be576115bd6125a3565b5b60200260200101518160020160006101000a81548173ffffffffffffffffffffffffffffffffffffffff021916908373ffffffffffffffffffffffffffffffffffffffff160217905550600a600260009054906101000a900460ff1661162491906128a8565b8160020160146101000a81548160ff021916908360ff1602179055506000816003018190555060058160040160006101000a81548160ff021916908360ff16021790555082600401600081819054906101000a900460ff168092919061168990612551565b91906101000a81548160ff021916908360ff160217905550508060020160149054906101000a900460ff16600160008360020160009054906101000a900473ffffffffffffffffffffffffffffffffffffffff1673ffffffffffffffffffffffffffffffffffffffff1673ffffffffffffffffffffffffffffffffffffffff16815260200190815260200160002060006101000a81548160ff021916908360ff16021790555050808061173b90612551565b91505061151f565b506002600081819054906101000a900460ff168092919061176390612551565b91906101000a81548160ff021916908360ff1602179055505050505050505050505050565b60006020528060005260406000206000915090508060000160009054906101000a900460ff16908060010154908060020180546117c490612273565b80601f01602080910402602001604051908101604052809291908181526020018280546117f090612273565b801561183d5780601f106118125761010080835404028352916020019161183d565b820191906000526020600020905b81548152906001019060200180831161182057829003601f168201915b5050505050908060030154908060040160009054906101000a900460ff16908060040160019054906101000a900473ffffffffffffffffffffffffffffffffffffffff169080600501805461189190612273565b80601f01602080910402602001604051908101604052809291908181526020018280546118bd90612273565b801561190a5780601f106118df5761010080835404028352916020019161190a565b820191906000526020600020905b8154815290600101906020018083116118ed57829003601f168201915b50505050509080600601805461191f90612273565b80601f016020809104026020016040519081016040528092919081815260200182805461194b90612273565b80156119985780601f1061196d57610100808354040283529160200191611998565b820191906000526020600020905b81548152906001019060200180831161197b57829003601f168201915b5050505050905088565b600260009054906101000a900460ff1681565b60016020528060005260406000206000915054906101000a900460ff1681565b6000604051905090565b600080fd5b600080fd5b600073ffffffffffffffffffffffffffffffffffffffff82169050919050565b6000611a14826119e9565b9050919050565b611a2481611a09565b8114611a2f57600080fd5b50565b600081359050611a4181611a1b565b92915050565b600060208284031215611a5d57611a5c6119df565b5b6000611a6b84828501611a32565b91505092915050565b600060ff82169050919050565b611a8a81611a74565b82525050565b611a9981611a09565b82525050565b6000819050919050565b611ab281611a9f565b82525050565b600081519050919050565b600082825260208201905092915050565b6000819050602082019050919050565b611aed81611a09565b82525050565b6000611aff8383611ae4565b60208301905092915050565b6000602082019050919050565b6000611b2382611ab8565b611b2d8185611ac3565b9350611b3883611ad4565b8060005b83811015611b69578151611b508882611af3565b9750611b5b83611b0b565b925050600181019050611b3c565b5085935050505092915050565b600081519050919050565b600082825260208201905092915050565b6000819050602082019050919050565b600081519050919050565b600082825260208201905092915050565b60005b83811015611bdc578082015181840152602081019050611bc1565b60008484015250505050565b6000601f19601f8301169050919050565b6000611c0482611ba2565b611c0e8185611bad565b9350611c1e818560208601611bbe565b611c2781611be8565b840191505092915050565b6000611c3e8383611bf9565b905092915050565b6000602082019050919050565b6000611c5e82611b76565b611c688185611b81565b935083602082028501611c7a85611b92565b8060005b85811015611cb65784840389528151611c978582611c32565b9450611ca283611c46565b925060208a01995050600181019050611c7e565b50829750879550505050505092915050565b600060c082019050611cdd6000830189611a81565b611cea6020830188611a90565b611cf76040830187611aa9565b8181036060830152611d098186611b18565b90508181036080830152611d1d8185611c53565b905081810360a0830152611d318184611c53565b9050979650505050505050565b600080fd5b600080fd5b7f4e487b7100000000000000000000000000000000000000000000000000000000600052604160045260246000fd5b611d8082611be8565b810181811067ffffffffffffffff82111715611d9f57611d9e611d48565b5b80604052505050565b6000611db26119d5565b9050611dbe8282611d77565b919050565b600067ffffffffffffffff821115611dde57611ddd611d48565b5b611de782611be8565b9050602081019050919050565b82818337600083830152505050565b6000611e16611e1184611dc3565b611da8565b905082815260208101848484011115611e3257611e31611d43565b5b611e3d848285611df4565b509392505050565b600082601f830112611e5a57611e59611d3e565b5b8135611e6a848260208601611e03565b91505092915050565b600067ffffffffffffffff821115611e8e57611e8d611d48565b5b602082029050602081019050919050565b600080fd5b6000611eb7611eb284611e73565b611da8565b90508083825260208201905060208402830185811115611eda57611ed9611e9f565b5b835b81811015611f035780611eef8882611a32565b845260208401935050602081019050611edc565b5050509392505050565b600082601f830112611f2257611f21611d3e565b5b8135611f32848260208601611ea4565b91505092915050565b600067ffffffffffffffff821115611f5657611f55611d48565b5b602082029050602081019050919050565b6000611f7a611f7584611f3b565b611da8565b90508083825260208201905060208402830185811115611f9d57611f9c611e9f565b5b835b81811015611fe457803567ffffffffffffffff811115611fc257611fc1611d3e565b5b808601611fcf8982611e45565b85526020850194505050602081019050611f9f565b5050509392505050565b600082601f83011261200357612002611d3e565b5b8135612013848260208601611f67565b91505092915050565b60008060008060808587031215612036576120356119df565b5b600085013567ffffffffffffffff811115612054576120536119e4565b5b61206087828801611e45565b945050602085013567ffffffffffffffff811115612081576120806119e4565b5b61208d87828801611f0d565b935050604085013567ffffffffffffffff8111156120ae576120ad6119e4565b5b6120ba87828801611fee565b925050606085013567ffffffffffffffff8111156120db576120da6119e4565b5b6120e787828801611fee565b91505092959194509250565b6120fc81611a74565b811461210757600080fd5b50565b600081359050612119816120f3565b92915050565b600060208284031215612135576121346119df565b5b60006121438482850161210a565b91505092915050565b600082825260208201905092915050565b600061216882611ba2565b612172818561214c565b9350612182818560208601611bbe565b61218b81611be8565b840191505092915050565b6000610100820190506121ac600083018b611a81565b6121b9602083018a611aa9565b81810360408301526121cb818961215d565b90506121da6060830188611aa9565b6121e76080830187611a81565b6121f460a0830186611a90565b81810360c0830152612206818561215d565b905081810360e083015261221a818461215d565b90509998505050505050505050565b600060208201905061223e6000830184611a81565b92915050565b7f4e487b7100000000000000000000000000000000000000000000000000000000600052602260045260246000fd5b6000600282049050600182168061228b57607f821691505b60208210810361229e5761229d612244565b5b50919050565b60008190508160005260206000209050919050565b60006020601f8301049050919050565b600082821b905092915050565b6000600883026123067fffffffffffffffffffffffffffffffffffffffffffffffffffffffffffffffff826122c9565b61231086836122c9565b95508019841693508086168417925050509392505050565b6000819050919050565b600061234d61234861234384611a9f565b612328565b611a9f565b9050919050565b6000819050919050565b61236783612332565b61237b61237382612354565b8484546122d6565b825550505050565b600090565b612390612383565b61239b81848461235e565b505050565b5b818110156123bf576123b4600082612388565b6001810190506123a1565b5050565b601f821115612404576123d5816122a4565b6123de846122b9565b810160208510156123ed578190505b6124016123f9856122b9565b8301826123a0565b50505b505050565b600082821c905092915050565b600061242760001984600802612409565b1980831691505092915050565b60006124408383612416565b9150826002028217905092915050565b61245982611ba2565b67ffffffffffffffff81111561247257612471611d48565b5b61247c8254612273565b6124878282856123c3565b600060209050601f8311600181146124ba57600084156124a8578287015190505b6124b28582612434565b86555061251a565b601f1984166124c8866122a4565b60005b828110156124f0578489015182556001820191506020850194506020810190506124cb565b8683101561250d5784890151612509601f891682612416565b8355505b6001600288020188555050505b505050505050565b7f4e487b7100000000000000000000000000000000000000000000000000000000600052601160045260246000fd5b600061255c82611a74565b915060ff820361256f5761256e612522565b5b600182019050919050565b600061258582611a74565b91506000820361259857612597612522565b5b600182039050919050565b7f4e487b7100000000000000000000000000000000000000000000000000000000600052603260045260246000fd5b7f412077616c6c6574206e65656473206174206c65617374206f6e652075736572600082015250565b600061260860208361214c565b9150612613826125d2565b602082019050919050565b60006020820190508181036000830152612637816125fb565b9050919050565b7f4f6e65206f72206d6f7265207573657273206861766520616c7265616479206a60008201527f6f696e656420616e6f746865722077616c6c6574000000000000000000000000602082015250565b600061269a60348361214c565b91506126a58261263e565b604082019050919050565b600060208201905081810360008301526126c98161268d565b9050919050565b7f5468652077616c6c65742063616e206e6f742068617665206475706c6963617460008201527f6520616464726573736573000000000000000000000000000000000000000000602082015250565b600061272c602b8361214c565b9150612737826126d0565b604082019050919050565b6000602082019050818103600083015261275b8161271f565b9050919050565b600061276d82611a9f565b91507fffffffffffffffffffffffffffffffffffffffffffffffffffffffffffffffff820361279f5761279e612522565b5b600182019050919050565b7f5468652077616c6c6574206e656564732061206e616d65000000000000000000600082015250565b60006127e060178361214c565b91506127eb826127aa565b602082019050919050565b6000602082019050818103600083015261280f816127d3565b9050919050565b7f546865207573657273206e65656420746f206861766520626f7468206669727360008201527f7420616e64206c617374206e616d657300000000000000000000000000000000602082015250565b600061287260308361214c565b915061287d82612816565b604082019050919050565b600060208201905081810360008301526128a181612865565b9050919050565b60006128b382611a74565b91506128be83611a74565b9250828201905060ff8111156128d7576128d6612522565b5b9291505056fea2646970667358221220c44d7fb21f27a0fbf0c02ead0caec8d98614dc407f0c0c8e2fd4893aa7e7597e64736f6c63430008110033",
  "linkReferences": {},
  "deployedLinkReferences": {}
}