{
  "_format": "hh-sol-artifact-1",
  "contractName": "TheVault",
  "sourceName": "contracts/TheVault.sol",
  "abi": [
    {
      "inputs": [
        {
          "internalType": "string",
          "name": "walletName",
          "type": "string"
        }
      ],
      "name": "getWalletBalance",
      "outputs": [
        {
          "internalType": "uint256",
          "name": "",
          "type": "uint256"
        }
      ],
      "stateMutability": "view",
      "type": "function"
    },
    {
      "inputs": [
        {
          "internalType": "string",
          "name": "walletName",
          "type": "string"
        }
      ],
      "name": "getWalletId",
      "outputs": [
        {
          "internalType": "uint8",
          "name": "",
          "type": "uint8"
        }
      ],
      "stateMutability": "view",
      "type": "function"
    },
    {
      "inputs": [
        {
          "internalType": "string",
          "name": "walletName",
          "type": "string"
        }
      ],
      "name": "initializeWallet",
      "outputs": [],
      "stateMutability": "payable",
      "type": "function"
    },
    {
      "inputs": [
        {
          "internalType": "string",
          "name": "",
          "type": "string"
        }
      ],
      "name": "wallet",
      "outputs": [
        {
          "internalType": "uint8",
          "name": "id",
          "type": "uint8"
        },
        {
          "internalType": "uint256",
          "name": "creationDate",
          "type": "uint256"
        },
        {
          "internalType": "string",
          "name": "name",
          "type": "string"
        },
        {
          "internalType": "uint256",
          "name": "balance",
          "type": "uint256"
        }
      ],
      "stateMutability": "view",
      "type": "function"
    },
    {
      "inputs": [],
      "name": "walletCounter",
      "outputs": [
        {
          "internalType": "uint8",
          "name": "",
          "type": "uint8"
        }
      ],
      "stateMutability": "view",
      "type": "function"
    }
  ],
  "bytecode": "0x608060405234801561001057600080fd5b506109d3806100206000396000f3fe60806040526004361061004a5760003560e01c8063263c82e11461004f5780633de80f4d1461008c5780639dafb391146100a8578063af0be257146100e5578063f64d706014610125575b600080fd5b34801561005b57600080fd5b5061007660048036038101906100719190610495565b610150565b60405161008391906104f7565b60405180910390f35b6100a660048036038101906100a19190610495565b61017a565b005b3480156100b457600080fd5b506100cf60048036038101906100ca9190610495565b610216565b6040516100dc919061052e565b60405180910390f35b3480156100f157600080fd5b5061010c60048036038101906101079190610495565b61024d565b60405161011c94939291906105c8565b60405180910390f35b34801561013157600080fd5b5061013a610328565b604051610147919061052e565b60405180910390f35b600080826040516101619190610650565b9081526020016040518091039020600301549050919050565b6000808260405161018b9190610650565b908152602001604051809103902090506001600081819054906101000a900460ff16809291906101ba90610696565b91906101000a81548160ff021916908360ff1602179055508160000160006101000a81548160ff021916908360ff1602179055504281600101819055508181600201908161020891906108cb565b503481600301819055505050565b600080826040516102279190610650565b908152602001604051809103902060000160009054906101000a900460ff169050919050565b6000818051602081018201805184825260208301602085012081835280955050505050506000915090508060000160009054906101000a900460ff169080600101549080600201805461029f906106ee565b80601f01602080910402602001604051908101604052809291908181526020018280546102cb906106ee565b80156103185780601f106102ed57610100808354040283529160200191610318565b820191906000526020600020905b8154815290600101906020018083116102fb57829003601f168201915b5050505050908060030154905084565b600160009054906101000a900460ff1681565b6000604051905090565b600080fd5b600080fd5b600080fd5b600080fd5b6000601f19601f8301169050919050565b7f4e487b7100000000000000000000000000000000000000000000000000000000600052604160045260246000fd5b6103a282610359565b810181811067ffffffffffffffff821117156103c1576103c061036a565b5b80604052505050565b60006103d461033b565b90506103e08282610399565b919050565b600067ffffffffffffffff821115610400576103ff61036a565b5b61040982610359565b9050602081019050919050565b82818337600083830152505050565b6000610438610433846103e5565b6103ca565b90508281526020810184848401111561045457610453610354565b5b61045f848285610416565b509392505050565b600082601f83011261047c5761047b61034f565b5b813561048c848260208601610425565b91505092915050565b6000602082840312156104ab576104aa610345565b5b600082013567ffffffffffffffff8111156104c9576104c861034a565b5b6104d584828501610467565b91505092915050565b6000819050919050565b6104f1816104de565b82525050565b600060208201905061050c60008301846104e8565b92915050565b600060ff82169050919050565b61052881610512565b82525050565b6000602082019050610543600083018461051f565b92915050565b600081519050919050565b600082825260208201905092915050565b60005b83811015610583578082015181840152602081019050610568565b60008484015250505050565b600061059a82610549565b6105a48185610554565b93506105b4818560208601610565565b6105bd81610359565b840191505092915050565b60006080820190506105dd600083018761051f565b6105ea60208301866104e8565b81810360408301526105fc818561058f565b905061060b60608301846104e8565b95945050505050565b600081905092915050565b600061062a82610549565b6106348185610614565b9350610644818560208601610565565b80840191505092915050565b600061065c828461061f565b915081905092915050565b7f4e487b7100000000000000000000000000000000000000000000000000000000600052601160045260246000fd5b60006106a182610512565b915060ff82036106b4576106b3610667565b5b600182019050919050565b7f4e487b7100000000000000000000000000000000000000000000000000000000600052602260045260246000fd5b6000600282049050600182168061070657607f821691505b602082108103610719576107186106bf565b5b50919050565b60008190508160005260206000209050919050565b60006020601f8301049050919050565b600082821b905092915050565b6000600883026107817fffffffffffffffffffffffffffffffffffffffffffffffffffffffffffffffff82610744565b61078b8683610744565b95508019841693508086168417925050509392505050565b6000819050919050565b60006107c86107c36107be846104de565b6107a3565b6104de565b9050919050565b6000819050919050565b6107e2836107ad565b6107f66107ee826107cf565b848454610751565b825550505050565b600090565b61080b6107fe565b6108168184846107d9565b505050565b5b8181101561083a5761082f600082610803565b60018101905061081c565b5050565b601f82111561087f576108508161071f565b61085984610734565b81016020851015610868578190505b61087c61087485610734565b83018261081b565b50505b505050565b600082821c905092915050565b60006108a260001984600802610884565b1980831691505092915050565b60006108bb8383610891565b9150826002028217905092915050565b6108d482610549565b67ffffffffffffffff8111156108ed576108ec61036a565b5b6108f782546106ee565b61090282828561083e565b600060209050601f8311600181146109355760008415610923578287015190505b61092d85826108af565b865550610995565b601f1984166109438661071f565b60005b8281101561096b57848901518255600182019150602085019450602081019050610946565b868310156109885784890151610984601f891682610891565b8355505b6001600288020188555050505b50505050505056fea264697066735822122010b6e9386c486570365ff6fe37fef63519c032641b40b1ee75c8650d8b2afb3b64736f6c63430008110033",
  "linkReferences": {},
  "deployedLinkReferences": {}
}