{
  "_format": "hh-sol-artifact-1",
  "contractName": "TheVault",
  "sourceName": "contracts/TheVault.sol",
  "abi": [
    {
      "inputs": [
        {
          "internalType": "address",
          "name": "memberAddress",
          "type": "address"
        }
      ],
      "name": "getWalletBalance",
      "outputs": [
        {
          "internalType": "uint256",
          "name": "",
          "type": "uint256"
        }
      ],
      "stateMutability": "view",
      "type": "function"
    },
    {
      "inputs": [
        {
          "internalType": "address",
          "name": "memberAddress",
          "type": "address"
        }
      ],
      "name": "getWalletId",
      "outputs": [
        {
          "internalType": "uint8",
          "name": "",
          "type": "uint8"
        }
      ],
      "stateMutability": "view",
      "type": "function"
    },
    {
      "inputs": [
        {
          "internalType": "address",
          "name": "memberAddress",
          "type": "address"
        }
      ],
      "name": "getWalletMembersAddresses",
      "outputs": [
        {
          "internalType": "address[]",
          "name": "",
          "type": "address[]"
        }
      ],
      "stateMutability": "view",
      "type": "function"
    },
    {
      "inputs": [
        {
          "internalType": "address",
          "name": "memberAddress",
          "type": "address"
        }
      ],
      "name": "getWalletMembersBalances",
      "outputs": [
        {
          "internalType": "uint256[]",
          "name": "",
          "type": "uint256[]"
        }
      ],
      "stateMutability": "view",
      "type": "function"
    },
    {
      "inputs": [
        {
          "internalType": "address",
          "name": "memberAddress",
          "type": "address"
        }
      ],
      "name": "getWalletMembersFirstNames",
      "outputs": [
        {
          "internalType": "string[]",
          "name": "",
          "type": "string[]"
        }
      ],
      "stateMutability": "view",
      "type": "function"
    },
    {
      "inputs": [
        {
          "internalType": "address",
          "name": "memberAddress",
          "type": "address"
        }
      ],
      "name": "getWalletMembersLastNames",
      "outputs": [
        {
          "internalType": "string[]",
          "name": "",
          "type": "string[]"
        }
      ],
      "stateMutability": "view",
      "type": "function"
    },
    {
      "inputs": [
        {
          "internalType": "address",
          "name": "memberAddress",
          "type": "address"
        }
      ],
      "name": "getWalletName",
      "outputs": [
        {
          "internalType": "string",
          "name": "",
          "type": "string"
        }
      ],
      "stateMutability": "view",
      "type": "function"
    },
    {
      "inputs": [
        {
          "internalType": "address",
          "name": "memberAddress",
          "type": "address"
        }
      ],
      "name": "getWalletOwner",
      "outputs": [
        {
          "internalType": "address",
          "name": "",
          "type": "address"
        }
      ],
      "stateMutability": "view",
      "type": "function"
    },
    {
      "inputs": [
        {
          "internalType": "address",
          "name": "memberAddress",
          "type": "address"
        }
      ],
      "name": "getWalletPublicFunds",
      "outputs": [
        {
          "internalType": "uint256",
          "name": "",
          "type": "uint256"
        }
      ],
      "stateMutability": "view",
      "type": "function"
    },
    {
      "inputs": [
        {
          "internalType": "address",
          "name": "memberAddress",
          "type": "address"
        }
      ],
      "name": "getWalletTransactions",
      "outputs": [
        {
          "components": [
            {
              "internalType": "uint256",
              "name": "date",
              "type": "uint256"
            },
            {
              "internalType": "uint256",
              "name": "value",
              "type": "uint256"
            },
            {
              "internalType": "address",
              "name": "senderAddress",
              "type": "address"
            },
            {
              "internalType": "address",
              "name": "recipientAddress",
              "type": "address"
            },
            {
              "internalType": "string",
              "name": "txType",
              "type": "string"
            }
          ],
          "internalType": "struct TheVault.Transaction[]",
          "name": "",
          "type": "tuple[]"
        }
      ],
      "stateMutability": "view",
      "type": "function"
    },
    {
      "inputs": [
        {
          "internalType": "string",
          "name": "walletName",
          "type": "string"
        },
        {
          "internalType": "address[]",
          "name": "membersAddresses",
          "type": "address[]"
        },
        {
          "internalType": "string[]",
          "name": "membersFirstNames",
          "type": "string[]"
        },
        {
          "internalType": "string[]",
          "name": "membersLastNames",
          "type": "string[]"
        }
      ],
      "name": "initializeWallet",
      "outputs": [],
      "stateMutability": "payable",
      "type": "function"
    },
    {
      "inputs": [
        {
          "internalType": "address",
          "name": "memberAddress",
          "type": "address"
        }
      ],
      "name": "leaveWallet",
      "outputs": [],
      "stateMutability": "nonpayable",
      "type": "function"
    },
    {
      "inputs": [
        {
          "internalType": "address",
          "name": "recipientAddress",
          "type": "address"
        }
      ],
      "name": "sendFundsToMember",
      "outputs": [],
      "stateMutability": "payable",
      "type": "function"
    },
    {
      "inputs": [],
      "name": "sendFundsToWallet",
      "outputs": [],
      "stateMutability": "payable",
      "type": "function"
    },
    {
      "inputs": [
        {
          "internalType": "uint8",
          "name": "",
          "type": "uint8"
        }
      ],
      "name": "wallet",
      "outputs": [
        {
          "internalType": "uint8",
          "name": "id",
          "type": "uint8"
        },
        {
          "internalType": "uint256",
          "name": "creationDate",
          "type": "uint256"
        },
        {
          "internalType": "string",
          "name": "name",
          "type": "string"
        },
        {
          "internalType": "uint256",
          "name": "balance",
          "type": "uint256"
        },
        {
          "internalType": "uint256",
          "name": "publicFunds",
          "type": "uint256"
        },
        {
          "internalType": "uint8",
          "name": "memberCounter",
          "type": "uint8"
        },
        {
          "internalType": "address",
          "name": "ownerAddress",
          "type": "address"
        },
        {
          "internalType": "string",
          "name": "ownerFirstName",
          "type": "string"
        },
        {
          "internalType": "string",
          "name": "ownerLastName",
          "type": "string"
        }
      ],
      "stateMutability": "view",
      "type": "function"
    },
    {
      "inputs": [],
      "name": "walletCounter",
      "outputs": [
        {
          "internalType": "uint8",
          "name": "",
          "type": "uint8"
        }
      ],
      "stateMutability": "view",
      "type": "function"
    },
    {
      "inputs": [
        {
          "internalType": "address",
          "name": "",
          "type": "address"
        }
      ],
      "name": "walletMemberId",
      "outputs": [
        {
          "internalType": "uint8",
          "name": "",
          "type": "uint8"
        }
      ],
      "stateMutability": "view",
      "type": "function"
    },
    {
      "inputs": [
        {
          "internalType": "uint256",
          "name": "amount",
          "type": "uint256"
        }
      ],
      "name": "withdrawFundsFromWallet",
      "outputs": [],
      "stateMutability": "nonpayable",
      "type": "function"
    },
    {
      "inputs": [
        {
          "internalType": "uint256",
          "name": "amount",
          "type": "uint256"
        }
      ],
      "name": "withdrawMemberFunds",
      "outputs": [],
      "stateMutability": "nonpayable",
      "type": "function"
    }
  ],
  "bytecode": "0x608060405234801561001057600080fd5b50614fe7806100206000396000f3fe6080604052600436106101145760003560e01c8063966708a5116100a0578063babf53af11610064578063babf53af146103df578063e428c2891461041c578063ed8ec19414610461578063f64d70601461049e578063fa59d636146104c957610114565b8063966708a5146102cf5780639c36c46a1461030c578063a6fd415814610349578063a967028a14610365578063b6206b44146103a257610114565b8063265c4214116100e7578063265c4214146101da5780633b661002146102035780635623aee61461022c5780635a8ff9691461026957806388785882146102a657610114565b8063026e6623146101195780630afa1f0b14610156578063117d94f514610193578063145045e61461019d575b600080fd5b34801561012557600080fd5b50610140600480360381019061013b9190613a5f565b6104e5565b60405161014d9190613aa5565b60405180910390f35b34801561016257600080fd5b5061017d60048036038101906101789190613a5f565b610556565b60405161018a9190613b7e565b60405180910390f35b61019b610762565b005b3480156101a957600080fd5b506101c460048036038101906101bf9190613a5f565b6109ff565b6040516101d19190613d77565b60405180910390f35b3480156101e657600080fd5b5061020160048036038101906101fc9190613a5f565b610cdd565b005b34801561020f57600080fd5b5061022a60048036038101906102259190613dc5565b611532565b005b34801561023857600080fd5b50610253600480360381019061024e9190613a5f565b611935565b6040516102609190613e0e565b60405180910390f35b34801561027557600080fd5b50610290600480360381019061028b9190613a5f565b611955565b60405161029d9190613e0e565b60405180910390f35b3480156102b257600080fd5b506102cd60048036038101906102c89190613dc5565b6119ab565b005b3480156102db57600080fd5b506102f660048036038101906102f19190613a5f565b612228565b6040516103039190613e38565b60405180910390f35b34801561031857600080fd5b50610333600480360381019061032e9190613a5f565b6122b9565b6040516103409190613f02565b60405180910390f35b610363600480360381019061035e9190614202565b612513565b005b34801561037157600080fd5b5061038c60048036038101906103879190613a5f565b612c21565b6040516103999190614323565b60405180910390f35b3480156103ae57600080fd5b506103c960048036038101906103c49190613a5f565b612d1a565b6040516103d69190614407565b60405180910390f35b3480156103eb57600080fd5b5061040660048036038101906104019190613a5f565b612fb2565b6040516104139190614407565b60405180910390f35b34801561042857600080fd5b50610443600480360381019061043e9190614455565b61324a565b60405161045899989796959493929190614482565b60405180910390f35b34801561046d57600080fd5b5061048860048036038101906104839190613a5f565b61346a565b6040516104959190613aa5565b60405180910390f35b3480156104aa57600080fd5b506104b36134db565b6040516104c09190613e0e565b60405180910390f35b6104e360048036038101906104de9190613a5f565b6134ee565b005b6000806000600160008573ffffffffffffffffffffffffffffffffffffffff1673ffffffffffffffffffffffffffffffffffffffff16815260200190815260200160002060009054906101000a900460ff1660ff1660ff168152602001908152602001600020600401549050919050565b60606000806000600160008673ffffffffffffffffffffffffffffffffffffffff1673ffffffffffffffffffffffffffffffffffffffff16815260200190815260200160002060009054906101000a900460ff1660ff1660ff16815260200190815260200160002060050160009054906101000a900460ff1660ff1667ffffffffffffffff8111156105eb576105ea613f2e565b5b6040519080825280602002602001820160405280156106195781602001602082028036833780820191505090505b50905060005b600080600160008773ffffffffffffffffffffffffffffffffffffffff1673ffffffffffffffffffffffffffffffffffffffff16815260200190815260200160002060009054906101000a900460ff1660ff1660ff16815260200190815260200160002060050160009054906101000a900460ff1660ff168160ff16101561075857600080600160008773ffffffffffffffffffffffffffffffffffffffff1673ffffffffffffffffffffffffffffffffffffffff16815260200190815260200160002060009054906101000a900460ff1660ff1660ff16815260200190815260200160002060080160008260ff1660ff16815260200190815260200160002060030154828260ff168151811061073957610738614524565b5b602002602001018181525050808061075090614582565b91505061061f565b5080915050919050565b34600081116107a6576040517f08c379a000000000000000000000000000000000000000000000000000000000815260040161079d9061461d565b60405180910390fd5b34600080600160003373ffffffffffffffffffffffffffffffffffffffff1673ffffffffffffffffffffffffffffffffffffffff16815260200190815260200160002060009054906101000a900460ff1660ff1660ff168152602001908152602001600020600401600082825461081d919061463d565b9250508190555060006040518060a001604052804281526020013481526020013373ffffffffffffffffffffffffffffffffffffffff1681526020013073ffffffffffffffffffffffffffffffffffffffff1681526020016040518060400160405280601081526020017f73656e6455736572546f57616c6c6574000000000000000000000000000000008152508152509050600080600160003373ffffffffffffffffffffffffffffffffffffffff1673ffffffffffffffffffffffffffffffffffffffff16815260200190815260200160002060009054906101000a900460ff1660ff1660ff168152602001908152602001600020600901819080600181540180825580915050600190039060005260206000209060050201600090919091909150600082015181600001556020820151816001015560408201518160020160006101000a81548173ffffffffffffffffffffffffffffffffffffffff021916908373ffffffffffffffffffffffffffffffffffffffff16021790555060608201518160030160006101000a81548173ffffffffffffffffffffffffffffffffffffffff021916908373ffffffffffffffffffffffffffffffffffffffff16021790555060808201518160040190816109f8919061487d565b5050505050565b60606000806000600160008673ffffffffffffffffffffffffffffffffffffffff1673ffffffffffffffffffffffffffffffffffffffff16815260200190815260200160002060009054906101000a900460ff1660ff1660ff1681526020019081526020016000206009018054905067ffffffffffffffff811115610a8757610a86613f2e565b5b604051908082528060200260200182016040528015610ac057816020015b610aad613992565b815260200190600190039081610aa55790505b509050600080600160008673ffffffffffffffffffffffffffffffffffffffff1673ffffffffffffffffffffffffffffffffffffffff16815260200190815260200160002060009054906101000a900460ff1660ff1660ff168152602001908152602001600020600901805480602002602001604051908101604052809291908181526020016000905b82821015610cce57838290600052602060002090600502016040518060a001604052908160008201548152602001600182015481526020016002820160009054906101000a900473ffffffffffffffffffffffffffffffffffffffff1673ffffffffffffffffffffffffffffffffffffffff1673ffffffffffffffffffffffffffffffffffffffff1681526020016003820160009054906101000a900473ffffffffffffffffffffffffffffffffffffffff1673ffffffffffffffffffffffffffffffffffffffff1673ffffffffffffffffffffffffffffffffffffffff168152602001600482018054610c3d906146a0565b80601f0160208091040260200160405190810160405280929190818152602001828054610c69906146a0565b8015610cb65780601f10610c8b57610100808354040283529160200191610cb6565b820191906000526020600020905b815481529060010190602001808311610c9957829003601f168201915b50505050508152505081526020019060010190610b4a565b50505050905080915050919050565b806000806000600160008573ffffffffffffffffffffffffffffffffffffffff1673ffffffffffffffffffffffffffffffffffffffff16815260200190815260200160002060009054906101000a900460ff1660ff1660ff16815260200190815260200160002060050160009054906101000a900460ff1660ff1611610d98576040517f08c379a0000000000000000000000000000000000000000000000000000000008152600401610d8f906149c1565b60405180910390fd5b60005b600080600160008673ffffffffffffffffffffffffffffffffffffffff1673ffffffffffffffffffffffffffffffffffffffff16815260200190815260200160002060009054906101000a900460ff1660ff1660ff16815260200190815260200160002060050160009054906101000a900460ff1660ff168160ff1610156110b0578273ffffffffffffffffffffffffffffffffffffffff16600080600160008773ffffffffffffffffffffffffffffffffffffffff1673ffffffffffffffffffffffffffffffffffffffff16815260200190815260200160002060009054906101000a900460ff1660ff1660ff16815260200190815260200160002060080160008360ff1660ff16815260200190815260200160002060020160009054906101000a900473ffffffffffffffffffffffffffffffffffffffff1673ffffffffffffffffffffffffffffffffffffffff160361109d576040518060c00160405280604051806020016040528060008152508152602001604051806020016040528060008152508152602001600073ffffffffffffffffffffffffffffffffffffffff168152602001600060ff16815260200160008152602001600060ff16815250600080600160008773ffffffffffffffffffffffffffffffffffffffff1673ffffffffffffffffffffffffffffffffffffffff16815260200190815260200160002060009054906101000a900460ff1660ff1660ff16815260200190815260200160002060080160008360ff1660ff1681526020019081526020016000206000820151816000019081610fef919061487d565b506020820151816001019081611005919061487d565b5060408201518160020160006101000a81548173ffffffffffffffffffffffffffffffffffffffff021916908373ffffffffffffffffffffffffffffffffffffffff16021790555060608201518160020160146101000a81548160ff021916908360ff1602179055506080820151816003015560a08201518160040160006101000a81548160ff021916908360ff1602179055509050505b80806110a890614582565b915050610d9b565b50600080600160008573ffffffffffffffffffffffffffffffffffffffff1673ffffffffffffffffffffffffffffffffffffffff16815260200190815260200160002060009054906101000a900460ff1660ff1660ff168152602001908152602001600020600501600081819054906101000a900460ff1680929190611135906149e1565b91906101000a81548160ff021916908360ff160217905550506000600160008473ffffffffffffffffffffffffffffffffffffffff1673ffffffffffffffffffffffffffffffffffffffff16815260200190815260200160002060006101000a81548160ff021916908360ff1602179055506000806000600160008673ffffffffffffffffffffffffffffffffffffffff1673ffffffffffffffffffffffffffffffffffffffff16815260200190815260200160002060009054906101000a900460ff1660ff1660ff16815260200190815260200160002060050160009054906101000a900460ff1660ff160361152e576000806000600160008673ffffffffffffffffffffffffffffffffffffffff1673ffffffffffffffffffffffffffffffffffffffff16815260200190815260200160002060009054906101000a900460ff1660ff1660ff16815260200190815260200160002060000160006101000a81548160ff021916908360ff1602179055506000806000600160008673ffffffffffffffffffffffffffffffffffffffff1673ffffffffffffffffffffffffffffffffffffffff16815260200190815260200160002060009054906101000a900460ff1660ff1660ff1681526020019081526020016000206001018190555060405180602001604052806000815250600080600160008673ffffffffffffffffffffffffffffffffffffffff1673ffffffffffffffffffffffffffffffffffffffff16815260200190815260200160002060009054906101000a900460ff1660ff1660ff1681526020019081526020016000206002019081611397919061487d565b506000806000600160008673ffffffffffffffffffffffffffffffffffffffff1673ffffffffffffffffffffffffffffffffffffffff16815260200190815260200160002060009054906101000a900460ff1660ff1660ff168152602001908152602001600020600301819055506000806000600160008673ffffffffffffffffffffffffffffffffffffffff1673ffffffffffffffffffffffffffffffffffffffff16815260200190815260200160002060009054906101000a900460ff1660ff1660ff16815260200190815260200160002060050160006101000a81548160ff021916908360ff1602179055506000806000600160008673ffffffffffffffffffffffffffffffffffffffff1673ffffffffffffffffffffffffffffffffffffffff16815260200190815260200160002060009054906101000a900460ff1660ff1660ff16815260200190815260200160002060050160016101000a81548173ffffffffffffffffffffffffffffffffffffffff021916908373ffffffffffffffffffffffffffffffffffffffff1602179055505b5050565b8060008111611576576040517f08c379a000000000000000000000000000000000000000000000000000000000815260040161156d9061461d565b60405180910390fd5b81804710156115ba576040517f08c379a00000000000000000000000000000000000000000000000000000000081526004016115b190614a7c565b60405180910390fd5b8280600080600160003373ffffffffffffffffffffffffffffffffffffffff1673ffffffffffffffffffffffffffffffffffffffff16815260200190815260200160002060009054906101000a900460ff1660ff1660ff168152602001908152602001600020600401541015611665576040517f08c379a000000000000000000000000000000000000000000000000000000000815260040161165c90614b0e565b60405180910390fd5b60003373ffffffffffffffffffffffffffffffffffffffff168560405161168b90614b5f565b60006040518083038185875af1925050503d80600081146116c8576040519150601f19603f3d011682016040523d82523d6000602084013e6116cd565b606091505b50509050801561192e5784600080600160003373ffffffffffffffffffffffffffffffffffffffff1673ffffffffffffffffffffffffffffffffffffffff16815260200190815260200160002060009054906101000a900460ff1660ff1660ff168152602001908152602001600020600401600082825461174e9190614b74565b9250508190555060006040518060a001604052804281526020018781526020013073ffffffffffffffffffffffffffffffffffffffff1681526020013373ffffffffffffffffffffffffffffffffffffffff1681526020016040518060400160405280601481526020017f776974686472617757616c6c6574546f557365720000000000000000000000008152508152509050600080600160003373ffffffffffffffffffffffffffffffffffffffff1673ffffffffffffffffffffffffffffffffffffffff16815260200190815260200160002060009054906101000a900460ff1660ff1660ff168152602001908152602001600020600901819080600181540180825580915050600190039060005260206000209060050201600090919091909150600082015181600001556020820151816001015560408201518160020160006101000a81548173ffffffffffffffffffffffffffffffffffffffff021916908373ffffffffffffffffffffffffffffffffffffffff16021790555060608201518160030160006101000a81548173ffffffffffffffffffffffffffffffffffffffff021916908373ffffffffffffffffffffffffffffffffffffffff1602179055506080820151816004019081611929919061487d565b505050505b5050505050565b60016020528060005260406000206000915054906101000a900460ff1681565b6000600160008373ffffffffffffffffffffffffffffffffffffffff1673ffffffffffffffffffffffffffffffffffffffff16815260200190815260200160002060009054906101000a900460ff169050919050565b80600081116119ef576040517f08c379a00000000000000000000000000000000000000000000000000000000081526004016119e69061461d565b60405180910390fd5b8180471015611a33576040517f08c379a0000000000000000000000000000000000000000000000000000000008152600401611a2a90614a7c565b60405180910390fd5b8260005b600080600160003373ffffffffffffffffffffffffffffffffffffffff1673ffffffffffffffffffffffffffffffffffffffff16815260200190815260200160002060009054906101000a900460ff1660ff1660ff16815260200190815260200160002060050160009054906101000a900460ff1660ff168160ff161015611c6557600080600160003373ffffffffffffffffffffffffffffffffffffffff1673ffffffffffffffffffffffffffffffffffffffff16815260200190815260200160002060009054906101000a900460ff1660ff1660ff16815260200190815260200160002060080160008260ff1660ff16815260200190815260200160002060020160009054906101000a900473ffffffffffffffffffffffffffffffffffffffff1673ffffffffffffffffffffffffffffffffffffffff163373ffffffffffffffffffffffffffffffffffffffff1603611c525781600080600160003373ffffffffffffffffffffffffffffffffffffffff1673ffffffffffffffffffffffffffffffffffffffff16815260200190815260200160002060009054906101000a900460ff1660ff1660ff16815260200190815260200160002060080160008360ff1660ff168152602001908152602001600020600301541015611c51576040517f08c379a0000000000000000000000000000000000000000000000000000000008152600401611c4890614bf4565b60405180910390fd5b5b8080611c5d90614582565b915050611a37565b508380600080600160003373ffffffffffffffffffffffffffffffffffffffff1673ffffffffffffffffffffffffffffffffffffffff16815260200190815260200160002060009054906101000a900460ff1660ff1660ff168152602001908152602001600020600301541015611d11576040517f08c379a0000000000000000000000000000000000000000000000000000000008152600401611d0890614b0e565b60405180910390fd5b60003373ffffffffffffffffffffffffffffffffffffffff1686604051611d3790614b5f565b60006040518083038185875af1925050503d8060008114611d74576040519150601f19603f3d011682016040523d82523d6000602084013e611d79565b606091505b5050905080611dbd576040517f08c379a0000000000000000000000000000000000000000000000000000000008152600401611db490614c86565b60405180910390fd5b80156122205785600080600160003373ffffffffffffffffffffffffffffffffffffffff1673ffffffffffffffffffffffffffffffffffffffff16815260200190815260200160002060009054906101000a900460ff1660ff1660ff1681526020019081526020016000206003016000828254611e3a9190614b74565b9250508190555060005b600080600160003373ffffffffffffffffffffffffffffffffffffffff1673ffffffffffffffffffffffffffffffffffffffff16815260200190815260200160002060009054906101000a900460ff1660ff1660ff16815260200190815260200160002060050160009054906101000a900460ff1660ff168160ff161015612046573373ffffffffffffffffffffffffffffffffffffffff16600080600160003373ffffffffffffffffffffffffffffffffffffffff1673ffffffffffffffffffffffffffffffffffffffff16815260200190815260200160002060009054906101000a900460ff1660ff1660ff16815260200190815260200160002060080160008360ff1660ff16815260200190815260200160002060020160009054906101000a900473ffffffffffffffffffffffffffffffffffffffff1673ffffffffffffffffffffffffffffffffffffffff16036120335786600080600160003373ffffffffffffffffffffffffffffffffffffffff1673ffffffffffffffffffffffffffffffffffffffff16815260200190815260200160002060009054906101000a900460ff1660ff1660ff16815260200190815260200160002060080160008360ff1660ff168152602001908152602001600020600301600082825461202b9190614b74565b925050819055505b808061203e90614582565b915050611e44565b5060006040518060a001604052804281526020018881526020013373ffffffffffffffffffffffffffffffffffffffff1681526020013373ffffffffffffffffffffffffffffffffffffffff1681526020016040518060400160405280601281526020017f776974686472617755736572546f5573657200000000000000000000000000008152508152509050600080600160003373ffffffffffffffffffffffffffffffffffffffff1673ffffffffffffffffffffffffffffffffffffffff16815260200190815260200160002060009054906101000a900460ff1660ff1660ff168152602001908152602001600020600901819080600181540180825580915050600190039060005260206000209060050201600090919091909150600082015181600001556020820151816001015560408201518160020160006101000a81548173ffffffffffffffffffffffffffffffffffffffff021916908373ffffffffffffffffffffffffffffffffffffffff16021790555060608201518160030160006101000a81548173ffffffffffffffffffffffffffffffffffffffff021916908373ffffffffffffffffffffffffffffffffffffffff160217905550608082015181600401908161221b919061487d565b505050505b505050505050565b6000806000600160008573ffffffffffffffffffffffffffffffffffffffff1673ffffffffffffffffffffffffffffffffffffffff16815260200190815260200160002060009054906101000a900460ff1660ff1660ff16815260200190815260200160002060050160019054906101000a900473ffffffffffffffffffffffffffffffffffffffff169050919050565b60606000806000600160008673ffffffffffffffffffffffffffffffffffffffff1673ffffffffffffffffffffffffffffffffffffffff16815260200190815260200160002060009054906101000a900460ff1660ff1660ff16815260200190815260200160002060050160009054906101000a900460ff1660ff1667ffffffffffffffff81111561234e5761234d613f2e565b5b60405190808252806020026020018201604052801561237c5781602001602082028036833780820191505090505b50905060005b600080600160008773ffffffffffffffffffffffffffffffffffffffff1673ffffffffffffffffffffffffffffffffffffffff16815260200190815260200160002060009054906101000a900460ff1660ff1660ff16815260200190815260200160002060050160009054906101000a900460ff1660ff168160ff16101561250957600080600160008773ffffffffffffffffffffffffffffffffffffffff1673ffffffffffffffffffffffffffffffffffffffff16815260200190815260200160002060009054906101000a900460ff1660ff1660ff16815260200190815260200160002060080160008260ff1660ff16815260200190815260200160002060020160009054906101000a900473ffffffffffffffffffffffffffffffffffffffff16828260ff16815181106124bc576124bb614524565b5b602002602001019073ffffffffffffffffffffffffffffffffffffffff16908173ffffffffffffffffffffffffffffffffffffffff1681525050808061250190614582565b915050612382565b5080915050919050565b3460008111612557576040517f08c379a000000000000000000000000000000000000000000000000000000000815260040161254e9061461d565b60405180910390fd5b8383516000811161259d576040517f08c379a000000000000000000000000000000000000000000000000000000000815260040161259490614cf2565b60405180910390fd5b60005b81811015612728576000600160008584815181106125c1576125c0614524565b5b602002602001015173ffffffffffffffffffffffffffffffffffffffff1673ffffffffffffffffffffffffffffffffffffffff16815260200190815260200160002060009054906101000a900460ff1660ff1614612654576040517f08c379a000000000000000000000000000000000000000000000000000000000815260040161264b90614d84565b60405180910390fd5b60005b818110156127145783818151811061267257612671614524565b5b602002602001015173ffffffffffffffffffffffffffffffffffffffff168483815181106126a3576126a2614524565b5b602002602001015173ffffffffffffffffffffffffffffffffffffffff1603612701576040517f08c379a00000000000000000000000000000000000000000000000000000000081526004016126f890614e16565b60405180910390fd5b808061270c90614e36565b915050612657565b50808061272090614e36565b9150506125a0565b5086600081510361276e576040517f08c379a000000000000000000000000000000000000000000000000000000000815260040161276590614eca565b60405180910390fd5b85858051825114801561278357506000825114155b6127c2576040517f08c379a00000000000000000000000000000000000000000000000000000000081526004016127b990614f5c565b60405180910390fd5b60005b82518110156128685760008382815181106127e3576127e2614524565b5b602002602001015151141580156128165750600082828151811061280a57612809614524565b5b60200260200101515114155b612855576040517f08c379a000000000000000000000000000000000000000000000000000000000815260040161284c90614f5c565b60405180910390fd5b808061286090614e36565b9150506127c5565b506000806000600a600260009054906101000a900460ff1661288a9190614f7c565b60ff1660ff1681526020019081526020016000209050600a600260009054906101000a900460ff166128bc9190614f7c565b8160000160006101000a81548160ff021916908360ff1602179055504281600101819055508a8160020190816128f2919061487d565b50348160040181905550896000815181106129105761290f614524565b5b60200260200101518160050160016101000a81548173ffffffffffffffffffffffffffffffffffffffff021916908373ffffffffffffffffffffffffffffffffffffffff1602179055508860008151811061296e5761296d614524565b5b6020026020010151816006019081612986919061487d565b508760008151811061299b5761299a614524565b5b60200260200101518160070190816129b3919061487d565b5060005b8a518160ff161015612bdb5760008260080160008360ff1660ff16815260200190815260200160002090508a8260ff16815181106129f8576129f7614524565b5b6020026020010151816000019081612a10919061487d565b50898260ff1681518110612a2757612a26614524565b5b6020026020010151816001019081612a3f919061487d565b508b8260ff1681518110612a5657612a55614524565b5b60200260200101518160020160006101000a81548173ffffffffffffffffffffffffffffffffffffffff021916908373ffffffffffffffffffffffffffffffffffffffff160217905550600a600260009054906101000a900460ff16612abc9190614f7c565b8160020160146101000a81548160ff021916908360ff1602179055506000816003018190555060058160040160006101000a81548160ff021916908360ff16021790555082600501600081819054906101000a900460ff1680929190612b2190614582565b91906101000a81548160ff021916908360ff160217905550508060020160149054906101000a900460ff16600160008360020160009054906101000a900473ffffffffffffffffffffffffffffffffffffffff1673ffffffffffffffffffffffffffffffffffffffff1673ffffffffffffffffffffffffffffffffffffffff16815260200190815260200160002060006101000a81548160ff021916908360ff160217905550508080612bd390614582565b9150506129b7565b506002600081819054906101000a900460ff1680929190612bfb90614582565b91906101000a81548160ff021916908360ff160217905550505050505050505050505050565b6060600080600160008573ffffffffffffffffffffffffffffffffffffffff1673ffffffffffffffffffffffffffffffffffffffff16815260200190815260200160002060009054906101000a900460ff1660ff1660ff1681526020019081526020016000206002018054612c95906146a0565b80601f0160208091040260200160405190810160405280929190818152602001828054612cc1906146a0565b8015612d0e5780601f10612ce357610100808354040283529160200191612d0e565b820191906000526020600020905b815481529060010190602001808311612cf157829003601f168201915b50505050509050919050565b60606000806000600160008673ffffffffffffffffffffffffffffffffffffffff1673ffffffffffffffffffffffffffffffffffffffff16815260200190815260200160002060009054906101000a900460ff1660ff1660ff16815260200190815260200160002060050160009054906101000a900460ff1660ff1667ffffffffffffffff811115612daf57612dae613f2e565b5b604051908082528060200260200182016040528015612de257816020015b6060815260200190600190039081612dcd5790505b50905060005b600080600160008773ffffffffffffffffffffffffffffffffffffffff1673ffffffffffffffffffffffffffffffffffffffff16815260200190815260200160002060009054906101000a900460ff1660ff1660ff16815260200190815260200160002060050160009054906101000a900460ff1660ff168160ff161015612fa857600080600160008773ffffffffffffffffffffffffffffffffffffffff1673ffffffffffffffffffffffffffffffffffffffff16815260200190815260200160002060009054906101000a900460ff1660ff1660ff16815260200190815260200160002060080160008260ff1660ff1681526020019081526020016000206000018054612ef6906146a0565b80601f0160208091040260200160405190810160405280929190818152602001828054612f22906146a0565b8015612f6f5780601f10612f4457610100808354040283529160200191612f6f565b820191906000526020600020905b815481529060010190602001808311612f5257829003601f168201915b5050505050828260ff1681518110612f8a57612f89614524565b5b60200260200101819052508080612fa090614582565b915050612de8565b5080915050919050565b60606000806000600160008673ffffffffffffffffffffffffffffffffffffffff1673ffffffffffffffffffffffffffffffffffffffff16815260200190815260200160002060009054906101000a900460ff1660ff1660ff16815260200190815260200160002060050160009054906101000a900460ff1660ff1667ffffffffffffffff81111561304757613046613f2e565b5b60405190808252806020026020018201604052801561307a57816020015b60608152602001906001900390816130655790505b50905060005b600080600160008773ffffffffffffffffffffffffffffffffffffffff1673ffffffffffffffffffffffffffffffffffffffff16815260200190815260200160002060009054906101000a900460ff1660ff1660ff16815260200190815260200160002060050160009054906101000a900460ff1660ff168160ff16101561324057600080600160008773ffffffffffffffffffffffffffffffffffffffff1673ffffffffffffffffffffffffffffffffffffffff16815260200190815260200160002060009054906101000a900460ff1660ff1660ff16815260200190815260200160002060080160008260ff1660ff168152602001908152602001600020600101805461318e906146a0565b80601f01602080910402602001604051908101604052809291908181526020018280546131ba906146a0565b80156132075780601f106131dc57610100808354040283529160200191613207565b820191906000526020600020905b8154815290600101906020018083116131ea57829003601f168201915b5050505050828260ff168151811061322257613221614524565b5b6020026020010181905250808061323890614582565b915050613080565b5080915050919050565b60006020528060005260406000206000915090508060000160009054906101000a900460ff1690806001015490806002018054613286906146a0565b80601f01602080910402602001604051908101604052809291908181526020018280546132b2906146a0565b80156132ff5780601f106132d4576101008083540402835291602001916132ff565b820191906000526020600020905b8154815290600101906020018083116132e257829003601f168201915b5050505050908060030154908060040154908060050160009054906101000a900460ff16908060050160019054906101000a900473ffffffffffffffffffffffffffffffffffffffff1690806006018054613359906146a0565b80601f0160208091040260200160405190810160405280929190818152602001828054613385906146a0565b80156133d25780601f106133a7576101008083540402835291602001916133d2565b820191906000526020600020905b8154815290600101906020018083116133b557829003601f168201915b5050505050908060070180546133e7906146a0565b80601f0160208091040260200160405190810160405280929190818152602001828054613413906146a0565b80156134605780601f1061343557610100808354040283529160200191613460565b820191906000526020600020905b81548152906001019060200180831161344357829003601f168201915b5050505050905089565b6000806000600160008573ffffffffffffffffffffffffffffffffffffffff1673ffffffffffffffffffffffffffffffffffffffff16815260200190815260200160002060009054906101000a900460ff1660ff1660ff168152602001908152602001600020600301549050919050565b600260009054906101000a900460ff1681565b3460008111613532576040517f08c379a00000000000000000000000000000000000000000000000000000000081526004016135299061461d565b60405180910390fd5b34600080600160008673ffffffffffffffffffffffffffffffffffffffff1673ffffffffffffffffffffffffffffffffffffffff16815260200190815260200160002060009054906101000a900460ff1660ff1660ff16815260200190815260200160002060030160008282546135a9919061463d565b9250508190555060005b600080600160008673ffffffffffffffffffffffffffffffffffffffff1673ffffffffffffffffffffffffffffffffffffffff16815260200190815260200160002060009054906101000a900460ff1660ff1660ff16815260200190815260200160002060050160009054906101000a900460ff1660ff168160ff1610156137b5578273ffffffffffffffffffffffffffffffffffffffff16600080600160008773ffffffffffffffffffffffffffffffffffffffff1673ffffffffffffffffffffffffffffffffffffffff16815260200190815260200160002060009054906101000a900460ff1660ff1660ff16815260200190815260200160002060080160008360ff1660ff16815260200190815260200160002060020160009054906101000a900473ffffffffffffffffffffffffffffffffffffffff1673ffffffffffffffffffffffffffffffffffffffff16036137a25734600080600160008773ffffffffffffffffffffffffffffffffffffffff1673ffffffffffffffffffffffffffffffffffffffff16815260200190815260200160002060009054906101000a900460ff1660ff1660ff16815260200190815260200160002060080160008360ff1660ff168152602001908152602001600020600301600082825461379a919061463d565b925050819055505b80806137ad90614582565b9150506135b3565b5060006040518060a001604052804281526020013481526020013373ffffffffffffffffffffffffffffffffffffffff1681526020018473ffffffffffffffffffffffffffffffffffffffff1681526020016040518060400160405280600e81526020017f73656e6455736572546f557365720000000000000000000000000000000000008152508152509050600080600160008673ffffffffffffffffffffffffffffffffffffffff1673ffffffffffffffffffffffffffffffffffffffff16815260200190815260200160002060009054906101000a900460ff1660ff1660ff168152602001908152602001600020600901819080600181540180825580915050600190039060005260206000209060050201600090919091909150600082015181600001556020820151816001015560408201518160020160006101000a81548173ffffffffffffffffffffffffffffffffffffffff021916908373ffffffffffffffffffffffffffffffffffffffff16021790555060608201518160030160006101000a81548173ffffffffffffffffffffffffffffffffffffffff021916908373ffffffffffffffffffffffffffffffffffffffff160217905550608082015181600401908161398a919061487d565b505050505050565b6040518060a001604052806000815260200160008152602001600073ffffffffffffffffffffffffffffffffffffffff168152602001600073ffffffffffffffffffffffffffffffffffffffff168152602001606081525090565b6000604051905090565b600080fd5b600080fd5b600073ffffffffffffffffffffffffffffffffffffffff82169050919050565b6000613a2c82613a01565b9050919050565b613a3c81613a21565b8114613a4757600080fd5b50565b600081359050613a5981613a33565b92915050565b600060208284031215613a7557613a746139f7565b5b6000613a8384828501613a4a565b91505092915050565b6000819050919050565b613a9f81613a8c565b82525050565b6000602082019050613aba6000830184613a96565b92915050565b600081519050919050565b600082825260208201905092915050565b6000819050602082019050919050565b613af581613a8c565b82525050565b6000613b078383613aec565b60208301905092915050565b6000602082019050919050565b6000613b2b82613ac0565b613b358185613acb565b9350613b4083613adc565b8060005b83811015613b71578151613b588882613afb565b9750613b6383613b13565b925050600181019050613b44565b5085935050505092915050565b60006020820190508181036000830152613b988184613b20565b905092915050565b600081519050919050565b600082825260208201905092915050565b6000819050602082019050919050565b613bd581613a21565b82525050565b600081519050919050565b600082825260208201905092915050565b60005b83811015613c15578082015181840152602081019050613bfa565b60008484015250505050565b6000601f19601f8301169050919050565b6000613c3d82613bdb565b613c478185613be6565b9350613c57818560208601613bf7565b613c6081613c21565b840191505092915050565b600060a083016000830151613c836000860182613aec565b506020830151613c966020860182613aec565b506040830151613ca96040860182613bcc565b506060830151613cbc6060860182613bcc565b5060808301518482036080860152613cd48282613c32565b9150508091505092915050565b6000613ced8383613c6b565b905092915050565b6000602082019050919050565b6000613d0d82613ba0565b613d178185613bab565b935083602082028501613d2985613bbc565b8060005b85811015613d655784840389528151613d468582613ce1565b9450613d5183613cf5565b925060208a01995050600181019050613d2d565b50829750879550505050505092915050565b60006020820190508181036000830152613d918184613d02565b905092915050565b613da281613a8c565b8114613dad57600080fd5b50565b600081359050613dbf81613d99565b92915050565b600060208284031215613ddb57613dda6139f7565b5b6000613de984828501613db0565b91505092915050565b600060ff82169050919050565b613e0881613df2565b82525050565b6000602082019050613e236000830184613dff565b92915050565b613e3281613a21565b82525050565b6000602082019050613e4d6000830184613e29565b92915050565b600081519050919050565b600082825260208201905092915050565b6000819050602082019050919050565b6000613e8b8383613bcc565b60208301905092915050565b6000602082019050919050565b6000613eaf82613e53565b613eb98185613e5e565b9350613ec483613e6f565b8060005b83811015613ef5578151613edc8882613e7f565b9750613ee783613e97565b925050600181019050613ec8565b5085935050505092915050565b60006020820190508181036000830152613f1c8184613ea4565b905092915050565b600080fd5b600080fd5b7f4e487b7100000000000000000000000000000000000000000000000000000000600052604160045260246000fd5b613f6682613c21565b810181811067ffffffffffffffff82111715613f8557613f84613f2e565b5b80604052505050565b6000613f986139ed565b9050613fa48282613f5d565b919050565b600067ffffffffffffffff821115613fc457613fc3613f2e565b5b613fcd82613c21565b9050602081019050919050565b82818337600083830152505050565b6000613ffc613ff784613fa9565b613f8e565b90508281526020810184848401111561401857614017613f29565b5b614023848285613fda565b509392505050565b600082601f8301126140405761403f613f24565b5b8135614050848260208601613fe9565b91505092915050565b600067ffffffffffffffff82111561407457614073613f2e565b5b602082029050602081019050919050565b600080fd5b600061409d61409884614059565b613f8e565b905080838252602082019050602084028301858111156140c0576140bf614085565b5b835b818110156140e957806140d58882613a4a565b8452602084019350506020810190506140c2565b5050509392505050565b600082601f83011261410857614107613f24565b5b813561411884826020860161408a565b91505092915050565b600067ffffffffffffffff82111561413c5761413b613f2e565b5b602082029050602081019050919050565b600061416061415b84614121565b613f8e565b9050808382526020820190506020840283018581111561418357614182614085565b5b835b818110156141ca57803567ffffffffffffffff8111156141a8576141a7613f24565b5b8086016141b5898261402b565b85526020850194505050602081019050614185565b5050509392505050565b600082601f8301126141e9576141e8613f24565b5b81356141f984826020860161414d565b91505092915050565b6000806000806080858703121561421c5761421b6139f7565b5b600085013567ffffffffffffffff81111561423a576142396139fc565b5b6142468782880161402b565b945050602085013567ffffffffffffffff811115614267576142666139fc565b5b614273878288016140f3565b935050604085013567ffffffffffffffff811115614294576142936139fc565b5b6142a0878288016141d4565b925050606085013567ffffffffffffffff8111156142c1576142c06139fc565b5b6142cd878288016141d4565b91505092959194509250565b600082825260208201905092915050565b60006142f582613bdb565b6142ff81856142d9565b935061430f818560208601613bf7565b61431881613c21565b840191505092915050565b6000602082019050818103600083015261433d81846142ea565b905092915050565b600081519050919050565b600082825260208201905092915050565b6000819050602082019050919050565b600061437d8383613c32565b905092915050565b6000602082019050919050565b600061439d82614345565b6143a78185614350565b9350836020820285016143b985614361565b8060005b858110156143f557848403895281516143d68582614371565b94506143e183614385565b925060208a019950506001810190506143bd565b50829750879550505050505092915050565b600060208201905081810360008301526144218184614392565b905092915050565b61443281613df2565b811461443d57600080fd5b50565b60008135905061444f81614429565b92915050565b60006020828403121561446b5761446a6139f7565b5b600061447984828501614440565b91505092915050565b600061012082019050614498600083018c613dff565b6144a5602083018b613a96565b81810360408301526144b7818a6142ea565b90506144c66060830189613a96565b6144d36080830188613a96565b6144e060a0830187613dff565b6144ed60c0830186613e29565b81810360e08301526144ff81856142ea565b905081810361010083015261451481846142ea565b90509a9950505050505050505050565b7f4e487b7100000000000000000000000000000000000000000000000000000000600052603260045260246000fd5b7f4e487b7100000000000000000000000000000000000000000000000000000000600052601160045260246000fd5b600061458d82613df2565b915060ff82036145a05761459f614553565b5b600182019050919050565b7f54686520616d6f756e74206e6565647320746f2062652068696768657220746860008201527f616e203000000000000000000000000000000000000000000000000000000000602082015250565b60006146076024836142d9565b9150614612826145ab565b604082019050919050565b60006020820190508181036000830152614636816145fa565b9050919050565b600061464882613a8c565b915061465383613a8c565b925082820190508082111561466b5761466a614553565b5b92915050565b7f4e487b7100000000000000000000000000000000000000000000000000000000600052602260045260246000fd5b600060028204905060018216806146b857607f821691505b6020821081036146cb576146ca614671565b5b50919050565b60008190508160005260206000209050919050565b60006020601f8301049050919050565b600082821b905092915050565b6000600883026147337fffffffffffffffffffffffffffffffffffffffffffffffffffffffffffffffff826146f6565b61473d86836146f6565b95508019841693508086168417925050509392505050565b6000819050919050565b600061477a61477561477084613a8c565b614755565b613a8c565b9050919050565b6000819050919050565b6147948361475f565b6147a86147a082614781565b848454614703565b825550505050565b600090565b6147bd6147b0565b6147c881848461478b565b505050565b5b818110156147ec576147e16000826147b5565b6001810190506147ce565b5050565b601f82111561483157614802816146d1565b61480b846146e6565b8101602085101561481a578190505b61482e614826856146e6565b8301826147cd565b50505b505050565b600082821c905092915050565b600061485460001984600802614836565b1980831691505092915050565b600061486d8383614843565b9150826002028217905092915050565b61488682613bdb565b67ffffffffffffffff81111561489f5761489e613f2e565b5b6148a982546146a0565b6148b48282856147f0565b600060209050601f8311600181146148e757600084156148d5578287015190505b6148df8582614861565b865550614947565b601f1984166148f5866146d1565b60005b8281101561491d578489015182556001820191506020850194506020810190506148f8565b8683101561493a5784890151614936601f891682614843565b8355505b6001600288020188555050505b505050505050565b7f5468652077616c6c6574206e6565647320746f2068617665206174206c65617360008201527f7420312075736572000000000000000000000000000000000000000000000000602082015250565b60006149ab6028836142d9565b91506149b68261494f565b604082019050919050565b600060208201905081810360008301526149da8161499e565b9050919050565b60006149ec82613df2565b9150600082036149ff576149fe614553565b5b600182039050919050565b7f496e73756666696369656e742066756e647320696e2074686520636f6e74726160008201527f6374000000000000000000000000000000000000000000000000000000000000602082015250565b6000614a666022836142d9565b9150614a7182614a0a565b604082019050919050565b60006020820190508181036000830152614a9581614a59565b9050919050565b7f5468652077616c6c657420646f6573206e6f74206861766520656e6f7567682060008201527f66756e6473000000000000000000000000000000000000000000000000000000602082015250565b6000614af86025836142d9565b9150614b0382614a9c565b604082019050919050565b60006020820190508181036000830152614b2781614aeb565b9050919050565b600081905092915050565b50565b6000614b49600083614b2e565b9150614b5482614b39565b600082019050919050565b6000614b6a82614b3c565b9150819050919050565b6000614b7f82613a8c565b9150614b8a83613a8c565b9250828203905081811115614ba257614ba1614553565b5b92915050565b7f596f7520646f206e6f74206861766520656e6f7567682066756e647300000000600082015250565b6000614bde601c836142d9565b9150614be982614ba8565b602082019050919050565b60006020820190508181036000830152614c0d81614bd1565b9050919050565b7f4661696c656420746f2073656e6420457468657220746f20746865207265636960008201527f7069656e74206164647265737300000000000000000000000000000000000000602082015250565b6000614c70602d836142d9565b9150614c7b82614c14565b604082019050919050565b60006020820190508181036000830152614c9f81614c63565b9050919050565b7f412077616c6c6574206e65656473206174206c65617374206f6e652075736572600082015250565b6000614cdc6020836142d9565b9150614ce782614ca6565b602082019050919050565b60006020820190508181036000830152614d0b81614ccf565b9050919050565b7f4f6e65206f72206d6f7265207573657273206861766520616c7265616479206a60008201527f6f696e656420616e6f746865722077616c6c6574000000000000000000000000602082015250565b6000614d6e6034836142d9565b9150614d7982614d12565b604082019050919050565b60006020820190508181036000830152614d9d81614d61565b9050919050565b7f5468652077616c6c65742063616e206e6f742068617665206475706c6963617460008201527f6520616464726573736573000000000000000000000000000000000000000000602082015250565b6000614e00602b836142d9565b9150614e0b82614da4565b604082019050919050565b60006020820190508181036000830152614e2f81614df3565b9050919050565b6000614e4182613a8c565b91507fffffffffffffffffffffffffffffffffffffffffffffffffffffffffffffffff8203614e7357614e72614553565b5b600182019050919050565b7f5468652077616c6c6574206e656564732061206e616d65000000000000000000600082015250565b6000614eb46017836142d9565b9150614ebf82614e7e565b602082019050919050565b60006020820190508181036000830152614ee381614ea7565b9050919050565b7f546865207573657273206e65656420746f206861766520626f7468206669727360008201527f7420616e64206c617374206e616d657300000000000000000000000000000000602082015250565b6000614f466030836142d9565b9150614f5182614eea565b604082019050919050565b60006020820190508181036000830152614f7581614f39565b9050919050565b6000614f8782613df2565b9150614f9283613df2565b9250828201905060ff811115614fab57614faa614553565b5b9291505056fea26469706673582212209b3dd4edbf39df24084633cc0fcb8a2a69e2ed61ed0f9c0cd174147f0980739564736f6c63430008110033",
  "linkReferences": {},
  "deployedLinkReferences": {}
}