{
  "_format": "hh-sol-artifact-1",
  "contractName": "TheVault",
  "sourceName": "contracts/TheVault.sol",
  "abi": [
    {
      "inputs": [
        {
          "internalType": "address",
          "name": "memberAddress",
          "type": "address"
        }
      ],
      "name": "getWalletBalance",
      "outputs": [
        {
          "internalType": "uint256",
          "name": "",
          "type": "uint256"
        }
      ],
      "stateMutability": "view",
      "type": "function"
    },
    {
      "inputs": [
        {
          "internalType": "address",
          "name": "memberAddress",
          "type": "address"
        }
      ],
      "name": "getWalletId",
      "outputs": [
        {
          "internalType": "uint8",
          "name": "",
          "type": "uint8"
        }
      ],
      "stateMutability": "view",
      "type": "function"
    },
    {
      "inputs": [
        {
          "internalType": "address",
          "name": "memberAddress",
          "type": "address"
        }
      ],
      "name": "getWalletMembersAddresses",
      "outputs": [
        {
          "internalType": "address[]",
          "name": "",
          "type": "address[]"
        }
      ],
      "stateMutability": "view",
      "type": "function"
    },
    {
      "inputs": [
        {
          "internalType": "address",
          "name": "memberAddress",
          "type": "address"
        }
      ],
      "name": "getWalletMembersBalances",
      "outputs": [
        {
          "internalType": "uint256[]",
          "name": "",
          "type": "uint256[]"
        }
      ],
      "stateMutability": "view",
      "type": "function"
    },
    {
      "inputs": [
        {
          "internalType": "address",
          "name": "memberAddress",
          "type": "address"
        }
      ],
      "name": "getWalletMembersFirstNames",
      "outputs": [
        {
          "internalType": "string[]",
          "name": "",
          "type": "string[]"
        }
      ],
      "stateMutability": "view",
      "type": "function"
    },
    {
      "inputs": [
        {
          "internalType": "address",
          "name": "memberAddress",
          "type": "address"
        }
      ],
      "name": "getWalletMembersLastNames",
      "outputs": [
        {
          "internalType": "string[]",
          "name": "",
          "type": "string[]"
        }
      ],
      "stateMutability": "view",
      "type": "function"
    },
    {
      "inputs": [
        {
          "internalType": "address",
          "name": "memberAddress",
          "type": "address"
        }
      ],
      "name": "getWalletOwner",
      "outputs": [
        {
          "internalType": "address",
          "name": "",
          "type": "address"
        }
      ],
      "stateMutability": "view",
      "type": "function"
    },
    {
      "inputs": [
        {
          "internalType": "address",
          "name": "memberAddress",
          "type": "address"
        }
      ],
      "name": "getWalletTransactions",
      "outputs": [
        {
          "components": [
            {
              "internalType": "uint256",
              "name": "date",
              "type": "uint256"
            },
            {
              "internalType": "uint256",
              "name": "value",
              "type": "uint256"
            },
            {
              "internalType": "address",
              "name": "sender",
              "type": "address"
            },
            {
              "internalType": "address",
              "name": "receiver",
              "type": "address"
            }
          ],
          "internalType": "struct TheVault.Transaction[]",
          "name": "",
          "type": "tuple[]"
        }
      ],
      "stateMutability": "view",
      "type": "function"
    },
    {
      "inputs": [
        {
          "internalType": "string",
          "name": "walletName",
          "type": "string"
        },
        {
          "internalType": "address[]",
          "name": "membersAddresses",
          "type": "address[]"
        },
        {
          "internalType": "string[]",
          "name": "membersFirstNames",
          "type": "string[]"
        },
        {
          "internalType": "string[]",
          "name": "membersLastNames",
          "type": "string[]"
        }
      ],
      "name": "initializeWallet",
      "outputs": [],
      "stateMutability": "payable",
      "type": "function"
    },
    {
      "inputs": [
        {
          "internalType": "address",
          "name": "memberAddress",
          "type": "address"
        }
      ],
      "name": "leaveWallet",
      "outputs": [],
      "stateMutability": "nonpayable",
      "type": "function"
    },
    {
      "inputs": [
        {
          "internalType": "address",
          "name": "",
          "type": "address"
        }
      ],
      "name": "memberWalletId",
      "outputs": [
        {
          "internalType": "uint8",
          "name": "",
          "type": "uint8"
        }
      ],
      "stateMutability": "view",
      "type": "function"
    },
    {
      "inputs": [
        {
          "internalType": "address",
          "name": "senderAddress",
          "type": "address"
        },
        {
          "internalType": "address",
          "name": "receiverAddress",
          "type": "address"
        }
      ],
      "name": "sendFunds",
      "outputs": [],
      "stateMutability": "payable",
      "type": "function"
    },
    {
      "inputs": [
        {
          "internalType": "uint8",
          "name": "",
          "type": "uint8"
        }
      ],
      "name": "wallet",
      "outputs": [
        {
          "internalType": "uint8",
          "name": "id",
          "type": "uint8"
        },
        {
          "internalType": "uint256",
          "name": "creationDate",
          "type": "uint256"
        },
        {
          "internalType": "string",
          "name": "name",
          "type": "string"
        },
        {
          "internalType": "uint256",
          "name": "balance",
          "type": "uint256"
        },
        {
          "internalType": "uint8",
          "name": "memberCounter",
          "type": "uint8"
        },
        {
          "internalType": "address",
          "name": "ownerAddress",
          "type": "address"
        },
        {
          "internalType": "string",
          "name": "ownerFirstName",
          "type": "string"
        },
        {
          "internalType": "string",
          "name": "ownerLastName",
          "type": "string"
        }
      ],
      "stateMutability": "view",
      "type": "function"
    },
    {
      "inputs": [],
      "name": "walletCounter",
      "outputs": [
        {
          "internalType": "uint8",
          "name": "",
          "type": "uint8"
        }
      ],
      "stateMutability": "view",
      "type": "function"
    }
  ],
  "bytecode": "0x608060405234801561001057600080fd5b5061392d806100206000396000f3fe6080604052600436106100dd5760003560e01c8063a6fd41581161007f578063e428c28911610059578063e428c289146102ee578063ed8ec19414610332578063f64d70601461036f578063fbca23731461039a576100dd565b8063a6fd415814610258578063b6206b4414610274578063babf53af146102b1576100dd565b80635a8ff969116100bb5780635a8ff969146101855780635ebf4431146101c2578063966708a5146101de5780639c36c46a1461021b576100dd565b80630afa1f0b146100e2578063145045e61461011f578063265c42141461015c575b600080fd5b3480156100ee57600080fd5b5061010960048036038101906101049190612751565b6103d7565b6040516101169190612846565b60405180910390f35b34801561012b57600080fd5b5061014660048036038101906101419190612751565b6105e3565b604051610153919061297b565b60405180910390f35b34801561016857600080fd5b50610183600480360381019061017e9190612751565b61082f565b005b34801561019157600080fd5b506101ac60048036038101906101a79190612751565b611084565b6040516101b991906129b9565b60405180910390f35b6101dc60048036038101906101d791906129d4565b6110da565b005b3480156101ea57600080fd5b5061020560048036038101906102009190612751565b6114e9565b6040516102129190612a23565b60405180910390f35b34801561022757600080fd5b50610242600480360381019061023d9190612751565b61157a565b60405161024f9190612aed565b60405180910390f35b610272600480360381019061026d9190612dfe565b6117d4565b005b34801561028057600080fd5b5061029b60048036038101906102969190612751565b611e9d565b6040516102a89190613016565b60405180910390f35b3480156102bd57600080fd5b506102d860048036038101906102d39190612751565b612135565b6040516102e59190613016565b60405180910390f35b3480156102fa57600080fd5b5061031560048036038101906103109190613064565b6123cd565b6040516103299897969594939291906130ea565b60405180910390f35b34801561033e57600080fd5b5061035960048036038101906103549190612751565b6125e7565b604051610366919061317d565b60405180910390f35b34801561037b57600080fd5b50610384612658565b60405161039191906129b9565b60405180910390f35b3480156103a657600080fd5b506103c160048036038101906103bc9190612751565b61266b565b6040516103ce91906129b9565b60405180910390f35b60606000806000600160008673ffffffffffffffffffffffffffffffffffffffff1673ffffffffffffffffffffffffffffffffffffffff16815260200190815260200160002060009054906101000a900460ff1660ff1660ff16815260200190815260200160002060040160009054906101000a900460ff1660ff1667ffffffffffffffff81111561046c5761046b612b2a565b5b60405190808252806020026020018201604052801561049a5781602001602082028036833780820191505090505b50905060005b600080600160008773ffffffffffffffffffffffffffffffffffffffff1673ffffffffffffffffffffffffffffffffffffffff16815260200190815260200160002060009054906101000a900460ff1660ff1660ff16815260200190815260200160002060040160009054906101000a900460ff1660ff168160ff1610156105d957600080600160008773ffffffffffffffffffffffffffffffffffffffff1673ffffffffffffffffffffffffffffffffffffffff16815260200190815260200160002060009054906101000a900460ff1660ff1660ff16815260200190815260200160002060070160008260ff1660ff16815260200190815260200160002060030154828260ff16815181106105ba576105b9613198565b5b60200260200101818152505080806105d1906131f6565b9150506104a0565b5080915050919050565b60606000806000600160008673ffffffffffffffffffffffffffffffffffffffff1673ffffffffffffffffffffffffffffffffffffffff16815260200190815260200160002060009054906101000a900460ff1660ff1660ff1681526020019081526020016000206008018054905067ffffffffffffffff81111561066b5761066a612b2a565b5b6040519080825280602002602001820160405280156106a457816020015b61069161268b565b8152602001906001900390816106895790505b509050600080600160008673ffffffffffffffffffffffffffffffffffffffff1673ffffffffffffffffffffffffffffffffffffffff16815260200190815260200160002060009054906101000a900460ff1660ff1660ff168152602001908152602001600020600801805480602002602001604051908101604052809291908181526020016000905b82821015610820578382906000526020600020906004020160405180608001604052908160008201548152602001600182015481526020016002820160009054906101000a900473ffffffffffffffffffffffffffffffffffffffff1673ffffffffffffffffffffffffffffffffffffffff1673ffffffffffffffffffffffffffffffffffffffff1681526020016003820160009054906101000a900473ffffffffffffffffffffffffffffffffffffffff1673ffffffffffffffffffffffffffffffffffffffff1673ffffffffffffffffffffffffffffffffffffffff16815250508152602001906001019061072e565b50505050905080915050919050565b806000806000600160008573ffffffffffffffffffffffffffffffffffffffff1673ffffffffffffffffffffffffffffffffffffffff16815260200190815260200160002060009054906101000a900460ff1660ff1660ff16815260200190815260200160002060040160009054906101000a900460ff1660ff16116108ea576040517f08c379a00000000000000000000000000000000000000000000000000000000081526004016108e190613291565b60405180910390fd5b60005b600080600160008673ffffffffffffffffffffffffffffffffffffffff1673ffffffffffffffffffffffffffffffffffffffff16815260200190815260200160002060009054906101000a900460ff1660ff1660ff16815260200190815260200160002060040160009054906101000a900460ff1660ff168160ff161015610c02578273ffffffffffffffffffffffffffffffffffffffff16600080600160008773ffffffffffffffffffffffffffffffffffffffff1673ffffffffffffffffffffffffffffffffffffffff16815260200190815260200160002060009054906101000a900460ff1660ff1660ff16815260200190815260200160002060070160008360ff1660ff16815260200190815260200160002060020160009054906101000a900473ffffffffffffffffffffffffffffffffffffffff1673ffffffffffffffffffffffffffffffffffffffff1603610bef576040518060c00160405280604051806020016040528060008152508152602001604051806020016040528060008152508152602001600073ffffffffffffffffffffffffffffffffffffffff168152602001600060ff16815260200160008152602001600060ff16815250600080600160008773ffffffffffffffffffffffffffffffffffffffff1673ffffffffffffffffffffffffffffffffffffffff16815260200190815260200160002060009054906101000a900460ff1660ff1660ff16815260200190815260200160002060070160008360ff1660ff1681526020019081526020016000206000820151816000019081610b4191906134bd565b506020820151816001019081610b5791906134bd565b5060408201518160020160006101000a81548173ffffffffffffffffffffffffffffffffffffffff021916908373ffffffffffffffffffffffffffffffffffffffff16021790555060608201518160020160146101000a81548160ff021916908360ff1602179055506080820151816003015560a08201518160040160006101000a81548160ff021916908360ff1602179055509050505b8080610bfa906131f6565b9150506108ed565b50600080600160008573ffffffffffffffffffffffffffffffffffffffff1673ffffffffffffffffffffffffffffffffffffffff16815260200190815260200160002060009054906101000a900460ff1660ff1660ff168152602001908152602001600020600401600081819054906101000a900460ff1680929190610c879061358f565b91906101000a81548160ff021916908360ff160217905550506000600160008473ffffffffffffffffffffffffffffffffffffffff1673ffffffffffffffffffffffffffffffffffffffff16815260200190815260200160002060006101000a81548160ff021916908360ff1602179055506000806000600160008673ffffffffffffffffffffffffffffffffffffffff1673ffffffffffffffffffffffffffffffffffffffff16815260200190815260200160002060009054906101000a900460ff1660ff1660ff16815260200190815260200160002060040160009054906101000a900460ff1660ff1603611080576000806000600160008673ffffffffffffffffffffffffffffffffffffffff1673ffffffffffffffffffffffffffffffffffffffff16815260200190815260200160002060009054906101000a900460ff1660ff1660ff16815260200190815260200160002060000160006101000a81548160ff021916908360ff1602179055506000806000600160008673ffffffffffffffffffffffffffffffffffffffff1673ffffffffffffffffffffffffffffffffffffffff16815260200190815260200160002060009054906101000a900460ff1660ff1660ff1681526020019081526020016000206001018190555060405180602001604052806000815250600080600160008673ffffffffffffffffffffffffffffffffffffffff1673ffffffffffffffffffffffffffffffffffffffff16815260200190815260200160002060009054906101000a900460ff1660ff1660ff1681526020019081526020016000206002019081610ee991906134bd565b506000806000600160008673ffffffffffffffffffffffffffffffffffffffff1673ffffffffffffffffffffffffffffffffffffffff16815260200190815260200160002060009054906101000a900460ff1660ff1660ff168152602001908152602001600020600301819055506000806000600160008673ffffffffffffffffffffffffffffffffffffffff1673ffffffffffffffffffffffffffffffffffffffff16815260200190815260200160002060009054906101000a900460ff1660ff1660ff16815260200190815260200160002060040160006101000a81548160ff021916908360ff1602179055506000806000600160008673ffffffffffffffffffffffffffffffffffffffff1673ffffffffffffffffffffffffffffffffffffffff16815260200190815260200160002060009054906101000a900460ff1660ff1660ff16815260200190815260200160002060040160016101000a81548173ffffffffffffffffffffffffffffffffffffffff021916908373ffffffffffffffffffffffffffffffffffffffff1602179055505b5050565b6000600160008373ffffffffffffffffffffffffffffffffffffffff1673ffffffffffffffffffffffffffffffffffffffff16815260200190815260200160002060009054906101000a900460ff169050919050565b34600080600160008573ffffffffffffffffffffffffffffffffffffffff1673ffffffffffffffffffffffffffffffffffffffff16815260200190815260200160002060009054906101000a900460ff1660ff1660ff168152602001908152602001600020600301600082825461115191906135b8565b9250508190555060005b600080600160008573ffffffffffffffffffffffffffffffffffffffff1673ffffffffffffffffffffffffffffffffffffffff16815260200190815260200160002060009054906101000a900460ff1660ff1660ff16815260200190815260200160002060040160009054906101000a900460ff1660ff168160ff16101561135d578173ffffffffffffffffffffffffffffffffffffffff16600080600160008673ffffffffffffffffffffffffffffffffffffffff1673ffffffffffffffffffffffffffffffffffffffff16815260200190815260200160002060009054906101000a900460ff1660ff1660ff16815260200190815260200160002060070160008360ff1660ff16815260200190815260200160002060020160009054906101000a900473ffffffffffffffffffffffffffffffffffffffff1673ffffffffffffffffffffffffffffffffffffffff160361134a5734600080600160008673ffffffffffffffffffffffffffffffffffffffff1673ffffffffffffffffffffffffffffffffffffffff16815260200190815260200160002060009054906101000a900460ff1660ff1660ff16815260200190815260200160002060070160008360ff1660ff168152602001908152602001600020600301600082825461134291906135b8565b925050819055505b8080611355906131f6565b91505061115b565b50600060405180608001604052804281526020013481526020018473ffffffffffffffffffffffffffffffffffffffff1681526020018373ffffffffffffffffffffffffffffffffffffffff168152509050600080600160008573ffffffffffffffffffffffffffffffffffffffff1673ffffffffffffffffffffffffffffffffffffffff16815260200190815260200160002060009054906101000a900460ff1660ff1660ff168152602001908152602001600020600801819080600181540180825580915050600190039060005260206000209060040201600090919091909150600082015181600001556020820151816001015560408201518160020160006101000a81548173ffffffffffffffffffffffffffffffffffffffff021916908373ffffffffffffffffffffffffffffffffffffffff16021790555060608201518160030160006101000a81548173ffffffffffffffffffffffffffffffffffffffff021916908373ffffffffffffffffffffffffffffffffffffffff1602179055505050505050565b6000806000600160008573ffffffffffffffffffffffffffffffffffffffff1673ffffffffffffffffffffffffffffffffffffffff16815260200190815260200160002060009054906101000a900460ff1660ff1660ff16815260200190815260200160002060040160019054906101000a900473ffffffffffffffffffffffffffffffffffffffff169050919050565b60606000806000600160008673ffffffffffffffffffffffffffffffffffffffff1673ffffffffffffffffffffffffffffffffffffffff16815260200190815260200160002060009054906101000a900460ff1660ff1660ff16815260200190815260200160002060040160009054906101000a900460ff1660ff1667ffffffffffffffff81111561160f5761160e612b2a565b5b60405190808252806020026020018201604052801561163d5781602001602082028036833780820191505090505b50905060005b600080600160008773ffffffffffffffffffffffffffffffffffffffff1673ffffffffffffffffffffffffffffffffffffffff16815260200190815260200160002060009054906101000a900460ff1660ff1660ff16815260200190815260200160002060040160009054906101000a900460ff1660ff168160ff1610156117ca57600080600160008773ffffffffffffffffffffffffffffffffffffffff1673ffffffffffffffffffffffffffffffffffffffff16815260200190815260200160002060009054906101000a900460ff1660ff1660ff16815260200190815260200160002060070160008260ff1660ff16815260200190815260200160002060020160009054906101000a900473ffffffffffffffffffffffffffffffffffffffff16828260ff168151811061177d5761177c613198565b5b602002602001019073ffffffffffffffffffffffffffffffffffffffff16908173ffffffffffffffffffffffffffffffffffffffff168152505080806117c2906131f6565b915050611643565b5080915050919050565b8282516000811161181a576040517f08c379a000000000000000000000000000000000000000000000000000000000815260040161181190613638565b60405180910390fd5b60005b818110156119a55760006001600085848151811061183e5761183d613198565b5b602002602001015173ffffffffffffffffffffffffffffffffffffffff1673ffffffffffffffffffffffffffffffffffffffff16815260200190815260200160002060009054906101000a900460ff1660ff16146118d1576040517f08c379a00000000000000000000000000000000000000000000000000000000081526004016118c8906136ca565b60405180910390fd5b60005b81811015611991578381815181106118ef576118ee613198565b5b602002602001015173ffffffffffffffffffffffffffffffffffffffff168483815181106119205761191f613198565b5b602002602001015173ffffffffffffffffffffffffffffffffffffffff160361197e576040517f08c379a00000000000000000000000000000000000000000000000000000000081526004016119759061375c565b60405180910390fd5b80806119899061377c565b9150506118d4565b50808061199d9061377c565b91505061181d565b508560008151036119eb576040517f08c379a00000000000000000000000000000000000000000000000000000000081526004016119e290613810565b60405180910390fd5b848480518251148015611a0057506000825114155b611a3f576040517f08c379a0000000000000000000000000000000000000000000000000000000008152600401611a36906138a2565b60405180910390fd5b60005b8251811015611ae5576000838281518110611a6057611a5f613198565b5b60200260200101515114158015611a9357506000828281518110611a8757611a86613198565b5b60200260200101515114155b611ad2576040517f08c379a0000000000000000000000000000000000000000000000000000000008152600401611ac9906138a2565b60405180910390fd5b8080611add9061377c565b915050611a42565b506000806000600a600260009054906101000a900460ff16611b0791906138c2565b60ff1660ff1681526020019081526020016000209050600a600260009054906101000a900460ff16611b3991906138c2565b8160000160006101000a81548160ff021916908360ff16021790555042816001018190555089816002019081611b6f91906134bd565b5034816003018190555088600081518110611b8d57611b8c613198565b5b60200260200101518160040160016101000a81548173ffffffffffffffffffffffffffffffffffffffff021916908373ffffffffffffffffffffffffffffffffffffffff16021790555087600081518110611beb57611bea613198565b5b6020026020010151816005019081611c0391906134bd565b5086600081518110611c1857611c17613198565b5b6020026020010151816006019081611c3091906134bd565b5060005b89518160ff161015611e585760008260070160008360ff1660ff1681526020019081526020016000209050898260ff1681518110611c7557611c74613198565b5b6020026020010151816000019081611c8d91906134bd565b50888260ff1681518110611ca457611ca3613198565b5b6020026020010151816001019081611cbc91906134bd565b508a8260ff1681518110611cd357611cd2613198565b5b60200260200101518160020160006101000a81548173ffffffffffffffffffffffffffffffffffffffff021916908373ffffffffffffffffffffffffffffffffffffffff160217905550600a600260009054906101000a900460ff16611d3991906138c2565b8160020160146101000a81548160ff021916908360ff1602179055506000816003018190555060058160040160006101000a81548160ff021916908360ff16021790555082600401600081819054906101000a900460ff1680929190611d9e906131f6565b91906101000a81548160ff021916908360ff160217905550508060020160149054906101000a900460ff16600160008360020160009054906101000a900473ffffffffffffffffffffffffffffffffffffffff1673ffffffffffffffffffffffffffffffffffffffff1673ffffffffffffffffffffffffffffffffffffffff16815260200190815260200160002060006101000a81548160ff021916908360ff160217905550508080611e50906131f6565b915050611c34565b506002600081819054906101000a900460ff1680929190611e78906131f6565b91906101000a81548160ff021916908360ff1602179055505050505050505050505050565b60606000806000600160008673ffffffffffffffffffffffffffffffffffffffff1673ffffffffffffffffffffffffffffffffffffffff16815260200190815260200160002060009054906101000a900460ff1660ff1660ff16815260200190815260200160002060040160009054906101000a900460ff1660ff1667ffffffffffffffff811115611f3257611f31612b2a565b5b604051908082528060200260200182016040528015611f6557816020015b6060815260200190600190039081611f505790505b50905060005b600080600160008773ffffffffffffffffffffffffffffffffffffffff1673ffffffffffffffffffffffffffffffffffffffff16815260200190815260200160002060009054906101000a900460ff1660ff1660ff16815260200190815260200160002060040160009054906101000a900460ff1660ff168160ff16101561212b57600080600160008773ffffffffffffffffffffffffffffffffffffffff1673ffffffffffffffffffffffffffffffffffffffff16815260200190815260200160002060009054906101000a900460ff1660ff1660ff16815260200190815260200160002060070160008260ff1660ff1681526020019081526020016000206000018054612079906132e0565b80601f01602080910402602001604051908101604052809291908181526020018280546120a5906132e0565b80156120f25780601f106120c7576101008083540402835291602001916120f2565b820191906000526020600020905b8154815290600101906020018083116120d557829003601f168201915b5050505050828260ff168151811061210d5761210c613198565b5b60200260200101819052508080612123906131f6565b915050611f6b565b5080915050919050565b60606000806000600160008673ffffffffffffffffffffffffffffffffffffffff1673ffffffffffffffffffffffffffffffffffffffff16815260200190815260200160002060009054906101000a900460ff1660ff1660ff16815260200190815260200160002060040160009054906101000a900460ff1660ff1667ffffffffffffffff8111156121ca576121c9612b2a565b5b6040519080825280602002602001820160405280156121fd57816020015b60608152602001906001900390816121e85790505b50905060005b600080600160008773ffffffffffffffffffffffffffffffffffffffff1673ffffffffffffffffffffffffffffffffffffffff16815260200190815260200160002060009054906101000a900460ff1660ff1660ff16815260200190815260200160002060040160009054906101000a900460ff1660ff168160ff1610156123c357600080600160008773ffffffffffffffffffffffffffffffffffffffff1673ffffffffffffffffffffffffffffffffffffffff16815260200190815260200160002060009054906101000a900460ff1660ff1660ff16815260200190815260200160002060070160008260ff1660ff1681526020019081526020016000206001018054612311906132e0565b80601f016020809104026020016040519081016040528092919081815260200182805461233d906132e0565b801561238a5780601f1061235f5761010080835404028352916020019161238a565b820191906000526020600020905b81548152906001019060200180831161236d57829003601f168201915b5050505050828260ff16815181106123a5576123a4613198565b5b602002602001018190525080806123bb906131f6565b915050612203565b5080915050919050565b60006020528060005260406000206000915090508060000160009054906101000a900460ff1690806001015490806002018054612409906132e0565b80601f0160208091040260200160405190810160405280929190818152602001828054612435906132e0565b80156124825780601f1061245757610100808354040283529160200191612482565b820191906000526020600020905b81548152906001019060200180831161246557829003601f168201915b5050505050908060030154908060040160009054906101000a900460ff16908060040160019054906101000a900473ffffffffffffffffffffffffffffffffffffffff16908060050180546124d6906132e0565b80601f0160208091040260200160405190810160405280929190818152602001828054612502906132e0565b801561254f5780601f106125245761010080835404028352916020019161254f565b820191906000526020600020905b81548152906001019060200180831161253257829003601f168201915b505050505090806006018054612564906132e0565b80601f0160208091040260200160405190810160405280929190818152602001828054612590906132e0565b80156125dd5780601f106125b2576101008083540402835291602001916125dd565b820191906000526020600020905b8154815290600101906020018083116125c057829003601f168201915b5050505050905088565b6000806000600160008573ffffffffffffffffffffffffffffffffffffffff1673ffffffffffffffffffffffffffffffffffffffff16815260200190815260200160002060009054906101000a900460ff1660ff1660ff168152602001908152602001600020600301549050919050565b600260009054906101000a900460ff1681565b60016020528060005260406000206000915054906101000a900460ff1681565b60405180608001604052806000815260200160008152602001600073ffffffffffffffffffffffffffffffffffffffff168152602001600073ffffffffffffffffffffffffffffffffffffffff1681525090565b6000604051905090565b600080fd5b600080fd5b600073ffffffffffffffffffffffffffffffffffffffff82169050919050565b600061271e826126f3565b9050919050565b61272e81612713565b811461273957600080fd5b50565b60008135905061274b81612725565b92915050565b600060208284031215612767576127666126e9565b5b60006127758482850161273c565b91505092915050565b600081519050919050565b600082825260208201905092915050565b6000819050602082019050919050565b6000819050919050565b6127bd816127aa565b82525050565b60006127cf83836127b4565b60208301905092915050565b6000602082019050919050565b60006127f38261277e565b6127fd8185612789565b93506128088361279a565b8060005b8381101561283957815161282088826127c3565b975061282b836127db565b92505060018101905061280c565b5085935050505092915050565b6000602082019050818103600083015261286081846127e8565b905092915050565b600081519050919050565b600082825260208201905092915050565b6000819050602082019050919050565b61289d81612713565b82525050565b6080820160008201516128b960008501826127b4565b5060208201516128cc60208501826127b4565b5060408201516128df6040850182612894565b5060608201516128f26060850182612894565b50505050565b600061290483836128a3565b60808301905092915050565b6000602082019050919050565b600061292882612868565b6129328185612873565b935061293d83612884565b8060005b8381101561296e57815161295588826128f8565b975061296083612910565b925050600181019050612941565b5085935050505092915050565b60006020820190508181036000830152612995818461291d565b905092915050565b600060ff82169050919050565b6129b38161299d565b82525050565b60006020820190506129ce60008301846129aa565b92915050565b600080604083850312156129eb576129ea6126e9565b5b60006129f98582860161273c565b9250506020612a0a8582860161273c565b9150509250929050565b612a1d81612713565b82525050565b6000602082019050612a386000830184612a14565b92915050565b600081519050919050565b600082825260208201905092915050565b6000819050602082019050919050565b6000612a768383612894565b60208301905092915050565b6000602082019050919050565b6000612a9a82612a3e565b612aa48185612a49565b9350612aaf83612a5a565b8060005b83811015612ae0578151612ac78882612a6a565b9750612ad283612a82565b925050600181019050612ab3565b5085935050505092915050565b60006020820190508181036000830152612b078184612a8f565b905092915050565b600080fd5b600080fd5b6000601f19601f8301169050919050565b7f4e487b7100000000000000000000000000000000000000000000000000000000600052604160045260246000fd5b612b6282612b19565b810181811067ffffffffffffffff82111715612b8157612b80612b2a565b5b80604052505050565b6000612b946126df565b9050612ba08282612b59565b919050565b600067ffffffffffffffff821115612bc057612bbf612b2a565b5b612bc982612b19565b9050602081019050919050565b82818337600083830152505050565b6000612bf8612bf384612ba5565b612b8a565b905082815260208101848484011115612c1457612c13612b14565b5b612c1f848285612bd6565b509392505050565b600082601f830112612c3c57612c3b612b0f565b5b8135612c4c848260208601612be5565b91505092915050565b600067ffffffffffffffff821115612c7057612c6f612b2a565b5b602082029050602081019050919050565b600080fd5b6000612c99612c9484612c55565b612b8a565b90508083825260208201905060208402830185811115612cbc57612cbb612c81565b5b835b81811015612ce55780612cd1888261273c565b845260208401935050602081019050612cbe565b5050509392505050565b600082601f830112612d0457612d03612b0f565b5b8135612d14848260208601612c86565b91505092915050565b600067ffffffffffffffff821115612d3857612d37612b2a565b5b602082029050602081019050919050565b6000612d5c612d5784612d1d565b612b8a565b90508083825260208201905060208402830185811115612d7f57612d7e612c81565b5b835b81811015612dc657803567ffffffffffffffff811115612da457612da3612b0f565b5b808601612db18982612c27565b85526020850194505050602081019050612d81565b5050509392505050565b600082601f830112612de557612de4612b0f565b5b8135612df5848260208601612d49565b91505092915050565b60008060008060808587031215612e1857612e176126e9565b5b600085013567ffffffffffffffff811115612e3657612e356126ee565b5b612e4287828801612c27565b945050602085013567ffffffffffffffff811115612e6357612e626126ee565b5b612e6f87828801612cef565b935050604085013567ffffffffffffffff811115612e9057612e8f6126ee565b5b612e9c87828801612dd0565b925050606085013567ffffffffffffffff811115612ebd57612ebc6126ee565b5b612ec987828801612dd0565b91505092959194509250565b600081519050919050565b600082825260208201905092915050565b6000819050602082019050919050565b600081519050919050565b600082825260208201905092915050565b60005b83811015612f3b578082015181840152602081019050612f20565b60008484015250505050565b6000612f5282612f01565b612f5c8185612f0c565b9350612f6c818560208601612f1d565b612f7581612b19565b840191505092915050565b6000612f8c8383612f47565b905092915050565b6000602082019050919050565b6000612fac82612ed5565b612fb68185612ee0565b935083602082028501612fc885612ef1565b8060005b858110156130045784840389528151612fe58582612f80565b9450612ff083612f94565b925060208a01995050600181019050612fcc565b50829750879550505050505092915050565b600060208201905081810360008301526130308184612fa1565b905092915050565b6130418161299d565b811461304c57600080fd5b50565b60008135905061305e81613038565b92915050565b60006020828403121561307a576130796126e9565b5b60006130888482850161304f565b91505092915050565b61309a816127aa565b82525050565b600082825260208201905092915050565b60006130bc82612f01565b6130c681856130a0565b93506130d6818560208601612f1d565b6130df81612b19565b840191505092915050565b600061010082019050613100600083018b6129aa565b61310d602083018a613091565b818103604083015261311f81896130b1565b905061312e6060830188613091565b61313b60808301876129aa565b61314860a0830186612a14565b81810360c083015261315a81856130b1565b905081810360e083015261316e81846130b1565b90509998505050505050505050565b60006020820190506131926000830184613091565b92915050565b7f4e487b7100000000000000000000000000000000000000000000000000000000600052603260045260246000fd5b7f4e487b7100000000000000000000000000000000000000000000000000000000600052601160045260246000fd5b60006132018261299d565b915060ff8203613214576132136131c7565b5b600182019050919050565b7f5468652077616c6c6574206e6565647320746f2068617665206174206c65617360008201527f7420312075736572000000000000000000000000000000000000000000000000602082015250565b600061327b6028836130a0565b91506132868261321f565b604082019050919050565b600060208201905081810360008301526132aa8161326e565b9050919050565b7f4e487b7100000000000000000000000000000000000000000000000000000000600052602260045260246000fd5b600060028204905060018216806132f857607f821691505b60208210810361330b5761330a6132b1565b5b50919050565b60008190508160005260206000209050919050565b60006020601f8301049050919050565b600082821b905092915050565b6000600883026133737fffffffffffffffffffffffffffffffffffffffffffffffffffffffffffffffff82613336565b61337d8683613336565b95508019841693508086168417925050509392505050565b6000819050919050565b60006133ba6133b56133b0846127aa565b613395565b6127aa565b9050919050565b6000819050919050565b6133d48361339f565b6133e86133e0826133c1565b848454613343565b825550505050565b600090565b6133fd6133f0565b6134088184846133cb565b505050565b5b8181101561342c576134216000826133f5565b60018101905061340e565b5050565b601f8211156134715761344281613311565b61344b84613326565b8101602085101561345a578190505b61346e61346685613326565b83018261340d565b50505b505050565b600082821c905092915050565b600061349460001984600802613476565b1980831691505092915050565b60006134ad8383613483565b9150826002028217905092915050565b6134c682612f01565b67ffffffffffffffff8111156134df576134de612b2a565b5b6134e982546132e0565b6134f4828285613430565b600060209050601f8311600181146135275760008415613515578287015190505b61351f85826134a1565b865550613587565b601f19841661353586613311565b60005b8281101561355d57848901518255600182019150602085019450602081019050613538565b8683101561357a5784890151613576601f891682613483565b8355505b6001600288020188555050505b505050505050565b600061359a8261299d565b9150600082036135ad576135ac6131c7565b5b600182039050919050565b60006135c3826127aa565b91506135ce836127aa565b92508282019050808211156135e6576135e56131c7565b5b92915050565b7f412077616c6c6574206e65656473206174206c65617374206f6e652075736572600082015250565b60006136226020836130a0565b915061362d826135ec565b602082019050919050565b6000602082019050818103600083015261365181613615565b9050919050565b7f4f6e65206f72206d6f7265207573657273206861766520616c7265616479206a60008201527f6f696e656420616e6f746865722077616c6c6574000000000000000000000000602082015250565b60006136b46034836130a0565b91506136bf82613658565b604082019050919050565b600060208201905081810360008301526136e3816136a7565b9050919050565b7f5468652077616c6c65742063616e206e6f742068617665206475706c6963617460008201527f6520616464726573736573000000000000000000000000000000000000000000602082015250565b6000613746602b836130a0565b9150613751826136ea565b604082019050919050565b6000602082019050818103600083015261377581613739565b9050919050565b6000613787826127aa565b91507fffffffffffffffffffffffffffffffffffffffffffffffffffffffffffffffff82036137b9576137b86131c7565b5b600182019050919050565b7f5468652077616c6c6574206e656564732061206e616d65000000000000000000600082015250565b60006137fa6017836130a0565b9150613805826137c4565b602082019050919050565b60006020820190508181036000830152613829816137ed565b9050919050565b7f546865207573657273206e65656420746f206861766520626f7468206669727360008201527f7420616e64206c617374206e616d657300000000000000000000000000000000602082015250565b600061388c6030836130a0565b915061389782613830565b604082019050919050565b600060208201905081810360008301526138bb8161387f565b9050919050565b60006138cd8261299d565b91506138d88361299d565b9250828201905060ff8111156138f1576138f06131c7565b5b9291505056fea264697066735822122095c829c9d5def22bacb2154ad81b3f9194443f5c85c990229647e9ccae70983d64736f6c63430008110033",
  "linkReferences": {},
  "deployedLinkReferences": {}
}