{
  "_format": "hh-sol-artifact-1",
  "contractName": "TheVault",
  "sourceName": "contracts/TheVault.sol",
  "abi": [
    {
      "inputs": [
        {
          "internalType": "uint256",
          "name": "amount",
          "type": "uint256"
        },
        {
          "internalType": "uint256",
          "name": "limit",
          "type": "uint256"
        }
      ],
      "name": "checkWithdrawalLimit",
      "outputs": [
        {
          "internalType": "bool",
          "name": "",
          "type": "bool"
        }
      ],
      "stateMutability": "view",
      "type": "function"
    },
    {
      "inputs": [
        {
          "internalType": "address",
          "name": "memberAddress",
          "type": "address"
        }
      ],
      "name": "getWalletBalance",
      "outputs": [
        {
          "internalType": "uint256",
          "name": "",
          "type": "uint256"
        }
      ],
      "stateMutability": "view",
      "type": "function"
    },
    {
      "inputs": [
        {
          "internalType": "address",
          "name": "memberAddress",
          "type": "address"
        }
      ],
      "name": "getWalletId",
      "outputs": [
        {
          "internalType": "uint8",
          "name": "",
          "type": "uint8"
        }
      ],
      "stateMutability": "view",
      "type": "function"
    },
    {
      "inputs": [
        {
          "internalType": "address",
          "name": "memberAddress",
          "type": "address"
        }
      ],
      "name": "getWalletMembersAddresses",
      "outputs": [
        {
          "internalType": "address[]",
          "name": "",
          "type": "address[]"
        }
      ],
      "stateMutability": "view",
      "type": "function"
    },
    {
      "inputs": [
        {
          "internalType": "address",
          "name": "memberAddress",
          "type": "address"
        }
      ],
      "name": "getWalletMembersBalances",
      "outputs": [
        {
          "internalType": "uint256[]",
          "name": "",
          "type": "uint256[]"
        }
      ],
      "stateMutability": "view",
      "type": "function"
    },
    {
      "inputs": [
        {
          "internalType": "address",
          "name": "memberAddress",
          "type": "address"
        }
      ],
      "name": "getWalletMembersFirstNames",
      "outputs": [
        {
          "internalType": "string[]",
          "name": "",
          "type": "string[]"
        }
      ],
      "stateMutability": "view",
      "type": "function"
    },
    {
      "inputs": [
        {
          "internalType": "address",
          "name": "memberAddress",
          "type": "address"
        }
      ],
      "name": "getWalletMembersLastNames",
      "outputs": [
        {
          "internalType": "string[]",
          "name": "",
          "type": "string[]"
        }
      ],
      "stateMutability": "view",
      "type": "function"
    },
    {
      "inputs": [
        {
          "internalType": "address",
          "name": "memberAddress",
          "type": "address"
        }
      ],
      "name": "getWalletMembersWithdrawalLimits",
      "outputs": [
        {
          "internalType": "uint256[]",
          "name": "",
          "type": "uint256[]"
        }
      ],
      "stateMutability": "view",
      "type": "function"
    },
    {
      "inputs": [
        {
          "internalType": "address",
          "name": "memberAddress",
          "type": "address"
        }
      ],
      "name": "getWalletName",
      "outputs": [
        {
          "internalType": "string",
          "name": "",
          "type": "string"
        }
      ],
      "stateMutability": "view",
      "type": "function"
    },
    {
      "inputs": [
        {
          "internalType": "address",
          "name": "memberAddress",
          "type": "address"
        }
      ],
      "name": "getWalletOwner",
      "outputs": [
        {
          "internalType": "address",
          "name": "",
          "type": "address"
        }
      ],
      "stateMutability": "view",
      "type": "function"
    },
    {
      "inputs": [
        {
          "internalType": "address",
          "name": "memberAddress",
          "type": "address"
        }
      ],
      "name": "getWalletPublicFunds",
      "outputs": [
        {
          "internalType": "uint256",
          "name": "",
          "type": "uint256"
        }
      ],
      "stateMutability": "view",
      "type": "function"
    },
    {
      "inputs": [
        {
          "internalType": "address",
          "name": "memberAddress",
          "type": "address"
        }
      ],
      "name": "getWalletTransactions",
      "outputs": [
        {
          "components": [
            {
              "internalType": "uint256",
              "name": "date",
              "type": "uint256"
            },
            {
              "internalType": "uint256",
              "name": "value",
              "type": "uint256"
            },
            {
              "internalType": "address",
              "name": "senderAddress",
              "type": "address"
            },
            {
              "internalType": "address",
              "name": "recipientAddress",
              "type": "address"
            },
            {
              "internalType": "string",
              "name": "txType",
              "type": "string"
            }
          ],
          "internalType": "struct TheVault.Transaction[]",
          "name": "",
          "type": "tuple[]"
        }
      ],
      "stateMutability": "view",
      "type": "function"
    },
    {
      "inputs": [
        {
          "internalType": "string",
          "name": "walletName",
          "type": "string"
        },
        {
          "internalType": "address[]",
          "name": "membersAddresses",
          "type": "address[]"
        },
        {
          "internalType": "string[]",
          "name": "membersFirstNames",
          "type": "string[]"
        },
        {
          "internalType": "string[]",
          "name": "membersLastNames",
          "type": "string[]"
        },
        {
          "internalType": "uint256[]",
          "name": "membersWithdrawalLimits",
          "type": "uint256[]"
        }
      ],
      "name": "initializeWallet",
      "outputs": [],
      "stateMutability": "payable",
      "type": "function"
    },
    {
      "inputs": [
        {
          "internalType": "address",
          "name": "memberAddress",
          "type": "address"
        }
      ],
      "name": "leaveWallet",
      "outputs": [],
      "stateMutability": "nonpayable",
      "type": "function"
    },
    {
      "inputs": [
        {
          "internalType": "address",
          "name": "recipientAddress",
          "type": "address"
        }
      ],
      "name": "sendFundsToMember",
      "outputs": [],
      "stateMutability": "payable",
      "type": "function"
    },
    {
      "inputs": [],
      "name": "sendFundsToWallet",
      "outputs": [],
      "stateMutability": "payable",
      "type": "function"
    },
    {
      "inputs": [
        {
          "internalType": "uint8",
          "name": "",
          "type": "uint8"
        }
      ],
      "name": "wallet",
      "outputs": [
        {
          "internalType": "uint8",
          "name": "id",
          "type": "uint8"
        },
        {
          "internalType": "uint256",
          "name": "creationDate",
          "type": "uint256"
        },
        {
          "internalType": "string",
          "name": "name",
          "type": "string"
        },
        {
          "internalType": "uint256",
          "name": "balance",
          "type": "uint256"
        },
        {
          "internalType": "uint256",
          "name": "publicFunds",
          "type": "uint256"
        },
        {
          "internalType": "uint8",
          "name": "memberCounter",
          "type": "uint8"
        },
        {
          "internalType": "address",
          "name": "ownerAddress",
          "type": "address"
        },
        {
          "internalType": "string",
          "name": "ownerFirstName",
          "type": "string"
        },
        {
          "internalType": "string",
          "name": "ownerLastName",
          "type": "string"
        }
      ],
      "stateMutability": "view",
      "type": "function"
    },
    {
      "inputs": [],
      "name": "walletCounter",
      "outputs": [
        {
          "internalType": "uint8",
          "name": "",
          "type": "uint8"
        }
      ],
      "stateMutability": "view",
      "type": "function"
    },
    {
      "inputs": [
        {
          "internalType": "address",
          "name": "",
          "type": "address"
        }
      ],
      "name": "walletMemberId",
      "outputs": [
        {
          "internalType": "uint8",
          "name": "",
          "type": "uint8"
        }
      ],
      "stateMutability": "view",
      "type": "function"
    },
    {
      "inputs": [
        {
          "internalType": "uint256",
          "name": "amount",
          "type": "uint256"
        }
      ],
      "name": "withdrawFundsFromWallet",
      "outputs": [],
      "stateMutability": "nonpayable",
      "type": "function"
    },
    {
      "inputs": [
        {
          "internalType": "uint256",
          "name": "amount",
          "type": "uint256"
        }
      ],
      "name": "withdrawMemberFunds",
      "outputs": [],
      "stateMutability": "nonpayable",
      "type": "function"
    }
  ],
  "bytecode": "0x608060405234801561001057600080fd5b50615d3680620000216000396000f3fe60806040526004361061012a5760003560e01c806388785882116100ab578063b6206b441161006f578063b6206b4414610432578063babf53af1461046f578063e428c289146104ac578063ed8ec194146104f1578063f64d70601461052e578063fa59d636146105595761012a565b80638878588214610336578063966708a51461035f5780639c36c46a1461039c578063a02c15d7146103d9578063a967028a146103f55761012a565b8063265c4214116100f2578063265c42141461022d5780633b661002146102565780635623aee61461027f5780635a8ff969146102bc578063694cdfd2146102f95761012a565b8063026e66231461012f5780630afa1f0b1461016c578063117d94f5146101a9578063145045e6146101b35780631a3ca69c146101f0575b600080fd5b34801561013b57600080fd5b50610156600480360381019061015191906143f2565b610575565b6040516101639190614438565b60405180910390f35b34801561017857600080fd5b50610193600480360381019061018e91906143f2565b6105e6565b6040516101a09190614511565b60405180910390f35b6101b16107f2565b005b3480156101bf57600080fd5b506101da60048036038101906101d591906143f2565b610a8f565b6040516101e7919061470a565b60405180910390f35b3480156101fc57600080fd5b50610217600480360381019061021291906143f2565b610d6d565b6040516102249190614511565b60405180910390f35b34801561023957600080fd5b50610254600480360381019061024f91906143f2565b610f79565b005b34801561026257600080fd5b5061027d60048036038101906102789190614758565b6117b4565b005b34801561028b57600080fd5b506102a660048036038101906102a191906143f2565b611bb7565b6040516102b391906147a1565b60405180910390f35b3480156102c857600080fd5b506102e360048036038101906102de91906143f2565b611bd7565b6040516102f091906147a1565b60405180910390f35b34801561030557600080fd5b50610320600480360381019061031b91906147bc565b611c2d565b60405161032d9190614817565b60405180910390f35b34801561034257600080fd5b5061035d60048036038101906103589190614758565b612360565b005b34801561036b57600080fd5b50610386600480360381019061038191906143f2565b612aec565b6040516103939190614841565b60405180910390f35b3480156103a857600080fd5b506103c360048036038101906103be91906143f2565b612b7d565b6040516103d0919061490b565b60405180910390f35b6103f360048036038101906103ee9190614cce565b612dd7565b005b34801561040157600080fd5b5061041c600480360381019061041791906143f2565b6135b4565b6040516104299190614e1f565b60405180910390f35b34801561043e57600080fd5b50610459600480360381019061045491906143f2565b6136ad565b6040516104669190614f03565b60405180910390f35b34801561047b57600080fd5b50610496600480360381019061049191906143f2565b613945565b6040516104a39190614f03565b60405180910390f35b3480156104b857600080fd5b506104d360048036038101906104ce9190614f51565b613bdd565b6040516104e899989796959493929190614f7e565b60405180910390f35b3480156104fd57600080fd5b50610518600480360381019061051391906143f2565b613dfd565b6040516105259190614438565b60405180910390f35b34801561053a57600080fd5b50610543613e6e565b60405161055091906147a1565b60405180910390f35b610573600480360381019061056e91906143f2565b613e81565b005b6000806000600160008573ffffffffffffffffffffffffffffffffffffffff1673ffffffffffffffffffffffffffffffffffffffff16815260200190815260200160002060009054906101000a900460ff1660ff1660ff168152602001908152602001600020600401549050919050565b60606000806000600160008673ffffffffffffffffffffffffffffffffffffffff1673ffffffffffffffffffffffffffffffffffffffff16815260200190815260200160002060009054906101000a900460ff1660ff1660ff16815260200190815260200160002060050160009054906101000a900460ff1660ff1667ffffffffffffffff81111561067b5761067a614937565b5b6040519080825280602002602001820160405280156106a95781602001602082028036833780820191505090505b50905060005b600080600160008773ffffffffffffffffffffffffffffffffffffffff1673ffffffffffffffffffffffffffffffffffffffff16815260200190815260200160002060009054906101000a900460ff1660ff1660ff16815260200190815260200160002060050160009054906101000a900460ff1660ff168160ff1610156107e857600080600160008773ffffffffffffffffffffffffffffffffffffffff1673ffffffffffffffffffffffffffffffffffffffff16815260200190815260200160002060009054906101000a900460ff1660ff1660ff16815260200190815260200160002060080160008260ff1660ff16815260200190815260200160002060030154828260ff16815181106107c9576107c8615020565b5b60200260200101818152505080806107e09061507e565b9150506106af565b5080915050919050565b3460008111610836576040517f08c379a000000000000000000000000000000000000000000000000000000000815260040161082d90615119565b60405180910390fd5b34600080600160003373ffffffffffffffffffffffffffffffffffffffff1673ffffffffffffffffffffffffffffffffffffffff16815260200190815260200160002060009054906101000a900460ff1660ff1660ff16815260200190815260200160002060040160008282546108ad9190615139565b9250508190555060006040518060a001604052804281526020013481526020013373ffffffffffffffffffffffffffffffffffffffff1681526020013073ffffffffffffffffffffffffffffffffffffffff1681526020016040518060400160405280601081526020017f73656e6455736572546f57616c6c6574000000000000000000000000000000008152508152509050600080600160003373ffffffffffffffffffffffffffffffffffffffff1673ffffffffffffffffffffffffffffffffffffffff16815260200190815260200160002060009054906101000a900460ff1660ff1660ff168152602001908152602001600020600901819080600181540180825580915050600190039060005260206000209060050201600090919091909150600082015181600001556020820151816001015560408201518160020160006101000a81548173ffffffffffffffffffffffffffffffffffffffff021916908373ffffffffffffffffffffffffffffffffffffffff16021790555060608201518160030160006101000a81548173ffffffffffffffffffffffffffffffffffffffff021916908373ffffffffffffffffffffffffffffffffffffffff1602179055506080820151816004019081610a889190615379565b5050505050565b60606000806000600160008673ffffffffffffffffffffffffffffffffffffffff1673ffffffffffffffffffffffffffffffffffffffff16815260200190815260200160002060009054906101000a900460ff1660ff1660ff1681526020019081526020016000206009018054905067ffffffffffffffff811115610b1757610b16614937565b5b604051908082528060200260200182016040528015610b5057816020015b610b3d614325565b815260200190600190039081610b355790505b509050600080600160008673ffffffffffffffffffffffffffffffffffffffff1673ffffffffffffffffffffffffffffffffffffffff16815260200190815260200160002060009054906101000a900460ff1660ff1660ff168152602001908152602001600020600901805480602002602001604051908101604052809291908181526020016000905b82821015610d5e57838290600052602060002090600502016040518060a001604052908160008201548152602001600182015481526020016002820160009054906101000a900473ffffffffffffffffffffffffffffffffffffffff1673ffffffffffffffffffffffffffffffffffffffff1673ffffffffffffffffffffffffffffffffffffffff1681526020016003820160009054906101000a900473ffffffffffffffffffffffffffffffffffffffff1673ffffffffffffffffffffffffffffffffffffffff1673ffffffffffffffffffffffffffffffffffffffff168152602001600482018054610ccd9061519c565b80601f0160208091040260200160405190810160405280929190818152602001828054610cf99061519c565b8015610d465780601f10610d1b57610100808354040283529160200191610d46565b820191906000526020600020905b815481529060010190602001808311610d2957829003601f168201915b50505050508152505081526020019060010190610bda565b50505050905080915050919050565b60606000806000600160008673ffffffffffffffffffffffffffffffffffffffff1673ffffffffffffffffffffffffffffffffffffffff16815260200190815260200160002060009054906101000a900460ff1660ff1660ff16815260200190815260200160002060050160009054906101000a900460ff1660ff1667ffffffffffffffff811115610e0257610e01614937565b5b604051908082528060200260200182016040528015610e305781602001602082028036833780820191505090505b50905060005b600080600160008773ffffffffffffffffffffffffffffffffffffffff1673ffffffffffffffffffffffffffffffffffffffff16815260200190815260200160002060009054906101000a900460ff1660ff1660ff16815260200190815260200160002060050160009054906101000a900460ff1660ff168160ff161015610f6f57600080600160008773ffffffffffffffffffffffffffffffffffffffff1673ffffffffffffffffffffffffffffffffffffffff16815260200190815260200160002060009054906101000a900460ff1660ff1660ff16815260200190815260200160002060080160008260ff1660ff16815260200190815260200160002060040154828260ff1681518110610f5057610f4f615020565b5b6020026020010181815250508080610f679061507e565b915050610e36565b5080915050919050565b806000806000600160008573ffffffffffffffffffffffffffffffffffffffff1673ffffffffffffffffffffffffffffffffffffffff16815260200190815260200160002060009054906101000a900460ff1660ff1660ff16815260200190815260200160002060050160009054906101000a900460ff1660ff1611611034576040517f08c379a000000000000000000000000000000000000000000000000000000000815260040161102b906154bd565b60405180910390fd5b60005b600080600160008673ffffffffffffffffffffffffffffffffffffffff1673ffffffffffffffffffffffffffffffffffffffff16815260200190815260200160002060009054906101000a900460ff1660ff1660ff16815260200190815260200160002060050160009054906101000a900460ff1660ff168160ff161015611332578273ffffffffffffffffffffffffffffffffffffffff16600080600160008773ffffffffffffffffffffffffffffffffffffffff1673ffffffffffffffffffffffffffffffffffffffff16815260200190815260200160002060009054906101000a900460ff1660ff1660ff16815260200190815260200160002060080160008360ff1660ff16815260200190815260200160002060020160009054906101000a900473ffffffffffffffffffffffffffffffffffffffff1673ffffffffffffffffffffffffffffffffffffffff160361131f576040518060c00160405280604051806020016040528060008152508152602001604051806020016040528060008152508152602001600073ffffffffffffffffffffffffffffffffffffffff168152602001600060ff168152602001600081526020016000815250600080600160008773ffffffffffffffffffffffffffffffffffffffff1673ffffffffffffffffffffffffffffffffffffffff16815260200190815260200160002060009054906101000a900460ff1660ff1660ff16815260200190815260200160002060080160008360ff1660ff16815260200190815260200160002060008201518160000190816112889190615379565b50602082015181600101908161129e9190615379565b5060408201518160020160006101000a81548173ffffffffffffffffffffffffffffffffffffffff021916908373ffffffffffffffffffffffffffffffffffffffff16021790555060608201518160020160146101000a81548160ff021916908360ff1602179055506080820151816003015560a082015181600401559050505b808061132a9061507e565b915050611037565b50600080600160008573ffffffffffffffffffffffffffffffffffffffff1673ffffffffffffffffffffffffffffffffffffffff16815260200190815260200160002060009054906101000a900460ff1660ff1660ff168152602001908152602001600020600501600081819054906101000a900460ff16809291906113b7906154dd565b91906101000a81548160ff021916908360ff160217905550506000600160008473ffffffffffffffffffffffffffffffffffffffff1673ffffffffffffffffffffffffffffffffffffffff16815260200190815260200160002060006101000a81548160ff021916908360ff1602179055506000806000600160008673ffffffffffffffffffffffffffffffffffffffff1673ffffffffffffffffffffffffffffffffffffffff16815260200190815260200160002060009054906101000a900460ff1660ff1660ff16815260200190815260200160002060050160009054906101000a900460ff1660ff16036117b0576000806000600160008673ffffffffffffffffffffffffffffffffffffffff1673ffffffffffffffffffffffffffffffffffffffff16815260200190815260200160002060009054906101000a900460ff1660ff1660ff16815260200190815260200160002060000160006101000a81548160ff021916908360ff1602179055506000806000600160008673ffffffffffffffffffffffffffffffffffffffff1673ffffffffffffffffffffffffffffffffffffffff16815260200190815260200160002060009054906101000a900460ff1660ff1660ff1681526020019081526020016000206001018190555060405180602001604052806000815250600080600160008673ffffffffffffffffffffffffffffffffffffffff1673ffffffffffffffffffffffffffffffffffffffff16815260200190815260200160002060009054906101000a900460ff1660ff1660ff16815260200190815260200160002060020190816116199190615379565b506000806000600160008673ffffffffffffffffffffffffffffffffffffffff1673ffffffffffffffffffffffffffffffffffffffff16815260200190815260200160002060009054906101000a900460ff1660ff1660ff168152602001908152602001600020600301819055506000806000600160008673ffffffffffffffffffffffffffffffffffffffff1673ffffffffffffffffffffffffffffffffffffffff16815260200190815260200160002060009054906101000a900460ff1660ff1660ff16815260200190815260200160002060050160006101000a81548160ff021916908360ff1602179055506000806000600160008673ffffffffffffffffffffffffffffffffffffffff1673ffffffffffffffffffffffffffffffffffffffff16815260200190815260200160002060009054906101000a900460ff1660ff1660ff16815260200190815260200160002060050160016101000a81548173ffffffffffffffffffffffffffffffffffffffff021916908373ffffffffffffffffffffffffffffffffffffffff1602179055505b5050565b80600081116117f8576040517f08c379a00000000000000000000000000000000000000000000000000000000081526004016117ef90615119565b60405180910390fd5b818047101561183c576040517f08c379a000000000000000000000000000000000000000000000000000000000815260040161183390615578565b60405180910390fd5b8280600080600160003373ffffffffffffffffffffffffffffffffffffffff1673ffffffffffffffffffffffffffffffffffffffff16815260200190815260200160002060009054906101000a900460ff1660ff1660ff1681526020019081526020016000206004015410156118e7576040517f08c379a00000000000000000000000000000000000000000000000000000000081526004016118de9061560a565b60405180910390fd5b60003373ffffffffffffffffffffffffffffffffffffffff168560405161190d9061565b565b60006040518083038185875af1925050503d806000811461194a576040519150601f19603f3d011682016040523d82523d6000602084013e61194f565b606091505b505090508015611bb05784600080600160003373ffffffffffffffffffffffffffffffffffffffff1673ffffffffffffffffffffffffffffffffffffffff16815260200190815260200160002060009054906101000a900460ff1660ff1660ff16815260200190815260200160002060040160008282546119d09190615670565b9250508190555060006040518060a001604052804281526020018781526020013073ffffffffffffffffffffffffffffffffffffffff1681526020013373ffffffffffffffffffffffffffffffffffffffff1681526020016040518060400160405280601481526020017f776974686472617757616c6c6574546f557365720000000000000000000000008152508152509050600080600160003373ffffffffffffffffffffffffffffffffffffffff1673ffffffffffffffffffffffffffffffffffffffff16815260200190815260200160002060009054906101000a900460ff1660ff1660ff168152602001908152602001600020600901819080600181540180825580915050600190039060005260206000209060050201600090919091909150600082015181600001556020820151816001015560408201518160020160006101000a81548173ffffffffffffffffffffffffffffffffffffffff021916908373ffffffffffffffffffffffffffffffffffffffff16021790555060608201518160030160006101000a81548173ffffffffffffffffffffffffffffffffffffffff021916908373ffffffffffffffffffffffffffffffffffffffff1602179055506080820151816004019081611bab9190615379565b505050505b5050505050565b60016020528060005260406000206000915054906101000a900460ff1681565b6000600160008373ffffffffffffffffffffffffffffffffffffffff1673ffffffffffffffffffffffffffffffffffffffff16815260200190815260200160002060009054906101000a900460ff169050919050565b6000806000905082841115611c4657600091505061235a565b6000806000600160003373ffffffffffffffffffffffffffffffffffffffff1673ffffffffffffffffffffffffffffffffffffffff16815260200190815260200160002060009054906101000a900460ff1660ff1660ff1681526020019081526020016000206009018054905067ffffffffffffffff811115611ccc57611ccb614937565b5b604051908082528060200260200182016040528015611d0557816020015b611cf2614325565b815260200190600190039081611cea5790505b50905060008151111561233557600060018251611d229190615670565b90505b600081111561203857604051602001611d3d906156fb565b60405160208183030381529060405280519060200120600080600160003373ffffffffffffffffffffffffffffffffffffffff1673ffffffffffffffffffffffffffffffffffffffff16815260200190815260200160002060009054906101000a900460ff1660ff1660ff1681526020019081526020016000206009018281548110611dcc57611dcb615020565b5b9060005260206000209060050201600401604051602001611ded9190615793565b60405160208183030381529060405280519060200120148015611ee557503373ffffffffffffffffffffffffffffffffffffffff16600080600160003373ffffffffffffffffffffffffffffffffffffffff1673ffffffffffffffffffffffffffffffffffffffff16815260200190815260200160002060009054906101000a900460ff1660ff1660ff1681526020019081526020016000206009018281548110611e9b57611e9a615020565b5b906000526020600020906005020160030160009054906101000a900473ffffffffffffffffffffffffffffffffffffffff1673ffffffffffffffffffffffffffffffffffffffff16145b8015611f875750610e10600080600160003373ffffffffffffffffffffffffffffffffffffffff1673ffffffffffffffffffffffffffffffffffffffff16815260200190815260200160002060009054906101000a900460ff1660ff1660ff1681526020019081526020016000206009018281548110611f6857611f67615020565b5b906000526020600020906005020160000154611f849190615139565b42105b1561202557600080600160003373ffffffffffffffffffffffffffffffffffffffff1673ffffffffffffffffffffffffffffffffffffffff16815260200190815260200160002060009054906101000a900460ff1660ff1660ff168152602001908152602001600020600901818154811061200557612004615020565b5b906000526020600020906005020160010154836120229190615139565b92505b8080612030906157aa565b915050611d25565b50604051602001612048906156fb565b60405160208183030381529060405280519060200120600080600160003373ffffffffffffffffffffffffffffffffffffffff1673ffffffffffffffffffffffffffffffffffffffff16815260200190815260200160002060009054906101000a900460ff1660ff1660ff1681526020019081526020016000206009016000815481106120d8576120d7615020565b5b90600052602060002090600502016004016040516020016120f99190615793565b604051602081830303815290604052805190602001201480156121f257503373ffffffffffffffffffffffffffffffffffffffff16600080600160003373ffffffffffffffffffffffffffffffffffffffff1673ffffffffffffffffffffffffffffffffffffffff16815260200190815260200160002060009054906101000a900460ff1660ff1660ff1681526020019081526020016000206009016000815481106121a8576121a7615020565b5b906000526020600020906005020160030160009054906101000a900473ffffffffffffffffffffffffffffffffffffffff1673ffffffffffffffffffffffffffffffffffffffff16145b80156122955750610e10600080600160003373ffffffffffffffffffffffffffffffffffffffff1673ffffffffffffffffffffffffffffffffffffffff16815260200190815260200160002060009054906101000a900460ff1660ff1660ff16815260200190815260200160002060090160008154811061227657612275615020565b5b9060005260206000209060050201600001546122929190615139565b42105b1561233457600080600160003373ffffffffffffffffffffffffffffffffffffffff1673ffffffffffffffffffffffffffffffffffffffff16815260200190815260200160002060009054906101000a900460ff1660ff1660ff16815260200190815260200160002060090160008154811061231457612313615020565b5b906000526020600020906005020160010154826123319190615139565b91505b5b8385836123429190615139565b11156123535760009250505061235a565b6001925050505b92915050565b80600081116123a4576040517f08c379a000000000000000000000000000000000000000000000000000000000815260040161239b90615119565b60405180910390fd5b8160005b600080600160003373ffffffffffffffffffffffffffffffffffffffff1673ffffffffffffffffffffffffffffffffffffffff16815260200190815260200160002060009054906101000a900460ff1660ff1660ff16815260200190815260200160002060050160009054906101000a900460ff1660ff168160ff1610156125d657600080600160003373ffffffffffffffffffffffffffffffffffffffff1673ffffffffffffffffffffffffffffffffffffffff16815260200190815260200160002060009054906101000a900460ff1660ff1660ff16815260200190815260200160002060080160008260ff1660ff16815260200190815260200160002060020160009054906101000a900473ffffffffffffffffffffffffffffffffffffffff1673ffffffffffffffffffffffffffffffffffffffff163373ffffffffffffffffffffffffffffffffffffffff16036125c35781600080600160003373ffffffffffffffffffffffffffffffffffffffff1673ffffffffffffffffffffffffffffffffffffffff16815260200190815260200160002060009054906101000a900460ff1660ff1660ff16815260200190815260200160002060080160008360ff1660ff1681526020019081526020016000206003015410156125c2576040517f08c379a00000000000000000000000000000000000000000000000000000000081526004016125b99061581f565b60405180910390fd5b5b80806125ce9061507e565b9150506123a8565b5060003373ffffffffffffffffffffffffffffffffffffffff16846040516125fd9061565b565b60006040518083038185875af1925050503d806000811461263a576040519150601f19603f3d011682016040523d82523d6000602084013e61263f565b606091505b5050905080612683576040517f08c379a000000000000000000000000000000000000000000000000000000000815260040161267a906158b1565b60405180910390fd5b8015612ae65783600080600160003373ffffffffffffffffffffffffffffffffffffffff1673ffffffffffffffffffffffffffffffffffffffff16815260200190815260200160002060009054906101000a900460ff1660ff1660ff16815260200190815260200160002060030160008282546127009190615670565b9250508190555060005b600080600160003373ffffffffffffffffffffffffffffffffffffffff1673ffffffffffffffffffffffffffffffffffffffff16815260200190815260200160002060009054906101000a900460ff1660ff1660ff16815260200190815260200160002060050160009054906101000a900460ff1660ff168160ff16101561290c573373ffffffffffffffffffffffffffffffffffffffff16600080600160003373ffffffffffffffffffffffffffffffffffffffff1673ffffffffffffffffffffffffffffffffffffffff16815260200190815260200160002060009054906101000a900460ff1660ff1660ff16815260200190815260200160002060080160008360ff1660ff16815260200190815260200160002060020160009054906101000a900473ffffffffffffffffffffffffffffffffffffffff1673ffffffffffffffffffffffffffffffffffffffff16036128f95784600080600160003373ffffffffffffffffffffffffffffffffffffffff1673ffffffffffffffffffffffffffffffffffffffff16815260200190815260200160002060009054906101000a900460ff1660ff1660ff16815260200190815260200160002060080160008360ff1660ff16815260200190815260200160002060030160008282546128f19190615670565b925050819055505b80806129049061507e565b91505061270a565b5060006040518060a001604052804281526020018681526020013373ffffffffffffffffffffffffffffffffffffffff1681526020013373ffffffffffffffffffffffffffffffffffffffff1681526020016040518060400160405280601281526020017f776974686472617755736572546f5573657200000000000000000000000000008152508152509050600080600160003373ffffffffffffffffffffffffffffffffffffffff1673ffffffffffffffffffffffffffffffffffffffff16815260200190815260200160002060009054906101000a900460ff1660ff1660ff168152602001908152602001600020600901819080600181540180825580915050600190039060005260206000209060050201600090919091909150600082015181600001556020820151816001015560408201518160020160006101000a81548173ffffffffffffffffffffffffffffffffffffffff021916908373ffffffffffffffffffffffffffffffffffffffff16021790555060608201518160030160006101000a81548173ffffffffffffffffffffffffffffffffffffffff021916908373ffffffffffffffffffffffffffffffffffffffff1602179055506080820151816004019081612ae19190615379565b505050505b50505050565b6000806000600160008573ffffffffffffffffffffffffffffffffffffffff1673ffffffffffffffffffffffffffffffffffffffff16815260200190815260200160002060009054906101000a900460ff1660ff1660ff16815260200190815260200160002060050160019054906101000a900473ffffffffffffffffffffffffffffffffffffffff169050919050565b60606000806000600160008673ffffffffffffffffffffffffffffffffffffffff1673ffffffffffffffffffffffffffffffffffffffff16815260200190815260200160002060009054906101000a900460ff1660ff1660ff16815260200190815260200160002060050160009054906101000a900460ff1660ff1667ffffffffffffffff811115612c1257612c11614937565b5b604051908082528060200260200182016040528015612c405781602001602082028036833780820191505090505b50905060005b600080600160008773ffffffffffffffffffffffffffffffffffffffff1673ffffffffffffffffffffffffffffffffffffffff16815260200190815260200160002060009054906101000a900460ff1660ff1660ff16815260200190815260200160002060050160009054906101000a900460ff1660ff168160ff161015612dcd57600080600160008773ffffffffffffffffffffffffffffffffffffffff1673ffffffffffffffffffffffffffffffffffffffff16815260200190815260200160002060009054906101000a900460ff1660ff1660ff16815260200190815260200160002060080160008260ff1660ff16815260200190815260200160002060020160009054906101000a900473ffffffffffffffffffffffffffffffffffffffff16828260ff1681518110612d8057612d7f615020565b5b602002602001019073ffffffffffffffffffffffffffffffffffffffff16908173ffffffffffffffffffffffffffffffffffffffff16815250508080612dc59061507e565b915050612c46565b5080915050919050565b3460008111612e1b576040517f08c379a0000000000000000000000000000000000000000000000000000000008152600401612e1290615119565b60405180910390fd5b84845160008111612e61576040517f08c379a0000000000000000000000000000000000000000000000000000000008152600401612e589061591d565b60405180910390fd5b60005b81811015612fec57600060016000858481518110612e8557612e84615020565b5b602002602001015173ffffffffffffffffffffffffffffffffffffffff1673ffffffffffffffffffffffffffffffffffffffff16815260200190815260200160002060009054906101000a900460ff1660ff1614612f18576040517f08c379a0000000000000000000000000000000000000000000000000000000008152600401612f0f906159af565b60405180910390fd5b60005b81811015612fd857838181518110612f3657612f35615020565b5b602002602001015173ffffffffffffffffffffffffffffffffffffffff16848381518110612f6757612f66615020565b5b602002602001015173ffffffffffffffffffffffffffffffffffffffff1603612fc5576040517f08c379a0000000000000000000000000000000000000000000000000000000008152600401612fbc90615a41565b60405180910390fd5b8080612fd090615a61565b915050612f1b565b508080612fe490615a61565b915050612e64565b50876000815103613032576040517f08c379a000000000000000000000000000000000000000000000000000000000815260040161302990615af5565b60405180910390fd5b86868051825114801561304757506000825114155b613086576040517f08c379a000000000000000000000000000000000000000000000000000000000815260040161307d90615b87565b60405180910390fd5b60005b825181101561312c5760008382815181106130a7576130a6615020565b5b602002602001015151141580156130da575060008282815181106130ce576130cd615020565b5b60200260200101515114155b613119576040517f08c379a000000000000000000000000000000000000000000000000000000000815260040161311090615b87565b60405180910390fd5b808061312490615a61565b915050613089565b5086888051825114613173576040517f08c379a000000000000000000000000000000000000000000000000000000000815260040161316a90615c19565b60405180910390fd5b60005b82518110156131f057600083828151811061319457613193615020565b5b602002602001015110156131dd576040517f08c379a00000000000000000000000000000000000000000000000000000000081526004016131d490615cab565b60405180910390fd5b80806131e890615a61565b915050613176565b506000806000600a600260009054906101000a900460ff166132129190615ccb565b60ff1660ff1681526020019081526020016000209050600a600260009054906101000a900460ff166132449190615ccb565b8160000160006101000a81548160ff021916908360ff1602179055504281600101819055508d81600201908161327a9190615379565b503481600401819055508c60008151811061329857613297615020565b5b60200260200101518160050160016101000a81548173ffffffffffffffffffffffffffffffffffffffff021916908373ffffffffffffffffffffffffffffffffffffffff1602179055508b6000815181106132f6576132f5615020565b5b602002602001015181600601908161330e9190615379565b508a60008151811061332357613322615020565b5b602002602001015181600701908161333b9190615379565b5060005b8d518160ff16101561356b5760008260080160008360ff1660ff16815260200190815260200160002090508d8260ff16815181106133805761337f615020565b5b60200260200101518160000190816133989190615379565b508c8260ff16815181106133af576133ae615020565b5b60200260200101518160010190816133c79190615379565b508e8260ff16815181106133de576133dd615020565b5b60200260200101518160020160006101000a81548173ffffffffffffffffffffffffffffffffffffffff021916908373ffffffffffffffffffffffffffffffffffffffff160217905550600a600260009054906101000a900460ff166134449190615ccb565b8160020160146101000a81548160ff021916908360ff160217905550600081600301819055508b8260ff16815181106134805761347f615020565b5b6020026020010151816004018190555082600501600081819054906101000a900460ff16809291906134b19061507e565b91906101000a81548160ff021916908360ff160217905550508060020160149054906101000a900460ff16600160008360020160009054906101000a900473ffffffffffffffffffffffffffffffffffffffff1673ffffffffffffffffffffffffffffffffffffffff1673ffffffffffffffffffffffffffffffffffffffff16815260200190815260200160002060006101000a81548160ff021916908360ff1602179055505080806135639061507e565b91505061333f565b506002600081819054906101000a900460ff168092919061358b9061507e565b91906101000a81548160ff021916908360ff160217905550505050505050505050505050505050565b6060600080600160008573ffffffffffffffffffffffffffffffffffffffff1673ffffffffffffffffffffffffffffffffffffffff16815260200190815260200160002060009054906101000a900460ff1660ff1660ff16815260200190815260200160002060020180546136289061519c565b80601f01602080910402602001604051908101604052809291908181526020018280546136549061519c565b80156136a15780601f10613676576101008083540402835291602001916136a1565b820191906000526020600020905b81548152906001019060200180831161368457829003601f168201915b50505050509050919050565b60606000806000600160008673ffffffffffffffffffffffffffffffffffffffff1673ffffffffffffffffffffffffffffffffffffffff16815260200190815260200160002060009054906101000a900460ff1660ff1660ff16815260200190815260200160002060050160009054906101000a900460ff1660ff1667ffffffffffffffff81111561374257613741614937565b5b60405190808252806020026020018201604052801561377557816020015b60608152602001906001900390816137605790505b50905060005b600080600160008773ffffffffffffffffffffffffffffffffffffffff1673ffffffffffffffffffffffffffffffffffffffff16815260200190815260200160002060009054906101000a900460ff1660ff1660ff16815260200190815260200160002060050160009054906101000a900460ff1660ff168160ff16101561393b57600080600160008773ffffffffffffffffffffffffffffffffffffffff1673ffffffffffffffffffffffffffffffffffffffff16815260200190815260200160002060009054906101000a900460ff1660ff1660ff16815260200190815260200160002060080160008260ff1660ff16815260200190815260200160002060000180546138899061519c565b80601f01602080910402602001604051908101604052809291908181526020018280546138b59061519c565b80156139025780601f106138d757610100808354040283529160200191613902565b820191906000526020600020905b8154815290600101906020018083116138e557829003601f168201915b5050505050828260ff168151811061391d5761391c615020565b5b602002602001018190525080806139339061507e565b91505061377b565b5080915050919050565b60606000806000600160008673ffffffffffffffffffffffffffffffffffffffff1673ffffffffffffffffffffffffffffffffffffffff16815260200190815260200160002060009054906101000a900460ff1660ff1660ff16815260200190815260200160002060050160009054906101000a900460ff1660ff1667ffffffffffffffff8111156139da576139d9614937565b5b604051908082528060200260200182016040528015613a0d57816020015b60608152602001906001900390816139f85790505b50905060005b600080600160008773ffffffffffffffffffffffffffffffffffffffff1673ffffffffffffffffffffffffffffffffffffffff16815260200190815260200160002060009054906101000a900460ff1660ff1660ff16815260200190815260200160002060050160009054906101000a900460ff1660ff168160ff161015613bd357600080600160008773ffffffffffffffffffffffffffffffffffffffff1673ffffffffffffffffffffffffffffffffffffffff16815260200190815260200160002060009054906101000a900460ff1660ff1660ff16815260200190815260200160002060080160008260ff1660ff1681526020019081526020016000206001018054613b219061519c565b80601f0160208091040260200160405190810160405280929190818152602001828054613b4d9061519c565b8015613b9a5780601f10613b6f57610100808354040283529160200191613b9a565b820191906000526020600020905b815481529060010190602001808311613b7d57829003601f168201915b5050505050828260ff1681518110613bb557613bb4615020565b5b60200260200101819052508080613bcb9061507e565b915050613a13565b5080915050919050565b60006020528060005260406000206000915090508060000160009054906101000a900460ff1690806001015490806002018054613c199061519c565b80601f0160208091040260200160405190810160405280929190818152602001828054613c459061519c565b8015613c925780601f10613c6757610100808354040283529160200191613c92565b820191906000526020600020905b815481529060010190602001808311613c7557829003601f168201915b5050505050908060030154908060040154908060050160009054906101000a900460ff16908060050160019054906101000a900473ffffffffffffffffffffffffffffffffffffffff1690806006018054613cec9061519c565b80601f0160208091040260200160405190810160405280929190818152602001828054613d189061519c565b8015613d655780601f10613d3a57610100808354040283529160200191613d65565b820191906000526020600020905b815481529060010190602001808311613d4857829003601f168201915b505050505090806007018054613d7a9061519c565b80601f0160208091040260200160405190810160405280929190818152602001828054613da69061519c565b8015613df35780601f10613dc857610100808354040283529160200191613df3565b820191906000526020600020905b815481529060010190602001808311613dd657829003601f168201915b5050505050905089565b6000806000600160008573ffffffffffffffffffffffffffffffffffffffff1673ffffffffffffffffffffffffffffffffffffffff16815260200190815260200160002060009054906101000a900460ff1660ff1660ff168152602001908152602001600020600301549050919050565b600260009054906101000a900460ff1681565b3460008111613ec5576040517f08c379a0000000000000000000000000000000000000000000000000000000008152600401613ebc90615119565b60405180910390fd5b34600080600160008673ffffffffffffffffffffffffffffffffffffffff1673ffffffffffffffffffffffffffffffffffffffff16815260200190815260200160002060009054906101000a900460ff1660ff1660ff1681526020019081526020016000206003016000828254613f3c9190615139565b9250508190555060005b600080600160008673ffffffffffffffffffffffffffffffffffffffff1673ffffffffffffffffffffffffffffffffffffffff16815260200190815260200160002060009054906101000a900460ff1660ff1660ff16815260200190815260200160002060050160009054906101000a900460ff1660ff168160ff161015614148578273ffffffffffffffffffffffffffffffffffffffff16600080600160008773ffffffffffffffffffffffffffffffffffffffff1673ffffffffffffffffffffffffffffffffffffffff16815260200190815260200160002060009054906101000a900460ff1660ff1660ff16815260200190815260200160002060080160008360ff1660ff16815260200190815260200160002060020160009054906101000a900473ffffffffffffffffffffffffffffffffffffffff1673ffffffffffffffffffffffffffffffffffffffff16036141355734600080600160008773ffffffffffffffffffffffffffffffffffffffff1673ffffffffffffffffffffffffffffffffffffffff16815260200190815260200160002060009054906101000a900460ff1660ff1660ff16815260200190815260200160002060080160008360ff1660ff168152602001908152602001600020600301600082825461412d9190615139565b925050819055505b80806141409061507e565b915050613f46565b5060006040518060a001604052804281526020013481526020013373ffffffffffffffffffffffffffffffffffffffff1681526020018473ffffffffffffffffffffffffffffffffffffffff1681526020016040518060400160405280600e81526020017f73656e6455736572546f557365720000000000000000000000000000000000008152508152509050600080600160008673ffffffffffffffffffffffffffffffffffffffff1673ffffffffffffffffffffffffffffffffffffffff16815260200190815260200160002060009054906101000a900460ff1660ff1660ff168152602001908152602001600020600901819080600181540180825580915050600190039060005260206000209060050201600090919091909150600082015181600001556020820151816001015560408201518160020160006101000a81548173ffffffffffffffffffffffffffffffffffffffff021916908373ffffffffffffffffffffffffffffffffffffffff16021790555060608201518160030160006101000a81548173ffffffffffffffffffffffffffffffffffffffff021916908373ffffffffffffffffffffffffffffffffffffffff160217905550608082015181600401908161431d9190615379565b505050505050565b6040518060a001604052806000815260200160008152602001600073ffffffffffffffffffffffffffffffffffffffff168152602001600073ffffffffffffffffffffffffffffffffffffffff168152602001606081525090565b6000604051905090565b600080fd5b600080fd5b600073ffffffffffffffffffffffffffffffffffffffff82169050919050565b60006143bf82614394565b9050919050565b6143cf816143b4565b81146143da57600080fd5b50565b6000813590506143ec816143c6565b92915050565b6000602082840312156144085761440761438a565b5b6000614416848285016143dd565b91505092915050565b6000819050919050565b6144328161441f565b82525050565b600060208201905061444d6000830184614429565b92915050565b600081519050919050565b600082825260208201905092915050565b6000819050602082019050919050565b6144888161441f565b82525050565b600061449a838361447f565b60208301905092915050565b6000602082019050919050565b60006144be82614453565b6144c8818561445e565b93506144d38361446f565b8060005b838110156145045781516144eb888261448e565b97506144f6836144a6565b9250506001810190506144d7565b5085935050505092915050565b6000602082019050818103600083015261452b81846144b3565b905092915050565b600081519050919050565b600082825260208201905092915050565b6000819050602082019050919050565b614568816143b4565b82525050565b600081519050919050565b600082825260208201905092915050565b60005b838110156145a857808201518184015260208101905061458d565b60008484015250505050565b6000601f19601f8301169050919050565b60006145d08261456e565b6145da8185614579565b93506145ea81856020860161458a565b6145f3816145b4565b840191505092915050565b600060a083016000830151614616600086018261447f565b506020830151614629602086018261447f565b50604083015161463c604086018261455f565b50606083015161464f606086018261455f565b506080830151848203608086015261466782826145c5565b9150508091505092915050565b600061468083836145fe565b905092915050565b6000602082019050919050565b60006146a082614533565b6146aa818561453e565b9350836020820285016146bc8561454f565b8060005b858110156146f857848403895281516146d98582614674565b94506146e483614688565b925060208a019950506001810190506146c0565b50829750879550505050505092915050565b600060208201905081810360008301526147248184614695565b905092915050565b6147358161441f565b811461474057600080fd5b50565b6000813590506147528161472c565b92915050565b60006020828403121561476e5761476d61438a565b5b600061477c84828501614743565b91505092915050565b600060ff82169050919050565b61479b81614785565b82525050565b60006020820190506147b66000830184614792565b92915050565b600080604083850312156147d3576147d261438a565b5b60006147e185828601614743565b92505060206147f285828601614743565b9150509250929050565b60008115159050919050565b614811816147fc565b82525050565b600060208201905061482c6000830184614808565b92915050565b61483b816143b4565b82525050565b60006020820190506148566000830184614832565b92915050565b600081519050919050565b600082825260208201905092915050565b6000819050602082019050919050565b6000614894838361455f565b60208301905092915050565b6000602082019050919050565b60006148b88261485c565b6148c28185614867565b93506148cd83614878565b8060005b838110156148fe5781516148e58882614888565b97506148f0836148a0565b9250506001810190506148d1565b5085935050505092915050565b6000602082019050818103600083015261492581846148ad565b905092915050565b600080fd5b600080fd5b7f4e487b7100000000000000000000000000000000000000000000000000000000600052604160045260246000fd5b61496f826145b4565b810181811067ffffffffffffffff8211171561498e5761498d614937565b5b80604052505050565b60006149a1614380565b90506149ad8282614966565b919050565b600067ffffffffffffffff8211156149cd576149cc614937565b5b6149d6826145b4565b9050602081019050919050565b82818337600083830152505050565b6000614a05614a00846149b2565b614997565b905082815260208101848484011115614a2157614a20614932565b5b614a2c8482856149e3565b509392505050565b600082601f830112614a4957614a4861492d565b5b8135614a598482602086016149f2565b91505092915050565b600067ffffffffffffffff821115614a7d57614a7c614937565b5b602082029050602081019050919050565b600080fd5b6000614aa6614aa184614a62565b614997565b90508083825260208201905060208402830185811115614ac957614ac8614a8e565b5b835b81811015614af25780614ade88826143dd565b845260208401935050602081019050614acb565b5050509392505050565b600082601f830112614b1157614b1061492d565b5b8135614b21848260208601614a93565b91505092915050565b600067ffffffffffffffff821115614b4557614b44614937565b5b602082029050602081019050919050565b6000614b69614b6484614b2a565b614997565b90508083825260208201905060208402830185811115614b8c57614b8b614a8e565b5b835b81811015614bd357803567ffffffffffffffff811115614bb157614bb061492d565b5b808601614bbe8982614a34565b85526020850194505050602081019050614b8e565b5050509392505050565b600082601f830112614bf257614bf161492d565b5b8135614c02848260208601614b56565b91505092915050565b600067ffffffffffffffff821115614c2657614c25614937565b5b602082029050602081019050919050565b6000614c4a614c4584614c0b565b614997565b90508083825260208201905060208402830185811115614c6d57614c6c614a8e565b5b835b81811015614c965780614c828882614743565b845260208401935050602081019050614c6f565b5050509392505050565b600082601f830112614cb557614cb461492d565b5b8135614cc5848260208601614c37565b91505092915050565b600080600080600060a08688031215614cea57614ce961438a565b5b600086013567ffffffffffffffff811115614d0857614d0761438f565b5b614d1488828901614a34565b955050602086013567ffffffffffffffff811115614d3557614d3461438f565b5b614d4188828901614afc565b945050604086013567ffffffffffffffff811115614d6257614d6161438f565b5b614d6e88828901614bdd565b935050606086013567ffffffffffffffff811115614d8f57614d8e61438f565b5b614d9b88828901614bdd565b925050608086013567ffffffffffffffff811115614dbc57614dbb61438f565b5b614dc888828901614ca0565b9150509295509295909350565b600082825260208201905092915050565b6000614df18261456e565b614dfb8185614dd5565b9350614e0b81856020860161458a565b614e14816145b4565b840191505092915050565b60006020820190508181036000830152614e398184614de6565b905092915050565b600081519050919050565b600082825260208201905092915050565b6000819050602082019050919050565b6000614e7983836145c5565b905092915050565b6000602082019050919050565b6000614e9982614e41565b614ea38185614e4c565b935083602082028501614eb585614e5d565b8060005b85811015614ef15784840389528151614ed28582614e6d565b9450614edd83614e81565b925060208a01995050600181019050614eb9565b50829750879550505050505092915050565b60006020820190508181036000830152614f1d8184614e8e565b905092915050565b614f2e81614785565b8114614f3957600080fd5b50565b600081359050614f4b81614f25565b92915050565b600060208284031215614f6757614f6661438a565b5b6000614f7584828501614f3c565b91505092915050565b600061012082019050614f94600083018c614792565b614fa1602083018b614429565b8181036040830152614fb3818a614de6565b9050614fc26060830189614429565b614fcf6080830188614429565b614fdc60a0830187614792565b614fe960c0830186614832565b81810360e0830152614ffb8185614de6565b90508181036101008301526150108184614de6565b90509a9950505050505050505050565b7f4e487b7100000000000000000000000000000000000000000000000000000000600052603260045260246000fd5b7f4e487b7100000000000000000000000000000000000000000000000000000000600052601160045260246000fd5b600061508982614785565b915060ff820361509c5761509b61504f565b5b600182019050919050565b7f54686520616d6f756e74206e6565647320746f2062652068696768657220746860008201527f616e203000000000000000000000000000000000000000000000000000000000602082015250565b6000615103602483614dd5565b915061510e826150a7565b604082019050919050565b60006020820190508181036000830152615132816150f6565b9050919050565b60006151448261441f565b915061514f8361441f565b92508282019050808211156151675761516661504f565b5b92915050565b7f4e487b7100000000000000000000000000000000000000000000000000000000600052602260045260246000fd5b600060028204905060018216806151b457607f821691505b6020821081036151c7576151c661516d565b5b50919050565b60008190508160005260206000209050919050565b60006020601f8301049050919050565b600082821b905092915050565b60006008830261522f7fffffffffffffffffffffffffffffffffffffffffffffffffffffffffffffffff826151f2565b61523986836151f2565b95508019841693508086168417925050509392505050565b6000819050919050565b600061527661527161526c8461441f565b615251565b61441f565b9050919050565b6000819050919050565b6152908361525b565b6152a461529c8261527d565b8484546151ff565b825550505050565b600090565b6152b96152ac565b6152c4818484615287565b505050565b5b818110156152e8576152dd6000826152b1565b6001810190506152ca565b5050565b601f82111561532d576152fe816151cd565b615307846151e2565b81016020851015615316578190505b61532a615322856151e2565b8301826152c9565b50505b505050565b600082821c905092915050565b600061535060001984600802615332565b1980831691505092915050565b6000615369838361533f565b9150826002028217905092915050565b6153828261456e565b67ffffffffffffffff81111561539b5761539a614937565b5b6153a5825461519c565b6153b08282856152ec565b600060209050601f8311600181146153e357600084156153d1578287015190505b6153db858261535d565b865550615443565b601f1984166153f1866151cd565b60005b82811015615419578489015182556001820191506020850194506020810190506153f4565b868310156154365784890151615432601f89168261533f565b8355505b6001600288020188555050505b505050505050565b7f5468652077616c6c6574206e6565647320746f2068617665206174206c65617360008201527f7420312075736572000000000000000000000000000000000000000000000000602082015250565b60006154a7602883614dd5565b91506154b28261544b565b604082019050919050565b600060208201905081810360008301526154d68161549a565b9050919050565b60006154e882614785565b9150600082036154fb576154fa61504f565b5b600182039050919050565b7f496e73756666696369656e742066756e647320696e2074686520636f6e74726160008201527f6374000000000000000000000000000000000000000000000000000000000000602082015250565b6000615562602283614dd5565b915061556d82615506565b604082019050919050565b6000602082019050818103600083015261559181615555565b9050919050565b7f5468652077616c6c657420646f6573206e6f74206861766520656e6f7567682060008201527f66756e6473000000000000000000000000000000000000000000000000000000602082015250565b60006155f4602583614dd5565b91506155ff82615598565b604082019050919050565b60006020820190508181036000830152615623816155e7565b9050919050565b600081905092915050565b50565b600061564560008361562a565b915061565082615635565b600082019050919050565b600061566682615638565b9150819050919050565b600061567b8261441f565b91506156868361441f565b925082820390508181111561569e5761569d61504f565b5b92915050565b600081905092915050565b7f776974686472617755736572546f557365720000000000000000000000000000600082015250565b60006156e56012836156a4565b91506156f0826156af565b601282019050919050565b6000615706826156d8565b9150819050919050565b6000815461571d8161519c565b61572781866156a4565b9450600182166000811461574257600181146157575761578a565b60ff198316865281151582028601935061578a565b615760856151cd565b60005b8381101561578257815481890152600182019150602081019050615763565b838801955050505b50505092915050565b600061579f8284615710565b915081905092915050565b60006157b58261441f565b9150600082036157c8576157c761504f565b5b600182039050919050565b7f596f7520646f206e6f74206861766520656e6f7567682066756e647300000000600082015250565b6000615809601c83614dd5565b9150615814826157d3565b602082019050919050565b60006020820190508181036000830152615838816157fc565b9050919050565b7f4661696c656420746f2073656e6420457468657220746f20746865207265636960008201527f7069656e74206164647265737300000000000000000000000000000000000000602082015250565b600061589b602d83614dd5565b91506158a68261583f565b604082019050919050565b600060208201905081810360008301526158ca8161588e565b9050919050565b7f412077616c6c6574206e65656473206174206c65617374206f6e652075736572600082015250565b6000615907602083614dd5565b9150615912826158d1565b602082019050919050565b60006020820190508181036000830152615936816158fa565b9050919050565b7f4f6e65206f72206d6f7265207573657273206861766520616c7265616479206a60008201527f6f696e656420616e6f746865722077616c6c6574000000000000000000000000602082015250565b6000615999603483614dd5565b91506159a48261593d565b604082019050919050565b600060208201905081810360008301526159c88161598c565b9050919050565b7f5468652077616c6c65742063616e206e6f742068617665206475706c6963617460008201527f6520616464726573736573000000000000000000000000000000000000000000602082015250565b6000615a2b602b83614dd5565b9150615a36826159cf565b604082019050919050565b60006020820190508181036000830152615a5a81615a1e565b9050919050565b6000615a6c8261441f565b91507fffffffffffffffffffffffffffffffffffffffffffffffffffffffffffffffff8203615a9e57615a9d61504f565b5b600182019050919050565b7f5468652077616c6c6574206e656564732061206e616d65000000000000000000600082015250565b6000615adf601783614dd5565b9150615aea82615aa9565b602082019050919050565b60006020820190508181036000830152615b0e81615ad2565b9050919050565b7f546865207573657273206e65656420746f206861766520626f7468206669727360008201527f7420616e64206c617374206e616d657300000000000000000000000000000000602082015250565b6000615b71603083614dd5565b9150615b7c82615b15565b604082019050919050565b60006020820190508181036000830152615ba081615b64565b9050919050565b7f45766572792075736572206e6565647320746f20686176652061206d6f6e746860008201527f6c79207769746864726177616c206c696d697420736574207570000000000000602082015250565b6000615c03603a83614dd5565b9150615c0e82615ba7565b604082019050919050565b60006020820190508181036000830152615c3281615bf6565b9050919050565b7f546865207769746864726177616c206c696d6974732063616e206e6f7420626560008201527f206e656761746976650000000000000000000000000000000000000000000000602082015250565b6000615c95602983614dd5565b9150615ca082615c39565b604082019050919050565b60006020820190508181036000830152615cc481615c88565b9050919050565b6000615cd682614785565b9150615ce183614785565b9250828201905060ff811115615cfa57615cf961504f565b5b9291505056fea26469706673582212209977ba12a092f3d36f9640976f031a2fbb9a24b82d68681fdbafd28bf9ac154164736f6c63430008110033",
  "linkReferences": {},
  "deployedLinkReferences": {}
}