{
  "_format": "hh-sol-artifact-1",
  "contractName": "TheVault",
  "sourceName": "contracts/TheVault.sol",
  "abi": [
    {
      "inputs": [
        {
          "internalType": "uint8",
          "name": "walletId",
          "type": "uint8"
        }
      ],
      "name": "getWalletNameById",
      "outputs": [
        {
          "internalType": "string",
          "name": "",
          "type": "string"
        }
      ],
      "stateMutability": "nonpayable",
      "type": "function"
    },
    {
      "inputs": [
        {
          "internalType": "string",
          "name": "name",
          "type": "string"
        }
      ],
      "name": "initializeWallet",
      "outputs": [],
      "stateMutability": "nonpayable",
      "type": "function"
    },
    {
      "inputs": [
        {
          "internalType": "uint8",
          "name": "",
          "type": "uint8"
        }
      ],
      "name": "wallet",
      "outputs": [
        {
          "internalType": "uint8",
          "name": "walletId",
          "type": "uint8"
        },
        {
          "internalType": "uint256",
          "name": "creationDate",
          "type": "uint256"
        },
        {
          "internalType": "string",
          "name": "name",
          "type": "string"
        },
        {
          "internalType": "uint8",
          "name": "balance",
          "type": "uint8"
        }
      ],
      "stateMutability": "view",
      "type": "function"
    },
    {
      "inputs": [],
      "name": "walletCounter",
      "outputs": [
        {
          "internalType": "uint8",
          "name": "",
          "type": "uint8"
        }
      ],
      "stateMutability": "view",
      "type": "function"
    }
  ],
  "bytecode": "0x608060405234801561001057600080fd5b506109c2806100206000396000f3fe608060405234801561001057600080fd5b506004361061004c5760003560e01c80633de80f4d14610051578063e428c2891461006d578063e9840051146100a0578063f64d7060146100d0575b600080fd5b61006b60048036038101906100669190610477565b6100ee565b005b610087600480360381019061008291906104f9565b61018b565b60405161009794939291906105cd565b60405180910390f35b6100ba60048036038101906100b591906104f9565b61025d565b6040516100c79190610619565b60405180910390f35b6100d861030a565b6040516100e5919061063b565b60405180910390f35b6000806000600160009054906101000a900460ff1660ff1660ff16815260200190815260200160002090506001600081819054906101000a900460ff168092919061013890610685565b91906101000a81548160ff021916908360ff1602179055508160000160006101000a81548160ff021916908360ff1602179055504281600101819055508181600201908161018691906108ba565b505050565b60006020528060005260406000206000915090508060000160009054906101000a900460ff16908060010154908060020180546101c7906106dd565b80601f01602080910402602001604051908101604052809291908181526020018280546101f3906106dd565b80156102405780601f1061021557610100808354040283529160200191610240565b820191906000526020600020905b81548152906001019060200180831161022357829003601f168201915b5050505050908060030160009054906101000a900460ff16905084565b60606000808360ff1660ff1681526020019081526020016000206002018054610285906106dd565b80601f01602080910402602001604051908101604052809291908181526020018280546102b1906106dd565b80156102fe5780601f106102d3576101008083540402835291602001916102fe565b820191906000526020600020905b8154815290600101906020018083116102e157829003601f168201915b50505050509050919050565b600160009054906101000a900460ff1681565b6000604051905090565b600080fd5b600080fd5b600080fd5b600080fd5b6000601f19601f8301169050919050565b7f4e487b7100000000000000000000000000000000000000000000000000000000600052604160045260246000fd5b6103848261033b565b810181811067ffffffffffffffff821117156103a3576103a261034c565b5b80604052505050565b60006103b661031d565b90506103c2828261037b565b919050565b600067ffffffffffffffff8211156103e2576103e161034c565b5b6103eb8261033b565b9050602081019050919050565b82818337600083830152505050565b600061041a610415846103c7565b6103ac565b90508281526020810184848401111561043657610435610336565b5b6104418482856103f8565b509392505050565b600082601f83011261045e5761045d610331565b5b813561046e848260208601610407565b91505092915050565b60006020828403121561048d5761048c610327565b5b600082013567ffffffffffffffff8111156104ab576104aa61032c565b5b6104b784828501610449565b91505092915050565b600060ff82169050919050565b6104d6816104c0565b81146104e157600080fd5b50565b6000813590506104f3816104cd565b92915050565b60006020828403121561050f5761050e610327565b5b600061051d848285016104e4565b91505092915050565b61052f816104c0565b82525050565b6000819050919050565b61054881610535565b82525050565b600081519050919050565b600082825260208201905092915050565b60005b8381101561058857808201518184015260208101905061056d565b60008484015250505050565b600061059f8261054e565b6105a98185610559565b93506105b981856020860161056a565b6105c28161033b565b840191505092915050565b60006080820190506105e26000830187610526565b6105ef602083018661053f565b81810360408301526106018185610594565b90506106106060830184610526565b95945050505050565b600060208201905081810360008301526106338184610594565b905092915050565b60006020820190506106506000830184610526565b92915050565b7f4e487b7100000000000000000000000000000000000000000000000000000000600052601160045260246000fd5b6000610690826104c0565b915060ff82036106a3576106a2610656565b5b600182019050919050565b7f4e487b7100000000000000000000000000000000000000000000000000000000600052602260045260246000fd5b600060028204905060018216806106f557607f821691505b602082108103610708576107076106ae565b5b50919050565b60008190508160005260206000209050919050565b60006020601f8301049050919050565b600082821b905092915050565b6000600883026107707fffffffffffffffffffffffffffffffffffffffffffffffffffffffffffffffff82610733565b61077a8683610733565b95508019841693508086168417925050509392505050565b6000819050919050565b60006107b76107b26107ad84610535565b610792565b610535565b9050919050565b6000819050919050565b6107d18361079c565b6107e56107dd826107be565b848454610740565b825550505050565b600090565b6107fa6107ed565b6108058184846107c8565b505050565b5b818110156108295761081e6000826107f2565b60018101905061080b565b5050565b601f82111561086e5761083f8161070e565b61084884610723565b81016020851015610857578190505b61086b61086385610723565b83018261080a565b50505b505050565b600082821c905092915050565b600061089160001984600802610873565b1980831691505092915050565b60006108aa8383610880565b9150826002028217905092915050565b6108c38261054e565b67ffffffffffffffff8111156108dc576108db61034c565b5b6108e682546106dd565b6108f182828561082d565b600060209050601f8311600181146109245760008415610912578287015190505b61091c858261089e565b865550610984565b601f1984166109328661070e565b60005b8281101561095a57848901518255600182019150602085019450602081019050610935565b868310156109775784890151610973601f891682610880565b8355505b6001600288020188555050505b50505050505056fea26469706673582212203ebafa2c9f420ba6d3e1205f788ca682b0302f0e157de25e7e7632813582fa2d64736f6c63430008110033",
  "linkReferences": {},
  "deployedLinkReferences": {}
}