{
  "_format": "hh-sol-artifact-1",
  "contractName": "TheVault",
  "sourceName": "contracts/TheVault.sol",
  "abi": [
    {
      "inputs": [
        {
          "internalType": "address",
          "name": "memberAddress",
          "type": "address"
        }
      ],
      "name": "getWallet",
      "outputs": [
        {
          "internalType": "uint8",
          "name": "",
          "type": "uint8"
        }
      ],
      "stateMutability": "view",
      "type": "function"
    },
    {
      "inputs": [
        {
          "internalType": "string",
          "name": "walletName",
          "type": "string"
        }
      ],
      "name": "getWalletBalance",
      "outputs": [
        {
          "internalType": "uint256",
          "name": "",
          "type": "uint256"
        }
      ],
      "stateMutability": "view",
      "type": "function"
    },
    {
      "inputs": [
        {
          "internalType": "string",
          "name": "walletName",
          "type": "string"
        }
      ],
      "name": "getWalletId",
      "outputs": [
        {
          "internalType": "uint8",
          "name": "",
          "type": "uint8"
        }
      ],
      "stateMutability": "view",
      "type": "function"
    },
    {
      "inputs": [
        {
          "internalType": "string",
          "name": "walletName",
          "type": "string"
        }
      ],
      "name": "getWalletMemberCounter",
      "outputs": [
        {
          "internalType": "uint8",
          "name": "",
          "type": "uint8"
        }
      ],
      "stateMutability": "view",
      "type": "function"
    },
    {
      "inputs": [
        {
          "internalType": "string",
          "name": "walletName",
          "type": "string"
        }
      ],
      "name": "getWalletMembers",
      "outputs": [
        {
          "internalType": "string[]",
          "name": "",
          "type": "string[]"
        }
      ],
      "stateMutability": "view",
      "type": "function"
    },
    {
      "inputs": [
        {
          "internalType": "string",
          "name": "walletName",
          "type": "string"
        }
      ],
      "name": "getWalletOwner",
      "outputs": [
        {
          "internalType": "address",
          "name": "",
          "type": "address"
        }
      ],
      "stateMutability": "view",
      "type": "function"
    },
    {
      "inputs": [
        {
          "internalType": "string",
          "name": "walletName",
          "type": "string"
        },
        {
          "internalType": "address[]",
          "name": "membersAddresses",
          "type": "address[]"
        },
        {
          "internalType": "string[]",
          "name": "membersFirstNames",
          "type": "string[]"
        },
        {
          "internalType": "string[]",
          "name": "membersLastNames",
          "type": "string[]"
        }
      ],
      "name": "initializeWallet",
      "outputs": [],
      "stateMutability": "payable",
      "type": "function"
    },
    {
      "inputs": [
        {
          "internalType": "address",
          "name": "",
          "type": "address"
        }
      ],
      "name": "memberWalletId",
      "outputs": [
        {
          "internalType": "uint8",
          "name": "",
          "type": "uint8"
        }
      ],
      "stateMutability": "view",
      "type": "function"
    },
    {
      "inputs": [
        {
          "internalType": "string",
          "name": "",
          "type": "string"
        }
      ],
      "name": "wallet",
      "outputs": [
        {
          "internalType": "uint8",
          "name": "id",
          "type": "uint8"
        },
        {
          "internalType": "uint256",
          "name": "creationDate",
          "type": "uint256"
        },
        {
          "internalType": "string",
          "name": "name",
          "type": "string"
        },
        {
          "internalType": "uint256",
          "name": "balance",
          "type": "uint256"
        },
        {
          "internalType": "uint8",
          "name": "memberCounter",
          "type": "uint8"
        },
        {
          "internalType": "address",
          "name": "ownerAddress",
          "type": "address"
        },
        {
          "internalType": "string",
          "name": "ownerFirstName",
          "type": "string"
        },
        {
          "internalType": "string",
          "name": "ownerLastName",
          "type": "string"
        }
      ],
      "stateMutability": "view",
      "type": "function"
    },
    {
      "inputs": [],
      "name": "walletCounter",
      "outputs": [
        {
          "internalType": "uint8",
          "name": "",
          "type": "uint8"
        }
      ],
      "stateMutability": "view",
      "type": "function"
    }
  ],
  "bytecode": "0x608060405234801561001057600080fd5b50612051806100206000396000f3fe6080604052600436106100915760003560e01c8063a6fd415811610059578063a6fd4158146101c7578063af0be257146101e3578063f64d706014610227578063f83367b514610252578063fbca23731461028f57610091565b806304d0a64714610096578063263c82e1146100d35780632bf8276514610110578063811652ef1461014d5780639dafb3911461018a575b600080fd5b3480156100a257600080fd5b506100bd60048036038101906100b891906111db565b6102cc565b6040516100ca9190611224565b60405180910390f35b3480156100df57600080fd5b506100fa60048036038101906100f59190611385565b610322565b60405161010791906113e7565b60405180910390f35b34801561011c57600080fd5b5061013760048036038101906101329190611385565b61034c565b6040516101449190611411565b60405180910390f35b34801561015957600080fd5b50610174600480360381019061016f9190611385565b610396565b604051610181919061156d565b60405180910390f35b34801561019657600080fd5b506101b160048036038101906101ac9190611385565b6107ed565b6040516101be9190611224565b60405180910390f35b6101e160048036038101906101dc9190611738565b610824565b005b3480156101ef57600080fd5b5061020a60048036038101906102059190611385565b610ecf565b60405161021e989796959493929190611859565b60405180910390f35b34801561023357600080fd5b5061023c6110ff565b6040516102499190611224565b60405180910390f35b34801561025e57600080fd5b5061027960048036038101906102749190611385565b611112565b6040516102869190611224565b60405180910390f35b34801561029b57600080fd5b506102b660048036038101906102b191906111db565b611149565b6040516102c39190611224565b60405180910390f35b6000600160008373ffffffffffffffffffffffffffffffffffffffff1673ffffffffffffffffffffffffffffffffffffffff16815260200190815260200160002060009054906101000a900460ff169050919050565b600080826040516103339190611928565b9081526020016040518091039020600301549050919050565b6000808260405161035d9190611928565b908152602001604051809103902060040160019054906101000a900473ffffffffffffffffffffffffffffffffffffffff169050919050565b6060600080836040516103a99190611928565b908152602001604051809103902060040160009054906101000a900460ff1660ff1667ffffffffffffffff8111156103e4576103e361125a565b5b6040519080825280602002602001820160405280156104125781602001602082028036833780820191505090505b509050600080846040516104269190611928565b908152602001604051809103902060040160009054906101000a900460ff1660ff1667ffffffffffffffff8111156104615761046061125a565b5b60405190808252806020026020018201604052801561049457816020015b606081526020019060019003908161047f5790505b509050600080856040516104a89190611928565b908152602001604051809103902060040160009054906101000a900460ff1660ff1667ffffffffffffffff8111156104e3576104e261125a565b5b60405190808252806020026020018201604052801561051657816020015b60608152602001906001900390816105015790505b50905060005b60008660405161052c9190611928565b908152602001604051809103902060040160009054906101000a900460ff1660ff168160ff1610156107e1576000866040516105689190611928565b908152602001604051809103902060080160008260ff1660ff168152602001908152602001600020600001805461059e9061196e565b80601f01602080910402602001604051908101604052809291908181526020018280546105ca9061196e565b80156106175780601f106105ec57610100808354040283529160200191610617565b820191906000526020600020905b8154815290600101906020018083116105fa57829003601f168201915b5050505050838260ff16815181106106325761063161199f565b5b602002602001018190525060008660405161064d9190611928565b908152602001604051809103902060080160008260ff1660ff16815260200190815260200160002060010180546106839061196e565b80601f01602080910402602001604051908101604052809291908181526020018280546106af9061196e565b80156106fc5780601f106106d1576101008083540402835291602001916106fc565b820191906000526020600020905b8154815290600101906020018083116106df57829003601f168201915b5050505050828260ff16815181106107175761071661199f565b5b60200260200101819052506000866040516107329190611928565b908152602001604051809103902060080160008260ff1660ff16815260200190815260200160002060020160009054906101000a900473ffffffffffffffffffffffffffffffffffffffff16848260ff16815181106107945761079361199f565b5b602002602001019073ffffffffffffffffffffffffffffffffffffffff16908173ffffffffffffffffffffffffffffffffffffffff168152505080806107d9906119fd565b91505061051c565b50819350505050919050565b600080826040516107fe9190611928565b908152602001604051809103902060000160009054906101000a900460ff169050919050565b8282516000811161086a576040517f08c379a000000000000000000000000000000000000000000000000000000000815260040161086190611a72565b60405180910390fd5b60005b8181101561097a5760006001600085848151811061088e5761088d61199f565b5b602002602001015173ffffffffffffffffffffffffffffffffffffffff1673ffffffffffffffffffffffffffffffffffffffff16815260200190815260200160002060009054906101000a900460ff1660ff1614610921576040517f08c379a000000000000000000000000000000000000000000000000000000000815260040161091890611b04565b60405180910390fd5b600081811015610966576040517f08c379a000000000000000000000000000000000000000000000000000000000815260040161095d90611b96565b60405180910390fd5b50808061097290611bb6565b91505061086d565b508560008151036109c0576040517f08c379a00000000000000000000000000000000000000000000000000000000081526004016109b790611c4a565b60405180910390fd5b600080826040516109d19190611928565b908152602001604051809103902060000160009054906101000a900460ff1660ff1614610a33576040517f08c379a0000000000000000000000000000000000000000000000000000000008152600401610a2a90611cb6565b60405180910390fd5b848480518251148015610a4857506000825114155b610a87576040517f08c379a0000000000000000000000000000000000000000000000000000000008152600401610a7e90611d48565b60405180910390fd5b60005b8251811015610b2d576000838281518110610aa857610aa761199f565b5b60200260200101515114158015610adb57506000828281518110610acf57610ace61199f565b5b60200260200101515114155b610b1a576040517f08c379a0000000000000000000000000000000000000000000000000000000008152600401610b1190611d48565b60405180910390fd5b8080610b2590611bb6565b915050610a8a565b506000808a604051610b3f9190611928565b908152602001604051809103902090506064600260009054906101000a900460ff16610b6b9190611d68565b8160000160006101000a81548160ff021916908360ff16021790555042816001018190555089816002019081610ba19190611f49565b5034816003018190555088600081518110610bbf57610bbe61199f565b5b60200260200101518160040160016101000a81548173ffffffffffffffffffffffffffffffffffffffff021916908373ffffffffffffffffffffffffffffffffffffffff16021790555087600081518110610c1d57610c1c61199f565b5b6020026020010151816005019081610c359190611f49565b5086600081518110610c4a57610c4961199f565b5b6020026020010151816006019081610c629190611f49565b5060005b89518160ff161015610e8a5760008260080160008360ff1660ff1681526020019081526020016000209050898260ff1681518110610ca757610ca661199f565b5b6020026020010151816000019081610cbf9190611f49565b50888260ff1681518110610cd657610cd561199f565b5b6020026020010151816001019081610cee9190611f49565b508a8260ff1681518110610d0557610d0461199f565b5b60200260200101518160020160006101000a81548173ffffffffffffffffffffffffffffffffffffffff021916908373ffffffffffffffffffffffffffffffffffffffff1602179055506064600260009054906101000a900460ff16610d6b9190611d68565b8160020160146101000a81548160ff021916908360ff1602179055506000816003018190555060058160040160006101000a81548160ff021916908360ff16021790555082600401600081819054906101000a900460ff1680929190610dd0906119fd565b91906101000a81548160ff021916908360ff160217905550508060020160149054906101000a900460ff16600160008360020160009054906101000a900473ffffffffffffffffffffffffffffffffffffffff1673ffffffffffffffffffffffffffffffffffffffff1673ffffffffffffffffffffffffffffffffffffffff16815260200190815260200160002060006101000a81548160ff021916908360ff160217905550508080610e82906119fd565b915050610c66565b506002600081819054906101000a900460ff1680929190610eaa906119fd565b91906101000a81548160ff021916908360ff1602179055505050505050505050505050565b6000818051602081018201805184825260208301602085012081835280955050505050506000915090508060000160009054906101000a900460ff1690806001015490806002018054610f219061196e565b80601f0160208091040260200160405190810160405280929190818152602001828054610f4d9061196e565b8015610f9a5780601f10610f6f57610100808354040283529160200191610f9a565b820191906000526020600020905b815481529060010190602001808311610f7d57829003601f168201915b5050505050908060030154908060040160009054906101000a900460ff16908060040160019054906101000a900473ffffffffffffffffffffffffffffffffffffffff1690806005018054610fee9061196e565b80601f016020809104026020016040519081016040528092919081815260200182805461101a9061196e565b80156110675780601f1061103c57610100808354040283529160200191611067565b820191906000526020600020905b81548152906001019060200180831161104a57829003601f168201915b50505050509080600601805461107c9061196e565b80601f01602080910402602001604051908101604052809291908181526020018280546110a89061196e565b80156110f55780601f106110ca576101008083540402835291602001916110f5565b820191906000526020600020905b8154815290600101906020018083116110d857829003601f168201915b5050505050905088565b600260009054906101000a900460ff1681565b600080826040516111239190611928565b908152602001604051809103902060040160009054906101000a900460ff169050919050565b60016020528060005260406000206000915054906101000a900460ff1681565b6000604051905090565b600080fd5b600080fd5b600073ffffffffffffffffffffffffffffffffffffffff82169050919050565b60006111a88261117d565b9050919050565b6111b88161119d565b81146111c357600080fd5b50565b6000813590506111d5816111af565b92915050565b6000602082840312156111f1576111f0611173565b5b60006111ff848285016111c6565b91505092915050565b600060ff82169050919050565b61121e81611208565b82525050565b60006020820190506112396000830184611215565b92915050565b600080fd5b600080fd5b6000601f19601f8301169050919050565b7f4e487b7100000000000000000000000000000000000000000000000000000000600052604160045260246000fd5b61129282611249565b810181811067ffffffffffffffff821117156112b1576112b061125a565b5b80604052505050565b60006112c4611169565b90506112d08282611289565b919050565b600067ffffffffffffffff8211156112f0576112ef61125a565b5b6112f982611249565b9050602081019050919050565b82818337600083830152505050565b6000611328611323846112d5565b6112ba565b90508281526020810184848401111561134457611343611244565b5b61134f848285611306565b509392505050565b600082601f83011261136c5761136b61123f565b5b813561137c848260208601611315565b91505092915050565b60006020828403121561139b5761139a611173565b5b600082013567ffffffffffffffff8111156113b9576113b8611178565b5b6113c584828501611357565b91505092915050565b6000819050919050565b6113e1816113ce565b82525050565b60006020820190506113fc60008301846113d8565b92915050565b61140b8161119d565b82525050565b60006020820190506114266000830184611402565b92915050565b600081519050919050565b600082825260208201905092915050565b6000819050602082019050919050565b600081519050919050565b600082825260208201905092915050565b60005b83811015611492578082015181840152602081019050611477565b60008484015250505050565b60006114a982611458565b6114b38185611463565b93506114c3818560208601611474565b6114cc81611249565b840191505092915050565b60006114e3838361149e565b905092915050565b6000602082019050919050565b60006115038261142c565b61150d8185611437565b93508360208202850161151f85611448565b8060005b8581101561155b578484038952815161153c85826114d7565b9450611547836114eb565b925060208a01995050600181019050611523565b50829750879550505050505092915050565b6000602082019050818103600083015261158781846114f8565b905092915050565b600067ffffffffffffffff8211156115aa576115a961125a565b5b602082029050602081019050919050565b600080fd5b60006115d36115ce8461158f565b6112ba565b905080838252602082019050602084028301858111156115f6576115f56115bb565b5b835b8181101561161f578061160b88826111c6565b8452602084019350506020810190506115f8565b5050509392505050565b600082601f83011261163e5761163d61123f565b5b813561164e8482602086016115c0565b91505092915050565b600067ffffffffffffffff8211156116725761167161125a565b5b602082029050602081019050919050565b600061169661169184611657565b6112ba565b905080838252602082019050602084028301858111156116b9576116b86115bb565b5b835b8181101561170057803567ffffffffffffffff8111156116de576116dd61123f565b5b8086016116eb8982611357565b855260208501945050506020810190506116bb565b5050509392505050565b600082601f83011261171f5761171e61123f565b5b813561172f848260208601611683565b91505092915050565b6000806000806080858703121561175257611751611173565b5b600085013567ffffffffffffffff8111156117705761176f611178565b5b61177c87828801611357565b945050602085013567ffffffffffffffff81111561179d5761179c611178565b5b6117a987828801611629565b935050604085013567ffffffffffffffff8111156117ca576117c9611178565b5b6117d68782880161170a565b925050606085013567ffffffffffffffff8111156117f7576117f6611178565b5b6118038782880161170a565b91505092959194509250565b600082825260208201905092915050565b600061182b82611458565b611835818561180f565b9350611845818560208601611474565b61184e81611249565b840191505092915050565b60006101008201905061186f600083018b611215565b61187c602083018a6113d8565b818103604083015261188e8189611820565b905061189d60608301886113d8565b6118aa6080830187611215565b6118b760a0830186611402565b81810360c08301526118c98185611820565b905081810360e08301526118dd8184611820565b90509998505050505050505050565b600081905092915050565b600061190282611458565b61190c81856118ec565b935061191c818560208601611474565b80840191505092915050565b600061193482846118f7565b915081905092915050565b7f4e487b7100000000000000000000000000000000000000000000000000000000600052602260045260246000fd5b6000600282049050600182168061198657607f821691505b6020821081036119995761199861193f565b5b50919050565b7f4e487b7100000000000000000000000000000000000000000000000000000000600052603260045260246000fd5b7f4e487b7100000000000000000000000000000000000000000000000000000000600052601160045260246000fd5b6000611a0882611208565b915060ff8203611a1b57611a1a6119ce565b5b600182019050919050565b7f412077616c6c6574206e65656473206174206c65617374206f6e652075736572600082015250565b6000611a5c60208361180f565b9150611a6782611a26565b602082019050919050565b60006020820190508181036000830152611a8b81611a4f565b9050919050565b7f4f6e65206f72206d6f7265207573657273206861766520616c7265616479206a60008201527f6f696e656420616e6f746865722077616c6c6574000000000000000000000000602082015250565b6000611aee60348361180f565b9150611af982611a92565b604082019050919050565b60006020820190508181036000830152611b1d81611ae1565b9050919050565b7f5468652077616c6c65742063616e206e6f742068617665206475706c6963617460008201527f6520616464726573736573000000000000000000000000000000000000000000602082015250565b6000611b80602b8361180f565b9150611b8b82611b24565b604082019050919050565b60006020820190508181036000830152611baf81611b73565b9050919050565b6000611bc1826113ce565b91507fffffffffffffffffffffffffffffffffffffffffffffffffffffffffffffffff8203611bf357611bf26119ce565b5b600182019050919050565b7f5468652077616c6c6574206e656564732061206e616d65000000000000000000600082015250565b6000611c3460178361180f565b9150611c3f82611bfe565b602082019050919050565b60006020820190508181036000830152611c6381611c27565b9050919050565b7f412077616c6c657420616c7265616479206861732074686973206e616d650000600082015250565b6000611ca0601e8361180f565b9150611cab82611c6a565b602082019050919050565b60006020820190508181036000830152611ccf81611c93565b9050919050565b7f546865207573657273206e65656420746f206861766520626f7468206669727360008201527f7420616e64206c617374206e616d657300000000000000000000000000000000602082015250565b6000611d3260308361180f565b9150611d3d82611cd6565b604082019050919050565b60006020820190508181036000830152611d6181611d25565b9050919050565b6000611d7382611208565b9150611d7e83611208565b9250828201905060ff811115611d9757611d966119ce565b5b92915050565b60008190508160005260206000209050919050565b60006020601f8301049050919050565b600082821b905092915050565b600060088302611dff7fffffffffffffffffffffffffffffffffffffffffffffffffffffffffffffffff82611dc2565b611e098683611dc2565b95508019841693508086168417925050509392505050565b6000819050919050565b6000611e46611e41611e3c846113ce565b611e21565b6113ce565b9050919050565b6000819050919050565b611e6083611e2b565b611e74611e6c82611e4d565b848454611dcf565b825550505050565b600090565b611e89611e7c565b611e94818484611e57565b505050565b5b81811015611eb857611ead600082611e81565b600181019050611e9a565b5050565b601f821115611efd57611ece81611d9d565b611ed784611db2565b81016020851015611ee6578190505b611efa611ef285611db2565b830182611e99565b50505b505050565b600082821c905092915050565b6000611f2060001984600802611f02565b1980831691505092915050565b6000611f398383611f0f565b9150826002028217905092915050565b611f5282611458565b67ffffffffffffffff811115611f6b57611f6a61125a565b5b611f75825461196e565b611f80828285611ebc565b600060209050601f831160018114611fb35760008415611fa1578287015190505b611fab8582611f2d565b865550612013565b601f198416611fc186611d9d565b60005b82811015611fe957848901518255600182019150602085019450602081019050611fc4565b868310156120065784890151612002601f891682611f0f565b8355505b6001600288020188555050505b50505050505056fea2646970667358221220057851bb8e48727b759a761c5a4315b213544aa3e91e3f0f3f8ded75b4cafc0064736f6c63430008110033",
  "linkReferences": {},
  "deployedLinkReferences": {}
}