{
  "_format": "hh-sol-artifact-1",
  "contractName": "TheVault",
  "sourceName": "contracts/TheVault.sol",
  "abi": [
    {
      "inputs": [
        {
          "internalType": "string",
          "name": "walletName",
          "type": "string"
        },
        {
          "components": [
            {
              "internalType": "string",
              "name": "firstName",
              "type": "string"
            },
            {
              "internalType": "string",
              "name": "lastName",
              "type": "string"
            },
            {
              "internalType": "address",
              "name": "currentAddress",
              "type": "address"
            },
            {
              "internalType": "uint8",
              "name": "walletId",
              "type": "uint8"
            },
            {
              "internalType": "uint8",
              "name": "balance",
              "type": "uint8"
            },
            {
              "internalType": "uint8",
              "name": "withdrawalLimit",
              "type": "uint8"
            }
          ],
          "internalType": "struct TheVault.Member[]",
          "name": "initialMembers",
          "type": "tuple[]"
        },
        {
          "internalType": "string",
          "name": "name",
          "type": "string"
        }
      ],
      "name": "initializeWallet",
      "outputs": [],
      "stateMutability": "nonpayable",
      "type": "function"
    },
    {
      "inputs": [
        {
          "internalType": "uint8",
          "name": "",
          "type": "uint8"
        }
      ],
      "name": "wallet",
      "outputs": [
        {
          "internalType": "uint8",
          "name": "walletId",
          "type": "uint8"
        },
        {
          "internalType": "uint256",
          "name": "creationDate",
          "type": "uint256"
        },
        {
          "internalType": "string",
          "name": "name",
          "type": "string"
        },
        {
          "internalType": "uint8",
          "name": "balance",
          "type": "uint8"
        }
      ],
      "stateMutability": "view",
      "type": "function"
    },
    {
      "inputs": [],
      "name": "walletCounter",
      "outputs": [
        {
          "internalType": "uint8",
          "name": "",
          "type": "uint8"
        }
      ],
      "stateMutability": "view",
      "type": "function"
    }
  ],
  "bytecode": "0x608060405234801561001057600080fd5b50610d28806100206000396000f3fe608060405234801561001057600080fd5b50600436106100415760003560e01c8063e428c28914610046578063e8def3c314610079578063f64d706014610095575b600080fd5b610060600480360381019061005b91906103f7565b6100b3565b60405161007094939291906104dc565b60405180910390f35b610093600480360381019061008e9190610883565b610185565b005b61009d610397565b6040516100aa919061092a565b60405180910390f35b60006020528060005260406000206000915090508060000160009054906101000a900460ff16908060010154908060020180546100ef90610974565b80601f016020809104026020016040519081016040528092919081815260200182805461011b90610974565b80156101685780601f1061013d57610100808354040283529160200191610168565b820191906000526020600020905b81548152906001019060200180831161014b57829003601f168201915b5050505050908060030160009054906101000a900460ff16905084565b6000806000600160009054906101000a900460ff1660ff1660ff16815260200190815260200160002090506001600081819054906101000a900460ff16809291906101cf906109d4565b91906101000a81548160ff021916908360ff1602179055508160000160006101000a81548160ff021916908360ff1602179055504281600101819055508181600201908161021d9190610ba9565b5060005b83518110156103905783818151811061023d5761023c610c7b565b5b602002602001015182600501600086848151811061025e5761025d610c7b565b5b60200260200101516040015173ffffffffffffffffffffffffffffffffffffffff1673ffffffffffffffffffffffffffffffffffffffff16815260200190815260200160002060008201518160000190816102b99190610ba9565b5060208201518160010190816102cf9190610ba9565b5060408201518160020160006101000a81548173ffffffffffffffffffffffffffffffffffffffff021916908373ffffffffffffffffffffffffffffffffffffffff16021790555060608201518160020160146101000a81548160ff021916908360ff16021790555060808201518160020160156101000a81548160ff021916908360ff16021790555060a08201518160020160166101000a81548160ff021916908360ff160217905550905050808061038890610caa565b915050610221565b5050505050565b600160009054906101000a900460ff1681565b6000604051905090565b600080fd5b600080fd5b600060ff82169050919050565b6103d4816103be565b81146103df57600080fd5b50565b6000813590506103f1816103cb565b92915050565b60006020828403121561040d5761040c6103b4565b5b600061041b848285016103e2565b91505092915050565b61042d816103be565b82525050565b6000819050919050565b61044681610433565b82525050565b600081519050919050565b600082825260208201905092915050565b60005b8381101561048657808201518184015260208101905061046b565b60008484015250505050565b6000601f19601f8301169050919050565b60006104ae8261044c565b6104b88185610457565b93506104c8818560208601610468565b6104d181610492565b840191505092915050565b60006080820190506104f16000830187610424565b6104fe602083018661043d565b818103604083015261051081856104a3565b905061051f6060830184610424565b95945050505050565b600080fd5b600080fd5b7f4e487b7100000000000000000000000000000000000000000000000000000000600052604160045260246000fd5b61056a82610492565b810181811067ffffffffffffffff8211171561058957610588610532565b5b80604052505050565b600061059c6103aa565b90506105a88282610561565b919050565b600067ffffffffffffffff8211156105c8576105c7610532565b5b6105d182610492565b9050602081019050919050565b82818337600083830152505050565b60006106006105fb846105ad565b610592565b90508281526020810184848401111561061c5761061b61052d565b5b6106278482856105de565b509392505050565b600082601f83011261064457610643610528565b5b81356106548482602086016105ed565b91505092915050565b600067ffffffffffffffff82111561067857610677610532565b5b602082029050602081019050919050565b600080fd5b600080fd5b600080fd5b600073ffffffffffffffffffffffffffffffffffffffff82169050919050565b60006106c382610698565b9050919050565b6106d3816106b8565b81146106de57600080fd5b50565b6000813590506106f0816106ca565b92915050565b600060c0828403121561070c5761070b61068e565b5b61071660c0610592565b9050600082013567ffffffffffffffff81111561073657610735610693565b5b6107428482850161062f565b600083015250602082013567ffffffffffffffff81111561076657610765610693565b5b6107728482850161062f565b6020830152506040610786848285016106e1565b604083015250606061079a848285016103e2565b60608301525060806107ae848285016103e2565b60808301525060a06107c2848285016103e2565b60a08301525092915050565b60006107e16107dc8461065d565b610592565b9050808382526020820190506020840283018581111561080457610803610689565b5b835b8181101561084b57803567ffffffffffffffff81111561082957610828610528565b5b80860161083689826106f6565b85526020850194505050602081019050610806565b5050509392505050565b600082601f83011261086a57610869610528565b5b813561087a8482602086016107ce565b91505092915050565b60008060006060848603121561089c5761089b6103b4565b5b600084013567ffffffffffffffff8111156108ba576108b96103b9565b5b6108c68682870161062f565b935050602084013567ffffffffffffffff8111156108e7576108e66103b9565b5b6108f386828701610855565b925050604084013567ffffffffffffffff811115610914576109136103b9565b5b6109208682870161062f565b9150509250925092565b600060208201905061093f6000830184610424565b92915050565b7f4e487b7100000000000000000000000000000000000000000000000000000000600052602260045260246000fd5b6000600282049050600182168061098c57607f821691505b60208210810361099f5761099e610945565b5b50919050565b7f4e487b7100000000000000000000000000000000000000000000000000000000600052601160045260246000fd5b60006109df826103be565b915060ff82036109f2576109f16109a5565b5b600182019050919050565b60008190508160005260206000209050919050565b60006020601f8301049050919050565b600082821b905092915050565b600060088302610a5f7fffffffffffffffffffffffffffffffffffffffffffffffffffffffffffffffff82610a22565b610a698683610a22565b95508019841693508086168417925050509392505050565b6000819050919050565b6000610aa6610aa1610a9c84610433565b610a81565b610433565b9050919050565b6000819050919050565b610ac083610a8b565b610ad4610acc82610aad565b848454610a2f565b825550505050565b600090565b610ae9610adc565b610af4818484610ab7565b505050565b5b81811015610b1857610b0d600082610ae1565b600181019050610afa565b5050565b601f821115610b5d57610b2e816109fd565b610b3784610a12565b81016020851015610b46578190505b610b5a610b5285610a12565b830182610af9565b50505b505050565b600082821c905092915050565b6000610b8060001984600802610b62565b1980831691505092915050565b6000610b998383610b6f565b9150826002028217905092915050565b610bb28261044c565b67ffffffffffffffff811115610bcb57610bca610532565b5b610bd58254610974565b610be0828285610b1c565b600060209050601f831160018114610c135760008415610c01578287015190505b610c0b8582610b8d565b865550610c73565b601f198416610c21866109fd565b60005b82811015610c4957848901518255600182019150602085019450602081019050610c24565b86831015610c665784890151610c62601f891682610b6f565b8355505b6001600288020188555050505b505050505050565b7f4e487b7100000000000000000000000000000000000000000000000000000000600052603260045260246000fd5b6000610cb582610433565b91507fffffffffffffffffffffffffffffffffffffffffffffffffffffffffffffffff8203610ce757610ce66109a5565b5b60018201905091905056fea264697066735822122070c36d1dcf3b44a3a6ac3c6d626b62a8787f6c1a0a118c3881c21c0002f7814d64736f6c63430008110033",
  "linkReferences": {},
  "deployedLinkReferences": {}
}