{
  "_format": "hh-sol-artifact-1",
  "contractName": "TheVault",
  "sourceName": "contracts/TheVault.sol",
  "abi": [
    {
      "inputs": [
        {
          "internalType": "address",
          "name": "memberAddress",
          "type": "address"
        }
      ],
      "name": "getWalletBalance",
      "outputs": [
        {
          "internalType": "uint256",
          "name": "",
          "type": "uint256"
        }
      ],
      "stateMutability": "view",
      "type": "function"
    },
    {
      "inputs": [
        {
          "internalType": "address",
          "name": "memberAddress",
          "type": "address"
        }
      ],
      "name": "getWalletId",
      "outputs": [
        {
          "internalType": "uint8",
          "name": "",
          "type": "uint8"
        }
      ],
      "stateMutability": "view",
      "type": "function"
    },
    {
      "inputs": [
        {
          "internalType": "address",
          "name": "memberAddress",
          "type": "address"
        }
      ],
      "name": "getWalletMembersAddresses",
      "outputs": [
        {
          "internalType": "address[]",
          "name": "",
          "type": "address[]"
        }
      ],
      "stateMutability": "view",
      "type": "function"
    },
    {
      "inputs": [
        {
          "internalType": "address",
          "name": "memberAddress",
          "type": "address"
        }
      ],
      "name": "getWalletMembersBalances",
      "outputs": [
        {
          "internalType": "uint256[]",
          "name": "",
          "type": "uint256[]"
        }
      ],
      "stateMutability": "view",
      "type": "function"
    },
    {
      "inputs": [
        {
          "internalType": "address",
          "name": "memberAddress",
          "type": "address"
        }
      ],
      "name": "getWalletMembersFirstNames",
      "outputs": [
        {
          "internalType": "string[]",
          "name": "",
          "type": "string[]"
        }
      ],
      "stateMutability": "view",
      "type": "function"
    },
    {
      "inputs": [
        {
          "internalType": "address",
          "name": "memberAddress",
          "type": "address"
        }
      ],
      "name": "getWalletMembersLastNames",
      "outputs": [
        {
          "internalType": "string[]",
          "name": "",
          "type": "string[]"
        }
      ],
      "stateMutability": "view",
      "type": "function"
    },
    {
      "inputs": [
        {
          "internalType": "address",
          "name": "memberAddress",
          "type": "address"
        }
      ],
      "name": "getWalletMembersWithdrawalLimits",
      "outputs": [
        {
          "internalType": "uint256[]",
          "name": "",
          "type": "uint256[]"
        }
      ],
      "stateMutability": "view",
      "type": "function"
    },
    {
      "inputs": [
        {
          "internalType": "address",
          "name": "memberAddress",
          "type": "address"
        }
      ],
      "name": "getWalletName",
      "outputs": [
        {
          "internalType": "string",
          "name": "",
          "type": "string"
        }
      ],
      "stateMutability": "view",
      "type": "function"
    },
    {
      "inputs": [
        {
          "internalType": "address",
          "name": "memberAddress",
          "type": "address"
        }
      ],
      "name": "getWalletOwner",
      "outputs": [
        {
          "internalType": "address",
          "name": "",
          "type": "address"
        }
      ],
      "stateMutability": "view",
      "type": "function"
    },
    {
      "inputs": [
        {
          "internalType": "address",
          "name": "memberAddress",
          "type": "address"
        }
      ],
      "name": "getWalletPublicFunds",
      "outputs": [
        {
          "internalType": "uint256",
          "name": "",
          "type": "uint256"
        }
      ],
      "stateMutability": "view",
      "type": "function"
    },
    {
      "inputs": [
        {
          "internalType": "address",
          "name": "memberAddress",
          "type": "address"
        }
      ],
      "name": "getWalletTransactions",
      "outputs": [
        {
          "components": [
            {
              "internalType": "uint256",
              "name": "date",
              "type": "uint256"
            },
            {
              "internalType": "uint256",
              "name": "value",
              "type": "uint256"
            },
            {
              "internalType": "address",
              "name": "senderAddress",
              "type": "address"
            },
            {
              "internalType": "address",
              "name": "recipientAddress",
              "type": "address"
            },
            {
              "internalType": "string",
              "name": "txType",
              "type": "string"
            }
          ],
          "internalType": "struct TheVault.Transaction[]",
          "name": "",
          "type": "tuple[]"
        }
      ],
      "stateMutability": "view",
      "type": "function"
    },
    {
      "inputs": [
        {
          "internalType": "string",
          "name": "walletName",
          "type": "string"
        },
        {
          "internalType": "address[]",
          "name": "membersAddresses",
          "type": "address[]"
        },
        {
          "internalType": "string[]",
          "name": "membersFirstNames",
          "type": "string[]"
        },
        {
          "internalType": "string[]",
          "name": "membersLastNames",
          "type": "string[]"
        },
        {
          "internalType": "uint256[]",
          "name": "membersWithdrawalLimits",
          "type": "uint256[]"
        }
      ],
      "name": "initializeWallet",
      "outputs": [],
      "stateMutability": "payable",
      "type": "function"
    },
    {
      "inputs": [
        {
          "internalType": "address",
          "name": "memberAddress",
          "type": "address"
        }
      ],
      "name": "leaveWallet",
      "outputs": [],
      "stateMutability": "nonpayable",
      "type": "function"
    },
    {
      "inputs": [
        {
          "internalType": "address",
          "name": "recipientAddress",
          "type": "address"
        }
      ],
      "name": "sendFundsToMember",
      "outputs": [],
      "stateMutability": "payable",
      "type": "function"
    },
    {
      "inputs": [],
      "name": "sendFundsToWallet",
      "outputs": [],
      "stateMutability": "payable",
      "type": "function"
    },
    {
      "inputs": [
        {
          "internalType": "uint8",
          "name": "",
          "type": "uint8"
        }
      ],
      "name": "wallet",
      "outputs": [
        {
          "internalType": "uint8",
          "name": "id",
          "type": "uint8"
        },
        {
          "internalType": "uint256",
          "name": "creationDate",
          "type": "uint256"
        },
        {
          "internalType": "string",
          "name": "name",
          "type": "string"
        },
        {
          "internalType": "uint256",
          "name": "balance",
          "type": "uint256"
        },
        {
          "internalType": "uint256",
          "name": "publicFunds",
          "type": "uint256"
        },
        {
          "internalType": "uint8",
          "name": "memberCounter",
          "type": "uint8"
        },
        {
          "internalType": "address",
          "name": "ownerAddress",
          "type": "address"
        },
        {
          "internalType": "string",
          "name": "ownerFirstName",
          "type": "string"
        },
        {
          "internalType": "string",
          "name": "ownerLastName",
          "type": "string"
        }
      ],
      "stateMutability": "view",
      "type": "function"
    },
    {
      "inputs": [],
      "name": "walletCounter",
      "outputs": [
        {
          "internalType": "uint8",
          "name": "",
          "type": "uint8"
        }
      ],
      "stateMutability": "view",
      "type": "function"
    },
    {
      "inputs": [
        {
          "internalType": "address",
          "name": "",
          "type": "address"
        }
      ],
      "name": "walletMemberId",
      "outputs": [
        {
          "internalType": "uint8",
          "name": "",
          "type": "uint8"
        }
      ],
      "stateMutability": "view",
      "type": "function"
    },
    {
      "inputs": [
        {
          "internalType": "uint256",
          "name": "amount",
          "type": "uint256"
        }
      ],
      "name": "withdrawFundsFromWallet",
      "outputs": [],
      "stateMutability": "nonpayable",
      "type": "function"
    },
    {
      "inputs": [
        {
          "internalType": "uint256",
          "name": "amount",
          "type": "uint256"
        },
        {
          "internalType": "uint256",
          "name": "limit",
          "type": "uint256"
        }
      ],
      "name": "withdrawMemberFunds",
      "outputs": [],
      "stateMutability": "nonpayable",
      "type": "function"
    }
  ],
  "bytecode": "0x608060405234801561001057600080fd5b50615b2380620000216000396000f3fe60806040526004361061011f5760003560e01c8063966708a5116100a0578063babf53af11610064578063babf53af14610427578063e428c28914610464578063ed8ec194146104a9578063f64d7060146104e6578063fa59d636146105115761011f565b8063966708a5146103175780639c36c46a14610354578063a02c15d714610391578063a967028a146103ad578063b6206b44146103ea5761011f565b8063265c4214116100e7578063265c4214146102225780632bdb8d3a1461024b5780633b661002146102745780635623aee61461029d5780635a8ff969146102da5761011f565b8063026e6623146101245780630afa1f0b14610161578063117d94f51461019e578063145045e6146101a85780631a3ca69c146101e5575b600080fd5b34801561013057600080fd5b5061014b60048036038101906101469190614137565b61052d565b604051610158919061417d565b60405180910390f35b34801561016d57600080fd5b5061018860048036038101906101839190614137565b61059e565b6040516101959190614256565b60405180910390f35b6101a66107aa565b005b3480156101b457600080fd5b506101cf60048036038101906101ca9190614137565b610a47565b6040516101dc919061444f565b60405180910390f35b3480156101f157600080fd5b5061020c60048036038101906102079190614137565b610d25565b6040516102199190614256565b60405180910390f35b34801561022e57600080fd5b5061024960048036038101906102449190614137565b610f31565b005b34801561025757600080fd5b50610272600480360381019061026d919061449d565b61176c565b005b34801561028057600080fd5b5061029b600480360381019061029691906144dd565b6123b8565b005b3480156102a957600080fd5b506102c460048036038101906102bf9190614137565b6127bb565b6040516102d19190614526565b60405180910390f35b3480156102e657600080fd5b5061030160048036038101906102fc9190614137565b6127db565b60405161030e9190614526565b60405180910390f35b34801561032357600080fd5b5061033e60048036038101906103399190614137565b612831565b60405161034b9190614550565b60405180910390f35b34801561036057600080fd5b5061037b60048036038101906103769190614137565b6128c2565b604051610388919061461a565b60405180910390f35b6103ab60048036038101906103a691906149dd565b612b1c565b005b3480156103b957600080fd5b506103d460048036038101906103cf9190614137565b6132f9565b6040516103e19190614b2e565b60405180910390f35b3480156103f657600080fd5b50610411600480360381019061040c9190614137565b6133f2565b60405161041e9190614c12565b60405180910390f35b34801561043357600080fd5b5061044e60048036038101906104499190614137565b61368a565b60405161045b9190614c12565b60405180910390f35b34801561047057600080fd5b5061048b60048036038101906104869190614c60565b613922565b6040516104a099989796959493929190614c8d565b60405180910390f35b3480156104b557600080fd5b506104d060048036038101906104cb9190614137565b613b42565b6040516104dd919061417d565b60405180910390f35b3480156104f257600080fd5b506104fb613bb3565b6040516105089190614526565b60405180910390f35b61052b60048036038101906105269190614137565b613bc6565b005b6000806000600160008573ffffffffffffffffffffffffffffffffffffffff1673ffffffffffffffffffffffffffffffffffffffff16815260200190815260200160002060009054906101000a900460ff1660ff1660ff168152602001908152602001600020600401549050919050565b60606000806000600160008673ffffffffffffffffffffffffffffffffffffffff1673ffffffffffffffffffffffffffffffffffffffff16815260200190815260200160002060009054906101000a900460ff1660ff1660ff16815260200190815260200160002060050160009054906101000a900460ff1660ff1667ffffffffffffffff81111561063357610632614646565b5b6040519080825280602002602001820160405280156106615781602001602082028036833780820191505090505b50905060005b600080600160008773ffffffffffffffffffffffffffffffffffffffff1673ffffffffffffffffffffffffffffffffffffffff16815260200190815260200160002060009054906101000a900460ff1660ff1660ff16815260200190815260200160002060050160009054906101000a900460ff1660ff168160ff1610156107a057600080600160008773ffffffffffffffffffffffffffffffffffffffff1673ffffffffffffffffffffffffffffffffffffffff16815260200190815260200160002060009054906101000a900460ff1660ff1660ff16815260200190815260200160002060080160008260ff1660ff16815260200190815260200160002060030154828260ff168151811061078157610780614d2f565b5b602002602001018181525050808061079890614d8d565b915050610667565b5080915050919050565b34600081116107ee576040517f08c379a00000000000000000000000000000000000000000000000000000000081526004016107e590614e28565b60405180910390fd5b34600080600160003373ffffffffffffffffffffffffffffffffffffffff1673ffffffffffffffffffffffffffffffffffffffff16815260200190815260200160002060009054906101000a900460ff1660ff1660ff16815260200190815260200160002060040160008282546108659190614e48565b9250508190555060006040518060a001604052804281526020013481526020013373ffffffffffffffffffffffffffffffffffffffff1681526020013073ffffffffffffffffffffffffffffffffffffffff1681526020016040518060400160405280601081526020017f73656e6455736572546f57616c6c6574000000000000000000000000000000008152508152509050600080600160003373ffffffffffffffffffffffffffffffffffffffff1673ffffffffffffffffffffffffffffffffffffffff16815260200190815260200160002060009054906101000a900460ff1660ff1660ff168152602001908152602001600020600901819080600181540180825580915050600190039060005260206000209060050201600090919091909150600082015181600001556020820151816001015560408201518160020160006101000a81548173ffffffffffffffffffffffffffffffffffffffff021916908373ffffffffffffffffffffffffffffffffffffffff16021790555060608201518160030160006101000a81548173ffffffffffffffffffffffffffffffffffffffff021916908373ffffffffffffffffffffffffffffffffffffffff1602179055506080820151816004019081610a409190615088565b5050505050565b60606000806000600160008673ffffffffffffffffffffffffffffffffffffffff1673ffffffffffffffffffffffffffffffffffffffff16815260200190815260200160002060009054906101000a900460ff1660ff1660ff1681526020019081526020016000206009018054905067ffffffffffffffff811115610acf57610ace614646565b5b604051908082528060200260200182016040528015610b0857816020015b610af561406a565b815260200190600190039081610aed5790505b509050600080600160008673ffffffffffffffffffffffffffffffffffffffff1673ffffffffffffffffffffffffffffffffffffffff16815260200190815260200160002060009054906101000a900460ff1660ff1660ff168152602001908152602001600020600901805480602002602001604051908101604052809291908181526020016000905b82821015610d1657838290600052602060002090600502016040518060a001604052908160008201548152602001600182015481526020016002820160009054906101000a900473ffffffffffffffffffffffffffffffffffffffff1673ffffffffffffffffffffffffffffffffffffffff1673ffffffffffffffffffffffffffffffffffffffff1681526020016003820160009054906101000a900473ffffffffffffffffffffffffffffffffffffffff1673ffffffffffffffffffffffffffffffffffffffff1673ffffffffffffffffffffffffffffffffffffffff168152602001600482018054610c8590614eab565b80601f0160208091040260200160405190810160405280929190818152602001828054610cb190614eab565b8015610cfe5780601f10610cd357610100808354040283529160200191610cfe565b820191906000526020600020905b815481529060010190602001808311610ce157829003601f168201915b50505050508152505081526020019060010190610b92565b50505050905080915050919050565b60606000806000600160008673ffffffffffffffffffffffffffffffffffffffff1673ffffffffffffffffffffffffffffffffffffffff16815260200190815260200160002060009054906101000a900460ff1660ff1660ff16815260200190815260200160002060050160009054906101000a900460ff1660ff1667ffffffffffffffff811115610dba57610db9614646565b5b604051908082528060200260200182016040528015610de85781602001602082028036833780820191505090505b50905060005b600080600160008773ffffffffffffffffffffffffffffffffffffffff1673ffffffffffffffffffffffffffffffffffffffff16815260200190815260200160002060009054906101000a900460ff1660ff1660ff16815260200190815260200160002060050160009054906101000a900460ff1660ff168160ff161015610f2757600080600160008773ffffffffffffffffffffffffffffffffffffffff1673ffffffffffffffffffffffffffffffffffffffff16815260200190815260200160002060009054906101000a900460ff1660ff1660ff16815260200190815260200160002060080160008260ff1660ff16815260200190815260200160002060040154828260ff1681518110610f0857610f07614d2f565b5b6020026020010181815250508080610f1f90614d8d565b915050610dee565b5080915050919050565b806000806000600160008573ffffffffffffffffffffffffffffffffffffffff1673ffffffffffffffffffffffffffffffffffffffff16815260200190815260200160002060009054906101000a900460ff1660ff1660ff16815260200190815260200160002060050160009054906101000a900460ff1660ff1611610fec576040517f08c379a0000000000000000000000000000000000000000000000000000000008152600401610fe3906151cc565b60405180910390fd5b60005b600080600160008673ffffffffffffffffffffffffffffffffffffffff1673ffffffffffffffffffffffffffffffffffffffff16815260200190815260200160002060009054906101000a900460ff1660ff1660ff16815260200190815260200160002060050160009054906101000a900460ff1660ff168160ff1610156112ea578273ffffffffffffffffffffffffffffffffffffffff16600080600160008773ffffffffffffffffffffffffffffffffffffffff1673ffffffffffffffffffffffffffffffffffffffff16815260200190815260200160002060009054906101000a900460ff1660ff1660ff16815260200190815260200160002060080160008360ff1660ff16815260200190815260200160002060020160009054906101000a900473ffffffffffffffffffffffffffffffffffffffff1673ffffffffffffffffffffffffffffffffffffffff16036112d7576040518060c00160405280604051806020016040528060008152508152602001604051806020016040528060008152508152602001600073ffffffffffffffffffffffffffffffffffffffff168152602001600060ff168152602001600081526020016000815250600080600160008773ffffffffffffffffffffffffffffffffffffffff1673ffffffffffffffffffffffffffffffffffffffff16815260200190815260200160002060009054906101000a900460ff1660ff1660ff16815260200190815260200160002060080160008360ff1660ff16815260200190815260200160002060008201518160000190816112409190615088565b5060208201518160010190816112569190615088565b5060408201518160020160006101000a81548173ffffffffffffffffffffffffffffffffffffffff021916908373ffffffffffffffffffffffffffffffffffffffff16021790555060608201518160020160146101000a81548160ff021916908360ff1602179055506080820151816003015560a082015181600401559050505b80806112e290614d8d565b915050610fef565b50600080600160008573ffffffffffffffffffffffffffffffffffffffff1673ffffffffffffffffffffffffffffffffffffffff16815260200190815260200160002060009054906101000a900460ff1660ff1660ff168152602001908152602001600020600501600081819054906101000a900460ff168092919061136f906151ec565b91906101000a81548160ff021916908360ff160217905550506000600160008473ffffffffffffffffffffffffffffffffffffffff1673ffffffffffffffffffffffffffffffffffffffff16815260200190815260200160002060006101000a81548160ff021916908360ff1602179055506000806000600160008673ffffffffffffffffffffffffffffffffffffffff1673ffffffffffffffffffffffffffffffffffffffff16815260200190815260200160002060009054906101000a900460ff1660ff1660ff16815260200190815260200160002060050160009054906101000a900460ff1660ff1603611768576000806000600160008673ffffffffffffffffffffffffffffffffffffffff1673ffffffffffffffffffffffffffffffffffffffff16815260200190815260200160002060009054906101000a900460ff1660ff1660ff16815260200190815260200160002060000160006101000a81548160ff021916908360ff1602179055506000806000600160008673ffffffffffffffffffffffffffffffffffffffff1673ffffffffffffffffffffffffffffffffffffffff16815260200190815260200160002060009054906101000a900460ff1660ff1660ff1681526020019081526020016000206001018190555060405180602001604052806000815250600080600160008673ffffffffffffffffffffffffffffffffffffffff1673ffffffffffffffffffffffffffffffffffffffff16815260200190815260200160002060009054906101000a900460ff1660ff1660ff16815260200190815260200160002060020190816115d19190615088565b506000806000600160008673ffffffffffffffffffffffffffffffffffffffff1673ffffffffffffffffffffffffffffffffffffffff16815260200190815260200160002060009054906101000a900460ff1660ff1660ff168152602001908152602001600020600301819055506000806000600160008673ffffffffffffffffffffffffffffffffffffffff1673ffffffffffffffffffffffffffffffffffffffff16815260200190815260200160002060009054906101000a900460ff1660ff1660ff16815260200190815260200160002060050160006101000a81548160ff021916908360ff1602179055506000806000600160008673ffffffffffffffffffffffffffffffffffffffff1673ffffffffffffffffffffffffffffffffffffffff16815260200190815260200160002060009054906101000a900460ff1660ff1660ff16815260200190815260200160002060050160016101000a81548173ffffffffffffffffffffffffffffffffffffffff021916908373ffffffffffffffffffffffffffffffffffffffff1602179055505b5050565b81600081116117b0576040517f08c379a00000000000000000000000000000000000000000000000000000000081526004016117a790614e28565b60405180910390fd5b8260005b600080600160003373ffffffffffffffffffffffffffffffffffffffff1673ffffffffffffffffffffffffffffffffffffffff16815260200190815260200160002060009054906101000a900460ff1660ff1660ff16815260200190815260200160002060050160009054906101000a900460ff1660ff168160ff1610156119e257600080600160003373ffffffffffffffffffffffffffffffffffffffff1673ffffffffffffffffffffffffffffffffffffffff16815260200190815260200160002060009054906101000a900460ff1660ff1660ff16815260200190815260200160002060080160008260ff1660ff16815260200190815260200160002060020160009054906101000a900473ffffffffffffffffffffffffffffffffffffffff1673ffffffffffffffffffffffffffffffffffffffff163373ffffffffffffffffffffffffffffffffffffffff16036119cf5781600080600160003373ffffffffffffffffffffffffffffffffffffffff1673ffffffffffffffffffffffffffffffffffffffff16815260200190815260200160002060009054906101000a900460ff1660ff1660ff16815260200190815260200160002060080160008360ff1660ff1681526020019081526020016000206003015410156119ce576040517f08c379a00000000000000000000000000000000000000000000000000000000081526004016119c590615261565b60405180910390fd5b5b80806119da90614d8d565b9150506117b4565b506000838510611a27576040517f08c379a0000000000000000000000000000000000000000000000000000000008152600401611a1e906152f3565b60405180910390fd5b60006001600080600160003373ffffffffffffffffffffffffffffffffffffffff1673ffffffffffffffffffffffffffffffffffffffff16815260200190815260200160002060009054906101000a900460ff1660ff1660ff16815260200190815260200160002060090180549050611aa09190615313565b90505b60008160ff1610611e53576000806000600160003373ffffffffffffffffffffffffffffffffffffffff1673ffffffffffffffffffffffffffffffffffffffff16815260200190815260200160002060009054906101000a900460ff1660ff1660ff1681526020019081526020016000206009018260ff1681548110611b2c57611b2b614d2f565b5b90600052602060002090600502016004018054611b4890614eab565b80601f0160208091040260200160405190810160405280929190818152602001828054611b7490614eab565b8015611bc15780601f10611b9657610100808354040283529160200191611bc1565b820191906000526020600020905b815481529060010190602001808311611ba457829003601f168201915b50505050509050604051602001611bd79061539f565b6040516020818303038152906040528051906020012081604051602001611bfe91906153e5565b60405160208183030381529060405280519060200120148015611cf957503373ffffffffffffffffffffffffffffffffffffffff16600080600160003373ffffffffffffffffffffffffffffffffffffffff1673ffffffffffffffffffffffffffffffffffffffff16815260200190815260200160002060009054906101000a900460ff1660ff1660ff1681526020019081526020016000206009018360ff1681548110611caf57611cae614d2f565b5b906000526020600020906005020160030160009054906101000a900473ffffffffffffffffffffffffffffffffffffffff1673ffffffffffffffffffffffffffffffffffffffff16145b8015611d9e5750610e10600080600160003373ffffffffffffffffffffffffffffffffffffffff1673ffffffffffffffffffffffffffffffffffffffff16815260200190815260200160002060009054906101000a900460ff1660ff1660ff1681526020019081526020016000206009018360ff1681548110611d7f57611d7e614d2f565b5b906000526020600020906005020160000154611d9b9190614e48565b42105b15611e3f57600080600160003373ffffffffffffffffffffffffffffffffffffffff1673ffffffffffffffffffffffffffffffffffffffff16815260200190815260200160002060009054906101000a900460ff1660ff1660ff1681526020019081526020016000206009018260ff1681548110611e1f57611e1e614d2f565b5b90600052602060002090600502016001015483611e3c9190614e48565b92505b508080611e4b906151ec565b915050611aa3565b50838582611e619190614e48565b10611ea1576040517f08c379a0000000000000000000000000000000000000000000000000000000008152600401611e989061546e565b60405180910390fd5b60003373ffffffffffffffffffffffffffffffffffffffff1686604051611ec7906154bf565b60006040518083038185875af1925050503d8060008114611f04576040519150601f19603f3d011682016040523d82523d6000602084013e611f09565b606091505b5050905080611f4d576040517f08c379a0000000000000000000000000000000000000000000000000000000008152600401611f4490615546565b60405180910390fd5b80156123b05785600080600160003373ffffffffffffffffffffffffffffffffffffffff1673ffffffffffffffffffffffffffffffffffffffff16815260200190815260200160002060009054906101000a900460ff1660ff1660ff1681526020019081526020016000206003016000828254611fca9190615566565b9250508190555060005b600080600160003373ffffffffffffffffffffffffffffffffffffffff1673ffffffffffffffffffffffffffffffffffffffff16815260200190815260200160002060009054906101000a900460ff1660ff1660ff16815260200190815260200160002060050160009054906101000a900460ff1660ff168160ff1610156121d6573373ffffffffffffffffffffffffffffffffffffffff16600080600160003373ffffffffffffffffffffffffffffffffffffffff1673ffffffffffffffffffffffffffffffffffffffff16815260200190815260200160002060009054906101000a900460ff1660ff1660ff16815260200190815260200160002060080160008360ff1660ff16815260200190815260200160002060020160009054906101000a900473ffffffffffffffffffffffffffffffffffffffff1673ffffffffffffffffffffffffffffffffffffffff16036121c35786600080600160003373ffffffffffffffffffffffffffffffffffffffff1673ffffffffffffffffffffffffffffffffffffffff16815260200190815260200160002060009054906101000a900460ff1660ff1660ff16815260200190815260200160002060080160008360ff1660ff16815260200190815260200160002060030160008282546121bb9190615566565b925050819055505b80806121ce90614d8d565b915050611fd4565b5060006040518060a001604052804281526020018881526020013373ffffffffffffffffffffffffffffffffffffffff1681526020013373ffffffffffffffffffffffffffffffffffffffff1681526020016040518060400160405280601281526020017f776974686472617755736572546f5573657200000000000000000000000000008152508152509050600080600160003373ffffffffffffffffffffffffffffffffffffffff1673ffffffffffffffffffffffffffffffffffffffff16815260200190815260200160002060009054906101000a900460ff1660ff1660ff168152602001908152602001600020600901819080600181540180825580915050600190039060005260206000209060050201600090919091909150600082015181600001556020820151816001015560408201518160020160006101000a81548173ffffffffffffffffffffffffffffffffffffffff021916908373ffffffffffffffffffffffffffffffffffffffff16021790555060608201518160030160006101000a81548173ffffffffffffffffffffffffffffffffffffffff021916908373ffffffffffffffffffffffffffffffffffffffff16021790555060808201518160040190816123ab9190615088565b505050505b505050505050565b80600081116123fc576040517f08c379a00000000000000000000000000000000000000000000000000000000081526004016123f390614e28565b60405180910390fd5b8180471015612440576040517f08c379a00000000000000000000000000000000000000000000000000000000081526004016124379061560c565b60405180910390fd5b8280600080600160003373ffffffffffffffffffffffffffffffffffffffff1673ffffffffffffffffffffffffffffffffffffffff16815260200190815260200160002060009054906101000a900460ff1660ff1660ff1681526020019081526020016000206004015410156124eb576040517f08c379a00000000000000000000000000000000000000000000000000000000081526004016124e29061569e565b60405180910390fd5b60003373ffffffffffffffffffffffffffffffffffffffff1685604051612511906154bf565b60006040518083038185875af1925050503d806000811461254e576040519150601f19603f3d011682016040523d82523d6000602084013e612553565b606091505b5050905080156127b45784600080600160003373ffffffffffffffffffffffffffffffffffffffff1673ffffffffffffffffffffffffffffffffffffffff16815260200190815260200160002060009054906101000a900460ff1660ff1660ff16815260200190815260200160002060040160008282546125d49190615566565b9250508190555060006040518060a001604052804281526020018781526020013073ffffffffffffffffffffffffffffffffffffffff1681526020013373ffffffffffffffffffffffffffffffffffffffff1681526020016040518060400160405280601481526020017f776974686472617757616c6c6574546f557365720000000000000000000000008152508152509050600080600160003373ffffffffffffffffffffffffffffffffffffffff1673ffffffffffffffffffffffffffffffffffffffff16815260200190815260200160002060009054906101000a900460ff1660ff1660ff168152602001908152602001600020600901819080600181540180825580915050600190039060005260206000209060050201600090919091909150600082015181600001556020820151816001015560408201518160020160006101000a81548173ffffffffffffffffffffffffffffffffffffffff021916908373ffffffffffffffffffffffffffffffffffffffff16021790555060608201518160030160006101000a81548173ffffffffffffffffffffffffffffffffffffffff021916908373ffffffffffffffffffffffffffffffffffffffff16021790555060808201518160040190816127af9190615088565b505050505b5050505050565b60016020528060005260406000206000915054906101000a900460ff1681565b6000600160008373ffffffffffffffffffffffffffffffffffffffff1673ffffffffffffffffffffffffffffffffffffffff16815260200190815260200160002060009054906101000a900460ff169050919050565b6000806000600160008573ffffffffffffffffffffffffffffffffffffffff1673ffffffffffffffffffffffffffffffffffffffff16815260200190815260200160002060009054906101000a900460ff1660ff1660ff16815260200190815260200160002060050160019054906101000a900473ffffffffffffffffffffffffffffffffffffffff169050919050565b60606000806000600160008673ffffffffffffffffffffffffffffffffffffffff1673ffffffffffffffffffffffffffffffffffffffff16815260200190815260200160002060009054906101000a900460ff1660ff1660ff16815260200190815260200160002060050160009054906101000a900460ff1660ff1667ffffffffffffffff81111561295757612956614646565b5b6040519080825280602002602001820160405280156129855781602001602082028036833780820191505090505b50905060005b600080600160008773ffffffffffffffffffffffffffffffffffffffff1673ffffffffffffffffffffffffffffffffffffffff16815260200190815260200160002060009054906101000a900460ff1660ff1660ff16815260200190815260200160002060050160009054906101000a900460ff1660ff168160ff161015612b1257600080600160008773ffffffffffffffffffffffffffffffffffffffff1673ffffffffffffffffffffffffffffffffffffffff16815260200190815260200160002060009054906101000a900460ff1660ff1660ff16815260200190815260200160002060080160008260ff1660ff16815260200190815260200160002060020160009054906101000a900473ffffffffffffffffffffffffffffffffffffffff16828260ff1681518110612ac557612ac4614d2f565b5b602002602001019073ffffffffffffffffffffffffffffffffffffffff16908173ffffffffffffffffffffffffffffffffffffffff16815250508080612b0a90614d8d565b91505061298b565b5080915050919050565b3460008111612b60576040517f08c379a0000000000000000000000000000000000000000000000000000000008152600401612b5790614e28565b60405180910390fd5b84845160008111612ba6576040517f08c379a0000000000000000000000000000000000000000000000000000000008152600401612b9d9061570a565b60405180910390fd5b60005b81811015612d3157600060016000858481518110612bca57612bc9614d2f565b5b602002602001015173ffffffffffffffffffffffffffffffffffffffff1673ffffffffffffffffffffffffffffffffffffffff16815260200190815260200160002060009054906101000a900460ff1660ff1614612c5d576040517f08c379a0000000000000000000000000000000000000000000000000000000008152600401612c549061579c565b60405180910390fd5b60005b81811015612d1d57838181518110612c7b57612c7a614d2f565b5b602002602001015173ffffffffffffffffffffffffffffffffffffffff16848381518110612cac57612cab614d2f565b5b602002602001015173ffffffffffffffffffffffffffffffffffffffff1603612d0a576040517f08c379a0000000000000000000000000000000000000000000000000000000008152600401612d019061582e565b60405180910390fd5b8080612d159061584e565b915050612c60565b508080612d299061584e565b915050612ba9565b50876000815103612d77576040517f08c379a0000000000000000000000000000000000000000000000000000000008152600401612d6e906158e2565b60405180910390fd5b868680518251148015612d8c57506000825114155b612dcb576040517f08c379a0000000000000000000000000000000000000000000000000000000008152600401612dc290615974565b60405180910390fd5b60005b8251811015612e71576000838281518110612dec57612deb614d2f565b5b60200260200101515114158015612e1f57506000828281518110612e1357612e12614d2f565b5b60200260200101515114155b612e5e576040517f08c379a0000000000000000000000000000000000000000000000000000000008152600401612e5590615974565b60405180910390fd5b8080612e699061584e565b915050612dce565b5086888051825114612eb8576040517f08c379a0000000000000000000000000000000000000000000000000000000008152600401612eaf90615a06565b60405180910390fd5b60005b8251811015612f35576000838281518110612ed957612ed8614d2f565b5b60200260200101511015612f22576040517f08c379a0000000000000000000000000000000000000000000000000000000008152600401612f1990615a98565b60405180910390fd5b8080612f2d9061584e565b915050612ebb565b506000806000600a600260009054906101000a900460ff16612f579190615ab8565b60ff1660ff1681526020019081526020016000209050600a600260009054906101000a900460ff16612f899190615ab8565b8160000160006101000a81548160ff021916908360ff1602179055504281600101819055508d816002019081612fbf9190615088565b503481600401819055508c600081518110612fdd57612fdc614d2f565b5b60200260200101518160050160016101000a81548173ffffffffffffffffffffffffffffffffffffffff021916908373ffffffffffffffffffffffffffffffffffffffff1602179055508b60008151811061303b5761303a614d2f565b5b60200260200101518160060190816130539190615088565b508a60008151811061306857613067614d2f565b5b60200260200101518160070190816130809190615088565b5060005b8d518160ff1610156132b05760008260080160008360ff1660ff16815260200190815260200160002090508d8260ff16815181106130c5576130c4614d2f565b5b60200260200101518160000190816130dd9190615088565b508c8260ff16815181106130f4576130f3614d2f565b5b602002602001015181600101908161310c9190615088565b508e8260ff168151811061312357613122614d2f565b5b60200260200101518160020160006101000a81548173ffffffffffffffffffffffffffffffffffffffff021916908373ffffffffffffffffffffffffffffffffffffffff160217905550600a600260009054906101000a900460ff166131899190615ab8565b8160020160146101000a81548160ff021916908360ff160217905550600081600301819055508b8260ff16815181106131c5576131c4614d2f565b5b6020026020010151816004018190555082600501600081819054906101000a900460ff16809291906131f690614d8d565b91906101000a81548160ff021916908360ff160217905550508060020160149054906101000a900460ff16600160008360020160009054906101000a900473ffffffffffffffffffffffffffffffffffffffff1673ffffffffffffffffffffffffffffffffffffffff1673ffffffffffffffffffffffffffffffffffffffff16815260200190815260200160002060006101000a81548160ff021916908360ff1602179055505080806132a890614d8d565b915050613084565b506002600081819054906101000a900460ff16809291906132d090614d8d565b91906101000a81548160ff021916908360ff160217905550505050505050505050505050505050565b6060600080600160008573ffffffffffffffffffffffffffffffffffffffff1673ffffffffffffffffffffffffffffffffffffffff16815260200190815260200160002060009054906101000a900460ff1660ff1660ff168152602001908152602001600020600201805461336d90614eab565b80601f016020809104026020016040519081016040528092919081815260200182805461339990614eab565b80156133e65780601f106133bb576101008083540402835291602001916133e6565b820191906000526020600020905b8154815290600101906020018083116133c957829003601f168201915b50505050509050919050565b60606000806000600160008673ffffffffffffffffffffffffffffffffffffffff1673ffffffffffffffffffffffffffffffffffffffff16815260200190815260200160002060009054906101000a900460ff1660ff1660ff16815260200190815260200160002060050160009054906101000a900460ff1660ff1667ffffffffffffffff81111561348757613486614646565b5b6040519080825280602002602001820160405280156134ba57816020015b60608152602001906001900390816134a55790505b50905060005b600080600160008773ffffffffffffffffffffffffffffffffffffffff1673ffffffffffffffffffffffffffffffffffffffff16815260200190815260200160002060009054906101000a900460ff1660ff1660ff16815260200190815260200160002060050160009054906101000a900460ff1660ff168160ff16101561368057600080600160008773ffffffffffffffffffffffffffffffffffffffff1673ffffffffffffffffffffffffffffffffffffffff16815260200190815260200160002060009054906101000a900460ff1660ff1660ff16815260200190815260200160002060080160008260ff1660ff16815260200190815260200160002060000180546135ce90614eab565b80601f01602080910402602001604051908101604052809291908181526020018280546135fa90614eab565b80156136475780601f1061361c57610100808354040283529160200191613647565b820191906000526020600020905b81548152906001019060200180831161362a57829003601f168201915b5050505050828260ff168151811061366257613661614d2f565b5b6020026020010181905250808061367890614d8d565b9150506134c0565b5080915050919050565b60606000806000600160008673ffffffffffffffffffffffffffffffffffffffff1673ffffffffffffffffffffffffffffffffffffffff16815260200190815260200160002060009054906101000a900460ff1660ff1660ff16815260200190815260200160002060050160009054906101000a900460ff1660ff1667ffffffffffffffff81111561371f5761371e614646565b5b60405190808252806020026020018201604052801561375257816020015b606081526020019060019003908161373d5790505b50905060005b600080600160008773ffffffffffffffffffffffffffffffffffffffff1673ffffffffffffffffffffffffffffffffffffffff16815260200190815260200160002060009054906101000a900460ff1660ff1660ff16815260200190815260200160002060050160009054906101000a900460ff1660ff168160ff16101561391857600080600160008773ffffffffffffffffffffffffffffffffffffffff1673ffffffffffffffffffffffffffffffffffffffff16815260200190815260200160002060009054906101000a900460ff1660ff1660ff16815260200190815260200160002060080160008260ff1660ff168152602001908152602001600020600101805461386690614eab565b80601f016020809104026020016040519081016040528092919081815260200182805461389290614eab565b80156138df5780601f106138b4576101008083540402835291602001916138df565b820191906000526020600020905b8154815290600101906020018083116138c257829003601f168201915b5050505050828260ff16815181106138fa576138f9614d2f565b5b6020026020010181905250808061391090614d8d565b915050613758565b5080915050919050565b60006020528060005260406000206000915090508060000160009054906101000a900460ff169080600101549080600201805461395e90614eab565b80601f016020809104026020016040519081016040528092919081815260200182805461398a90614eab565b80156139d75780601f106139ac576101008083540402835291602001916139d7565b820191906000526020600020905b8154815290600101906020018083116139ba57829003601f168201915b5050505050908060030154908060040154908060050160009054906101000a900460ff16908060050160019054906101000a900473ffffffffffffffffffffffffffffffffffffffff1690806006018054613a3190614eab565b80601f0160208091040260200160405190810160405280929190818152602001828054613a5d90614eab565b8015613aaa5780601f10613a7f57610100808354040283529160200191613aaa565b820191906000526020600020905b815481529060010190602001808311613a8d57829003601f168201915b505050505090806007018054613abf90614eab565b80601f0160208091040260200160405190810160405280929190818152602001828054613aeb90614eab565b8015613b385780601f10613b0d57610100808354040283529160200191613b38565b820191906000526020600020905b815481529060010190602001808311613b1b57829003601f168201915b5050505050905089565b6000806000600160008573ffffffffffffffffffffffffffffffffffffffff1673ffffffffffffffffffffffffffffffffffffffff16815260200190815260200160002060009054906101000a900460ff1660ff1660ff168152602001908152602001600020600301549050919050565b600260009054906101000a900460ff1681565b3460008111613c0a576040517f08c379a0000000000000000000000000000000000000000000000000000000008152600401613c0190614e28565b60405180910390fd5b34600080600160008673ffffffffffffffffffffffffffffffffffffffff1673ffffffffffffffffffffffffffffffffffffffff16815260200190815260200160002060009054906101000a900460ff1660ff1660ff1681526020019081526020016000206003016000828254613c819190614e48565b9250508190555060005b600080600160008673ffffffffffffffffffffffffffffffffffffffff1673ffffffffffffffffffffffffffffffffffffffff16815260200190815260200160002060009054906101000a900460ff1660ff1660ff16815260200190815260200160002060050160009054906101000a900460ff1660ff168160ff161015613e8d578273ffffffffffffffffffffffffffffffffffffffff16600080600160008773ffffffffffffffffffffffffffffffffffffffff1673ffffffffffffffffffffffffffffffffffffffff16815260200190815260200160002060009054906101000a900460ff1660ff1660ff16815260200190815260200160002060080160008360ff1660ff16815260200190815260200160002060020160009054906101000a900473ffffffffffffffffffffffffffffffffffffffff1673ffffffffffffffffffffffffffffffffffffffff1603613e7a5734600080600160008773ffffffffffffffffffffffffffffffffffffffff1673ffffffffffffffffffffffffffffffffffffffff16815260200190815260200160002060009054906101000a900460ff1660ff1660ff16815260200190815260200160002060080160008360ff1660ff1681526020019081526020016000206003016000828254613e729190614e48565b925050819055505b8080613e8590614d8d565b915050613c8b565b5060006040518060a001604052804281526020013481526020013373ffffffffffffffffffffffffffffffffffffffff1681526020018473ffffffffffffffffffffffffffffffffffffffff1681526020016040518060400160405280600e81526020017f73656e6455736572546f557365720000000000000000000000000000000000008152508152509050600080600160008673ffffffffffffffffffffffffffffffffffffffff1673ffffffffffffffffffffffffffffffffffffffff16815260200190815260200160002060009054906101000a900460ff1660ff1660ff168152602001908152602001600020600901819080600181540180825580915050600190039060005260206000209060050201600090919091909150600082015181600001556020820151816001015560408201518160020160006101000a81548173ffffffffffffffffffffffffffffffffffffffff021916908373ffffffffffffffffffffffffffffffffffffffff16021790555060608201518160030160006101000a81548173ffffffffffffffffffffffffffffffffffffffff021916908373ffffffffffffffffffffffffffffffffffffffff16021790555060808201518160040190816140629190615088565b505050505050565b6040518060a001604052806000815260200160008152602001600073ffffffffffffffffffffffffffffffffffffffff168152602001600073ffffffffffffffffffffffffffffffffffffffff168152602001606081525090565b6000604051905090565b600080fd5b600080fd5b600073ffffffffffffffffffffffffffffffffffffffff82169050919050565b6000614104826140d9565b9050919050565b614114816140f9565b811461411f57600080fd5b50565b6000813590506141318161410b565b92915050565b60006020828403121561414d5761414c6140cf565b5b600061415b84828501614122565b91505092915050565b6000819050919050565b61417781614164565b82525050565b6000602082019050614192600083018461416e565b92915050565b600081519050919050565b600082825260208201905092915050565b6000819050602082019050919050565b6141cd81614164565b82525050565b60006141df83836141c4565b60208301905092915050565b6000602082019050919050565b600061420382614198565b61420d81856141a3565b9350614218836141b4565b8060005b8381101561424957815161423088826141d3565b975061423b836141eb565b92505060018101905061421c565b5085935050505092915050565b6000602082019050818103600083015261427081846141f8565b905092915050565b600081519050919050565b600082825260208201905092915050565b6000819050602082019050919050565b6142ad816140f9565b82525050565b600081519050919050565b600082825260208201905092915050565b60005b838110156142ed5780820151818401526020810190506142d2565b60008484015250505050565b6000601f19601f8301169050919050565b6000614315826142b3565b61431f81856142be565b935061432f8185602086016142cf565b614338816142f9565b840191505092915050565b600060a08301600083015161435b60008601826141c4565b50602083015161436e60208601826141c4565b50604083015161438160408601826142a4565b50606083015161439460608601826142a4565b50608083015184820360808601526143ac828261430a565b9150508091505092915050565b60006143c58383614343565b905092915050565b6000602082019050919050565b60006143e582614278565b6143ef8185614283565b93508360208202850161440185614294565b8060005b8581101561443d578484038952815161441e85826143b9565b9450614429836143cd565b925060208a01995050600181019050614405565b50829750879550505050505092915050565b6000602082019050818103600083015261446981846143da565b905092915050565b61447a81614164565b811461448557600080fd5b50565b60008135905061449781614471565b92915050565b600080604083850312156144b4576144b36140cf565b5b60006144c285828601614488565b92505060206144d385828601614488565b9150509250929050565b6000602082840312156144f3576144f26140cf565b5b600061450184828501614488565b91505092915050565b600060ff82169050919050565b6145208161450a565b82525050565b600060208201905061453b6000830184614517565b92915050565b61454a816140f9565b82525050565b60006020820190506145656000830184614541565b92915050565b600081519050919050565b600082825260208201905092915050565b6000819050602082019050919050565b60006145a383836142a4565b60208301905092915050565b6000602082019050919050565b60006145c78261456b565b6145d18185614576565b93506145dc83614587565b8060005b8381101561460d5781516145f48882614597565b97506145ff836145af565b9250506001810190506145e0565b5085935050505092915050565b6000602082019050818103600083015261463481846145bc565b905092915050565b600080fd5b600080fd5b7f4e487b7100000000000000000000000000000000000000000000000000000000600052604160045260246000fd5b61467e826142f9565b810181811067ffffffffffffffff8211171561469d5761469c614646565b5b80604052505050565b60006146b06140c5565b90506146bc8282614675565b919050565b600067ffffffffffffffff8211156146dc576146db614646565b5b6146e5826142f9565b9050602081019050919050565b82818337600083830152505050565b600061471461470f846146c1565b6146a6565b9050828152602081018484840111156147305761472f614641565b5b61473b8482856146f2565b509392505050565b600082601f8301126147585761475761463c565b5b8135614768848260208601614701565b91505092915050565b600067ffffffffffffffff82111561478c5761478b614646565b5b602082029050602081019050919050565b600080fd5b60006147b56147b084614771565b6146a6565b905080838252602082019050602084028301858111156147d8576147d761479d565b5b835b8181101561480157806147ed8882614122565b8452602084019350506020810190506147da565b5050509392505050565b600082601f8301126148205761481f61463c565b5b81356148308482602086016147a2565b91505092915050565b600067ffffffffffffffff82111561485457614853614646565b5b602082029050602081019050919050565b600061487861487384614839565b6146a6565b9050808382526020820190506020840283018581111561489b5761489a61479d565b5b835b818110156148e257803567ffffffffffffffff8111156148c0576148bf61463c565b5b8086016148cd8982614743565b8552602085019450505060208101905061489d565b5050509392505050565b600082601f8301126149015761490061463c565b5b8135614911848260208601614865565b91505092915050565b600067ffffffffffffffff82111561493557614934614646565b5b602082029050602081019050919050565b60006149596149548461491a565b6146a6565b9050808382526020820190506020840283018581111561497c5761497b61479d565b5b835b818110156149a557806149918882614488565b84526020840193505060208101905061497e565b5050509392505050565b600082601f8301126149c4576149c361463c565b5b81356149d4848260208601614946565b91505092915050565b600080600080600060a086880312156149f9576149f86140cf565b5b600086013567ffffffffffffffff811115614a1757614a166140d4565b5b614a2388828901614743565b955050602086013567ffffffffffffffff811115614a4457614a436140d4565b5b614a508882890161480b565b945050604086013567ffffffffffffffff811115614a7157614a706140d4565b5b614a7d888289016148ec565b935050606086013567ffffffffffffffff811115614a9e57614a9d6140d4565b5b614aaa888289016148ec565b925050608086013567ffffffffffffffff811115614acb57614aca6140d4565b5b614ad7888289016149af565b9150509295509295909350565b600082825260208201905092915050565b6000614b00826142b3565b614b0a8185614ae4565b9350614b1a8185602086016142cf565b614b23816142f9565b840191505092915050565b60006020820190508181036000830152614b488184614af5565b905092915050565b600081519050919050565b600082825260208201905092915050565b6000819050602082019050919050565b6000614b88838361430a565b905092915050565b6000602082019050919050565b6000614ba882614b50565b614bb28185614b5b565b935083602082028501614bc485614b6c565b8060005b85811015614c005784840389528151614be18582614b7c565b9450614bec83614b90565b925060208a01995050600181019050614bc8565b50829750879550505050505092915050565b60006020820190508181036000830152614c2c8184614b9d565b905092915050565b614c3d8161450a565b8114614c4857600080fd5b50565b600081359050614c5a81614c34565b92915050565b600060208284031215614c7657614c756140cf565b5b6000614c8484828501614c4b565b91505092915050565b600061012082019050614ca3600083018c614517565b614cb0602083018b61416e565b8181036040830152614cc2818a614af5565b9050614cd1606083018961416e565b614cde608083018861416e565b614ceb60a0830187614517565b614cf860c0830186614541565b81810360e0830152614d0a8185614af5565b9050818103610100830152614d1f8184614af5565b90509a9950505050505050505050565b7f4e487b7100000000000000000000000000000000000000000000000000000000600052603260045260246000fd5b7f4e487b7100000000000000000000000000000000000000000000000000000000600052601160045260246000fd5b6000614d988261450a565b915060ff8203614dab57614daa614d5e565b5b600182019050919050565b7f54686520616d6f756e74206e6565647320746f2062652068696768657220746860008201527f616e203000000000000000000000000000000000000000000000000000000000602082015250565b6000614e12602483614ae4565b9150614e1d82614db6565b604082019050919050565b60006020820190508181036000830152614e4181614e05565b9050919050565b6000614e5382614164565b9150614e5e83614164565b9250828201905080821115614e7657614e75614d5e565b5b92915050565b7f4e487b7100000000000000000000000000000000000000000000000000000000600052602260045260246000fd5b60006002820490506001821680614ec357607f821691505b602082108103614ed657614ed5614e7c565b5b50919050565b60008190508160005260206000209050919050565b60006020601f8301049050919050565b600082821b905092915050565b600060088302614f3e7fffffffffffffffffffffffffffffffffffffffffffffffffffffffffffffffff82614f01565b614f488683614f01565b95508019841693508086168417925050509392505050565b6000819050919050565b6000614f85614f80614f7b84614164565b614f60565b614164565b9050919050565b6000819050919050565b614f9f83614f6a565b614fb3614fab82614f8c565b848454614f0e565b825550505050565b600090565b614fc8614fbb565b614fd3818484614f96565b505050565b5b81811015614ff757614fec600082614fc0565b600181019050614fd9565b5050565b601f82111561503c5761500d81614edc565b61501684614ef1565b81016020851015615025578190505b61503961503185614ef1565b830182614fd8565b50505b505050565b600082821c905092915050565b600061505f60001984600802615041565b1980831691505092915050565b6000615078838361504e565b9150826002028217905092915050565b615091826142b3565b67ffffffffffffffff8111156150aa576150a9614646565b5b6150b48254614eab565b6150bf828285614ffb565b600060209050601f8311600181146150f257600084156150e0578287015190505b6150ea858261506c565b865550615152565b601f19841661510086614edc565b60005b8281101561512857848901518255600182019150602085019450602081019050615103565b868310156151455784890151615141601f89168261504e565b8355505b6001600288020188555050505b505050505050565b7f5468652077616c6c6574206e6565647320746f2068617665206174206c65617360008201527f7420312075736572000000000000000000000000000000000000000000000000602082015250565b60006151b6602883614ae4565b91506151c18261515a565b604082019050919050565b600060208201905081810360008301526151e5816151a9565b9050919050565b60006151f78261450a565b91506000820361520a57615209614d5e565b5b600182039050919050565b7f596f7520646f206e6f74206861766520656e6f7567682066756e647300000000600082015250565b600061524b601c83614ae4565b915061525682615215565b602082019050919050565b6000602082019050818103600083015261527a8161523e565b9050919050565b7f5468652077697468647261776e20616d6f756e7420657863656564732074686560008201527f20686f75726c79206c696d697400000000000000000000000000000000000000602082015250565b60006152dd602d83614ae4565b91506152e882615281565b604082019050919050565b6000602082019050818103600083015261530c816152d0565b9050919050565b600061531e8261450a565b91506153298361450a565b9250828203905060ff81111561534257615341614d5e565b5b92915050565b600081905092915050565b7f776974686472617755736572546f557365720000000000000000000000000000600082015250565b6000615389601283615348565b915061539482615353565b601282019050919050565b60006153aa8261537c565b9150819050919050565b60006153bf826142b3565b6153c98185615348565b93506153d98185602086016142cf565b80840191505092915050565b60006153f182846153b4565b915081905092915050565b7f546865207769746864726177616c206c696d697420686173206578636565646560008201527f6400000000000000000000000000000000000000000000000000000000000000602082015250565b6000615458602183614ae4565b9150615463826153fc565b604082019050919050565b600060208201905081810360008301526154878161544b565b9050919050565b600081905092915050565b50565b60006154a960008361548e565b91506154b482615499565b600082019050919050565b60006154ca8261549c565b9150819050919050565b7f4661696c656420746f2073656e6420457468657220746f20746865207265636960008201527f7069656e74206164647265737300000000000000000000000000000000000000602082015250565b6000615530602d83614ae4565b915061553b826154d4565b604082019050919050565b6000602082019050818103600083015261555f81615523565b9050919050565b600061557182614164565b915061557c83614164565b925082820390508181111561559457615593614d5e565b5b92915050565b7f496e73756666696369656e742066756e647320696e2074686520636f6e74726160008201527f6374000000000000000000000000000000000000000000000000000000000000602082015250565b60006155f6602283614ae4565b91506156018261559a565b604082019050919050565b60006020820190508181036000830152615625816155e9565b9050919050565b7f5468652077616c6c657420646f6573206e6f74206861766520656e6f7567682060008201527f66756e6473000000000000000000000000000000000000000000000000000000602082015250565b6000615688602583614ae4565b91506156938261562c565b604082019050919050565b600060208201905081810360008301526156b78161567b565b9050919050565b7f412077616c6c6574206e65656473206174206c65617374206f6e652075736572600082015250565b60006156f4602083614ae4565b91506156ff826156be565b602082019050919050565b60006020820190508181036000830152615723816156e7565b9050919050565b7f4f6e65206f72206d6f7265207573657273206861766520616c7265616479206a60008201527f6f696e656420616e6f746865722077616c6c6574000000000000000000000000602082015250565b6000615786603483614ae4565b91506157918261572a565b604082019050919050565b600060208201905081810360008301526157b581615779565b9050919050565b7f5468652077616c6c65742063616e206e6f742068617665206475706c6963617460008201527f6520616464726573736573000000000000000000000000000000000000000000602082015250565b6000615818602b83614ae4565b9150615823826157bc565b604082019050919050565b600060208201905081810360008301526158478161580b565b9050919050565b600061585982614164565b91507fffffffffffffffffffffffffffffffffffffffffffffffffffffffffffffffff820361588b5761588a614d5e565b5b600182019050919050565b7f5468652077616c6c6574206e656564732061206e616d65000000000000000000600082015250565b60006158cc601783614ae4565b91506158d782615896565b602082019050919050565b600060208201905081810360008301526158fb816158bf565b9050919050565b7f546865207573657273206e65656420746f206861766520626f7468206669727360008201527f7420616e64206c617374206e616d657300000000000000000000000000000000602082015250565b600061595e603083614ae4565b915061596982615902565b604082019050919050565b6000602082019050818103600083015261598d81615951565b9050919050565b7f45766572792075736572206e6565647320746f20686176652061206d6f6e746860008201527f6c79207769746864726177616c206c696d697420736574207570000000000000602082015250565b60006159f0603a83614ae4565b91506159fb82615994565b604082019050919050565b60006020820190508181036000830152615a1f816159e3565b9050919050565b7f546865207769746864726177616c206c696d6974732063616e206e6f7420626560008201527f206e656761746976650000000000000000000000000000000000000000000000602082015250565b6000615a82602983614ae4565b9150615a8d82615a26565b604082019050919050565b60006020820190508181036000830152615ab181615a75565b9050919050565b6000615ac38261450a565b9150615ace8361450a565b9250828201905060ff811115615ae757615ae6614d5e565b5b9291505056fea2646970667358221220221c23fa1bbe756db198c6c6b06ab5d20d60d1988a8aafbc9a442a165e24717464736f6c63430008110033",
  "linkReferences": {},
  "deployedLinkReferences": {}
}