{
  "_format": "hh-sol-artifact-1",
  "contractName": "TheVault",
  "sourceName": "contracts/TheVault.sol",
  "abi": [
    {
      "inputs": [
        {
          "internalType": "address",
          "name": "memberAddress",
          "type": "address"
        }
      ],
      "name": "getWalletBalance",
      "outputs": [
        {
          "internalType": "uint256",
          "name": "",
          "type": "uint256"
        }
      ],
      "stateMutability": "view",
      "type": "function"
    },
    {
      "inputs": [
        {
          "internalType": "address",
          "name": "memberAddress",
          "type": "address"
        }
      ],
      "name": "getWalletId",
      "outputs": [
        {
          "internalType": "uint8",
          "name": "",
          "type": "uint8"
        }
      ],
      "stateMutability": "view",
      "type": "function"
    },
    {
      "inputs": [
        {
          "internalType": "address",
          "name": "memberAddress",
          "type": "address"
        }
      ],
      "name": "getWalletMembersAddresses",
      "outputs": [
        {
          "internalType": "address[]",
          "name": "",
          "type": "address[]"
        }
      ],
      "stateMutability": "view",
      "type": "function"
    },
    {
      "inputs": [
        {
          "internalType": "address",
          "name": "memberAddress",
          "type": "address"
        }
      ],
      "name": "getWalletMembersBalances",
      "outputs": [
        {
          "internalType": "uint256[]",
          "name": "",
          "type": "uint256[]"
        }
      ],
      "stateMutability": "view",
      "type": "function"
    },
    {
      "inputs": [
        {
          "internalType": "address",
          "name": "memberAddress",
          "type": "address"
        }
      ],
      "name": "getWalletMembersFirstNames",
      "outputs": [
        {
          "internalType": "string[]",
          "name": "",
          "type": "string[]"
        }
      ],
      "stateMutability": "view",
      "type": "function"
    },
    {
      "inputs": [
        {
          "internalType": "address",
          "name": "memberAddress",
          "type": "address"
        }
      ],
      "name": "getWalletMembersLastNames",
      "outputs": [
        {
          "internalType": "string[]",
          "name": "",
          "type": "string[]"
        }
      ],
      "stateMutability": "view",
      "type": "function"
    },
    {
      "inputs": [
        {
          "internalType": "address",
          "name": "memberAddress",
          "type": "address"
        }
      ],
      "name": "getWalletOwner",
      "outputs": [
        {
          "internalType": "address",
          "name": "",
          "type": "address"
        }
      ],
      "stateMutability": "view",
      "type": "function"
    },
    {
      "inputs": [
        {
          "internalType": "address",
          "name": "memberAddress",
          "type": "address"
        }
      ],
      "name": "getWalletTransactions",
      "outputs": [
        {
          "components": [
            {
              "internalType": "uint256",
              "name": "date",
              "type": "uint256"
            },
            {
              "internalType": "uint256",
              "name": "value",
              "type": "uint256"
            },
            {
              "internalType": "address",
              "name": "sender",
              "type": "address"
            },
            {
              "internalType": "address",
              "name": "receiver",
              "type": "address"
            }
          ],
          "internalType": "struct TheVault.Transaction[]",
          "name": "",
          "type": "tuple[]"
        }
      ],
      "stateMutability": "view",
      "type": "function"
    },
    {
      "inputs": [
        {
          "internalType": "string",
          "name": "walletName",
          "type": "string"
        },
        {
          "internalType": "address[]",
          "name": "membersAddresses",
          "type": "address[]"
        },
        {
          "internalType": "string[]",
          "name": "membersFirstNames",
          "type": "string[]"
        },
        {
          "internalType": "string[]",
          "name": "membersLastNames",
          "type": "string[]"
        }
      ],
      "name": "initializeWallet",
      "outputs": [],
      "stateMutability": "payable",
      "type": "function"
    },
    {
      "inputs": [
        {
          "internalType": "address",
          "name": "memberAddress",
          "type": "address"
        }
      ],
      "name": "leaveWallet",
      "outputs": [],
      "stateMutability": "nonpayable",
      "type": "function"
    },
    {
      "inputs": [
        {
          "internalType": "address",
          "name": "",
          "type": "address"
        }
      ],
      "name": "memberWalletId",
      "outputs": [
        {
          "internalType": "uint8",
          "name": "",
          "type": "uint8"
        }
      ],
      "stateMutability": "view",
      "type": "function"
    },
    {
      "inputs": [
        {
          "internalType": "address",
          "name": "senderAddress",
          "type": "address"
        },
        {
          "internalType": "address",
          "name": "receiverAddress",
          "type": "address"
        }
      ],
      "name": "sendFunds",
      "outputs": [],
      "stateMutability": "payable",
      "type": "function"
    },
    {
      "inputs": [
        {
          "internalType": "uint8",
          "name": "",
          "type": "uint8"
        }
      ],
      "name": "wallet",
      "outputs": [
        {
          "internalType": "uint8",
          "name": "id",
          "type": "uint8"
        },
        {
          "internalType": "uint256",
          "name": "creationDate",
          "type": "uint256"
        },
        {
          "internalType": "string",
          "name": "name",
          "type": "string"
        },
        {
          "internalType": "uint256",
          "name": "balance",
          "type": "uint256"
        },
        {
          "internalType": "uint8",
          "name": "memberCounter",
          "type": "uint8"
        },
        {
          "internalType": "address",
          "name": "ownerAddress",
          "type": "address"
        },
        {
          "internalType": "string",
          "name": "ownerFirstName",
          "type": "string"
        },
        {
          "internalType": "string",
          "name": "ownerLastName",
          "type": "string"
        }
      ],
      "stateMutability": "view",
      "type": "function"
    },
    {
      "inputs": [],
      "name": "walletCounter",
      "outputs": [
        {
          "internalType": "uint8",
          "name": "",
          "type": "uint8"
        }
      ],
      "stateMutability": "view",
      "type": "function"
    }
  ],
  "bytecode": "0x608060405234801561001057600080fd5b50613813806100206000396000f3fe6080604052600436106100dd5760003560e01c8063a6fd41581161007f578063e428c28911610059578063e428c289146102ee578063ed8ec19414610332578063f64d70601461036f578063fbca23731461039a576100dd565b8063a6fd415814610258578063b6206b4414610274578063babf53af146102b1576100dd565b80635a8ff969116100bb5780635a8ff969146101855780635ebf4431146101c2578063966708a5146101de5780639c36c46a1461021b576100dd565b80630afa1f0b146100e2578063145045e61461011f578063265c42141461015c575b600080fd5b3480156100ee57600080fd5b5061010960048036038101906101049190612637565b6103d7565b604051610116919061272c565b60405180910390f35b34801561012b57600080fd5b5061014660048036038101906101419190612637565b6105e3565b6040516101539190612861565b60405180910390f35b34801561016857600080fd5b50610183600480360381019061017e9190612637565b610769565b005b34801561019157600080fd5b506101ac60048036038101906101a79190612637565b610fbe565b6040516101b9919061289f565b60405180910390f35b6101dc60048036038101906101d791906128ba565b611014565b005b3480156101ea57600080fd5b5061020560048036038101906102009190612637565b611423565b6040516102129190612909565b60405180910390f35b34801561022757600080fd5b50610242600480360381019061023d9190612637565b6114b4565b60405161024f91906129d3565b60405180910390f35b610272600480360381019061026d9190612ce4565b61170e565b005b34801561028057600080fd5b5061029b60048036038101906102969190612637565b611dd7565b6040516102a89190612efc565b60405180910390f35b3480156102bd57600080fd5b506102d860048036038101906102d39190612637565b61206f565b6040516102e59190612efc565b60405180910390f35b3480156102fa57600080fd5b5061031560048036038101906103109190612f4a565b612307565b604051610329989796959493929190612fd0565b60405180910390f35b34801561033e57600080fd5b5061035960048036038101906103549190612637565b612521565b6040516103669190613063565b60405180910390f35b34801561037b57600080fd5b50610384612592565b604051610391919061289f565b60405180910390f35b3480156103a657600080fd5b506103c160048036038101906103bc9190612637565b6125a5565b6040516103ce919061289f565b60405180910390f35b60606000806000600160008673ffffffffffffffffffffffffffffffffffffffff1673ffffffffffffffffffffffffffffffffffffffff16815260200190815260200160002060009054906101000a900460ff1660ff1660ff16815260200190815260200160002060040160009054906101000a900460ff1660ff1667ffffffffffffffff81111561046c5761046b612a10565b5b60405190808252806020026020018201604052801561049a5781602001602082028036833780820191505090505b50905060005b600080600160008773ffffffffffffffffffffffffffffffffffffffff1673ffffffffffffffffffffffffffffffffffffffff16815260200190815260200160002060009054906101000a900460ff1660ff1660ff16815260200190815260200160002060040160009054906101000a900460ff1660ff168160ff1610156105d957600080600160008773ffffffffffffffffffffffffffffffffffffffff1673ffffffffffffffffffffffffffffffffffffffff16815260200190815260200160002060009054906101000a900460ff1660ff1660ff16815260200190815260200160002060070160008260ff1660ff16815260200190815260200160002060030154828260ff16815181106105ba576105b961307e565b5b60200260200101818152505080806105d1906130dc565b9150506104a0565b5080915050919050565b6060600080600160008573ffffffffffffffffffffffffffffffffffffffff1673ffffffffffffffffffffffffffffffffffffffff16815260200190815260200160002060009054906101000a900460ff1660ff1660ff168152602001908152602001600020600801805480602002602001604051908101604052809291908181526020016000905b8282101561075e578382906000526020600020906004020160405180608001604052908160008201548152602001600182015481526020016002820160009054906101000a900473ffffffffffffffffffffffffffffffffffffffff1673ffffffffffffffffffffffffffffffffffffffff1673ffffffffffffffffffffffffffffffffffffffff1681526020016003820160009054906101000a900473ffffffffffffffffffffffffffffffffffffffff1673ffffffffffffffffffffffffffffffffffffffff1673ffffffffffffffffffffffffffffffffffffffff16815250508152602001906001019061066c565b505050509050919050565b806000806000600160008573ffffffffffffffffffffffffffffffffffffffff1673ffffffffffffffffffffffffffffffffffffffff16815260200190815260200160002060009054906101000a900460ff1660ff1660ff16815260200190815260200160002060040160009054906101000a900460ff1660ff1611610824576040517f08c379a000000000000000000000000000000000000000000000000000000000815260040161081b90613177565b60405180910390fd5b60005b600080600160008673ffffffffffffffffffffffffffffffffffffffff1673ffffffffffffffffffffffffffffffffffffffff16815260200190815260200160002060009054906101000a900460ff1660ff1660ff16815260200190815260200160002060040160009054906101000a900460ff1660ff168160ff161015610b3c578273ffffffffffffffffffffffffffffffffffffffff16600080600160008773ffffffffffffffffffffffffffffffffffffffff1673ffffffffffffffffffffffffffffffffffffffff16815260200190815260200160002060009054906101000a900460ff1660ff1660ff16815260200190815260200160002060070160008360ff1660ff16815260200190815260200160002060020160009054906101000a900473ffffffffffffffffffffffffffffffffffffffff1673ffffffffffffffffffffffffffffffffffffffff1603610b29576040518060c00160405280604051806020016040528060008152508152602001604051806020016040528060008152508152602001600073ffffffffffffffffffffffffffffffffffffffff168152602001600060ff16815260200160008152602001600060ff16815250600080600160008773ffffffffffffffffffffffffffffffffffffffff1673ffffffffffffffffffffffffffffffffffffffff16815260200190815260200160002060009054906101000a900460ff1660ff1660ff16815260200190815260200160002060070160008360ff1660ff1681526020019081526020016000206000820151816000019081610a7b91906133a3565b506020820151816001019081610a9191906133a3565b5060408201518160020160006101000a81548173ffffffffffffffffffffffffffffffffffffffff021916908373ffffffffffffffffffffffffffffffffffffffff16021790555060608201518160020160146101000a81548160ff021916908360ff1602179055506080820151816003015560a08201518160040160006101000a81548160ff021916908360ff1602179055509050505b8080610b34906130dc565b915050610827565b50600080600160008573ffffffffffffffffffffffffffffffffffffffff1673ffffffffffffffffffffffffffffffffffffffff16815260200190815260200160002060009054906101000a900460ff1660ff1660ff168152602001908152602001600020600401600081819054906101000a900460ff1680929190610bc190613475565b91906101000a81548160ff021916908360ff160217905550506000600160008473ffffffffffffffffffffffffffffffffffffffff1673ffffffffffffffffffffffffffffffffffffffff16815260200190815260200160002060006101000a81548160ff021916908360ff1602179055506000806000600160008673ffffffffffffffffffffffffffffffffffffffff1673ffffffffffffffffffffffffffffffffffffffff16815260200190815260200160002060009054906101000a900460ff1660ff1660ff16815260200190815260200160002060040160009054906101000a900460ff1660ff1603610fba576000806000600160008673ffffffffffffffffffffffffffffffffffffffff1673ffffffffffffffffffffffffffffffffffffffff16815260200190815260200160002060009054906101000a900460ff1660ff1660ff16815260200190815260200160002060000160006101000a81548160ff021916908360ff1602179055506000806000600160008673ffffffffffffffffffffffffffffffffffffffff1673ffffffffffffffffffffffffffffffffffffffff16815260200190815260200160002060009054906101000a900460ff1660ff1660ff1681526020019081526020016000206001018190555060405180602001604052806000815250600080600160008673ffffffffffffffffffffffffffffffffffffffff1673ffffffffffffffffffffffffffffffffffffffff16815260200190815260200160002060009054906101000a900460ff1660ff1660ff1681526020019081526020016000206002019081610e2391906133a3565b506000806000600160008673ffffffffffffffffffffffffffffffffffffffff1673ffffffffffffffffffffffffffffffffffffffff16815260200190815260200160002060009054906101000a900460ff1660ff1660ff168152602001908152602001600020600301819055506000806000600160008673ffffffffffffffffffffffffffffffffffffffff1673ffffffffffffffffffffffffffffffffffffffff16815260200190815260200160002060009054906101000a900460ff1660ff1660ff16815260200190815260200160002060040160006101000a81548160ff021916908360ff1602179055506000806000600160008673ffffffffffffffffffffffffffffffffffffffff1673ffffffffffffffffffffffffffffffffffffffff16815260200190815260200160002060009054906101000a900460ff1660ff1660ff16815260200190815260200160002060040160016101000a81548173ffffffffffffffffffffffffffffffffffffffff021916908373ffffffffffffffffffffffffffffffffffffffff1602179055505b5050565b6000600160008373ffffffffffffffffffffffffffffffffffffffff1673ffffffffffffffffffffffffffffffffffffffff16815260200190815260200160002060009054906101000a900460ff169050919050565b34600080600160008573ffffffffffffffffffffffffffffffffffffffff1673ffffffffffffffffffffffffffffffffffffffff16815260200190815260200160002060009054906101000a900460ff1660ff1660ff168152602001908152602001600020600301600082825461108b919061349e565b9250508190555060005b600080600160008573ffffffffffffffffffffffffffffffffffffffff1673ffffffffffffffffffffffffffffffffffffffff16815260200190815260200160002060009054906101000a900460ff1660ff1660ff16815260200190815260200160002060040160009054906101000a900460ff1660ff168160ff161015611297578173ffffffffffffffffffffffffffffffffffffffff16600080600160008673ffffffffffffffffffffffffffffffffffffffff1673ffffffffffffffffffffffffffffffffffffffff16815260200190815260200160002060009054906101000a900460ff1660ff1660ff16815260200190815260200160002060070160008360ff1660ff16815260200190815260200160002060020160009054906101000a900473ffffffffffffffffffffffffffffffffffffffff1673ffffffffffffffffffffffffffffffffffffffff16036112845734600080600160008673ffffffffffffffffffffffffffffffffffffffff1673ffffffffffffffffffffffffffffffffffffffff16815260200190815260200160002060009054906101000a900460ff1660ff1660ff16815260200190815260200160002060070160008360ff1660ff168152602001908152602001600020600301600082825461127c919061349e565b925050819055505b808061128f906130dc565b915050611095565b50600060405180608001604052804281526020013481526020018473ffffffffffffffffffffffffffffffffffffffff1681526020018373ffffffffffffffffffffffffffffffffffffffff168152509050600080600160008573ffffffffffffffffffffffffffffffffffffffff1673ffffffffffffffffffffffffffffffffffffffff16815260200190815260200160002060009054906101000a900460ff1660ff1660ff168152602001908152602001600020600801819080600181540180825580915050600190039060005260206000209060040201600090919091909150600082015181600001556020820151816001015560408201518160020160006101000a81548173ffffffffffffffffffffffffffffffffffffffff021916908373ffffffffffffffffffffffffffffffffffffffff16021790555060608201518160030160006101000a81548173ffffffffffffffffffffffffffffffffffffffff021916908373ffffffffffffffffffffffffffffffffffffffff1602179055505050505050565b6000806000600160008573ffffffffffffffffffffffffffffffffffffffff1673ffffffffffffffffffffffffffffffffffffffff16815260200190815260200160002060009054906101000a900460ff1660ff1660ff16815260200190815260200160002060040160019054906101000a900473ffffffffffffffffffffffffffffffffffffffff169050919050565b60606000806000600160008673ffffffffffffffffffffffffffffffffffffffff1673ffffffffffffffffffffffffffffffffffffffff16815260200190815260200160002060009054906101000a900460ff1660ff1660ff16815260200190815260200160002060040160009054906101000a900460ff1660ff1667ffffffffffffffff81111561154957611548612a10565b5b6040519080825280602002602001820160405280156115775781602001602082028036833780820191505090505b50905060005b600080600160008773ffffffffffffffffffffffffffffffffffffffff1673ffffffffffffffffffffffffffffffffffffffff16815260200190815260200160002060009054906101000a900460ff1660ff1660ff16815260200190815260200160002060040160009054906101000a900460ff1660ff168160ff16101561170457600080600160008773ffffffffffffffffffffffffffffffffffffffff1673ffffffffffffffffffffffffffffffffffffffff16815260200190815260200160002060009054906101000a900460ff1660ff1660ff16815260200190815260200160002060070160008260ff1660ff16815260200190815260200160002060020160009054906101000a900473ffffffffffffffffffffffffffffffffffffffff16828260ff16815181106116b7576116b661307e565b5b602002602001019073ffffffffffffffffffffffffffffffffffffffff16908173ffffffffffffffffffffffffffffffffffffffff168152505080806116fc906130dc565b91505061157d565b5080915050919050565b82825160008111611754576040517f08c379a000000000000000000000000000000000000000000000000000000000815260040161174b9061351e565b60405180910390fd5b60005b818110156118df576000600160008584815181106117785761177761307e565b5b602002602001015173ffffffffffffffffffffffffffffffffffffffff1673ffffffffffffffffffffffffffffffffffffffff16815260200190815260200160002060009054906101000a900460ff1660ff161461180b576040517f08c379a0000000000000000000000000000000000000000000000000000000008152600401611802906135b0565b60405180910390fd5b60005b818110156118cb578381815181106118295761182861307e565b5b602002602001015173ffffffffffffffffffffffffffffffffffffffff1684838151811061185a5761185961307e565b5b602002602001015173ffffffffffffffffffffffffffffffffffffffff16036118b8576040517f08c379a00000000000000000000000000000000000000000000000000000000081526004016118af90613642565b60405180910390fd5b80806118c390613662565b91505061180e565b5080806118d790613662565b915050611757565b50856000815103611925576040517f08c379a000000000000000000000000000000000000000000000000000000000815260040161191c906136f6565b60405180910390fd5b84848051825114801561193a57506000825114155b611979576040517f08c379a000000000000000000000000000000000000000000000000000000000815260040161197090613788565b60405180910390fd5b60005b8251811015611a1f57600083828151811061199a5761199961307e565b5b602002602001015151141580156119cd575060008282815181106119c1576119c061307e565b5b60200260200101515114155b611a0c576040517f08c379a0000000000000000000000000000000000000000000000000000000008152600401611a0390613788565b60405180910390fd5b8080611a1790613662565b91505061197c565b506000806000600a600260009054906101000a900460ff16611a4191906137a8565b60ff1660ff1681526020019081526020016000209050600a600260009054906101000a900460ff16611a7391906137a8565b8160000160006101000a81548160ff021916908360ff16021790555042816001018190555089816002019081611aa991906133a3565b5034816003018190555088600081518110611ac757611ac661307e565b5b60200260200101518160040160016101000a81548173ffffffffffffffffffffffffffffffffffffffff021916908373ffffffffffffffffffffffffffffffffffffffff16021790555087600081518110611b2557611b2461307e565b5b6020026020010151816005019081611b3d91906133a3565b5086600081518110611b5257611b5161307e565b5b6020026020010151816006019081611b6a91906133a3565b5060005b89518160ff161015611d925760008260070160008360ff1660ff1681526020019081526020016000209050898260ff1681518110611baf57611bae61307e565b5b6020026020010151816000019081611bc791906133a3565b50888260ff1681518110611bde57611bdd61307e565b5b6020026020010151816001019081611bf691906133a3565b508a8260ff1681518110611c0d57611c0c61307e565b5b60200260200101518160020160006101000a81548173ffffffffffffffffffffffffffffffffffffffff021916908373ffffffffffffffffffffffffffffffffffffffff160217905550600a600260009054906101000a900460ff16611c7391906137a8565b8160020160146101000a81548160ff021916908360ff1602179055506000816003018190555060058160040160006101000a81548160ff021916908360ff16021790555082600401600081819054906101000a900460ff1680929190611cd8906130dc565b91906101000a81548160ff021916908360ff160217905550508060020160149054906101000a900460ff16600160008360020160009054906101000a900473ffffffffffffffffffffffffffffffffffffffff1673ffffffffffffffffffffffffffffffffffffffff1673ffffffffffffffffffffffffffffffffffffffff16815260200190815260200160002060006101000a81548160ff021916908360ff160217905550508080611d8a906130dc565b915050611b6e565b506002600081819054906101000a900460ff1680929190611db2906130dc565b91906101000a81548160ff021916908360ff1602179055505050505050505050505050565b60606000806000600160008673ffffffffffffffffffffffffffffffffffffffff1673ffffffffffffffffffffffffffffffffffffffff16815260200190815260200160002060009054906101000a900460ff1660ff1660ff16815260200190815260200160002060040160009054906101000a900460ff1660ff1667ffffffffffffffff811115611e6c57611e6b612a10565b5b604051908082528060200260200182016040528015611e9f57816020015b6060815260200190600190039081611e8a5790505b50905060005b600080600160008773ffffffffffffffffffffffffffffffffffffffff1673ffffffffffffffffffffffffffffffffffffffff16815260200190815260200160002060009054906101000a900460ff1660ff1660ff16815260200190815260200160002060040160009054906101000a900460ff1660ff168160ff16101561206557600080600160008773ffffffffffffffffffffffffffffffffffffffff1673ffffffffffffffffffffffffffffffffffffffff16815260200190815260200160002060009054906101000a900460ff1660ff1660ff16815260200190815260200160002060070160008260ff1660ff1681526020019081526020016000206000018054611fb3906131c6565b80601f0160208091040260200160405190810160405280929190818152602001828054611fdf906131c6565b801561202c5780601f106120015761010080835404028352916020019161202c565b820191906000526020600020905b81548152906001019060200180831161200f57829003601f168201915b5050505050828260ff16815181106120475761204661307e565b5b6020026020010181905250808061205d906130dc565b915050611ea5565b5080915050919050565b60606000806000600160008673ffffffffffffffffffffffffffffffffffffffff1673ffffffffffffffffffffffffffffffffffffffff16815260200190815260200160002060009054906101000a900460ff1660ff1660ff16815260200190815260200160002060040160009054906101000a900460ff1660ff1667ffffffffffffffff81111561210457612103612a10565b5b60405190808252806020026020018201604052801561213757816020015b60608152602001906001900390816121225790505b50905060005b600080600160008773ffffffffffffffffffffffffffffffffffffffff1673ffffffffffffffffffffffffffffffffffffffff16815260200190815260200160002060009054906101000a900460ff1660ff1660ff16815260200190815260200160002060040160009054906101000a900460ff1660ff168160ff1610156122fd57600080600160008773ffffffffffffffffffffffffffffffffffffffff1673ffffffffffffffffffffffffffffffffffffffff16815260200190815260200160002060009054906101000a900460ff1660ff1660ff16815260200190815260200160002060070160008260ff1660ff168152602001908152602001600020600101805461224b906131c6565b80601f0160208091040260200160405190810160405280929190818152602001828054612277906131c6565b80156122c45780601f10612299576101008083540402835291602001916122c4565b820191906000526020600020905b8154815290600101906020018083116122a757829003601f168201915b5050505050828260ff16815181106122df576122de61307e565b5b602002602001018190525080806122f5906130dc565b91505061213d565b5080915050919050565b60006020528060005260406000206000915090508060000160009054906101000a900460ff1690806001015490806002018054612343906131c6565b80601f016020809104026020016040519081016040528092919081815260200182805461236f906131c6565b80156123bc5780601f10612391576101008083540402835291602001916123bc565b820191906000526020600020905b81548152906001019060200180831161239f57829003601f168201915b5050505050908060030154908060040160009054906101000a900460ff16908060040160019054906101000a900473ffffffffffffffffffffffffffffffffffffffff1690806005018054612410906131c6565b80601f016020809104026020016040519081016040528092919081815260200182805461243c906131c6565b80156124895780601f1061245e57610100808354040283529160200191612489565b820191906000526020600020905b81548152906001019060200180831161246c57829003601f168201915b50505050509080600601805461249e906131c6565b80601f01602080910402602001604051908101604052809291908181526020018280546124ca906131c6565b80156125175780601f106124ec57610100808354040283529160200191612517565b820191906000526020600020905b8154815290600101906020018083116124fa57829003601f168201915b5050505050905088565b6000806000600160008573ffffffffffffffffffffffffffffffffffffffff1673ffffffffffffffffffffffffffffffffffffffff16815260200190815260200160002060009054906101000a900460ff1660ff1660ff168152602001908152602001600020600301549050919050565b600260009054906101000a900460ff1681565b60016020528060005260406000206000915054906101000a900460ff1681565b6000604051905090565b600080fd5b600080fd5b600073ffffffffffffffffffffffffffffffffffffffff82169050919050565b6000612604826125d9565b9050919050565b612614816125f9565b811461261f57600080fd5b50565b6000813590506126318161260b565b92915050565b60006020828403121561264d5761264c6125cf565b5b600061265b84828501612622565b91505092915050565b600081519050919050565b600082825260208201905092915050565b6000819050602082019050919050565b6000819050919050565b6126a381612690565b82525050565b60006126b5838361269a565b60208301905092915050565b6000602082019050919050565b60006126d982612664565b6126e3818561266f565b93506126ee83612680565b8060005b8381101561271f57815161270688826126a9565b9750612711836126c1565b9250506001810190506126f2565b5085935050505092915050565b6000602082019050818103600083015261274681846126ce565b905092915050565b600081519050919050565b600082825260208201905092915050565b6000819050602082019050919050565b612783816125f9565b82525050565b60808201600082015161279f600085018261269a565b5060208201516127b2602085018261269a565b5060408201516127c5604085018261277a565b5060608201516127d8606085018261277a565b50505050565b60006127ea8383612789565b60808301905092915050565b6000602082019050919050565b600061280e8261274e565b6128188185612759565b93506128238361276a565b8060005b8381101561285457815161283b88826127de565b9750612846836127f6565b925050600181019050612827565b5085935050505092915050565b6000602082019050818103600083015261287b8184612803565b905092915050565b600060ff82169050919050565b61289981612883565b82525050565b60006020820190506128b46000830184612890565b92915050565b600080604083850312156128d1576128d06125cf565b5b60006128df85828601612622565b92505060206128f085828601612622565b9150509250929050565b612903816125f9565b82525050565b600060208201905061291e60008301846128fa565b92915050565b600081519050919050565b600082825260208201905092915050565b6000819050602082019050919050565b600061295c838361277a565b60208301905092915050565b6000602082019050919050565b600061298082612924565b61298a818561292f565b935061299583612940565b8060005b838110156129c65781516129ad8882612950565b97506129b883612968565b925050600181019050612999565b5085935050505092915050565b600060208201905081810360008301526129ed8184612975565b905092915050565b600080fd5b600080fd5b6000601f19601f8301169050919050565b7f4e487b7100000000000000000000000000000000000000000000000000000000600052604160045260246000fd5b612a48826129ff565b810181811067ffffffffffffffff82111715612a6757612a66612a10565b5b80604052505050565b6000612a7a6125c5565b9050612a868282612a3f565b919050565b600067ffffffffffffffff821115612aa657612aa5612a10565b5b612aaf826129ff565b9050602081019050919050565b82818337600083830152505050565b6000612ade612ad984612a8b565b612a70565b905082815260208101848484011115612afa57612af96129fa565b5b612b05848285612abc565b509392505050565b600082601f830112612b2257612b216129f5565b5b8135612b32848260208601612acb565b91505092915050565b600067ffffffffffffffff821115612b5657612b55612a10565b5b602082029050602081019050919050565b600080fd5b6000612b7f612b7a84612b3b565b612a70565b90508083825260208201905060208402830185811115612ba257612ba1612b67565b5b835b81811015612bcb5780612bb78882612622565b845260208401935050602081019050612ba4565b5050509392505050565b600082601f830112612bea57612be96129f5565b5b8135612bfa848260208601612b6c565b91505092915050565b600067ffffffffffffffff821115612c1e57612c1d612a10565b5b602082029050602081019050919050565b6000612c42612c3d84612c03565b612a70565b90508083825260208201905060208402830185811115612c6557612c64612b67565b5b835b81811015612cac57803567ffffffffffffffff811115612c8a57612c896129f5565b5b808601612c978982612b0d565b85526020850194505050602081019050612c67565b5050509392505050565b600082601f830112612ccb57612cca6129f5565b5b8135612cdb848260208601612c2f565b91505092915050565b60008060008060808587031215612cfe57612cfd6125cf565b5b600085013567ffffffffffffffff811115612d1c57612d1b6125d4565b5b612d2887828801612b0d565b945050602085013567ffffffffffffffff811115612d4957612d486125d4565b5b612d5587828801612bd5565b935050604085013567ffffffffffffffff811115612d7657612d756125d4565b5b612d8287828801612cb6565b925050606085013567ffffffffffffffff811115612da357612da26125d4565b5b612daf87828801612cb6565b91505092959194509250565b600081519050919050565b600082825260208201905092915050565b6000819050602082019050919050565b600081519050919050565b600082825260208201905092915050565b60005b83811015612e21578082015181840152602081019050612e06565b60008484015250505050565b6000612e3882612de7565b612e428185612df2565b9350612e52818560208601612e03565b612e5b816129ff565b840191505092915050565b6000612e728383612e2d565b905092915050565b6000602082019050919050565b6000612e9282612dbb565b612e9c8185612dc6565b935083602082028501612eae85612dd7565b8060005b85811015612eea5784840389528151612ecb8582612e66565b9450612ed683612e7a565b925060208a01995050600181019050612eb2565b50829750879550505050505092915050565b60006020820190508181036000830152612f168184612e87565b905092915050565b612f2781612883565b8114612f3257600080fd5b50565b600081359050612f4481612f1e565b92915050565b600060208284031215612f6057612f5f6125cf565b5b6000612f6e84828501612f35565b91505092915050565b612f8081612690565b82525050565b600082825260208201905092915050565b6000612fa282612de7565b612fac8185612f86565b9350612fbc818560208601612e03565b612fc5816129ff565b840191505092915050565b600061010082019050612fe6600083018b612890565b612ff3602083018a612f77565b81810360408301526130058189612f97565b90506130146060830188612f77565b6130216080830187612890565b61302e60a08301866128fa565b81810360c08301526130408185612f97565b905081810360e08301526130548184612f97565b90509998505050505050505050565b60006020820190506130786000830184612f77565b92915050565b7f4e487b7100000000000000000000000000000000000000000000000000000000600052603260045260246000fd5b7f4e487b7100000000000000000000000000000000000000000000000000000000600052601160045260246000fd5b60006130e782612883565b915060ff82036130fa576130f96130ad565b5b600182019050919050565b7f5468652077616c6c6574206e6565647320746f2068617665206174206c65617360008201527f7420312075736572000000000000000000000000000000000000000000000000602082015250565b6000613161602883612f86565b915061316c82613105565b604082019050919050565b6000602082019050818103600083015261319081613154565b9050919050565b7f4e487b7100000000000000000000000000000000000000000000000000000000600052602260045260246000fd5b600060028204905060018216806131de57607f821691505b6020821081036131f1576131f0613197565b5b50919050565b60008190508160005260206000209050919050565b60006020601f8301049050919050565b600082821b905092915050565b6000600883026132597fffffffffffffffffffffffffffffffffffffffffffffffffffffffffffffffff8261321c565b613263868361321c565b95508019841693508086168417925050509392505050565b6000819050919050565b60006132a061329b61329684612690565b61327b565b612690565b9050919050565b6000819050919050565b6132ba83613285565b6132ce6132c6826132a7565b848454613229565b825550505050565b600090565b6132e36132d6565b6132ee8184846132b1565b505050565b5b81811015613312576133076000826132db565b6001810190506132f4565b5050565b601f82111561335757613328816131f7565b6133318461320c565b81016020851015613340578190505b61335461334c8561320c565b8301826132f3565b50505b505050565b600082821c905092915050565b600061337a6000198460080261335c565b1980831691505092915050565b60006133938383613369565b9150826002028217905092915050565b6133ac82612de7565b67ffffffffffffffff8111156133c5576133c4612a10565b5b6133cf82546131c6565b6133da828285613316565b600060209050601f83116001811461340d57600084156133fb578287015190505b6134058582613387565b86555061346d565b601f19841661341b866131f7565b60005b828110156134435784890151825560018201915060208501945060208101905061341e565b86831015613460578489015161345c601f891682613369565b8355505b6001600288020188555050505b505050505050565b600061348082612883565b915060008203613493576134926130ad565b5b600182039050919050565b60006134a982612690565b91506134b483612690565b92508282019050808211156134cc576134cb6130ad565b5b92915050565b7f412077616c6c6574206e65656473206174206c65617374206f6e652075736572600082015250565b6000613508602083612f86565b9150613513826134d2565b602082019050919050565b60006020820190508181036000830152613537816134fb565b9050919050565b7f4f6e65206f72206d6f7265207573657273206861766520616c7265616479206a60008201527f6f696e656420616e6f746865722077616c6c6574000000000000000000000000602082015250565b600061359a603483612f86565b91506135a58261353e565b604082019050919050565b600060208201905081810360008301526135c98161358d565b9050919050565b7f5468652077616c6c65742063616e206e6f742068617665206475706c6963617460008201527f6520616464726573736573000000000000000000000000000000000000000000602082015250565b600061362c602b83612f86565b9150613637826135d0565b604082019050919050565b6000602082019050818103600083015261365b8161361f565b9050919050565b600061366d82612690565b91507fffffffffffffffffffffffffffffffffffffffffffffffffffffffffffffffff820361369f5761369e6130ad565b5b600182019050919050565b7f5468652077616c6c6574206e656564732061206e616d65000000000000000000600082015250565b60006136e0601783612f86565b91506136eb826136aa565b602082019050919050565b6000602082019050818103600083015261370f816136d3565b9050919050565b7f546865207573657273206e65656420746f206861766520626f7468206669727360008201527f7420616e64206c617374206e616d657300000000000000000000000000000000602082015250565b6000613772603083612f86565b915061377d82613716565b604082019050919050565b600060208201905081810360008301526137a181613765565b9050919050565b60006137b382612883565b91506137be83612883565b9250828201905060ff8111156137d7576137d66130ad565b5b9291505056fea26469706673582212203fcd4aedced7009a6f4801a4900d84072ba4994bbd6535eab70418c602264c6064736f6c63430008110033",
  "linkReferences": {},
  "deployedLinkReferences": {}
}