{
  "_format": "hh-sol-artifact-1",
  "contractName": "TheVault",
  "sourceName": "contracts/TheVault.sol",
  "abi": [
    {
      "inputs": [
        {
          "internalType": "address",
          "name": "memberAddress",
          "type": "address"
        }
      ],
      "name": "getWalletBalance",
      "outputs": [
        {
          "internalType": "uint256",
          "name": "",
          "type": "uint256"
        }
      ],
      "stateMutability": "view",
      "type": "function"
    },
    {
      "inputs": [
        {
          "internalType": "address",
          "name": "memberAddress",
          "type": "address"
        }
      ],
      "name": "getWalletId",
      "outputs": [
        {
          "internalType": "uint8",
          "name": "",
          "type": "uint8"
        }
      ],
      "stateMutability": "view",
      "type": "function"
    },
    {
      "inputs": [
        {
          "internalType": "address",
          "name": "memberAddress",
          "type": "address"
        }
      ],
      "name": "getWalletMembersAddresses",
      "outputs": [
        {
          "internalType": "address[]",
          "name": "",
          "type": "address[]"
        }
      ],
      "stateMutability": "view",
      "type": "function"
    },
    {
      "inputs": [
        {
          "internalType": "address",
          "name": "memberAddress",
          "type": "address"
        }
      ],
      "name": "getWalletMembersBalances",
      "outputs": [
        {
          "internalType": "uint256[]",
          "name": "",
          "type": "uint256[]"
        }
      ],
      "stateMutability": "view",
      "type": "function"
    },
    {
      "inputs": [
        {
          "internalType": "address",
          "name": "memberAddress",
          "type": "address"
        }
      ],
      "name": "getWalletMembersFirstNames",
      "outputs": [
        {
          "internalType": "string[]",
          "name": "",
          "type": "string[]"
        }
      ],
      "stateMutability": "view",
      "type": "function"
    },
    {
      "inputs": [
        {
          "internalType": "address",
          "name": "memberAddress",
          "type": "address"
        }
      ],
      "name": "getWalletMembersLastNames",
      "outputs": [
        {
          "internalType": "string[]",
          "name": "",
          "type": "string[]"
        }
      ],
      "stateMutability": "view",
      "type": "function"
    },
    {
      "inputs": [
        {
          "internalType": "address",
          "name": "memberAddress",
          "type": "address"
        }
      ],
      "name": "getWalletOwner",
      "outputs": [
        {
          "internalType": "address",
          "name": "",
          "type": "address"
        }
      ],
      "stateMutability": "view",
      "type": "function"
    },
    {
      "inputs": [
        {
          "internalType": "address",
          "name": "memberAddress",
          "type": "address"
        }
      ],
      "name": "getWalletTransactions",
      "outputs": [
        {
          "components": [
            {
              "internalType": "uint256",
              "name": "date",
              "type": "uint256"
            },
            {
              "internalType": "uint256",
              "name": "value",
              "type": "uint256"
            },
            {
              "internalType": "address",
              "name": "senderAddress",
              "type": "address"
            },
            {
              "internalType": "address",
              "name": "recipientAddress",
              "type": "address"
            },
            {
              "internalType": "string",
              "name": "txType",
              "type": "string"
            }
          ],
          "internalType": "struct TheVault.Transaction[]",
          "name": "",
          "type": "tuple[]"
        }
      ],
      "stateMutability": "view",
      "type": "function"
    },
    {
      "inputs": [
        {
          "internalType": "string",
          "name": "walletName",
          "type": "string"
        },
        {
          "internalType": "address[]",
          "name": "membersAddresses",
          "type": "address[]"
        },
        {
          "internalType": "string[]",
          "name": "membersFirstNames",
          "type": "string[]"
        },
        {
          "internalType": "string[]",
          "name": "membersLastNames",
          "type": "string[]"
        }
      ],
      "name": "initializeWallet",
      "outputs": [],
      "stateMutability": "payable",
      "type": "function"
    },
    {
      "inputs": [
        {
          "internalType": "address",
          "name": "memberAddress",
          "type": "address"
        }
      ],
      "name": "leaveWallet",
      "outputs": [],
      "stateMutability": "nonpayable",
      "type": "function"
    },
    {
      "inputs": [
        {
          "internalType": "address",
          "name": "senderAddress",
          "type": "address"
        },
        {
          "internalType": "address",
          "name": "recipientAddress",
          "type": "address"
        }
      ],
      "name": "sendFunds",
      "outputs": [],
      "stateMutability": "payable",
      "type": "function"
    },
    {
      "inputs": [
        {
          "internalType": "uint8",
          "name": "",
          "type": "uint8"
        }
      ],
      "name": "wallet",
      "outputs": [
        {
          "internalType": "uint8",
          "name": "id",
          "type": "uint8"
        },
        {
          "internalType": "uint256",
          "name": "creationDate",
          "type": "uint256"
        },
        {
          "internalType": "string",
          "name": "name",
          "type": "string"
        },
        {
          "internalType": "uint256",
          "name": "balance",
          "type": "uint256"
        },
        {
          "internalType": "uint8",
          "name": "memberCounter",
          "type": "uint8"
        },
        {
          "internalType": "address",
          "name": "ownerAddress",
          "type": "address"
        },
        {
          "internalType": "string",
          "name": "ownerFirstName",
          "type": "string"
        },
        {
          "internalType": "string",
          "name": "ownerLastName",
          "type": "string"
        }
      ],
      "stateMutability": "view",
      "type": "function"
    },
    {
      "inputs": [],
      "name": "walletCounter",
      "outputs": [
        {
          "internalType": "uint8",
          "name": "",
          "type": "uint8"
        }
      ],
      "stateMutability": "view",
      "type": "function"
    },
    {
      "inputs": [
        {
          "internalType": "address",
          "name": "",
          "type": "address"
        }
      ],
      "name": "walletMemberId",
      "outputs": [
        {
          "internalType": "uint8",
          "name": "",
          "type": "uint8"
        }
      ],
      "stateMutability": "view",
      "type": "function"
    },
    {
      "inputs": [
        {
          "internalType": "address payable",
          "name": "recipientAddress",
          "type": "address"
        },
        {
          "internalType": "address",
          "name": "senderAddress",
          "type": "address"
        }
      ],
      "name": "withdrawMemberFunds",
      "outputs": [],
      "stateMutability": "payable",
      "type": "function"
    }
  ],
  "bytecode": "0x608060405234801561001057600080fd5b506147df806100206000396000f3fe6080604052600436106100e85760003560e01c8063966708a51161008a578063babf53af11610059578063babf53af14610315578063e428c28914610352578063ed8ec19414610396578063f64d7060146103d3576100e8565b8063966708a5146102425780639c36c46a1461027f578063a6fd4158146102bc578063b6206b44146102d8576100e8565b80635623aee6116100c65780635623aee6146101905780635a8ff969146101cd5780635ebf44311461020a5780637737218114610226576100e8565b80630afa1f0b146100ed578063145045e61461012a578063265c421414610167575b600080fd5b3480156100f957600080fd5b50610114600480360381019061010f9190613191565b6103fe565b6040516101219190613286565b60405180910390f35b34801561013657600080fd5b50610151600480360381019061014c9190613191565b61060a565b60405161015e919061347f565b60405180910390f35b34801561017357600080fd5b5061018e60048036038101906101899190613191565b6108e8565b005b34801561019c57600080fd5b506101b760048036038101906101b29190613191565b61113d565b6040516101c491906134bd565b60405180910390f35b3480156101d957600080fd5b506101f460048036038101906101ef9190613191565b61115d565b60405161020191906134bd565b60405180910390f35b610224600480360381019061021f91906134d8565b6111b3565b005b610240600480360381019061023b9190613556565b611613565b005b34801561024e57600080fd5b5061026960048036038101906102649190613191565b611eff565b60405161027691906135a5565b60405180910390f35b34801561028b57600080fd5b506102a660048036038101906102a19190613191565b611f90565b6040516102b3919061366f565b60405180910390f35b6102d660048036038101906102d1919061396f565b6121ea565b005b3480156102e457600080fd5b506102ff60048036038101906102fa9190613191565b6128f6565b60405161030c9190613b08565b60405180910390f35b34801561032157600080fd5b5061033c60048036038101906103379190613191565b612b8e565b6040516103499190613b08565b60405180910390f35b34801561035e57600080fd5b5061037960048036038101906103749190613b56565b612e26565b60405161038d989796959493929190613bdc565b60405180910390f35b3480156103a257600080fd5b506103bd60048036038101906103b89190613191565b613040565b6040516103ca9190613c6f565b60405180910390f35b3480156103df57600080fd5b506103e86130b1565b6040516103f591906134bd565b60405180910390f35b60606000806000600160008673ffffffffffffffffffffffffffffffffffffffff1673ffffffffffffffffffffffffffffffffffffffff16815260200190815260200160002060009054906101000a900460ff1660ff1660ff16815260200190815260200160002060040160009054906101000a900460ff1660ff1667ffffffffffffffff8111156104935761049261369b565b5b6040519080825280602002602001820160405280156104c15781602001602082028036833780820191505090505b50905060005b600080600160008773ffffffffffffffffffffffffffffffffffffffff1673ffffffffffffffffffffffffffffffffffffffff16815260200190815260200160002060009054906101000a900460ff1660ff1660ff16815260200190815260200160002060040160009054906101000a900460ff1660ff168160ff16101561060057600080600160008773ffffffffffffffffffffffffffffffffffffffff1673ffffffffffffffffffffffffffffffffffffffff16815260200190815260200160002060009054906101000a900460ff1660ff1660ff16815260200190815260200160002060070160008260ff1660ff16815260200190815260200160002060030154828260ff16815181106105e1576105e0613c8a565b5b60200260200101818152505080806105f890613ce8565b9150506104c7565b5080915050919050565b60606000806000600160008673ffffffffffffffffffffffffffffffffffffffff1673ffffffffffffffffffffffffffffffffffffffff16815260200190815260200160002060009054906101000a900460ff1660ff1660ff1681526020019081526020016000206008018054905067ffffffffffffffff8111156106925761069161369b565b5b6040519080825280602002602001820160405280156106cb57816020015b6106b86130c4565b8152602001906001900390816106b05790505b509050600080600160008673ffffffffffffffffffffffffffffffffffffffff1673ffffffffffffffffffffffffffffffffffffffff16815260200190815260200160002060009054906101000a900460ff1660ff1660ff168152602001908152602001600020600801805480602002602001604051908101604052809291908181526020016000905b828210156108d957838290600052602060002090600502016040518060a001604052908160008201548152602001600182015481526020016002820160009054906101000a900473ffffffffffffffffffffffffffffffffffffffff1673ffffffffffffffffffffffffffffffffffffffff1673ffffffffffffffffffffffffffffffffffffffff1681526020016003820160009054906101000a900473ffffffffffffffffffffffffffffffffffffffff1673ffffffffffffffffffffffffffffffffffffffff1673ffffffffffffffffffffffffffffffffffffffff16815260200160048201805461084890613d40565b80601f016020809104026020016040519081016040528092919081815260200182805461087490613d40565b80156108c15780601f10610896576101008083540402835291602001916108c1565b820191906000526020600020905b8154815290600101906020018083116108a457829003601f168201915b50505050508152505081526020019060010190610755565b50505050905080915050919050565b806000806000600160008573ffffffffffffffffffffffffffffffffffffffff1673ffffffffffffffffffffffffffffffffffffffff16815260200190815260200160002060009054906101000a900460ff1660ff1660ff16815260200190815260200160002060040160009054906101000a900460ff1660ff16116109a3576040517f08c379a000000000000000000000000000000000000000000000000000000000815260040161099a90613de3565b60405180910390fd5b60005b600080600160008673ffffffffffffffffffffffffffffffffffffffff1673ffffffffffffffffffffffffffffffffffffffff16815260200190815260200160002060009054906101000a900460ff1660ff1660ff16815260200190815260200160002060040160009054906101000a900460ff1660ff168160ff161015610cbb578273ffffffffffffffffffffffffffffffffffffffff16600080600160008773ffffffffffffffffffffffffffffffffffffffff1673ffffffffffffffffffffffffffffffffffffffff16815260200190815260200160002060009054906101000a900460ff1660ff1660ff16815260200190815260200160002060070160008360ff1660ff16815260200190815260200160002060020160009054906101000a900473ffffffffffffffffffffffffffffffffffffffff1673ffffffffffffffffffffffffffffffffffffffff1603610ca8576040518060c00160405280604051806020016040528060008152508152602001604051806020016040528060008152508152602001600073ffffffffffffffffffffffffffffffffffffffff168152602001600060ff16815260200160008152602001600060ff16815250600080600160008773ffffffffffffffffffffffffffffffffffffffff1673ffffffffffffffffffffffffffffffffffffffff16815260200190815260200160002060009054906101000a900460ff1660ff1660ff16815260200190815260200160002060070160008360ff1660ff1681526020019081526020016000206000820151816000019081610bfa9190613faf565b506020820151816001019081610c109190613faf565b5060408201518160020160006101000a81548173ffffffffffffffffffffffffffffffffffffffff021916908373ffffffffffffffffffffffffffffffffffffffff16021790555060608201518160020160146101000a81548160ff021916908360ff1602179055506080820151816003015560a08201518160040160006101000a81548160ff021916908360ff1602179055509050505b8080610cb390613ce8565b9150506109a6565b50600080600160008573ffffffffffffffffffffffffffffffffffffffff1673ffffffffffffffffffffffffffffffffffffffff16815260200190815260200160002060009054906101000a900460ff1660ff1660ff168152602001908152602001600020600401600081819054906101000a900460ff1680929190610d4090614081565b91906101000a81548160ff021916908360ff160217905550506000600160008473ffffffffffffffffffffffffffffffffffffffff1673ffffffffffffffffffffffffffffffffffffffff16815260200190815260200160002060006101000a81548160ff021916908360ff1602179055506000806000600160008673ffffffffffffffffffffffffffffffffffffffff1673ffffffffffffffffffffffffffffffffffffffff16815260200190815260200160002060009054906101000a900460ff1660ff1660ff16815260200190815260200160002060040160009054906101000a900460ff1660ff1603611139576000806000600160008673ffffffffffffffffffffffffffffffffffffffff1673ffffffffffffffffffffffffffffffffffffffff16815260200190815260200160002060009054906101000a900460ff1660ff1660ff16815260200190815260200160002060000160006101000a81548160ff021916908360ff1602179055506000806000600160008673ffffffffffffffffffffffffffffffffffffffff1673ffffffffffffffffffffffffffffffffffffffff16815260200190815260200160002060009054906101000a900460ff1660ff1660ff1681526020019081526020016000206001018190555060405180602001604052806000815250600080600160008673ffffffffffffffffffffffffffffffffffffffff1673ffffffffffffffffffffffffffffffffffffffff16815260200190815260200160002060009054906101000a900460ff1660ff1660ff1681526020019081526020016000206002019081610fa29190613faf565b506000806000600160008673ffffffffffffffffffffffffffffffffffffffff1673ffffffffffffffffffffffffffffffffffffffff16815260200190815260200160002060009054906101000a900460ff1660ff1660ff168152602001908152602001600020600301819055506000806000600160008673ffffffffffffffffffffffffffffffffffffffff1673ffffffffffffffffffffffffffffffffffffffff16815260200190815260200160002060009054906101000a900460ff1660ff1660ff16815260200190815260200160002060040160006101000a81548160ff021916908360ff1602179055506000806000600160008673ffffffffffffffffffffffffffffffffffffffff1673ffffffffffffffffffffffffffffffffffffffff16815260200190815260200160002060009054906101000a900460ff1660ff1660ff16815260200190815260200160002060040160016101000a81548173ffffffffffffffffffffffffffffffffffffffff021916908373ffffffffffffffffffffffffffffffffffffffff1602179055505b5050565b60016020528060005260406000206000915054906101000a900460ff1681565b6000600160008373ffffffffffffffffffffffffffffffffffffffff1673ffffffffffffffffffffffffffffffffffffffff16815260200190815260200160002060009054906101000a900460ff169050919050565b34600080600160008573ffffffffffffffffffffffffffffffffffffffff1673ffffffffffffffffffffffffffffffffffffffff16815260200190815260200160002060009054906101000a900460ff1660ff1660ff168152602001908152602001600020600301600082825461122a91906140aa565b9250508190555060005b600080600160008573ffffffffffffffffffffffffffffffffffffffff1673ffffffffffffffffffffffffffffffffffffffff16815260200190815260200160002060009054906101000a900460ff1660ff1660ff16815260200190815260200160002060040160009054906101000a900460ff1660ff168160ff161015611436578173ffffffffffffffffffffffffffffffffffffffff16600080600160008673ffffffffffffffffffffffffffffffffffffffff1673ffffffffffffffffffffffffffffffffffffffff16815260200190815260200160002060009054906101000a900460ff1660ff1660ff16815260200190815260200160002060070160008360ff1660ff16815260200190815260200160002060020160009054906101000a900473ffffffffffffffffffffffffffffffffffffffff1673ffffffffffffffffffffffffffffffffffffffff16036114235734600080600160008673ffffffffffffffffffffffffffffffffffffffff1673ffffffffffffffffffffffffffffffffffffffff16815260200190815260200160002060009054906101000a900460ff1660ff1660ff16815260200190815260200160002060070160008360ff1660ff168152602001908152602001600020600301600082825461141b91906140aa565b925050819055505b808061142e90613ce8565b915050611234565b5060006040518060a001604052804281526020013481526020018473ffffffffffffffffffffffffffffffffffffffff1681526020018373ffffffffffffffffffffffffffffffffffffffff1681526020016040518060400160405280600e81526020017f73656e6455736572546f557365720000000000000000000000000000000000008152508152509050600080600160008573ffffffffffffffffffffffffffffffffffffffff1673ffffffffffffffffffffffffffffffffffffffff16815260200190815260200160002060009054906101000a900460ff1660ff1660ff168152602001908152602001600020600801819080600181540180825580915050600190039060005260206000209060050201600090919091909150600082015181600001556020820151816001015560408201518160020160006101000a81548173ffffffffffffffffffffffffffffffffffffffff021916908373ffffffffffffffffffffffffffffffffffffffff16021790555060608201518160030160006101000a81548173ffffffffffffffffffffffffffffffffffffffff021916908373ffffffffffffffffffffffffffffffffffffffff160217905550608082015181600401908161160b9190613faf565b505050505050565b60003411611656576040517f08c379a000000000000000000000000000000000000000000000000000000000815260040161164d90614150565b60405180910390fd5b34471015611699576040517f08c379a0000000000000000000000000000000000000000000000000000000008152600401611690906141e2565b60405180910390fd5b8160005b600080600160008573ffffffffffffffffffffffffffffffffffffffff1673ffffffffffffffffffffffffffffffffffffffff16815260200190815260200160002060009054906101000a900460ff1660ff1660ff16815260200190815260200160002060040160009054906101000a900460ff1660ff168160ff1610156118cb57600080600160008573ffffffffffffffffffffffffffffffffffffffff1673ffffffffffffffffffffffffffffffffffffffff16815260200190815260200160002060009054906101000a900460ff1660ff1660ff16815260200190815260200160002060070160008260ff1660ff16815260200190815260200160002060020160009054906101000a900473ffffffffffffffffffffffffffffffffffffffff1673ffffffffffffffffffffffffffffffffffffffff168273ffffffffffffffffffffffffffffffffffffffff16036118b85734600080600160008673ffffffffffffffffffffffffffffffffffffffff1673ffffffffffffffffffffffffffffffffffffffff16815260200190815260200160002060009054906101000a900460ff1660ff1660ff16815260200190815260200160002060070160008360ff1660ff1681526020019081526020016000206003015410156118b7576040517f08c379a00000000000000000000000000000000000000000000000000000000081526004016118ae9061424e565b60405180910390fd5b5b80806118c390613ce8565b91505061169d565b508234600080600160008573ffffffffffffffffffffffffffffffffffffffff1673ffffffffffffffffffffffffffffffffffffffff16815260200190815260200160002060009054906101000a900460ff1660ff1660ff168152602001908152602001600020600301541015611977576040517f08c379a000000000000000000000000000000000000000000000000000000000815260040161196e906142e0565b60405180910390fd5b82848073ffffffffffffffffffffffffffffffffffffffff168273ffffffffffffffffffffffffffffffffffffffff16146119e7576040517f08c379a00000000000000000000000000000000000000000000000000000000081526004016119de90614372565b60405180910390fd5b60008673ffffffffffffffffffffffffffffffffffffffff1634604051611a0d906143c3565b60006040518083038185875af1925050503d8060008114611a4a576040519150601f19603f3d011682016040523d82523d6000602084013e611a4f565b606091505b5050905080611a93576040517f08c379a0000000000000000000000000000000000000000000000000000000008152600401611a8a9061444a565b60405180910390fd5b8015611ef65734600080600160008a73ffffffffffffffffffffffffffffffffffffffff1673ffffffffffffffffffffffffffffffffffffffff16815260200190815260200160002060009054906101000a900460ff1660ff1660ff1681526020019081526020016000206003016000828254611b10919061446a565b9250508190555060005b600080600160008a73ffffffffffffffffffffffffffffffffffffffff1673ffffffffffffffffffffffffffffffffffffffff16815260200190815260200160002060009054906101000a900460ff1660ff1660ff16815260200190815260200160002060040160009054906101000a900460ff1660ff168160ff161015611d1c578673ffffffffffffffffffffffffffffffffffffffff16600080600160008b73ffffffffffffffffffffffffffffffffffffffff1673ffffffffffffffffffffffffffffffffffffffff16815260200190815260200160002060009054906101000a900460ff1660ff1660ff16815260200190815260200160002060070160008360ff1660ff16815260200190815260200160002060020160009054906101000a900473ffffffffffffffffffffffffffffffffffffffff1673ffffffffffffffffffffffffffffffffffffffff1603611d095734600080600160008b73ffffffffffffffffffffffffffffffffffffffff1673ffffffffffffffffffffffffffffffffffffffff16815260200190815260200160002060009054906101000a900460ff1660ff1660ff16815260200190815260200160002060070160008360ff1660ff1681526020019081526020016000206003016000828254611d01919061446a565b925050819055505b8080611d1490613ce8565b915050611b1a565b5060006040518060a001604052804281526020013481526020018873ffffffffffffffffffffffffffffffffffffffff1681526020018973ffffffffffffffffffffffffffffffffffffffff1681526020016040518060400160405280601281526020017f776974686472617755736572546f5573657200000000000000000000000000008152508152509050600080600160008b73ffffffffffffffffffffffffffffffffffffffff1673ffffffffffffffffffffffffffffffffffffffff16815260200190815260200160002060009054906101000a900460ff1660ff1660ff168152602001908152602001600020600801819080600181540180825580915050600190039060005260206000209060050201600090919091909150600082015181600001556020820151816001015560408201518160020160006101000a81548173ffffffffffffffffffffffffffffffffffffffff021916908373ffffffffffffffffffffffffffffffffffffffff16021790555060608201518160030160006101000a81548173ffffffffffffffffffffffffffffffffffffffff021916908373ffffffffffffffffffffffffffffffffffffffff1602179055506080820151816004019081611ef19190613faf565b505050505b50505050505050565b6000806000600160008573ffffffffffffffffffffffffffffffffffffffff1673ffffffffffffffffffffffffffffffffffffffff16815260200190815260200160002060009054906101000a900460ff1660ff1660ff16815260200190815260200160002060040160019054906101000a900473ffffffffffffffffffffffffffffffffffffffff169050919050565b60606000806000600160008673ffffffffffffffffffffffffffffffffffffffff1673ffffffffffffffffffffffffffffffffffffffff16815260200190815260200160002060009054906101000a900460ff1660ff1660ff16815260200190815260200160002060040160009054906101000a900460ff1660ff1667ffffffffffffffff8111156120255761202461369b565b5b6040519080825280602002602001820160405280156120535781602001602082028036833780820191505090505b50905060005b600080600160008773ffffffffffffffffffffffffffffffffffffffff1673ffffffffffffffffffffffffffffffffffffffff16815260200190815260200160002060009054906101000a900460ff1660ff1660ff16815260200190815260200160002060040160009054906101000a900460ff1660ff168160ff1610156121e057600080600160008773ffffffffffffffffffffffffffffffffffffffff1673ffffffffffffffffffffffffffffffffffffffff16815260200190815260200160002060009054906101000a900460ff1660ff1660ff16815260200190815260200160002060070160008260ff1660ff16815260200190815260200160002060020160009054906101000a900473ffffffffffffffffffffffffffffffffffffffff16828260ff168151811061219357612192613c8a565b5b602002602001019073ffffffffffffffffffffffffffffffffffffffff16908173ffffffffffffffffffffffffffffffffffffffff168152505080806121d890613ce8565b915050612059565b5080915050919050565b6000341161222d576040517f08c379a000000000000000000000000000000000000000000000000000000000815260040161222490614150565b60405180910390fd5b82825160008111612273576040517f08c379a000000000000000000000000000000000000000000000000000000000815260040161226a906144ea565b60405180910390fd5b60005b818110156123fe5760006001600085848151811061229757612296613c8a565b5b602002602001015173ffffffffffffffffffffffffffffffffffffffff1673ffffffffffffffffffffffffffffffffffffffff16815260200190815260200160002060009054906101000a900460ff1660ff161461232a576040517f08c379a00000000000000000000000000000000000000000000000000000000081526004016123219061457c565b60405180910390fd5b60005b818110156123ea5783818151811061234857612347613c8a565b5b602002602001015173ffffffffffffffffffffffffffffffffffffffff1684838151811061237957612378613c8a565b5b602002602001015173ffffffffffffffffffffffffffffffffffffffff16036123d7576040517f08c379a00000000000000000000000000000000000000000000000000000000081526004016123ce9061460e565b60405180910390fd5b80806123e29061462e565b91505061232d565b5080806123f69061462e565b915050612276565b50856000815103612444576040517f08c379a000000000000000000000000000000000000000000000000000000000815260040161243b906146c2565b60405180910390fd5b84848051825114801561245957506000825114155b612498576040517f08c379a000000000000000000000000000000000000000000000000000000000815260040161248f90614754565b60405180910390fd5b60005b825181101561253e5760008382815181106124b9576124b8613c8a565b5b602002602001015151141580156124ec575060008282815181106124e0576124df613c8a565b5b60200260200101515114155b61252b576040517f08c379a000000000000000000000000000000000000000000000000000000000815260040161252290614754565b60405180910390fd5b80806125369061462e565b91505061249b565b506000806000600a600260009054906101000a900460ff166125609190614774565b60ff1660ff1681526020019081526020016000209050600a600260009054906101000a900460ff166125929190614774565b8160000160006101000a81548160ff021916908360ff160217905550428160010181905550898160020190816125c89190613faf565b50348160030181905550886000815181106125e6576125e5613c8a565b5b60200260200101518160040160016101000a81548173ffffffffffffffffffffffffffffffffffffffff021916908373ffffffffffffffffffffffffffffffffffffffff1602179055508760008151811061264457612643613c8a565b5b602002602001015181600501908161265c9190613faf565b508660008151811061267157612670613c8a565b5b60200260200101518160060190816126899190613faf565b5060005b89518160ff1610156128b15760008260070160008360ff1660ff1681526020019081526020016000209050898260ff16815181106126ce576126cd613c8a565b5b60200260200101518160000190816126e69190613faf565b50888260ff16815181106126fd576126fc613c8a565b5b60200260200101518160010190816127159190613faf565b508a8260ff168151811061272c5761272b613c8a565b5b60200260200101518160020160006101000a81548173ffffffffffffffffffffffffffffffffffffffff021916908373ffffffffffffffffffffffffffffffffffffffff160217905550600a600260009054906101000a900460ff166127929190614774565b8160020160146101000a81548160ff021916908360ff1602179055506000816003018190555060058160040160006101000a81548160ff021916908360ff16021790555082600401600081819054906101000a900460ff16809291906127f790613ce8565b91906101000a81548160ff021916908360ff160217905550508060020160149054906101000a900460ff16600160008360020160009054906101000a900473ffffffffffffffffffffffffffffffffffffffff1673ffffffffffffffffffffffffffffffffffffffff1673ffffffffffffffffffffffffffffffffffffffff16815260200190815260200160002060006101000a81548160ff021916908360ff1602179055505080806128a990613ce8565b91505061268d565b506002600081819054906101000a900460ff16809291906128d190613ce8565b91906101000a81548160ff021916908360ff1602179055505050505050505050505050565b60606000806000600160008673ffffffffffffffffffffffffffffffffffffffff1673ffffffffffffffffffffffffffffffffffffffff16815260200190815260200160002060009054906101000a900460ff1660ff1660ff16815260200190815260200160002060040160009054906101000a900460ff1660ff1667ffffffffffffffff81111561298b5761298a61369b565b5b6040519080825280602002602001820160405280156129be57816020015b60608152602001906001900390816129a95790505b50905060005b600080600160008773ffffffffffffffffffffffffffffffffffffffff1673ffffffffffffffffffffffffffffffffffffffff16815260200190815260200160002060009054906101000a900460ff1660ff1660ff16815260200190815260200160002060040160009054906101000a900460ff1660ff168160ff161015612b8457600080600160008773ffffffffffffffffffffffffffffffffffffffff1673ffffffffffffffffffffffffffffffffffffffff16815260200190815260200160002060009054906101000a900460ff1660ff1660ff16815260200190815260200160002060070160008260ff1660ff1681526020019081526020016000206000018054612ad290613d40565b80601f0160208091040260200160405190810160405280929190818152602001828054612afe90613d40565b8015612b4b5780601f10612b2057610100808354040283529160200191612b4b565b820191906000526020600020905b815481529060010190602001808311612b2e57829003601f168201915b5050505050828260ff1681518110612b6657612b65613c8a565b5b60200260200101819052508080612b7c90613ce8565b9150506129c4565b5080915050919050565b60606000806000600160008673ffffffffffffffffffffffffffffffffffffffff1673ffffffffffffffffffffffffffffffffffffffff16815260200190815260200160002060009054906101000a900460ff1660ff1660ff16815260200190815260200160002060040160009054906101000a900460ff1660ff1667ffffffffffffffff811115612c2357612c2261369b565b5b604051908082528060200260200182016040528015612c5657816020015b6060815260200190600190039081612c415790505b50905060005b600080600160008773ffffffffffffffffffffffffffffffffffffffff1673ffffffffffffffffffffffffffffffffffffffff16815260200190815260200160002060009054906101000a900460ff1660ff1660ff16815260200190815260200160002060040160009054906101000a900460ff1660ff168160ff161015612e1c57600080600160008773ffffffffffffffffffffffffffffffffffffffff1673ffffffffffffffffffffffffffffffffffffffff16815260200190815260200160002060009054906101000a900460ff1660ff1660ff16815260200190815260200160002060070160008260ff1660ff1681526020019081526020016000206001018054612d6a90613d40565b80601f0160208091040260200160405190810160405280929190818152602001828054612d9690613d40565b8015612de35780601f10612db857610100808354040283529160200191612de3565b820191906000526020600020905b815481529060010190602001808311612dc657829003601f168201915b5050505050828260ff1681518110612dfe57612dfd613c8a565b5b60200260200101819052508080612e1490613ce8565b915050612c5c565b5080915050919050565b60006020528060005260406000206000915090508060000160009054906101000a900460ff1690806001015490806002018054612e6290613d40565b80601f0160208091040260200160405190810160405280929190818152602001828054612e8e90613d40565b8015612edb5780601f10612eb057610100808354040283529160200191612edb565b820191906000526020600020905b815481529060010190602001808311612ebe57829003601f168201915b5050505050908060030154908060040160009054906101000a900460ff16908060040160019054906101000a900473ffffffffffffffffffffffffffffffffffffffff1690806005018054612f2f90613d40565b80601f0160208091040260200160405190810160405280929190818152602001828054612f5b90613d40565b8015612fa85780601f10612f7d57610100808354040283529160200191612fa8565b820191906000526020600020905b815481529060010190602001808311612f8b57829003601f168201915b505050505090806006018054612fbd90613d40565b80601f0160208091040260200160405190810160405280929190818152602001828054612fe990613d40565b80156130365780601f1061300b57610100808354040283529160200191613036565b820191906000526020600020905b81548152906001019060200180831161301957829003601f168201915b5050505050905088565b6000806000600160008573ffffffffffffffffffffffffffffffffffffffff1673ffffffffffffffffffffffffffffffffffffffff16815260200190815260200160002060009054906101000a900460ff1660ff1660ff168152602001908152602001600020600301549050919050565b600260009054906101000a900460ff1681565b6040518060a001604052806000815260200160008152602001600073ffffffffffffffffffffffffffffffffffffffff168152602001600073ffffffffffffffffffffffffffffffffffffffff168152602001606081525090565b6000604051905090565b600080fd5b600080fd5b600073ffffffffffffffffffffffffffffffffffffffff82169050919050565b600061315e82613133565b9050919050565b61316e81613153565b811461317957600080fd5b50565b60008135905061318b81613165565b92915050565b6000602082840312156131a7576131a6613129565b5b60006131b58482850161317c565b91505092915050565b600081519050919050565b600082825260208201905092915050565b6000819050602082019050919050565b6000819050919050565b6131fd816131ea565b82525050565b600061320f83836131f4565b60208301905092915050565b6000602082019050919050565b6000613233826131be565b61323d81856131c9565b9350613248836131da565b8060005b838110156132795781516132608882613203565b975061326b8361321b565b92505060018101905061324c565b5085935050505092915050565b600060208201905081810360008301526132a08184613228565b905092915050565b600081519050919050565b600082825260208201905092915050565b6000819050602082019050919050565b6132dd81613153565b82525050565b600081519050919050565b600082825260208201905092915050565b60005b8381101561331d578082015181840152602081019050613302565b60008484015250505050565b6000601f19601f8301169050919050565b6000613345826132e3565b61334f81856132ee565b935061335f8185602086016132ff565b61336881613329565b840191505092915050565b600060a08301600083015161338b60008601826131f4565b50602083015161339e60208601826131f4565b5060408301516133b160408601826132d4565b5060608301516133c460608601826132d4565b50608083015184820360808601526133dc828261333a565b9150508091505092915050565b60006133f58383613373565b905092915050565b6000602082019050919050565b6000613415826132a8565b61341f81856132b3565b935083602082028501613431856132c4565b8060005b8581101561346d578484038952815161344e85826133e9565b9450613459836133fd565b925060208a01995050600181019050613435565b50829750879550505050505092915050565b60006020820190508181036000830152613499818461340a565b905092915050565b600060ff82169050919050565b6134b7816134a1565b82525050565b60006020820190506134d260008301846134ae565b92915050565b600080604083850312156134ef576134ee613129565b5b60006134fd8582860161317c565b925050602061350e8582860161317c565b9150509250929050565b600061352382613133565b9050919050565b61353381613518565b811461353e57600080fd5b50565b6000813590506135508161352a565b92915050565b6000806040838503121561356d5761356c613129565b5b600061357b85828601613541565b925050602061358c8582860161317c565b9150509250929050565b61359f81613153565b82525050565b60006020820190506135ba6000830184613596565b92915050565b600081519050919050565b600082825260208201905092915050565b6000819050602082019050919050565b60006135f883836132d4565b60208301905092915050565b6000602082019050919050565b600061361c826135c0565b61362681856135cb565b9350613631836135dc565b8060005b8381101561366257815161364988826135ec565b975061365483613604565b925050600181019050613635565b5085935050505092915050565b600060208201905081810360008301526136898184613611565b905092915050565b600080fd5b600080fd5b7f4e487b7100000000000000000000000000000000000000000000000000000000600052604160045260246000fd5b6136d382613329565b810181811067ffffffffffffffff821117156136f2576136f161369b565b5b80604052505050565b600061370561311f565b905061371182826136ca565b919050565b600067ffffffffffffffff8211156137315761373061369b565b5b61373a82613329565b9050602081019050919050565b82818337600083830152505050565b600061376961376484613716565b6136fb565b90508281526020810184848401111561378557613784613696565b5b613790848285613747565b509392505050565b600082601f8301126137ad576137ac613691565b5b81356137bd848260208601613756565b91505092915050565b600067ffffffffffffffff8211156137e1576137e061369b565b5b602082029050602081019050919050565b600080fd5b600061380a613805846137c6565b6136fb565b9050808382526020820190506020840283018581111561382d5761382c6137f2565b5b835b818110156138565780613842888261317c565b84526020840193505060208101905061382f565b5050509392505050565b600082601f83011261387557613874613691565b5b81356138858482602086016137f7565b91505092915050565b600067ffffffffffffffff8211156138a9576138a861369b565b5b602082029050602081019050919050565b60006138cd6138c88461388e565b6136fb565b905080838252602082019050602084028301858111156138f0576138ef6137f2565b5b835b8181101561393757803567ffffffffffffffff81111561391557613914613691565b5b8086016139228982613798565b855260208501945050506020810190506138f2565b5050509392505050565b600082601f83011261395657613955613691565b5b81356139668482602086016138ba565b91505092915050565b6000806000806080858703121561398957613988613129565b5b600085013567ffffffffffffffff8111156139a7576139a661312e565b5b6139b387828801613798565b945050602085013567ffffffffffffffff8111156139d4576139d361312e565b5b6139e087828801613860565b935050604085013567ffffffffffffffff811115613a0157613a0061312e565b5b613a0d87828801613941565b925050606085013567ffffffffffffffff811115613a2e57613a2d61312e565b5b613a3a87828801613941565b91505092959194509250565b600081519050919050565b600082825260208201905092915050565b6000819050602082019050919050565b6000613a7e838361333a565b905092915050565b6000602082019050919050565b6000613a9e82613a46565b613aa88185613a51565b935083602082028501613aba85613a62565b8060005b85811015613af65784840389528151613ad78582613a72565b9450613ae283613a86565b925060208a01995050600181019050613abe565b50829750879550505050505092915050565b60006020820190508181036000830152613b228184613a93565b905092915050565b613b33816134a1565b8114613b3e57600080fd5b50565b600081359050613b5081613b2a565b92915050565b600060208284031215613b6c57613b6b613129565b5b6000613b7a84828501613b41565b91505092915050565b613b8c816131ea565b82525050565b600082825260208201905092915050565b6000613bae826132e3565b613bb88185613b92565b9350613bc88185602086016132ff565b613bd181613329565b840191505092915050565b600061010082019050613bf2600083018b6134ae565b613bff602083018a613b83565b8181036040830152613c118189613ba3565b9050613c206060830188613b83565b613c2d60808301876134ae565b613c3a60a0830186613596565b81810360c0830152613c4c8185613ba3565b905081810360e0830152613c608184613ba3565b90509998505050505050505050565b6000602082019050613c846000830184613b83565b92915050565b7f4e487b7100000000000000000000000000000000000000000000000000000000600052603260045260246000fd5b7f4e487b7100000000000000000000000000000000000000000000000000000000600052601160045260246000fd5b6000613cf3826134a1565b915060ff8203613d0657613d05613cb9565b5b600182019050919050565b7f4e487b7100000000000000000000000000000000000000000000000000000000600052602260045260246000fd5b60006002820490506001821680613d5857607f821691505b602082108103613d6b57613d6a613d11565b5b50919050565b7f5468652077616c6c6574206e6565647320746f2068617665206174206c65617360008201527f7420312075736572000000000000000000000000000000000000000000000000602082015250565b6000613dcd602883613b92565b9150613dd882613d71565b604082019050919050565b60006020820190508181036000830152613dfc81613dc0565b9050919050565b60008190508160005260206000209050919050565b60006020601f8301049050919050565b600082821b905092915050565b600060088302613e657fffffffffffffffffffffffffffffffffffffffffffffffffffffffffffffffff82613e28565b613e6f8683613e28565b95508019841693508086168417925050509392505050565b6000819050919050565b6000613eac613ea7613ea2846131ea565b613e87565b6131ea565b9050919050565b6000819050919050565b613ec683613e91565b613eda613ed282613eb3565b848454613e35565b825550505050565b600090565b613eef613ee2565b613efa818484613ebd565b505050565b5b81811015613f1e57613f13600082613ee7565b600181019050613f00565b5050565b601f821115613f6357613f3481613e03565b613f3d84613e18565b81016020851015613f4c578190505b613f60613f5885613e18565b830182613eff565b50505b505050565b600082821c905092915050565b6000613f8660001984600802613f68565b1980831691505092915050565b6000613f9f8383613f75565b9150826002028217905092915050565b613fb8826132e3565b67ffffffffffffffff811115613fd157613fd061369b565b5b613fdb8254613d40565b613fe6828285613f22565b600060209050601f8311600181146140195760008415614007578287015190505b6140118582613f93565b865550614079565b601f19841661402786613e03565b60005b8281101561404f5784890151825560018201915060208501945060208101905061402a565b8683101561406c5784890151614068601f891682613f75565b8355505b6001600288020188555050505b505050505050565b600061408c826134a1565b91506000820361409f5761409e613cb9565b5b600182039050919050565b60006140b5826131ea565b91506140c0836131ea565b92508282019050808211156140d8576140d7613cb9565b5b92915050565b7f54686520616d6f756e74206e6565647320746f2062652068696768657220746860008201527f616e203000000000000000000000000000000000000000000000000000000000602082015250565b600061413a602483613b92565b9150614145826140de565b604082019050919050565b600060208201905081810360008301526141698161412d565b9050919050565b7f496e73756666696369656e742066756e647320696e2074686520636f6e74726160008201527f6374000000000000000000000000000000000000000000000000000000000000602082015250565b60006141cc602283613b92565b91506141d782614170565b604082019050919050565b600060208201905081810360008301526141fb816141bf565b9050919050565b7f596f7520646f206e6f74206861766520656e6f7567682066756e647300000000600082015250565b6000614238601c83613b92565b915061424382614202565b602082019050919050565b600060208201905081810360008301526142678161422b565b9050919050565b7f5468652077616c6c657420646f6573206e6f74206861766520656e6f7567682060008201527f66756e6473000000000000000000000000000000000000000000000000000000602082015250565b60006142ca602583613b92565b91506142d58261426e565b604082019050919050565b600060208201905081810360008301526142f9816142bd565b9050919050565b7f596f7520617265206e6f7420616c6c6f77656420746f2077697468647261772060008201527f616e6f74686572207573657227732066756e6473000000000000000000000000602082015250565b600061435c603483613b92565b915061436782614300565b604082019050919050565b6000602082019050818103600083015261438b8161434f565b9050919050565b600081905092915050565b50565b60006143ad600083614392565b91506143b88261439d565b600082019050919050565b60006143ce826143a0565b9150819050919050565b7f4661696c656420746f2073656e6420457468657220746f20746865207265636960008201527f7069656e74206164647265737300000000000000000000000000000000000000602082015250565b6000614434602d83613b92565b915061443f826143d8565b604082019050919050565b6000602082019050818103600083015261446381614427565b9050919050565b6000614475826131ea565b9150614480836131ea565b925082820390508181111561449857614497613cb9565b5b92915050565b7f412077616c6c6574206e65656473206174206c65617374206f6e652075736572600082015250565b60006144d4602083613b92565b91506144df8261449e565b602082019050919050565b60006020820190508181036000830152614503816144c7565b9050919050565b7f4f6e65206f72206d6f7265207573657273206861766520616c7265616479206a60008201527f6f696e656420616e6f746865722077616c6c6574000000000000000000000000602082015250565b6000614566603483613b92565b91506145718261450a565b604082019050919050565b6000602082019050818103600083015261459581614559565b9050919050565b7f5468652077616c6c65742063616e206e6f742068617665206475706c6963617460008201527f6520616464726573736573000000000000000000000000000000000000000000602082015250565b60006145f8602b83613b92565b91506146038261459c565b604082019050919050565b60006020820190508181036000830152614627816145eb565b9050919050565b6000614639826131ea565b91507fffffffffffffffffffffffffffffffffffffffffffffffffffffffffffffffff820361466b5761466a613cb9565b5b600182019050919050565b7f5468652077616c6c6574206e656564732061206e616d65000000000000000000600082015250565b60006146ac601783613b92565b91506146b782614676565b602082019050919050565b600060208201905081810360008301526146db8161469f565b9050919050565b7f546865207573657273206e65656420746f206861766520626f7468206669727360008201527f7420616e64206c617374206e616d657300000000000000000000000000000000602082015250565b600061473e603083613b92565b9150614749826146e2565b604082019050919050565b6000602082019050818103600083015261476d81614731565b9050919050565b600061477f826134a1565b915061478a836134a1565b9250828201905060ff8111156147a3576147a2613cb9565b5b9291505056fea2646970667358221220a14284b785d567a2490f4016676a2661140d46cf4a9845f170ead28eed5e5a6b64736f6c63430008110033",
  "linkReferences": {},
  "deployedLinkReferences": {}
}