{
  "_format": "hh-sol-artifact-1",
  "contractName": "TheVault",
  "sourceName": "contracts/TheVault.sol",
  "abi": [
    {
      "inputs": [
        {
          "internalType": "address",
          "name": "memberAddress",
          "type": "address"
        }
      ],
      "name": "getWalletBalance",
      "outputs": [
        {
          "internalType": "uint256",
          "name": "",
          "type": "uint256"
        }
      ],
      "stateMutability": "view",
      "type": "function"
    },
    {
      "inputs": [
        {
          "internalType": "address",
          "name": "memberAddress",
          "type": "address"
        }
      ],
      "name": "getWalletId",
      "outputs": [
        {
          "internalType": "uint8",
          "name": "",
          "type": "uint8"
        }
      ],
      "stateMutability": "view",
      "type": "function"
    },
    {
      "inputs": [
        {
          "internalType": "address",
          "name": "memberAddress",
          "type": "address"
        }
      ],
      "name": "getWalletMembersAddresses",
      "outputs": [
        {
          "internalType": "address[]",
          "name": "",
          "type": "address[]"
        }
      ],
      "stateMutability": "view",
      "type": "function"
    },
    {
      "inputs": [
        {
          "internalType": "address",
          "name": "memberAddress",
          "type": "address"
        }
      ],
      "name": "getWalletMembersBalances",
      "outputs": [
        {
          "internalType": "uint256[]",
          "name": "",
          "type": "uint256[]"
        }
      ],
      "stateMutability": "view",
      "type": "function"
    },
    {
      "inputs": [
        {
          "internalType": "address",
          "name": "memberAddress",
          "type": "address"
        }
      ],
      "name": "getWalletMembersFirstNames",
      "outputs": [
        {
          "internalType": "string[]",
          "name": "",
          "type": "string[]"
        }
      ],
      "stateMutability": "view",
      "type": "function"
    },
    {
      "inputs": [
        {
          "internalType": "address",
          "name": "memberAddress",
          "type": "address"
        }
      ],
      "name": "getWalletMembersLastNames",
      "outputs": [
        {
          "internalType": "string[]",
          "name": "",
          "type": "string[]"
        }
      ],
      "stateMutability": "view",
      "type": "function"
    },
    {
      "inputs": [
        {
          "internalType": "address",
          "name": "memberAddress",
          "type": "address"
        }
      ],
      "name": "getWalletOwner",
      "outputs": [
        {
          "internalType": "address",
          "name": "",
          "type": "address"
        }
      ],
      "stateMutability": "view",
      "type": "function"
    },
    {
      "inputs": [
        {
          "internalType": "string",
          "name": "walletName",
          "type": "string"
        },
        {
          "internalType": "address[]",
          "name": "membersAddresses",
          "type": "address[]"
        },
        {
          "internalType": "string[]",
          "name": "membersFirstNames",
          "type": "string[]"
        },
        {
          "internalType": "string[]",
          "name": "membersLastNames",
          "type": "string[]"
        }
      ],
      "name": "initializeWallet",
      "outputs": [],
      "stateMutability": "payable",
      "type": "function"
    },
    {
      "inputs": [
        {
          "internalType": "address",
          "name": "memberAddress",
          "type": "address"
        }
      ],
      "name": "leaveWallet",
      "outputs": [],
      "stateMutability": "nonpayable",
      "type": "function"
    },
    {
      "inputs": [
        {
          "internalType": "address",
          "name": "",
          "type": "address"
        }
      ],
      "name": "memberWalletId",
      "outputs": [
        {
          "internalType": "uint8",
          "name": "",
          "type": "uint8"
        }
      ],
      "stateMutability": "view",
      "type": "function"
    },
    {
      "inputs": [
        {
          "internalType": "uint8",
          "name": "",
          "type": "uint8"
        }
      ],
      "name": "wallet",
      "outputs": [
        {
          "internalType": "uint8",
          "name": "id",
          "type": "uint8"
        },
        {
          "internalType": "uint256",
          "name": "creationDate",
          "type": "uint256"
        },
        {
          "internalType": "string",
          "name": "name",
          "type": "string"
        },
        {
          "internalType": "uint256",
          "name": "balance",
          "type": "uint256"
        },
        {
          "internalType": "uint8",
          "name": "memberCounter",
          "type": "uint8"
        },
        {
          "internalType": "address",
          "name": "ownerAddress",
          "type": "address"
        },
        {
          "internalType": "string",
          "name": "ownerFirstName",
          "type": "string"
        },
        {
          "internalType": "string",
          "name": "ownerLastName",
          "type": "string"
        }
      ],
      "stateMutability": "view",
      "type": "function"
    },
    {
      "inputs": [],
      "name": "walletCounter",
      "outputs": [
        {
          "internalType": "uint8",
          "name": "",
          "type": "uint8"
        }
      ],
      "stateMutability": "view",
      "type": "function"
    }
  ],
  "bytecode": "0x608060405234801561001057600080fd5b50613055806100206000396000f3fe6080604052600436106100a75760003560e01c8063b6206b4411610064578063b6206b44146101e5578063babf53af14610222578063e428c2891461025f578063ed8ec194146102a3578063f64d7060146102e0578063fbca23731461030b576100a7565b80630afa1f0b146100ac578063265c4214146100e95780635a8ff96914610112578063966708a51461014f5780639c36c46a1461018c578063a6fd4158146101c9575b600080fd5b3480156100b857600080fd5b506100d360048036038101906100ce9190612013565b610348565b6040516100e09190612108565b60405180910390f35b3480156100f557600080fd5b50610110600480360381019061010b9190612013565b610554565b005b34801561011e57600080fd5b5061013960048036038101906101349190612013565b610da9565b6040516101469190612146565b60405180910390f35b34801561015b57600080fd5b5061017660048036038101906101719190612013565b610dff565b6040516101839190612170565b60405180910390f35b34801561019857600080fd5b506101b360048036038101906101ae9190612013565b610e90565b6040516101c09190612249565b60405180910390f35b6101e360048036038101906101de919061255a565b6110ea565b005b3480156101f157600080fd5b5061020c60048036038101906102079190612013565b6117b3565b6040516102199190612772565b60405180910390f35b34801561022e57600080fd5b5061024960048036038101906102449190612013565b611a4b565b6040516102569190612772565b60405180910390f35b34801561026b57600080fd5b50610286600480360381019061028191906127c0565b611ce3565b60405161029a989796959493929190612846565b60405180910390f35b3480156102af57600080fd5b506102ca60048036038101906102c59190612013565b611efd565b6040516102d791906128d9565b60405180910390f35b3480156102ec57600080fd5b506102f5611f6e565b6040516103029190612146565b60405180910390f35b34801561031757600080fd5b50610332600480360381019061032d9190612013565b611f81565b60405161033f9190612146565b60405180910390f35b60606000806000600160008673ffffffffffffffffffffffffffffffffffffffff1673ffffffffffffffffffffffffffffffffffffffff16815260200190815260200160002060009054906101000a900460ff1660ff1660ff16815260200190815260200160002060040160009054906101000a900460ff1660ff1667ffffffffffffffff8111156103dd576103dc612286565b5b60405190808252806020026020018201604052801561040b5781602001602082028036833780820191505090505b50905060005b600080600160008773ffffffffffffffffffffffffffffffffffffffff1673ffffffffffffffffffffffffffffffffffffffff16815260200190815260200160002060009054906101000a900460ff1660ff1660ff16815260200190815260200160002060040160009054906101000a900460ff1660ff168160ff16101561054a57600080600160008773ffffffffffffffffffffffffffffffffffffffff1673ffffffffffffffffffffffffffffffffffffffff16815260200190815260200160002060009054906101000a900460ff1660ff1660ff16815260200190815260200160002060070160008260ff1660ff16815260200190815260200160002060030154828260ff168151811061052b5761052a6128f4565b5b602002602001018181525050808061054290612952565b915050610411565b5080915050919050565b806000806000600160008573ffffffffffffffffffffffffffffffffffffffff1673ffffffffffffffffffffffffffffffffffffffff16815260200190815260200160002060009054906101000a900460ff1660ff1660ff16815260200190815260200160002060040160009054906101000a900460ff1660ff161161060f576040517f08c379a0000000000000000000000000000000000000000000000000000000008152600401610606906129ed565b60405180910390fd5b60005b600080600160008673ffffffffffffffffffffffffffffffffffffffff1673ffffffffffffffffffffffffffffffffffffffff16815260200190815260200160002060009054906101000a900460ff1660ff1660ff16815260200190815260200160002060040160009054906101000a900460ff1660ff168160ff161015610927578273ffffffffffffffffffffffffffffffffffffffff16600080600160008773ffffffffffffffffffffffffffffffffffffffff1673ffffffffffffffffffffffffffffffffffffffff16815260200190815260200160002060009054906101000a900460ff1660ff1660ff16815260200190815260200160002060070160008360ff1660ff16815260200190815260200160002060020160009054906101000a900473ffffffffffffffffffffffffffffffffffffffff1673ffffffffffffffffffffffffffffffffffffffff1603610914576040518060c00160405280604051806020016040528060008152508152602001604051806020016040528060008152508152602001600073ffffffffffffffffffffffffffffffffffffffff168152602001600060ff16815260200160008152602001600060ff16815250600080600160008773ffffffffffffffffffffffffffffffffffffffff1673ffffffffffffffffffffffffffffffffffffffff16815260200190815260200160002060009054906101000a900460ff1660ff1660ff16815260200190815260200160002060070160008360ff1660ff16815260200190815260200160002060008201518160000190816108669190612c19565b50602082015181600101908161087c9190612c19565b5060408201518160020160006101000a81548173ffffffffffffffffffffffffffffffffffffffff021916908373ffffffffffffffffffffffffffffffffffffffff16021790555060608201518160020160146101000a81548160ff021916908360ff1602179055506080820151816003015560a08201518160040160006101000a81548160ff021916908360ff1602179055509050505b808061091f90612952565b915050610612565b50600080600160008573ffffffffffffffffffffffffffffffffffffffff1673ffffffffffffffffffffffffffffffffffffffff16815260200190815260200160002060009054906101000a900460ff1660ff1660ff168152602001908152602001600020600401600081819054906101000a900460ff16809291906109ac90612ceb565b91906101000a81548160ff021916908360ff160217905550506000600160008473ffffffffffffffffffffffffffffffffffffffff1673ffffffffffffffffffffffffffffffffffffffff16815260200190815260200160002060006101000a81548160ff021916908360ff1602179055506000806000600160008673ffffffffffffffffffffffffffffffffffffffff1673ffffffffffffffffffffffffffffffffffffffff16815260200190815260200160002060009054906101000a900460ff1660ff1660ff16815260200190815260200160002060040160009054906101000a900460ff1660ff1603610da5576000806000600160008673ffffffffffffffffffffffffffffffffffffffff1673ffffffffffffffffffffffffffffffffffffffff16815260200190815260200160002060009054906101000a900460ff1660ff1660ff16815260200190815260200160002060000160006101000a81548160ff021916908360ff1602179055506000806000600160008673ffffffffffffffffffffffffffffffffffffffff1673ffffffffffffffffffffffffffffffffffffffff16815260200190815260200160002060009054906101000a900460ff1660ff1660ff1681526020019081526020016000206001018190555060405180602001604052806000815250600080600160008673ffffffffffffffffffffffffffffffffffffffff1673ffffffffffffffffffffffffffffffffffffffff16815260200190815260200160002060009054906101000a900460ff1660ff1660ff1681526020019081526020016000206002019081610c0e9190612c19565b506000806000600160008673ffffffffffffffffffffffffffffffffffffffff1673ffffffffffffffffffffffffffffffffffffffff16815260200190815260200160002060009054906101000a900460ff1660ff1660ff168152602001908152602001600020600301819055506000806000600160008673ffffffffffffffffffffffffffffffffffffffff1673ffffffffffffffffffffffffffffffffffffffff16815260200190815260200160002060009054906101000a900460ff1660ff1660ff16815260200190815260200160002060040160006101000a81548160ff021916908360ff1602179055506000806000600160008673ffffffffffffffffffffffffffffffffffffffff1673ffffffffffffffffffffffffffffffffffffffff16815260200190815260200160002060009054906101000a900460ff1660ff1660ff16815260200190815260200160002060040160016101000a81548173ffffffffffffffffffffffffffffffffffffffff021916908373ffffffffffffffffffffffffffffffffffffffff1602179055505b5050565b6000600160008373ffffffffffffffffffffffffffffffffffffffff1673ffffffffffffffffffffffffffffffffffffffff16815260200190815260200160002060009054906101000a900460ff169050919050565b6000806000600160008573ffffffffffffffffffffffffffffffffffffffff1673ffffffffffffffffffffffffffffffffffffffff16815260200190815260200160002060009054906101000a900460ff1660ff1660ff16815260200190815260200160002060040160019054906101000a900473ffffffffffffffffffffffffffffffffffffffff169050919050565b60606000806000600160008673ffffffffffffffffffffffffffffffffffffffff1673ffffffffffffffffffffffffffffffffffffffff16815260200190815260200160002060009054906101000a900460ff1660ff1660ff16815260200190815260200160002060040160009054906101000a900460ff1660ff1667ffffffffffffffff811115610f2557610f24612286565b5b604051908082528060200260200182016040528015610f535781602001602082028036833780820191505090505b50905060005b600080600160008773ffffffffffffffffffffffffffffffffffffffff1673ffffffffffffffffffffffffffffffffffffffff16815260200190815260200160002060009054906101000a900460ff1660ff1660ff16815260200190815260200160002060040160009054906101000a900460ff1660ff168160ff1610156110e057600080600160008773ffffffffffffffffffffffffffffffffffffffff1673ffffffffffffffffffffffffffffffffffffffff16815260200190815260200160002060009054906101000a900460ff1660ff1660ff16815260200190815260200160002060070160008260ff1660ff16815260200190815260200160002060020160009054906101000a900473ffffffffffffffffffffffffffffffffffffffff16828260ff1681518110611093576110926128f4565b5b602002602001019073ffffffffffffffffffffffffffffffffffffffff16908173ffffffffffffffffffffffffffffffffffffffff168152505080806110d890612952565b915050610f59565b5080915050919050565b82825160008111611130576040517f08c379a000000000000000000000000000000000000000000000000000000000815260040161112790612d60565b60405180910390fd5b60005b818110156112bb57600060016000858481518110611154576111536128f4565b5b602002602001015173ffffffffffffffffffffffffffffffffffffffff1673ffffffffffffffffffffffffffffffffffffffff16815260200190815260200160002060009054906101000a900460ff1660ff16146111e7576040517f08c379a00000000000000000000000000000000000000000000000000000000081526004016111de90612df2565b60405180910390fd5b60005b818110156112a757838181518110611205576112046128f4565b5b602002602001015173ffffffffffffffffffffffffffffffffffffffff16848381518110611236576112356128f4565b5b602002602001015173ffffffffffffffffffffffffffffffffffffffff1603611294576040517f08c379a000000000000000000000000000000000000000000000000000000000815260040161128b90612e84565b60405180910390fd5b808061129f90612ea4565b9150506111ea565b5080806112b390612ea4565b915050611133565b50856000815103611301576040517f08c379a00000000000000000000000000000000000000000000000000000000081526004016112f890612f38565b60405180910390fd5b84848051825114801561131657506000825114155b611355576040517f08c379a000000000000000000000000000000000000000000000000000000000815260040161134c90612fca565b60405180910390fd5b60005b82518110156113fb576000838281518110611376576113756128f4565b5b602002602001015151141580156113a95750600082828151811061139d5761139c6128f4565b5b60200260200101515114155b6113e8576040517f08c379a00000000000000000000000000000000000000000000000000000000081526004016113df90612fca565b60405180910390fd5b80806113f390612ea4565b915050611358565b506000806000600a600260009054906101000a900460ff1661141d9190612fea565b60ff1660ff1681526020019081526020016000209050600a600260009054906101000a900460ff1661144f9190612fea565b8160000160006101000a81548160ff021916908360ff160217905550428160010181905550898160020190816114859190612c19565b50348160030181905550886000815181106114a3576114a26128f4565b5b60200260200101518160040160016101000a81548173ffffffffffffffffffffffffffffffffffffffff021916908373ffffffffffffffffffffffffffffffffffffffff16021790555087600081518110611501576115006128f4565b5b60200260200101518160050190816115199190612c19565b508660008151811061152e5761152d6128f4565b5b60200260200101518160060190816115469190612c19565b5060005b89518160ff16101561176e5760008260070160008360ff1660ff1681526020019081526020016000209050898260ff168151811061158b5761158a6128f4565b5b60200260200101518160000190816115a39190612c19565b50888260ff16815181106115ba576115b96128f4565b5b60200260200101518160010190816115d29190612c19565b508a8260ff16815181106115e9576115e86128f4565b5b60200260200101518160020160006101000a81548173ffffffffffffffffffffffffffffffffffffffff021916908373ffffffffffffffffffffffffffffffffffffffff160217905550600a600260009054906101000a900460ff1661164f9190612fea565b8160020160146101000a81548160ff021916908360ff1602179055506000816003018190555060058160040160006101000a81548160ff021916908360ff16021790555082600401600081819054906101000a900460ff16809291906116b490612952565b91906101000a81548160ff021916908360ff160217905550508060020160149054906101000a900460ff16600160008360020160009054906101000a900473ffffffffffffffffffffffffffffffffffffffff1673ffffffffffffffffffffffffffffffffffffffff1673ffffffffffffffffffffffffffffffffffffffff16815260200190815260200160002060006101000a81548160ff021916908360ff16021790555050808061176690612952565b91505061154a565b506002600081819054906101000a900460ff168092919061178e90612952565b91906101000a81548160ff021916908360ff1602179055505050505050505050505050565b60606000806000600160008673ffffffffffffffffffffffffffffffffffffffff1673ffffffffffffffffffffffffffffffffffffffff16815260200190815260200160002060009054906101000a900460ff1660ff1660ff16815260200190815260200160002060040160009054906101000a900460ff1660ff1667ffffffffffffffff81111561184857611847612286565b5b60405190808252806020026020018201604052801561187b57816020015b60608152602001906001900390816118665790505b50905060005b600080600160008773ffffffffffffffffffffffffffffffffffffffff1673ffffffffffffffffffffffffffffffffffffffff16815260200190815260200160002060009054906101000a900460ff1660ff1660ff16815260200190815260200160002060040160009054906101000a900460ff1660ff168160ff161015611a4157600080600160008773ffffffffffffffffffffffffffffffffffffffff1673ffffffffffffffffffffffffffffffffffffffff16815260200190815260200160002060009054906101000a900460ff1660ff1660ff16815260200190815260200160002060070160008260ff1660ff168152602001908152602001600020600001805461198f90612a3c565b80601f01602080910402602001604051908101604052809291908181526020018280546119bb90612a3c565b8015611a085780601f106119dd57610100808354040283529160200191611a08565b820191906000526020600020905b8154815290600101906020018083116119eb57829003601f168201915b5050505050828260ff1681518110611a2357611a226128f4565b5b60200260200101819052508080611a3990612952565b915050611881565b5080915050919050565b60606000806000600160008673ffffffffffffffffffffffffffffffffffffffff1673ffffffffffffffffffffffffffffffffffffffff16815260200190815260200160002060009054906101000a900460ff1660ff1660ff16815260200190815260200160002060040160009054906101000a900460ff1660ff1667ffffffffffffffff811115611ae057611adf612286565b5b604051908082528060200260200182016040528015611b1357816020015b6060815260200190600190039081611afe5790505b50905060005b600080600160008773ffffffffffffffffffffffffffffffffffffffff1673ffffffffffffffffffffffffffffffffffffffff16815260200190815260200160002060009054906101000a900460ff1660ff1660ff16815260200190815260200160002060040160009054906101000a900460ff1660ff168160ff161015611cd957600080600160008773ffffffffffffffffffffffffffffffffffffffff1673ffffffffffffffffffffffffffffffffffffffff16815260200190815260200160002060009054906101000a900460ff1660ff1660ff16815260200190815260200160002060070160008260ff1660ff1681526020019081526020016000206001018054611c2790612a3c565b80601f0160208091040260200160405190810160405280929190818152602001828054611c5390612a3c565b8015611ca05780601f10611c7557610100808354040283529160200191611ca0565b820191906000526020600020905b815481529060010190602001808311611c8357829003601f168201915b5050505050828260ff1681518110611cbb57611cba6128f4565b5b60200260200101819052508080611cd190612952565b915050611b19565b5080915050919050565b60006020528060005260406000206000915090508060000160009054906101000a900460ff1690806001015490806002018054611d1f90612a3c565b80601f0160208091040260200160405190810160405280929190818152602001828054611d4b90612a3c565b8015611d985780601f10611d6d57610100808354040283529160200191611d98565b820191906000526020600020905b815481529060010190602001808311611d7b57829003601f168201915b5050505050908060030154908060040160009054906101000a900460ff16908060040160019054906101000a900473ffffffffffffffffffffffffffffffffffffffff1690806005018054611dec90612a3c565b80601f0160208091040260200160405190810160405280929190818152602001828054611e1890612a3c565b8015611e655780601f10611e3a57610100808354040283529160200191611e65565b820191906000526020600020905b815481529060010190602001808311611e4857829003601f168201915b505050505090806006018054611e7a90612a3c565b80601f0160208091040260200160405190810160405280929190818152602001828054611ea690612a3c565b8015611ef35780601f10611ec857610100808354040283529160200191611ef3565b820191906000526020600020905b815481529060010190602001808311611ed657829003601f168201915b5050505050905088565b6000806000600160008573ffffffffffffffffffffffffffffffffffffffff1673ffffffffffffffffffffffffffffffffffffffff16815260200190815260200160002060009054906101000a900460ff1660ff1660ff168152602001908152602001600020600301549050919050565b600260009054906101000a900460ff1681565b60016020528060005260406000206000915054906101000a900460ff1681565b6000604051905090565b600080fd5b600080fd5b600073ffffffffffffffffffffffffffffffffffffffff82169050919050565b6000611fe082611fb5565b9050919050565b611ff081611fd5565b8114611ffb57600080fd5b50565b60008135905061200d81611fe7565b92915050565b60006020828403121561202957612028611fab565b5b600061203784828501611ffe565b91505092915050565b600081519050919050565b600082825260208201905092915050565b6000819050602082019050919050565b6000819050919050565b61207f8161206c565b82525050565b60006120918383612076565b60208301905092915050565b6000602082019050919050565b60006120b582612040565b6120bf818561204b565b93506120ca8361205c565b8060005b838110156120fb5781516120e28882612085565b97506120ed8361209d565b9250506001810190506120ce565b5085935050505092915050565b6000602082019050818103600083015261212281846120aa565b905092915050565b600060ff82169050919050565b6121408161212a565b82525050565b600060208201905061215b6000830184612137565b92915050565b61216a81611fd5565b82525050565b60006020820190506121856000830184612161565b92915050565b600081519050919050565b600082825260208201905092915050565b6000819050602082019050919050565b6121c081611fd5565b82525050565b60006121d283836121b7565b60208301905092915050565b6000602082019050919050565b60006121f68261218b565b6122008185612196565b935061220b836121a7565b8060005b8381101561223c57815161222388826121c6565b975061222e836121de565b92505060018101905061220f565b5085935050505092915050565b6000602082019050818103600083015261226381846121eb565b905092915050565b600080fd5b600080fd5b6000601f19601f8301169050919050565b7f4e487b7100000000000000000000000000000000000000000000000000000000600052604160045260246000fd5b6122be82612275565b810181811067ffffffffffffffff821117156122dd576122dc612286565b5b80604052505050565b60006122f0611fa1565b90506122fc82826122b5565b919050565b600067ffffffffffffffff82111561231c5761231b612286565b5b61232582612275565b9050602081019050919050565b82818337600083830152505050565b600061235461234f84612301565b6122e6565b9050828152602081018484840111156123705761236f612270565b5b61237b848285612332565b509392505050565b600082601f8301126123985761239761226b565b5b81356123a8848260208601612341565b91505092915050565b600067ffffffffffffffff8211156123cc576123cb612286565b5b602082029050602081019050919050565b600080fd5b60006123f56123f0846123b1565b6122e6565b90508083825260208201905060208402830185811115612418576124176123dd565b5b835b81811015612441578061242d8882611ffe565b84526020840193505060208101905061241a565b5050509392505050565b600082601f8301126124605761245f61226b565b5b81356124708482602086016123e2565b91505092915050565b600067ffffffffffffffff82111561249457612493612286565b5b602082029050602081019050919050565b60006124b86124b384612479565b6122e6565b905080838252602082019050602084028301858111156124db576124da6123dd565b5b835b8181101561252257803567ffffffffffffffff811115612500576124ff61226b565b5b80860161250d8982612383565b855260208501945050506020810190506124dd565b5050509392505050565b600082601f8301126125415761254061226b565b5b81356125518482602086016124a5565b91505092915050565b6000806000806080858703121561257457612573611fab565b5b600085013567ffffffffffffffff81111561259257612591611fb0565b5b61259e87828801612383565b945050602085013567ffffffffffffffff8111156125bf576125be611fb0565b5b6125cb8782880161244b565b935050604085013567ffffffffffffffff8111156125ec576125eb611fb0565b5b6125f88782880161252c565b925050606085013567ffffffffffffffff81111561261957612618611fb0565b5b6126258782880161252c565b91505092959194509250565b600081519050919050565b600082825260208201905092915050565b6000819050602082019050919050565b600081519050919050565b600082825260208201905092915050565b60005b8381101561269757808201518184015260208101905061267c565b60008484015250505050565b60006126ae8261265d565b6126b88185612668565b93506126c8818560208601612679565b6126d181612275565b840191505092915050565b60006126e883836126a3565b905092915050565b6000602082019050919050565b600061270882612631565b612712818561263c565b9350836020820285016127248561264d565b8060005b85811015612760578484038952815161274185826126dc565b945061274c836126f0565b925060208a01995050600181019050612728565b50829750879550505050505092915050565b6000602082019050818103600083015261278c81846126fd565b905092915050565b61279d8161212a565b81146127a857600080fd5b50565b6000813590506127ba81612794565b92915050565b6000602082840312156127d6576127d5611fab565b5b60006127e4848285016127ab565b91505092915050565b6127f68161206c565b82525050565b600082825260208201905092915050565b60006128188261265d565b61282281856127fc565b9350612832818560208601612679565b61283b81612275565b840191505092915050565b60006101008201905061285c600083018b612137565b612869602083018a6127ed565b818103604083015261287b818961280d565b905061288a60608301886127ed565b6128976080830187612137565b6128a460a0830186612161565b81810360c08301526128b6818561280d565b905081810360e08301526128ca818461280d565b90509998505050505050505050565b60006020820190506128ee60008301846127ed565b92915050565b7f4e487b7100000000000000000000000000000000000000000000000000000000600052603260045260246000fd5b7f4e487b7100000000000000000000000000000000000000000000000000000000600052601160045260246000fd5b600061295d8261212a565b915060ff82036129705761296f612923565b5b600182019050919050565b7f5468652077616c6c6574206e6565647320746f2068617665206174206c65617360008201527f7420312075736572000000000000000000000000000000000000000000000000602082015250565b60006129d76028836127fc565b91506129e28261297b565b604082019050919050565b60006020820190508181036000830152612a06816129ca565b9050919050565b7f4e487b7100000000000000000000000000000000000000000000000000000000600052602260045260246000fd5b60006002820490506001821680612a5457607f821691505b602082108103612a6757612a66612a0d565b5b50919050565b60008190508160005260206000209050919050565b60006020601f8301049050919050565b600082821b905092915050565b600060088302612acf7fffffffffffffffffffffffffffffffffffffffffffffffffffffffffffffffff82612a92565b612ad98683612a92565b95508019841693508086168417925050509392505050565b6000819050919050565b6000612b16612b11612b0c8461206c565b612af1565b61206c565b9050919050565b6000819050919050565b612b3083612afb565b612b44612b3c82612b1d565b848454612a9f565b825550505050565b600090565b612b59612b4c565b612b64818484612b27565b505050565b5b81811015612b8857612b7d600082612b51565b600181019050612b6a565b5050565b601f821115612bcd57612b9e81612a6d565b612ba784612a82565b81016020851015612bb6578190505b612bca612bc285612a82565b830182612b69565b50505b505050565b600082821c905092915050565b6000612bf060001984600802612bd2565b1980831691505092915050565b6000612c098383612bdf565b9150826002028217905092915050565b612c228261265d565b67ffffffffffffffff811115612c3b57612c3a612286565b5b612c458254612a3c565b612c50828285612b8c565b600060209050601f831160018114612c835760008415612c71578287015190505b612c7b8582612bfd565b865550612ce3565b601f198416612c9186612a6d565b60005b82811015612cb957848901518255600182019150602085019450602081019050612c94565b86831015612cd65784890151612cd2601f891682612bdf565b8355505b6001600288020188555050505b505050505050565b6000612cf68261212a565b915060008203612d0957612d08612923565b5b600182039050919050565b7f412077616c6c6574206e65656473206174206c65617374206f6e652075736572600082015250565b6000612d4a6020836127fc565b9150612d5582612d14565b602082019050919050565b60006020820190508181036000830152612d7981612d3d565b9050919050565b7f4f6e65206f72206d6f7265207573657273206861766520616c7265616479206a60008201527f6f696e656420616e6f746865722077616c6c6574000000000000000000000000602082015250565b6000612ddc6034836127fc565b9150612de782612d80565b604082019050919050565b60006020820190508181036000830152612e0b81612dcf565b9050919050565b7f5468652077616c6c65742063616e206e6f742068617665206475706c6963617460008201527f6520616464726573736573000000000000000000000000000000000000000000602082015250565b6000612e6e602b836127fc565b9150612e7982612e12565b604082019050919050565b60006020820190508181036000830152612e9d81612e61565b9050919050565b6000612eaf8261206c565b91507fffffffffffffffffffffffffffffffffffffffffffffffffffffffffffffffff8203612ee157612ee0612923565b5b600182019050919050565b7f5468652077616c6c6574206e656564732061206e616d65000000000000000000600082015250565b6000612f226017836127fc565b9150612f2d82612eec565b602082019050919050565b60006020820190508181036000830152612f5181612f15565b9050919050565b7f546865207573657273206e65656420746f206861766520626f7468206669727360008201527f7420616e64206c617374206e616d657300000000000000000000000000000000602082015250565b6000612fb46030836127fc565b9150612fbf82612f58565b604082019050919050565b60006020820190508181036000830152612fe381612fa7565b9050919050565b6000612ff58261212a565b91506130008361212a565b9250828201905060ff81111561301957613018612923565b5b9291505056fea2646970667358221220c4b88e63d591cf5f00ead90a46ac52eb7565dc82df320f3db96756deb279520464736f6c63430008110033",
  "linkReferences": {},
  "deployedLinkReferences": {}
}