{
  "_format": "hh-sol-artifact-1",
  "contractName": "TheVault",
  "sourceName": "contracts/TheVault.sol",
  "abi": [
    {
      "inputs": [
        {
          "internalType": "address",
          "name": "memberAddress",
          "type": "address"
        }
      ],
      "name": "getWalletBalance",
      "outputs": [
        {
          "internalType": "uint256",
          "name": "",
          "type": "uint256"
        }
      ],
      "stateMutability": "view",
      "type": "function"
    },
    {
      "inputs": [
        {
          "internalType": "address",
          "name": "memberAddress",
          "type": "address"
        }
      ],
      "name": "getWalletId",
      "outputs": [
        {
          "internalType": "uint8",
          "name": "",
          "type": "uint8"
        }
      ],
      "stateMutability": "view",
      "type": "function"
    },
    {
      "inputs": [
        {
          "internalType": "address",
          "name": "memberAddress",
          "type": "address"
        }
      ],
      "name": "getWalletMembersAddresses",
      "outputs": [
        {
          "internalType": "address[]",
          "name": "",
          "type": "address[]"
        }
      ],
      "stateMutability": "view",
      "type": "function"
    },
    {
      "inputs": [
        {
          "internalType": "address",
          "name": "memberAddress",
          "type": "address"
        }
      ],
      "name": "getWalletMembersBalances",
      "outputs": [
        {
          "internalType": "uint256[]",
          "name": "",
          "type": "uint256[]"
        }
      ],
      "stateMutability": "view",
      "type": "function"
    },
    {
      "inputs": [
        {
          "internalType": "address",
          "name": "memberAddress",
          "type": "address"
        }
      ],
      "name": "getWalletMembersFirstNames",
      "outputs": [
        {
          "internalType": "string[]",
          "name": "",
          "type": "string[]"
        }
      ],
      "stateMutability": "view",
      "type": "function"
    },
    {
      "inputs": [
        {
          "internalType": "address",
          "name": "memberAddress",
          "type": "address"
        }
      ],
      "name": "getWalletMembersLastNames",
      "outputs": [
        {
          "internalType": "string[]",
          "name": "",
          "type": "string[]"
        }
      ],
      "stateMutability": "view",
      "type": "function"
    },
    {
      "inputs": [
        {
          "internalType": "address",
          "name": "memberAddress",
          "type": "address"
        }
      ],
      "name": "getWalletMembersWithdrawalLimits",
      "outputs": [
        {
          "internalType": "uint256[]",
          "name": "",
          "type": "uint256[]"
        }
      ],
      "stateMutability": "view",
      "type": "function"
    },
    {
      "inputs": [
        {
          "internalType": "address",
          "name": "memberAddress",
          "type": "address"
        }
      ],
      "name": "getWalletName",
      "outputs": [
        {
          "internalType": "string",
          "name": "",
          "type": "string"
        }
      ],
      "stateMutability": "view",
      "type": "function"
    },
    {
      "inputs": [
        {
          "internalType": "address",
          "name": "memberAddress",
          "type": "address"
        }
      ],
      "name": "getWalletOwner",
      "outputs": [
        {
          "internalType": "address",
          "name": "",
          "type": "address"
        }
      ],
      "stateMutability": "view",
      "type": "function"
    },
    {
      "inputs": [
        {
          "internalType": "address",
          "name": "memberAddress",
          "type": "address"
        }
      ],
      "name": "getWalletPublicFunds",
      "outputs": [
        {
          "internalType": "uint256",
          "name": "",
          "type": "uint256"
        }
      ],
      "stateMutability": "view",
      "type": "function"
    },
    {
      "inputs": [
        {
          "internalType": "address",
          "name": "memberAddress",
          "type": "address"
        }
      ],
      "name": "getWalletTransactions",
      "outputs": [
        {
          "components": [
            {
              "internalType": "uint256",
              "name": "date",
              "type": "uint256"
            },
            {
              "internalType": "uint256",
              "name": "value",
              "type": "uint256"
            },
            {
              "internalType": "address",
              "name": "senderAddress",
              "type": "address"
            },
            {
              "internalType": "address",
              "name": "recipientAddress",
              "type": "address"
            },
            {
              "internalType": "string",
              "name": "txType",
              "type": "string"
            }
          ],
          "internalType": "struct TheVault.Transaction[]",
          "name": "",
          "type": "tuple[]"
        }
      ],
      "stateMutability": "view",
      "type": "function"
    },
    {
      "inputs": [
        {
          "internalType": "string",
          "name": "walletName",
          "type": "string"
        },
        {
          "internalType": "address[]",
          "name": "membersAddresses",
          "type": "address[]"
        },
        {
          "internalType": "string[]",
          "name": "membersFirstNames",
          "type": "string[]"
        },
        {
          "internalType": "string[]",
          "name": "membersLastNames",
          "type": "string[]"
        },
        {
          "internalType": "uint256[]",
          "name": "membersWithdrawalLimits",
          "type": "uint256[]"
        }
      ],
      "name": "initializeWallet",
      "outputs": [],
      "stateMutability": "payable",
      "type": "function"
    },
    {
      "inputs": [
        {
          "internalType": "address",
          "name": "memberAddress",
          "type": "address"
        }
      ],
      "name": "leaveWallet",
      "outputs": [],
      "stateMutability": "nonpayable",
      "type": "function"
    },
    {
      "inputs": [
        {
          "internalType": "address",
          "name": "recipientAddress",
          "type": "address"
        }
      ],
      "name": "sendFundsToMember",
      "outputs": [],
      "stateMutability": "payable",
      "type": "function"
    },
    {
      "inputs": [],
      "name": "sendFundsToWallet",
      "outputs": [],
      "stateMutability": "payable",
      "type": "function"
    },
    {
      "inputs": [
        {
          "internalType": "address",
          "name": "memberAddress",
          "type": "address"
        },
        {
          "internalType": "uint256",
          "name": "withdrawalLimit",
          "type": "uint256"
        }
      ],
      "name": "setWithdrawalLimit",
      "outputs": [],
      "stateMutability": "nonpayable",
      "type": "function"
    },
    {
      "inputs": [
        {
          "internalType": "uint8",
          "name": "",
          "type": "uint8"
        }
      ],
      "name": "wallet",
      "outputs": [
        {
          "internalType": "uint8",
          "name": "id",
          "type": "uint8"
        },
        {
          "internalType": "uint256",
          "name": "creationDate",
          "type": "uint256"
        },
        {
          "internalType": "string",
          "name": "name",
          "type": "string"
        },
        {
          "internalType": "uint256",
          "name": "balance",
          "type": "uint256"
        },
        {
          "internalType": "uint256",
          "name": "publicFunds",
          "type": "uint256"
        },
        {
          "internalType": "uint8",
          "name": "memberCounter",
          "type": "uint8"
        },
        {
          "internalType": "address",
          "name": "ownerAddress",
          "type": "address"
        },
        {
          "internalType": "string",
          "name": "ownerFirstName",
          "type": "string"
        },
        {
          "internalType": "string",
          "name": "ownerLastName",
          "type": "string"
        }
      ],
      "stateMutability": "view",
      "type": "function"
    },
    {
      "inputs": [],
      "name": "walletCounter",
      "outputs": [
        {
          "internalType": "uint8",
          "name": "",
          "type": "uint8"
        }
      ],
      "stateMutability": "view",
      "type": "function"
    },
    {
      "inputs": [
        {
          "internalType": "address",
          "name": "",
          "type": "address"
        }
      ],
      "name": "walletMemberId",
      "outputs": [
        {
          "internalType": "uint8",
          "name": "",
          "type": "uint8"
        }
      ],
      "stateMutability": "view",
      "type": "function"
    },
    {
      "inputs": [
        {
          "internalType": "uint256",
          "name": "amount",
          "type": "uint256"
        }
      ],
      "name": "withdrawFundsFromWallet",
      "outputs": [],
      "stateMutability": "nonpayable",
      "type": "function"
    },
    {
      "inputs": [
        {
          "internalType": "uint256",
          "name": "amount",
          "type": "uint256"
        }
      ],
      "name": "withdrawMemberFunds",
      "outputs": [],
      "stateMutability": "nonpayable",
      "type": "function"
    }
  ],
  "bytecode": "0x608060405234801561001057600080fd5b506157b880620000216000396000f3fe60806040526004361061012a5760003560e01c806388785882116100ab578063b6206b441161006f578063b6206b441461041e578063babf53af1461045b578063e428c28914610498578063ed8ec194146104dd578063f64d70601461051a578063fa59d636146105455761012a565b80638878588214610322578063966708a51461034b5780639c36c46a14610388578063a02c15d7146103c5578063a967028a146103e15761012a565b80631a3ca69c116100f25780631a3ca69c14610219578063265c4214146102565780633b6610021461027f5780635623aee6146102a85780635a8ff969146102e55761012a565b8063026e66231461012f5780630afa1f0b1461016c578063117d94f5146101a9578063145045e6146101b357806314706e4e146101f0575b600080fd5b34801561013b57600080fd5b5061015660048036038101906101519190613fd9565b610561565b604051610163919061401f565b60405180910390f35b34801561017857600080fd5b50610193600480360381019061018e9190613fd9565b6105d2565b6040516101a091906140f8565b60405180910390f35b6101b16107de565b005b3480156101bf57600080fd5b506101da60048036038101906101d59190613fd9565b610a7b565b6040516101e791906142f1565b60405180910390f35b3480156101fc57600080fd5b506102176004803603810190610212919061433f565b610d59565b005b34801561022557600080fd5b50610240600480360381019061023b9190613fd9565b610f96565b60405161024d91906140f8565b60405180910390f35b34801561026257600080fd5b5061027d60048036038101906102789190613fd9565b6111a2565b005b34801561028b57600080fd5b506102a660048036038101906102a1919061437f565b6119dd565b005b3480156102b457600080fd5b506102cf60048036038101906102ca9190613fd9565b611de0565b6040516102dc91906143c8565b60405180910390f35b3480156102f157600080fd5b5061030c60048036038101906103079190613fd9565b611e00565b60405161031991906143c8565b60405180910390f35b34801561032e57600080fd5b506103496004803603810190610344919061437f565b611e56565b005b34801561035757600080fd5b50610372600480360381019061036d9190613fd9565b6126d3565b60405161037f91906143f2565b60405180910390f35b34801561039457600080fd5b506103af60048036038101906103aa9190613fd9565b612764565b6040516103bc91906144bc565b60405180910390f35b6103df60048036038101906103da919061487f565b6129be565b005b3480156103ed57600080fd5b5061040860048036038101906104039190613fd9565b61319b565b60405161041591906149d0565b60405180910390f35b34801561042a57600080fd5b5061044560048036038101906104409190613fd9565b613294565b6040516104529190614ab4565b60405180910390f35b34801561046757600080fd5b50610482600480360381019061047d9190613fd9565b61352c565b60405161048f9190614ab4565b60405180910390f35b3480156104a457600080fd5b506104bf60048036038101906104ba9190614b02565b6137c4565b6040516104d499989796959493929190614b2f565b60405180910390f35b3480156104e957600080fd5b5061050460048036038101906104ff9190613fd9565b6139e4565b604051610511919061401f565b60405180910390f35b34801561052657600080fd5b5061052f613a55565b60405161053c91906143c8565b60405180910390f35b61055f600480360381019061055a9190613fd9565b613a68565b005b6000806000600160008573ffffffffffffffffffffffffffffffffffffffff1673ffffffffffffffffffffffffffffffffffffffff16815260200190815260200160002060009054906101000a900460ff1660ff1660ff168152602001908152602001600020600401549050919050565b60606000806000600160008673ffffffffffffffffffffffffffffffffffffffff1673ffffffffffffffffffffffffffffffffffffffff16815260200190815260200160002060009054906101000a900460ff1660ff1660ff16815260200190815260200160002060050160009054906101000a900460ff1660ff1667ffffffffffffffff811115610667576106666144e8565b5b6040519080825280602002602001820160405280156106955781602001602082028036833780820191505090505b50905060005b600080600160008773ffffffffffffffffffffffffffffffffffffffff1673ffffffffffffffffffffffffffffffffffffffff16815260200190815260200160002060009054906101000a900460ff1660ff1660ff16815260200190815260200160002060050160009054906101000a900460ff1660ff168160ff1610156107d457600080600160008773ffffffffffffffffffffffffffffffffffffffff1673ffffffffffffffffffffffffffffffffffffffff16815260200190815260200160002060009054906101000a900460ff1660ff1660ff16815260200190815260200160002060080160008260ff1660ff16815260200190815260200160002060030154828260ff16815181106107b5576107b4614bd1565b5b60200260200101818152505080806107cc90614c2f565b91505061069b565b5080915050919050565b3460008111610822576040517f08c379a000000000000000000000000000000000000000000000000000000000815260040161081990614cca565b60405180910390fd5b34600080600160003373ffffffffffffffffffffffffffffffffffffffff1673ffffffffffffffffffffffffffffffffffffffff16815260200190815260200160002060009054906101000a900460ff1660ff1660ff16815260200190815260200160002060040160008282546108999190614cea565b9250508190555060006040518060a001604052804281526020013481526020013373ffffffffffffffffffffffffffffffffffffffff1681526020013073ffffffffffffffffffffffffffffffffffffffff1681526020016040518060400160405280601081526020017f73656e6455736572546f57616c6c6574000000000000000000000000000000008152508152509050600080600160003373ffffffffffffffffffffffffffffffffffffffff1673ffffffffffffffffffffffffffffffffffffffff16815260200190815260200160002060009054906101000a900460ff1660ff1660ff168152602001908152602001600020600901819080600181540180825580915050600190039060005260206000209060050201600090919091909150600082015181600001556020820151816001015560408201518160020160006101000a81548173ffffffffffffffffffffffffffffffffffffffff021916908373ffffffffffffffffffffffffffffffffffffffff16021790555060608201518160030160006101000a81548173ffffffffffffffffffffffffffffffffffffffff021916908373ffffffffffffffffffffffffffffffffffffffff1602179055506080820151816004019081610a749190614f2a565b5050505050565b60606000806000600160008673ffffffffffffffffffffffffffffffffffffffff1673ffffffffffffffffffffffffffffffffffffffff16815260200190815260200160002060009054906101000a900460ff1660ff1660ff1681526020019081526020016000206009018054905067ffffffffffffffff811115610b0357610b026144e8565b5b604051908082528060200260200182016040528015610b3c57816020015b610b29613f0c565b815260200190600190039081610b215790505b509050600080600160008673ffffffffffffffffffffffffffffffffffffffff1673ffffffffffffffffffffffffffffffffffffffff16815260200190815260200160002060009054906101000a900460ff1660ff1660ff168152602001908152602001600020600901805480602002602001604051908101604052809291908181526020016000905b82821015610d4a57838290600052602060002090600502016040518060a001604052908160008201548152602001600182015481526020016002820160009054906101000a900473ffffffffffffffffffffffffffffffffffffffff1673ffffffffffffffffffffffffffffffffffffffff1673ffffffffffffffffffffffffffffffffffffffff1681526020016003820160009054906101000a900473ffffffffffffffffffffffffffffffffffffffff1673ffffffffffffffffffffffffffffffffffffffff1673ffffffffffffffffffffffffffffffffffffffff168152602001600482018054610cb990614d4d565b80601f0160208091040260200160405190810160405280929190818152602001828054610ce590614d4d565b8015610d325780601f10610d0757610100808354040283529160200191610d32565b820191906000526020600020905b815481529060010190602001808311610d1557829003601f168201915b50505050508152505081526020019060010190610bc6565b50505050905080915050919050565b8060008111610d9d576040517f08c379a0000000000000000000000000000000000000000000000000000000008152600401610d9490614cca565b60405180910390fd5b60005b600080600160008773ffffffffffffffffffffffffffffffffffffffff1673ffffffffffffffffffffffffffffffffffffffff16815260200190815260200160002060009054906101000a900460ff1660ff1660ff16815260200190815260200160002060050160009054906101000a900460ff1660ff168160ff161015610f90578373ffffffffffffffffffffffffffffffffffffffff16600080600160008873ffffffffffffffffffffffffffffffffffffffff1673ffffffffffffffffffffffffffffffffffffffff16815260200190815260200160002060009054906101000a900460ff1660ff1660ff16815260200190815260200160002060080160008360ff1660ff16815260200190815260200160002060020160009054906101000a900473ffffffffffffffffffffffffffffffffffffffff1673ffffffffffffffffffffffffffffffffffffffff1603610f7d5782600080600160008873ffffffffffffffffffffffffffffffffffffffff1673ffffffffffffffffffffffffffffffffffffffff16815260200190815260200160002060009054906101000a900460ff1660ff1660ff16815260200190815260200160002060080160008360ff1660ff168152602001908152602001600020600401819055505b8080610f8890614c2f565b915050610da0565b50505050565b60606000806000600160008673ffffffffffffffffffffffffffffffffffffffff1673ffffffffffffffffffffffffffffffffffffffff16815260200190815260200160002060009054906101000a900460ff1660ff1660ff16815260200190815260200160002060050160009054906101000a900460ff1660ff1667ffffffffffffffff81111561102b5761102a6144e8565b5b6040519080825280602002602001820160405280156110595781602001602082028036833780820191505090505b50905060005b600080600160008773ffffffffffffffffffffffffffffffffffffffff1673ffffffffffffffffffffffffffffffffffffffff16815260200190815260200160002060009054906101000a900460ff1660ff1660ff16815260200190815260200160002060050160009054906101000a900460ff1660ff168160ff16101561119857600080600160008773ffffffffffffffffffffffffffffffffffffffff1673ffffffffffffffffffffffffffffffffffffffff16815260200190815260200160002060009054906101000a900460ff1660ff1660ff16815260200190815260200160002060080160008260ff1660ff16815260200190815260200160002060040154828260ff168151811061117957611178614bd1565b5b602002602001018181525050808061119090614c2f565b91505061105f565b5080915050919050565b806000806000600160008573ffffffffffffffffffffffffffffffffffffffff1673ffffffffffffffffffffffffffffffffffffffff16815260200190815260200160002060009054906101000a900460ff1660ff1660ff16815260200190815260200160002060050160009054906101000a900460ff1660ff161161125d576040517f08c379a00000000000000000000000000000000000000000000000000000000081526004016112549061506e565b60405180910390fd5b60005b600080600160008673ffffffffffffffffffffffffffffffffffffffff1673ffffffffffffffffffffffffffffffffffffffff16815260200190815260200160002060009054906101000a900460ff1660ff1660ff16815260200190815260200160002060050160009054906101000a900460ff1660ff168160ff16101561155b578273ffffffffffffffffffffffffffffffffffffffff16600080600160008773ffffffffffffffffffffffffffffffffffffffff1673ffffffffffffffffffffffffffffffffffffffff16815260200190815260200160002060009054906101000a900460ff1660ff1660ff16815260200190815260200160002060080160008360ff1660ff16815260200190815260200160002060020160009054906101000a900473ffffffffffffffffffffffffffffffffffffffff1673ffffffffffffffffffffffffffffffffffffffff1603611548576040518060c00160405280604051806020016040528060008152508152602001604051806020016040528060008152508152602001600073ffffffffffffffffffffffffffffffffffffffff168152602001600060ff168152602001600081526020016000815250600080600160008773ffffffffffffffffffffffffffffffffffffffff1673ffffffffffffffffffffffffffffffffffffffff16815260200190815260200160002060009054906101000a900460ff1660ff1660ff16815260200190815260200160002060080160008360ff1660ff16815260200190815260200160002060008201518160000190816114b19190614f2a565b5060208201518160010190816114c79190614f2a565b5060408201518160020160006101000a81548173ffffffffffffffffffffffffffffffffffffffff021916908373ffffffffffffffffffffffffffffffffffffffff16021790555060608201518160020160146101000a81548160ff021916908360ff1602179055506080820151816003015560a082015181600401559050505b808061155390614c2f565b915050611260565b50600080600160008573ffffffffffffffffffffffffffffffffffffffff1673ffffffffffffffffffffffffffffffffffffffff16815260200190815260200160002060009054906101000a900460ff1660ff1660ff168152602001908152602001600020600501600081819054906101000a900460ff16809291906115e09061508e565b91906101000a81548160ff021916908360ff160217905550506000600160008473ffffffffffffffffffffffffffffffffffffffff1673ffffffffffffffffffffffffffffffffffffffff16815260200190815260200160002060006101000a81548160ff021916908360ff1602179055506000806000600160008673ffffffffffffffffffffffffffffffffffffffff1673ffffffffffffffffffffffffffffffffffffffff16815260200190815260200160002060009054906101000a900460ff1660ff1660ff16815260200190815260200160002060050160009054906101000a900460ff1660ff16036119d9576000806000600160008673ffffffffffffffffffffffffffffffffffffffff1673ffffffffffffffffffffffffffffffffffffffff16815260200190815260200160002060009054906101000a900460ff1660ff1660ff16815260200190815260200160002060000160006101000a81548160ff021916908360ff1602179055506000806000600160008673ffffffffffffffffffffffffffffffffffffffff1673ffffffffffffffffffffffffffffffffffffffff16815260200190815260200160002060009054906101000a900460ff1660ff1660ff1681526020019081526020016000206001018190555060405180602001604052806000815250600080600160008673ffffffffffffffffffffffffffffffffffffffff1673ffffffffffffffffffffffffffffffffffffffff16815260200190815260200160002060009054906101000a900460ff1660ff1660ff16815260200190815260200160002060020190816118429190614f2a565b506000806000600160008673ffffffffffffffffffffffffffffffffffffffff1673ffffffffffffffffffffffffffffffffffffffff16815260200190815260200160002060009054906101000a900460ff1660ff1660ff168152602001908152602001600020600301819055506000806000600160008673ffffffffffffffffffffffffffffffffffffffff1673ffffffffffffffffffffffffffffffffffffffff16815260200190815260200160002060009054906101000a900460ff1660ff1660ff16815260200190815260200160002060050160006101000a81548160ff021916908360ff1602179055506000806000600160008673ffffffffffffffffffffffffffffffffffffffff1673ffffffffffffffffffffffffffffffffffffffff16815260200190815260200160002060009054906101000a900460ff1660ff1660ff16815260200190815260200160002060050160016101000a81548173ffffffffffffffffffffffffffffffffffffffff021916908373ffffffffffffffffffffffffffffffffffffffff1602179055505b5050565b8060008111611a21576040517f08c379a0000000000000000000000000000000000000000000000000000000008152600401611a1890614cca565b60405180910390fd5b8180471015611a65576040517f08c379a0000000000000000000000000000000000000000000000000000000008152600401611a5c90615129565b60405180910390fd5b8280600080600160003373ffffffffffffffffffffffffffffffffffffffff1673ffffffffffffffffffffffffffffffffffffffff16815260200190815260200160002060009054906101000a900460ff1660ff1660ff168152602001908152602001600020600401541015611b10576040517f08c379a0000000000000000000000000000000000000000000000000000000008152600401611b07906151bb565b60405180910390fd5b60003373ffffffffffffffffffffffffffffffffffffffff1685604051611b369061520c565b60006040518083038185875af1925050503d8060008114611b73576040519150601f19603f3d011682016040523d82523d6000602084013e611b78565b606091505b505090508015611dd95784600080600160003373ffffffffffffffffffffffffffffffffffffffff1673ffffffffffffffffffffffffffffffffffffffff16815260200190815260200160002060009054906101000a900460ff1660ff1660ff1681526020019081526020016000206004016000828254611bf99190615221565b9250508190555060006040518060a001604052804281526020018781526020013073ffffffffffffffffffffffffffffffffffffffff1681526020013373ffffffffffffffffffffffffffffffffffffffff1681526020016040518060400160405280601481526020017f776974686472617757616c6c6574546f557365720000000000000000000000008152508152509050600080600160003373ffffffffffffffffffffffffffffffffffffffff1673ffffffffffffffffffffffffffffffffffffffff16815260200190815260200160002060009054906101000a900460ff1660ff1660ff168152602001908152602001600020600901819080600181540180825580915050600190039060005260206000209060050201600090919091909150600082015181600001556020820151816001015560408201518160020160006101000a81548173ffffffffffffffffffffffffffffffffffffffff021916908373ffffffffffffffffffffffffffffffffffffffff16021790555060608201518160030160006101000a81548173ffffffffffffffffffffffffffffffffffffffff021916908373ffffffffffffffffffffffffffffffffffffffff1602179055506080820151816004019081611dd49190614f2a565b505050505b5050505050565b60016020528060005260406000206000915054906101000a900460ff1681565b6000600160008373ffffffffffffffffffffffffffffffffffffffff1673ffffffffffffffffffffffffffffffffffffffff16815260200190815260200160002060009054906101000a900460ff169050919050565b8060008111611e9a576040517f08c379a0000000000000000000000000000000000000000000000000000000008152600401611e9190614cca565b60405180910390fd5b8180471015611ede576040517f08c379a0000000000000000000000000000000000000000000000000000000008152600401611ed590615129565b60405180910390fd5b8260005b600080600160003373ffffffffffffffffffffffffffffffffffffffff1673ffffffffffffffffffffffffffffffffffffffff16815260200190815260200160002060009054906101000a900460ff1660ff1660ff16815260200190815260200160002060050160009054906101000a900460ff1660ff168160ff16101561211057600080600160003373ffffffffffffffffffffffffffffffffffffffff1673ffffffffffffffffffffffffffffffffffffffff16815260200190815260200160002060009054906101000a900460ff1660ff1660ff16815260200190815260200160002060080160008260ff1660ff16815260200190815260200160002060020160009054906101000a900473ffffffffffffffffffffffffffffffffffffffff1673ffffffffffffffffffffffffffffffffffffffff163373ffffffffffffffffffffffffffffffffffffffff16036120fd5781600080600160003373ffffffffffffffffffffffffffffffffffffffff1673ffffffffffffffffffffffffffffffffffffffff16815260200190815260200160002060009054906101000a900460ff1660ff1660ff16815260200190815260200160002060080160008360ff1660ff1681526020019081526020016000206003015410156120fc576040517f08c379a00000000000000000000000000000000000000000000000000000000081526004016120f3906152a1565b60405180910390fd5b5b808061210890614c2f565b915050611ee2565b508380600080600160003373ffffffffffffffffffffffffffffffffffffffff1673ffffffffffffffffffffffffffffffffffffffff16815260200190815260200160002060009054906101000a900460ff1660ff1660ff1681526020019081526020016000206003015410156121bc576040517f08c379a00000000000000000000000000000000000000000000000000000000081526004016121b3906151bb565b60405180910390fd5b60003373ffffffffffffffffffffffffffffffffffffffff16866040516121e29061520c565b60006040518083038185875af1925050503d806000811461221f576040519150601f19603f3d011682016040523d82523d6000602084013e612224565b606091505b5050905080612268576040517f08c379a000000000000000000000000000000000000000000000000000000000815260040161225f90615333565b60405180910390fd5b80156126cb5785600080600160003373ffffffffffffffffffffffffffffffffffffffff1673ffffffffffffffffffffffffffffffffffffffff16815260200190815260200160002060009054906101000a900460ff1660ff1660ff16815260200190815260200160002060030160008282546122e59190615221565b9250508190555060005b600080600160003373ffffffffffffffffffffffffffffffffffffffff1673ffffffffffffffffffffffffffffffffffffffff16815260200190815260200160002060009054906101000a900460ff1660ff1660ff16815260200190815260200160002060050160009054906101000a900460ff1660ff168160ff1610156124f1573373ffffffffffffffffffffffffffffffffffffffff16600080600160003373ffffffffffffffffffffffffffffffffffffffff1673ffffffffffffffffffffffffffffffffffffffff16815260200190815260200160002060009054906101000a900460ff1660ff1660ff16815260200190815260200160002060080160008360ff1660ff16815260200190815260200160002060020160009054906101000a900473ffffffffffffffffffffffffffffffffffffffff1673ffffffffffffffffffffffffffffffffffffffff16036124de5786600080600160003373ffffffffffffffffffffffffffffffffffffffff1673ffffffffffffffffffffffffffffffffffffffff16815260200190815260200160002060009054906101000a900460ff1660ff1660ff16815260200190815260200160002060080160008360ff1660ff16815260200190815260200160002060030160008282546124d69190615221565b925050819055505b80806124e990614c2f565b9150506122ef565b5060006040518060a001604052804281526020018881526020013373ffffffffffffffffffffffffffffffffffffffff1681526020013373ffffffffffffffffffffffffffffffffffffffff1681526020016040518060400160405280601281526020017f776974686472617755736572546f5573657200000000000000000000000000008152508152509050600080600160003373ffffffffffffffffffffffffffffffffffffffff1673ffffffffffffffffffffffffffffffffffffffff16815260200190815260200160002060009054906101000a900460ff1660ff1660ff168152602001908152602001600020600901819080600181540180825580915050600190039060005260206000209060050201600090919091909150600082015181600001556020820151816001015560408201518160020160006101000a81548173ffffffffffffffffffffffffffffffffffffffff021916908373ffffffffffffffffffffffffffffffffffffffff16021790555060608201518160030160006101000a81548173ffffffffffffffffffffffffffffffffffffffff021916908373ffffffffffffffffffffffffffffffffffffffff16021790555060808201518160040190816126c69190614f2a565b505050505b505050505050565b6000806000600160008573ffffffffffffffffffffffffffffffffffffffff1673ffffffffffffffffffffffffffffffffffffffff16815260200190815260200160002060009054906101000a900460ff1660ff1660ff16815260200190815260200160002060050160019054906101000a900473ffffffffffffffffffffffffffffffffffffffff169050919050565b60606000806000600160008673ffffffffffffffffffffffffffffffffffffffff1673ffffffffffffffffffffffffffffffffffffffff16815260200190815260200160002060009054906101000a900460ff1660ff1660ff16815260200190815260200160002060050160009054906101000a900460ff1660ff1667ffffffffffffffff8111156127f9576127f86144e8565b5b6040519080825280602002602001820160405280156128275781602001602082028036833780820191505090505b50905060005b600080600160008773ffffffffffffffffffffffffffffffffffffffff1673ffffffffffffffffffffffffffffffffffffffff16815260200190815260200160002060009054906101000a900460ff1660ff1660ff16815260200190815260200160002060050160009054906101000a900460ff1660ff168160ff1610156129b457600080600160008773ffffffffffffffffffffffffffffffffffffffff1673ffffffffffffffffffffffffffffffffffffffff16815260200190815260200160002060009054906101000a900460ff1660ff1660ff16815260200190815260200160002060080160008260ff1660ff16815260200190815260200160002060020160009054906101000a900473ffffffffffffffffffffffffffffffffffffffff16828260ff168151811061296757612966614bd1565b5b602002602001019073ffffffffffffffffffffffffffffffffffffffff16908173ffffffffffffffffffffffffffffffffffffffff168152505080806129ac90614c2f565b91505061282d565b5080915050919050565b3460008111612a02576040517f08c379a00000000000000000000000000000000000000000000000000000000081526004016129f990614cca565b60405180910390fd5b84845160008111612a48576040517f08c379a0000000000000000000000000000000000000000000000000000000008152600401612a3f9061539f565b60405180910390fd5b60005b81811015612bd357600060016000858481518110612a6c57612a6b614bd1565b5b602002602001015173ffffffffffffffffffffffffffffffffffffffff1673ffffffffffffffffffffffffffffffffffffffff16815260200190815260200160002060009054906101000a900460ff1660ff1614612aff576040517f08c379a0000000000000000000000000000000000000000000000000000000008152600401612af690615431565b60405180910390fd5b60005b81811015612bbf57838181518110612b1d57612b1c614bd1565b5b602002602001015173ffffffffffffffffffffffffffffffffffffffff16848381518110612b4e57612b4d614bd1565b5b602002602001015173ffffffffffffffffffffffffffffffffffffffff1603612bac576040517f08c379a0000000000000000000000000000000000000000000000000000000008152600401612ba3906154c3565b60405180910390fd5b8080612bb7906154e3565b915050612b02565b508080612bcb906154e3565b915050612a4b565b50876000815103612c19576040517f08c379a0000000000000000000000000000000000000000000000000000000008152600401612c1090615577565b60405180910390fd5b868680518251148015612c2e57506000825114155b612c6d576040517f08c379a0000000000000000000000000000000000000000000000000000000008152600401612c6490615609565b60405180910390fd5b60005b8251811015612d13576000838281518110612c8e57612c8d614bd1565b5b60200260200101515114158015612cc157506000828281518110612cb557612cb4614bd1565b5b60200260200101515114155b612d00576040517f08c379a0000000000000000000000000000000000000000000000000000000008152600401612cf790615609565b60405180910390fd5b8080612d0b906154e3565b915050612c70565b5086888051825114612d5a576040517f08c379a0000000000000000000000000000000000000000000000000000000008152600401612d519061569b565b60405180910390fd5b60005b8251811015612dd7576000838281518110612d7b57612d7a614bd1565b5b60200260200101511015612dc4576040517f08c379a0000000000000000000000000000000000000000000000000000000008152600401612dbb9061572d565b60405180910390fd5b8080612dcf906154e3565b915050612d5d565b506000806000600a600260009054906101000a900460ff16612df9919061574d565b60ff1660ff1681526020019081526020016000209050600a600260009054906101000a900460ff16612e2b919061574d565b8160000160006101000a81548160ff021916908360ff1602179055504281600101819055508d816002019081612e619190614f2a565b503481600401819055508c600081518110612e7f57612e7e614bd1565b5b60200260200101518160050160016101000a81548173ffffffffffffffffffffffffffffffffffffffff021916908373ffffffffffffffffffffffffffffffffffffffff1602179055508b600081518110612edd57612edc614bd1565b5b6020026020010151816006019081612ef59190614f2a565b508a600081518110612f0a57612f09614bd1565b5b6020026020010151816007019081612f229190614f2a565b5060005b8d518160ff1610156131525760008260080160008360ff1660ff16815260200190815260200160002090508d8260ff1681518110612f6757612f66614bd1565b5b6020026020010151816000019081612f7f9190614f2a565b508c8260ff1681518110612f9657612f95614bd1565b5b6020026020010151816001019081612fae9190614f2a565b508e8260ff1681518110612fc557612fc4614bd1565b5b60200260200101518160020160006101000a81548173ffffffffffffffffffffffffffffffffffffffff021916908373ffffffffffffffffffffffffffffffffffffffff160217905550600a600260009054906101000a900460ff1661302b919061574d565b8160020160146101000a81548160ff021916908360ff160217905550600081600301819055508b8260ff168151811061306757613066614bd1565b5b6020026020010151816004018190555082600501600081819054906101000a900460ff168092919061309890614c2f565b91906101000a81548160ff021916908360ff160217905550508060020160149054906101000a900460ff16600160008360020160009054906101000a900473ffffffffffffffffffffffffffffffffffffffff1673ffffffffffffffffffffffffffffffffffffffff1673ffffffffffffffffffffffffffffffffffffffff16815260200190815260200160002060006101000a81548160ff021916908360ff16021790555050808061314a90614c2f565b915050612f26565b506002600081819054906101000a900460ff168092919061317290614c2f565b91906101000a81548160ff021916908360ff160217905550505050505050505050505050505050565b6060600080600160008573ffffffffffffffffffffffffffffffffffffffff1673ffffffffffffffffffffffffffffffffffffffff16815260200190815260200160002060009054906101000a900460ff1660ff1660ff168152602001908152602001600020600201805461320f90614d4d565b80601f016020809104026020016040519081016040528092919081815260200182805461323b90614d4d565b80156132885780601f1061325d57610100808354040283529160200191613288565b820191906000526020600020905b81548152906001019060200180831161326b57829003601f168201915b50505050509050919050565b60606000806000600160008673ffffffffffffffffffffffffffffffffffffffff1673ffffffffffffffffffffffffffffffffffffffff16815260200190815260200160002060009054906101000a900460ff1660ff1660ff16815260200190815260200160002060050160009054906101000a900460ff1660ff1667ffffffffffffffff811115613329576133286144e8565b5b60405190808252806020026020018201604052801561335c57816020015b60608152602001906001900390816133475790505b50905060005b600080600160008773ffffffffffffffffffffffffffffffffffffffff1673ffffffffffffffffffffffffffffffffffffffff16815260200190815260200160002060009054906101000a900460ff1660ff1660ff16815260200190815260200160002060050160009054906101000a900460ff1660ff168160ff16101561352257600080600160008773ffffffffffffffffffffffffffffffffffffffff1673ffffffffffffffffffffffffffffffffffffffff16815260200190815260200160002060009054906101000a900460ff1660ff1660ff16815260200190815260200160002060080160008260ff1660ff168152602001908152602001600020600001805461347090614d4d565b80601f016020809104026020016040519081016040528092919081815260200182805461349c90614d4d565b80156134e95780601f106134be576101008083540402835291602001916134e9565b820191906000526020600020905b8154815290600101906020018083116134cc57829003601f168201915b5050505050828260ff168151811061350457613503614bd1565b5b6020026020010181905250808061351a90614c2f565b915050613362565b5080915050919050565b60606000806000600160008673ffffffffffffffffffffffffffffffffffffffff1673ffffffffffffffffffffffffffffffffffffffff16815260200190815260200160002060009054906101000a900460ff1660ff1660ff16815260200190815260200160002060050160009054906101000a900460ff1660ff1667ffffffffffffffff8111156135c1576135c06144e8565b5b6040519080825280602002602001820160405280156135f457816020015b60608152602001906001900390816135df5790505b50905060005b600080600160008773ffffffffffffffffffffffffffffffffffffffff1673ffffffffffffffffffffffffffffffffffffffff16815260200190815260200160002060009054906101000a900460ff1660ff1660ff16815260200190815260200160002060050160009054906101000a900460ff1660ff168160ff1610156137ba57600080600160008773ffffffffffffffffffffffffffffffffffffffff1673ffffffffffffffffffffffffffffffffffffffff16815260200190815260200160002060009054906101000a900460ff1660ff1660ff16815260200190815260200160002060080160008260ff1660ff168152602001908152602001600020600101805461370890614d4d565b80601f016020809104026020016040519081016040528092919081815260200182805461373490614d4d565b80156137815780601f1061375657610100808354040283529160200191613781565b820191906000526020600020905b81548152906001019060200180831161376457829003601f168201915b5050505050828260ff168151811061379c5761379b614bd1565b5b602002602001018190525080806137b290614c2f565b9150506135fa565b5080915050919050565b60006020528060005260406000206000915090508060000160009054906101000a900460ff169080600101549080600201805461380090614d4d565b80601f016020809104026020016040519081016040528092919081815260200182805461382c90614d4d565b80156138795780601f1061384e57610100808354040283529160200191613879565b820191906000526020600020905b81548152906001019060200180831161385c57829003601f168201915b5050505050908060030154908060040154908060050160009054906101000a900460ff16908060050160019054906101000a900473ffffffffffffffffffffffffffffffffffffffff16908060060180546138d390614d4d565b80601f01602080910402602001604051908101604052809291908181526020018280546138ff90614d4d565b801561394c5780601f106139215761010080835404028352916020019161394c565b820191906000526020600020905b81548152906001019060200180831161392f57829003601f168201915b50505050509080600701805461396190614d4d565b80601f016020809104026020016040519081016040528092919081815260200182805461398d90614d4d565b80156139da5780601f106139af576101008083540402835291602001916139da565b820191906000526020600020905b8154815290600101906020018083116139bd57829003601f168201915b5050505050905089565b6000806000600160008573ffffffffffffffffffffffffffffffffffffffff1673ffffffffffffffffffffffffffffffffffffffff16815260200190815260200160002060009054906101000a900460ff1660ff1660ff168152602001908152602001600020600301549050919050565b600260009054906101000a900460ff1681565b3460008111613aac576040517f08c379a0000000000000000000000000000000000000000000000000000000008152600401613aa390614cca565b60405180910390fd5b34600080600160008673ffffffffffffffffffffffffffffffffffffffff1673ffffffffffffffffffffffffffffffffffffffff16815260200190815260200160002060009054906101000a900460ff1660ff1660ff1681526020019081526020016000206003016000828254613b239190614cea565b9250508190555060005b600080600160008673ffffffffffffffffffffffffffffffffffffffff1673ffffffffffffffffffffffffffffffffffffffff16815260200190815260200160002060009054906101000a900460ff1660ff1660ff16815260200190815260200160002060050160009054906101000a900460ff1660ff168160ff161015613d2f578273ffffffffffffffffffffffffffffffffffffffff16600080600160008773ffffffffffffffffffffffffffffffffffffffff1673ffffffffffffffffffffffffffffffffffffffff16815260200190815260200160002060009054906101000a900460ff1660ff1660ff16815260200190815260200160002060080160008360ff1660ff16815260200190815260200160002060020160009054906101000a900473ffffffffffffffffffffffffffffffffffffffff1673ffffffffffffffffffffffffffffffffffffffff1603613d1c5734600080600160008773ffffffffffffffffffffffffffffffffffffffff1673ffffffffffffffffffffffffffffffffffffffff16815260200190815260200160002060009054906101000a900460ff1660ff1660ff16815260200190815260200160002060080160008360ff1660ff1681526020019081526020016000206003016000828254613d149190614cea565b925050819055505b8080613d2790614c2f565b915050613b2d565b5060006040518060a001604052804281526020013481526020013373ffffffffffffffffffffffffffffffffffffffff1681526020018473ffffffffffffffffffffffffffffffffffffffff1681526020016040518060400160405280600e81526020017f73656e6455736572546f557365720000000000000000000000000000000000008152508152509050600080600160008673ffffffffffffffffffffffffffffffffffffffff1673ffffffffffffffffffffffffffffffffffffffff16815260200190815260200160002060009054906101000a900460ff1660ff1660ff168152602001908152602001600020600901819080600181540180825580915050600190039060005260206000209060050201600090919091909150600082015181600001556020820151816001015560408201518160020160006101000a81548173ffffffffffffffffffffffffffffffffffffffff021916908373ffffffffffffffffffffffffffffffffffffffff16021790555060608201518160030160006101000a81548173ffffffffffffffffffffffffffffffffffffffff021916908373ffffffffffffffffffffffffffffffffffffffff1602179055506080820151816004019081613f049190614f2a565b505050505050565b6040518060a001604052806000815260200160008152602001600073ffffffffffffffffffffffffffffffffffffffff168152602001600073ffffffffffffffffffffffffffffffffffffffff168152602001606081525090565b6000604051905090565b600080fd5b600080fd5b600073ffffffffffffffffffffffffffffffffffffffff82169050919050565b6000613fa682613f7b565b9050919050565b613fb681613f9b565b8114613fc157600080fd5b50565b600081359050613fd381613fad565b92915050565b600060208284031215613fef57613fee613f71565b5b6000613ffd84828501613fc4565b91505092915050565b6000819050919050565b61401981614006565b82525050565b60006020820190506140346000830184614010565b92915050565b600081519050919050565b600082825260208201905092915050565b6000819050602082019050919050565b61406f81614006565b82525050565b60006140818383614066565b60208301905092915050565b6000602082019050919050565b60006140a58261403a565b6140af8185614045565b93506140ba83614056565b8060005b838110156140eb5781516140d28882614075565b97506140dd8361408d565b9250506001810190506140be565b5085935050505092915050565b60006020820190508181036000830152614112818461409a565b905092915050565b600081519050919050565b600082825260208201905092915050565b6000819050602082019050919050565b61414f81613f9b565b82525050565b600081519050919050565b600082825260208201905092915050565b60005b8381101561418f578082015181840152602081019050614174565b60008484015250505050565b6000601f19601f8301169050919050565b60006141b782614155565b6141c18185614160565b93506141d1818560208601614171565b6141da8161419b565b840191505092915050565b600060a0830160008301516141fd6000860182614066565b5060208301516142106020860182614066565b5060408301516142236040860182614146565b5060608301516142366060860182614146565b506080830151848203608086015261424e82826141ac565b9150508091505092915050565b600061426783836141e5565b905092915050565b6000602082019050919050565b60006142878261411a565b6142918185614125565b9350836020820285016142a385614136565b8060005b858110156142df57848403895281516142c0858261425b565b94506142cb8361426f565b925060208a019950506001810190506142a7565b50829750879550505050505092915050565b6000602082019050818103600083015261430b818461427c565b905092915050565b61431c81614006565b811461432757600080fd5b50565b60008135905061433981614313565b92915050565b6000806040838503121561435657614355613f71565b5b600061436485828601613fc4565b92505060206143758582860161432a565b9150509250929050565b60006020828403121561439557614394613f71565b5b60006143a38482850161432a565b91505092915050565b600060ff82169050919050565b6143c2816143ac565b82525050565b60006020820190506143dd60008301846143b9565b92915050565b6143ec81613f9b565b82525050565b600060208201905061440760008301846143e3565b92915050565b600081519050919050565b600082825260208201905092915050565b6000819050602082019050919050565b60006144458383614146565b60208301905092915050565b6000602082019050919050565b60006144698261440d565b6144738185614418565b935061447e83614429565b8060005b838110156144af5781516144968882614439565b97506144a183614451565b925050600181019050614482565b5085935050505092915050565b600060208201905081810360008301526144d6818461445e565b905092915050565b600080fd5b600080fd5b7f4e487b7100000000000000000000000000000000000000000000000000000000600052604160045260246000fd5b6145208261419b565b810181811067ffffffffffffffff8211171561453f5761453e6144e8565b5b80604052505050565b6000614552613f67565b905061455e8282614517565b919050565b600067ffffffffffffffff82111561457e5761457d6144e8565b5b6145878261419b565b9050602081019050919050565b82818337600083830152505050565b60006145b66145b184614563565b614548565b9050828152602081018484840111156145d2576145d16144e3565b5b6145dd848285614594565b509392505050565b600082601f8301126145fa576145f96144de565b5b813561460a8482602086016145a3565b91505092915050565b600067ffffffffffffffff82111561462e5761462d6144e8565b5b602082029050602081019050919050565b600080fd5b600061465761465284614613565b614548565b9050808382526020820190506020840283018581111561467a5761467961463f565b5b835b818110156146a3578061468f8882613fc4565b84526020840193505060208101905061467c565b5050509392505050565b600082601f8301126146c2576146c16144de565b5b81356146d2848260208601614644565b91505092915050565b600067ffffffffffffffff8211156146f6576146f56144e8565b5b602082029050602081019050919050565b600061471a614715846146db565b614548565b9050808382526020820190506020840283018581111561473d5761473c61463f565b5b835b8181101561478457803567ffffffffffffffff811115614762576147616144de565b5b80860161476f89826145e5565b8552602085019450505060208101905061473f565b5050509392505050565b600082601f8301126147a3576147a26144de565b5b81356147b3848260208601614707565b91505092915050565b600067ffffffffffffffff8211156147d7576147d66144e8565b5b602082029050602081019050919050565b60006147fb6147f6846147bc565b614548565b9050808382526020820190506020840283018581111561481e5761481d61463f565b5b835b818110156148475780614833888261432a565b845260208401935050602081019050614820565b5050509392505050565b600082601f830112614866576148656144de565b5b81356148768482602086016147e8565b91505092915050565b600080600080600060a0868803121561489b5761489a613f71565b5b600086013567ffffffffffffffff8111156148b9576148b8613f76565b5b6148c5888289016145e5565b955050602086013567ffffffffffffffff8111156148e6576148e5613f76565b5b6148f2888289016146ad565b945050604086013567ffffffffffffffff81111561491357614912613f76565b5b61491f8882890161478e565b935050606086013567ffffffffffffffff8111156149405761493f613f76565b5b61494c8882890161478e565b925050608086013567ffffffffffffffff81111561496d5761496c613f76565b5b61497988828901614851565b9150509295509295909350565b600082825260208201905092915050565b60006149a282614155565b6149ac8185614986565b93506149bc818560208601614171565b6149c58161419b565b840191505092915050565b600060208201905081810360008301526149ea8184614997565b905092915050565b600081519050919050565b600082825260208201905092915050565b6000819050602082019050919050565b6000614a2a83836141ac565b905092915050565b6000602082019050919050565b6000614a4a826149f2565b614a5481856149fd565b935083602082028501614a6685614a0e565b8060005b85811015614aa25784840389528151614a838582614a1e565b9450614a8e83614a32565b925060208a01995050600181019050614a6a565b50829750879550505050505092915050565b60006020820190508181036000830152614ace8184614a3f565b905092915050565b614adf816143ac565b8114614aea57600080fd5b50565b600081359050614afc81614ad6565b92915050565b600060208284031215614b1857614b17613f71565b5b6000614b2684828501614aed565b91505092915050565b600061012082019050614b45600083018c6143b9565b614b52602083018b614010565b8181036040830152614b64818a614997565b9050614b736060830189614010565b614b806080830188614010565b614b8d60a08301876143b9565b614b9a60c08301866143e3565b81810360e0830152614bac8185614997565b9050818103610100830152614bc18184614997565b90509a9950505050505050505050565b7f4e487b7100000000000000000000000000000000000000000000000000000000600052603260045260246000fd5b7f4e487b7100000000000000000000000000000000000000000000000000000000600052601160045260246000fd5b6000614c3a826143ac565b915060ff8203614c4d57614c4c614c00565b5b600182019050919050565b7f54686520616d6f756e74206e6565647320746f2062652068696768657220746860008201527f616e203000000000000000000000000000000000000000000000000000000000602082015250565b6000614cb4602483614986565b9150614cbf82614c58565b604082019050919050565b60006020820190508181036000830152614ce381614ca7565b9050919050565b6000614cf582614006565b9150614d0083614006565b9250828201905080821115614d1857614d17614c00565b5b92915050565b7f4e487b7100000000000000000000000000000000000000000000000000000000600052602260045260246000fd5b60006002820490506001821680614d6557607f821691505b602082108103614d7857614d77614d1e565b5b50919050565b60008190508160005260206000209050919050565b60006020601f8301049050919050565b600082821b905092915050565b600060088302614de07fffffffffffffffffffffffffffffffffffffffffffffffffffffffffffffffff82614da3565b614dea8683614da3565b95508019841693508086168417925050509392505050565b6000819050919050565b6000614e27614e22614e1d84614006565b614e02565b614006565b9050919050565b6000819050919050565b614e4183614e0c565b614e55614e4d82614e2e565b848454614db0565b825550505050565b600090565b614e6a614e5d565b614e75818484614e38565b505050565b5b81811015614e9957614e8e600082614e62565b600181019050614e7b565b5050565b601f821115614ede57614eaf81614d7e565b614eb884614d93565b81016020851015614ec7578190505b614edb614ed385614d93565b830182614e7a565b50505b505050565b600082821c905092915050565b6000614f0160001984600802614ee3565b1980831691505092915050565b6000614f1a8383614ef0565b9150826002028217905092915050565b614f3382614155565b67ffffffffffffffff811115614f4c57614f4b6144e8565b5b614f568254614d4d565b614f61828285614e9d565b600060209050601f831160018114614f945760008415614f82578287015190505b614f8c8582614f0e565b865550614ff4565b601f198416614fa286614d7e565b60005b82811015614fca57848901518255600182019150602085019450602081019050614fa5565b86831015614fe75784890151614fe3601f891682614ef0565b8355505b6001600288020188555050505b505050505050565b7f5468652077616c6c6574206e6565647320746f2068617665206174206c65617360008201527f7420312075736572000000000000000000000000000000000000000000000000602082015250565b6000615058602883614986565b915061506382614ffc565b604082019050919050565b600060208201905081810360008301526150878161504b565b9050919050565b6000615099826143ac565b9150600082036150ac576150ab614c00565b5b600182039050919050565b7f496e73756666696369656e742066756e647320696e2074686520636f6e74726160008201527f6374000000000000000000000000000000000000000000000000000000000000602082015250565b6000615113602283614986565b915061511e826150b7565b604082019050919050565b6000602082019050818103600083015261514281615106565b9050919050565b7f5468652077616c6c657420646f6573206e6f74206861766520656e6f7567682060008201527f66756e6473000000000000000000000000000000000000000000000000000000602082015250565b60006151a5602583614986565b91506151b082615149565b604082019050919050565b600060208201905081810360008301526151d481615198565b9050919050565b600081905092915050565b50565b60006151f66000836151db565b9150615201826151e6565b600082019050919050565b6000615217826151e9565b9150819050919050565b600061522c82614006565b915061523783614006565b925082820390508181111561524f5761524e614c00565b5b92915050565b7f596f7520646f206e6f74206861766520656e6f7567682066756e647300000000600082015250565b600061528b601c83614986565b915061529682615255565b602082019050919050565b600060208201905081810360008301526152ba8161527e565b9050919050565b7f4661696c656420746f2073656e6420457468657220746f20746865207265636960008201527f7069656e74206164647265737300000000000000000000000000000000000000602082015250565b600061531d602d83614986565b9150615328826152c1565b604082019050919050565b6000602082019050818103600083015261534c81615310565b9050919050565b7f412077616c6c6574206e65656473206174206c65617374206f6e652075736572600082015250565b6000615389602083614986565b915061539482615353565b602082019050919050565b600060208201905081810360008301526153b88161537c565b9050919050565b7f4f6e65206f72206d6f7265207573657273206861766520616c7265616479206a60008201527f6f696e656420616e6f746865722077616c6c6574000000000000000000000000602082015250565b600061541b603483614986565b9150615426826153bf565b604082019050919050565b6000602082019050818103600083015261544a8161540e565b9050919050565b7f5468652077616c6c65742063616e206e6f742068617665206475706c6963617460008201527f6520616464726573736573000000000000000000000000000000000000000000602082015250565b60006154ad602b83614986565b91506154b882615451565b604082019050919050565b600060208201905081810360008301526154dc816154a0565b9050919050565b60006154ee82614006565b91507fffffffffffffffffffffffffffffffffffffffffffffffffffffffffffffffff82036155205761551f614c00565b5b600182019050919050565b7f5468652077616c6c6574206e656564732061206e616d65000000000000000000600082015250565b6000615561601783614986565b915061556c8261552b565b602082019050919050565b6000602082019050818103600083015261559081615554565b9050919050565b7f546865207573657273206e65656420746f206861766520626f7468206669727360008201527f7420616e64206c617374206e616d657300000000000000000000000000000000602082015250565b60006155f3603083614986565b91506155fe82615597565b604082019050919050565b60006020820190508181036000830152615622816155e6565b9050919050565b7f45766572792075736572206e6565647320746f20686176652061206d6f6e746860008201527f6c79207769746864726177616c206c696d697420736574207570000000000000602082015250565b6000615685603a83614986565b915061569082615629565b604082019050919050565b600060208201905081810360008301526156b481615678565b9050919050565b7f546865207769746864726177616c206c696d6974732063616e206e6f7420626560008201527f206e656761746976650000000000000000000000000000000000000000000000602082015250565b6000615717602983614986565b9150615722826156bb565b604082019050919050565b600060208201905081810360008301526157468161570a565b9050919050565b6000615758826143ac565b9150615763836143ac565b9250828201905060ff81111561577c5761577b614c00565b5b9291505056fea26469706673582212204072764d3f7f65274952e226ada10512d9feeb1094c7ecbabf77fe5e118bcefe64736f6c63430008110033",
  "linkReferences": {},
  "deployedLinkReferences": {}
}