{
  "_format": "hh-sol-artifact-1",
  "contractName": "TheVault",
  "sourceName": "contracts/TheVault.sol",
  "abi": [
    {
      "inputs": [
        {
          "internalType": "address",
          "name": "memberAddress",
          "type": "address"
        }
      ],
      "name": "getWalletData",
      "outputs": [
        {
          "internalType": "uint8",
          "name": "",
          "type": "uint8"
        },
        {
          "internalType": "address",
          "name": "",
          "type": "address"
        },
        {
          "internalType": "uint256",
          "name": "",
          "type": "uint256"
        },
        {
          "internalType": "address[]",
          "name": "",
          "type": "address[]"
        },
        {
          "internalType": "string[]",
          "name": "",
          "type": "string[]"
        },
        {
          "internalType": "string[]",
          "name": "",
          "type": "string[]"
        }
      ],
      "stateMutability": "view",
      "type": "function"
    },
    {
      "inputs": [
        {
          "internalType": "string",
          "name": "walletName",
          "type": "string"
        },
        {
          "internalType": "address[]",
          "name": "membersAddresses",
          "type": "address[]"
        },
        {
          "internalType": "string[]",
          "name": "membersFirstNames",
          "type": "string[]"
        },
        {
          "internalType": "string[]",
          "name": "membersLastNames",
          "type": "string[]"
        }
      ],
      "name": "initializeWallet",
      "outputs": [],
      "stateMutability": "payable",
      "type": "function"
    },
    {
      "inputs": [
        {
          "internalType": "address",
          "name": "memberAddress",
          "type": "address"
        }
      ],
      "name": "leaveWallet",
      "outputs": [],
      "stateMutability": "nonpayable",
      "type": "function"
    },
    {
      "inputs": [
        {
          "internalType": "address",
          "name": "",
          "type": "address"
        }
      ],
      "name": "memberWalletId",
      "outputs": [
        {
          "internalType": "uint8",
          "name": "",
          "type": "uint8"
        }
      ],
      "stateMutability": "view",
      "type": "function"
    },
    {
      "inputs": [
        {
          "internalType": "uint8",
          "name": "",
          "type": "uint8"
        }
      ],
      "name": "wallet",
      "outputs": [
        {
          "internalType": "uint8",
          "name": "id",
          "type": "uint8"
        },
        {
          "internalType": "uint256",
          "name": "creationDate",
          "type": "uint256"
        },
        {
          "internalType": "string",
          "name": "name",
          "type": "string"
        },
        {
          "internalType": "uint256",
          "name": "balance",
          "type": "uint256"
        },
        {
          "internalType": "uint8",
          "name": "memberCounter",
          "type": "uint8"
        },
        {
          "internalType": "address",
          "name": "ownerAddress",
          "type": "address"
        },
        {
          "internalType": "string",
          "name": "ownerFirstName",
          "type": "string"
        },
        {
          "internalType": "string",
          "name": "ownerLastName",
          "type": "string"
        }
      ],
      "stateMutability": "view",
      "type": "function"
    },
    {
      "inputs": [],
      "name": "walletCounter",
      "outputs": [
        {
          "internalType": "uint8",
          "name": "",
          "type": "uint8"
        }
      ],
      "stateMutability": "view",
      "type": "function"
    }
  ],
  "bytecode": "0x608060405234801561001057600080fd5b50612a61806100206000396000f3fe6080604052600436106100555760003560e01c8063265c42141461005a578063857923c414610083578063a6fd4158146100c5578063e428c289146100e1578063f64d706014610125578063fbca237314610150575b600080fd5b34801561006657600080fd5b50610081600480360381019061007c9190611b03565b61018d565b005b34801561008f57600080fd5b506100aa60048036038101906100a59190611b03565b6109e2565b6040516100bc96959493929190611d84565b60405180910390f35b6100df60048036038101906100da91906120d8565b61117b565b005b3480156100ed57600080fd5b50610108600480360381019061010391906121db565b611844565b60405161011c989796959493929190612252565b60405180910390f35b34801561013157600080fd5b5061013a611a5e565b60405161014791906122e5565b60405180910390f35b34801561015c57600080fd5b5061017760048036038101906101729190611b03565b611a71565b60405161018491906122e5565b60405180910390f35b806000806000600160008573ffffffffffffffffffffffffffffffffffffffff1673ffffffffffffffffffffffffffffffffffffffff16815260200190815260200160002060009054906101000a900460ff1660ff1660ff16815260200190815260200160002060040160009054906101000a900460ff1660ff1611610248576040517f08c379a000000000000000000000000000000000000000000000000000000000815260040161023f90612372565b60405180910390fd5b60005b600080600160008673ffffffffffffffffffffffffffffffffffffffff1673ffffffffffffffffffffffffffffffffffffffff16815260200190815260200160002060009054906101000a900460ff1660ff1660ff16815260200190815260200160002060040160009054906101000a900460ff1660ff168160ff161015610560578273ffffffffffffffffffffffffffffffffffffffff16600080600160008773ffffffffffffffffffffffffffffffffffffffff1673ffffffffffffffffffffffffffffffffffffffff16815260200190815260200160002060009054906101000a900460ff1660ff1660ff16815260200190815260200160002060070160008360ff1660ff16815260200190815260200160002060020160009054906101000a900473ffffffffffffffffffffffffffffffffffffffff1673ffffffffffffffffffffffffffffffffffffffff160361054d576040518060c00160405280604051806020016040528060008152508152602001604051806020016040528060008152508152602001600073ffffffffffffffffffffffffffffffffffffffff168152602001600060ff16815260200160008152602001600060ff16815250600080600160008773ffffffffffffffffffffffffffffffffffffffff1673ffffffffffffffffffffffffffffffffffffffff16815260200190815260200160002060009054906101000a900460ff1660ff1660ff16815260200190815260200160002060070160008360ff1660ff168152602001908152602001600020600082015181600001908161049f919061259e565b5060208201518160010190816104b5919061259e565b5060408201518160020160006101000a81548173ffffffffffffffffffffffffffffffffffffffff021916908373ffffffffffffffffffffffffffffffffffffffff16021790555060608201518160020160146101000a81548160ff021916908360ff1602179055506080820151816003015560a08201518160040160006101000a81548160ff021916908360ff1602179055509050505b80806105589061269f565b91505061024b565b50600080600160008573ffffffffffffffffffffffffffffffffffffffff1673ffffffffffffffffffffffffffffffffffffffff16815260200190815260200160002060009054906101000a900460ff1660ff1660ff168152602001908152602001600020600401600081819054906101000a900460ff16809291906105e5906126c8565b91906101000a81548160ff021916908360ff160217905550506000600160008473ffffffffffffffffffffffffffffffffffffffff1673ffffffffffffffffffffffffffffffffffffffff16815260200190815260200160002060006101000a81548160ff021916908360ff1602179055506000806000600160008673ffffffffffffffffffffffffffffffffffffffff1673ffffffffffffffffffffffffffffffffffffffff16815260200190815260200160002060009054906101000a900460ff1660ff1660ff16815260200190815260200160002060040160009054906101000a900460ff1660ff16036109de576000806000600160008673ffffffffffffffffffffffffffffffffffffffff1673ffffffffffffffffffffffffffffffffffffffff16815260200190815260200160002060009054906101000a900460ff1660ff1660ff16815260200190815260200160002060000160006101000a81548160ff021916908360ff1602179055506000806000600160008673ffffffffffffffffffffffffffffffffffffffff1673ffffffffffffffffffffffffffffffffffffffff16815260200190815260200160002060009054906101000a900460ff1660ff1660ff1681526020019081526020016000206001018190555060405180602001604052806000815250600080600160008673ffffffffffffffffffffffffffffffffffffffff1673ffffffffffffffffffffffffffffffffffffffff16815260200190815260200160002060009054906101000a900460ff1660ff1660ff1681526020019081526020016000206002019081610847919061259e565b506000806000600160008673ffffffffffffffffffffffffffffffffffffffff1673ffffffffffffffffffffffffffffffffffffffff16815260200190815260200160002060009054906101000a900460ff1660ff1660ff168152602001908152602001600020600301819055506000806000600160008673ffffffffffffffffffffffffffffffffffffffff1673ffffffffffffffffffffffffffffffffffffffff16815260200190815260200160002060009054906101000a900460ff1660ff1660ff16815260200190815260200160002060040160006101000a81548160ff021916908360ff1602179055506000806000600160008673ffffffffffffffffffffffffffffffffffffffff1673ffffffffffffffffffffffffffffffffffffffff16815260200190815260200160002060009054906101000a900460ff1660ff1660ff16815260200190815260200160002060040160016101000a81548173ffffffffffffffffffffffffffffffffffffffff021916908373ffffffffffffffffffffffffffffffffffffffff1602179055505b5050565b600080600060608060606000806000600160008b73ffffffffffffffffffffffffffffffffffffffff1673ffffffffffffffffffffffffffffffffffffffff16815260200190815260200160002060009054906101000a900460ff1660ff1660ff16815260200190815260200160002060040160009054906101000a900460ff1660ff1667ffffffffffffffff811115610a7f57610a7e611e04565b5b604051908082528060200260200182016040528015610aad5781602001602082028036833780820191505090505b5090506000806000600160008c73ffffffffffffffffffffffffffffffffffffffff1673ffffffffffffffffffffffffffffffffffffffff16815260200190815260200160002060009054906101000a900460ff1660ff1660ff16815260200190815260200160002060040160009054906101000a900460ff1660ff1667ffffffffffffffff811115610b4357610b42611e04565b5b604051908082528060200260200182016040528015610b7657816020015b6060815260200190600190039081610b615790505b5090506000806000600160008d73ffffffffffffffffffffffffffffffffffffffff1673ffffffffffffffffffffffffffffffffffffffff16815260200190815260200160002060009054906101000a900460ff1660ff1660ff16815260200190815260200160002060040160009054906101000a900460ff1660ff1667ffffffffffffffff811115610c0c57610c0b611e04565b5b604051908082528060200260200182016040528015610c3f57816020015b6060815260200190600190039081610c2a5790505b50905060005b600080600160008e73ffffffffffffffffffffffffffffffffffffffff1673ffffffffffffffffffffffffffffffffffffffff16815260200190815260200160002060009054906101000a900460ff1660ff1660ff16815260200190815260200160002060040160009054906101000a900460ff1660ff168160ff16101561102257600080600160008e73ffffffffffffffffffffffffffffffffffffffff1673ffffffffffffffffffffffffffffffffffffffff16815260200190815260200160002060009054906101000a900460ff1660ff1660ff16815260200190815260200160002060070160008260ff1660ff1681526020019081526020016000206000018054610d53906123c1565b80601f0160208091040260200160405190810160405280929190818152602001828054610d7f906123c1565b8015610dcc5780601f10610da157610100808354040283529160200191610dcc565b820191906000526020600020905b815481529060010190602001808311610daf57829003601f168201915b5050505050838260ff1681518110610de757610de66126f1565b5b6020026020010181905250600080600160008e73ffffffffffffffffffffffffffffffffffffffff1673ffffffffffffffffffffffffffffffffffffffff16815260200190815260200160002060009054906101000a900460ff1660ff1660ff16815260200190815260200160002060070160008260ff1660ff1681526020019081526020016000206001018054610e7e906123c1565b80601f0160208091040260200160405190810160405280929190818152602001828054610eaa906123c1565b8015610ef75780601f10610ecc57610100808354040283529160200191610ef7565b820191906000526020600020905b815481529060010190602001808311610eda57829003601f168201915b5050505050828260ff1681518110610f1257610f116126f1565b5b6020026020010181905250600080600160008e73ffffffffffffffffffffffffffffffffffffffff1673ffffffffffffffffffffffffffffffffffffffff16815260200190815260200160002060009054906101000a900460ff1660ff1660ff16815260200190815260200160002060070160008260ff1660ff16815260200190815260200160002060020160009054906101000a900473ffffffffffffffffffffffffffffffffffffffff16848260ff1681518110610fd557610fd46126f1565b5b602002602001019073ffffffffffffffffffffffffffffffffffffffff16908173ffffffffffffffffffffffffffffffffffffffff1681525050808061101a9061269f565b915050610c45565b50600160008b73ffffffffffffffffffffffffffffffffffffffff1673ffffffffffffffffffffffffffffffffffffffff16815260200190815260200160002060009054906101000a900460ff16600080600160008e73ffffffffffffffffffffffffffffffffffffffff1673ffffffffffffffffffffffffffffffffffffffff16815260200190815260200160002060009054906101000a900460ff1660ff1660ff16815260200190815260200160002060040160019054906101000a900473ffffffffffffffffffffffffffffffffffffffff16600080600160008f73ffffffffffffffffffffffffffffffffffffffff1673ffffffffffffffffffffffffffffffffffffffff16815260200190815260200160002060009054906101000a900460ff1660ff1660ff1681526020019081526020016000206003015485858598509850985098509850985050505091939550919395565b828251600081116111c1576040517f08c379a00000000000000000000000000000000000000000000000000000000081526004016111b89061276c565b60405180910390fd5b60005b8181101561134c576000600160008584815181106111e5576111e46126f1565b5b602002602001015173ffffffffffffffffffffffffffffffffffffffff1673ffffffffffffffffffffffffffffffffffffffff16815260200190815260200160002060009054906101000a900460ff1660ff1614611278576040517f08c379a000000000000000000000000000000000000000000000000000000000815260040161126f906127fe565b60405180910390fd5b60005b8181101561133857838181518110611296576112956126f1565b5b602002602001015173ffffffffffffffffffffffffffffffffffffffff168483815181106112c7576112c66126f1565b5b602002602001015173ffffffffffffffffffffffffffffffffffffffff1603611325576040517f08c379a000000000000000000000000000000000000000000000000000000000815260040161131c90612890565b60405180910390fd5b8080611330906128b0565b91505061127b565b508080611344906128b0565b9150506111c4565b50856000815103611392576040517f08c379a000000000000000000000000000000000000000000000000000000000815260040161138990612944565b60405180910390fd5b8484805182511480156113a757506000825114155b6113e6576040517f08c379a00000000000000000000000000000000000000000000000000000000081526004016113dd906129d6565b60405180910390fd5b60005b825181101561148c576000838281518110611407576114066126f1565b5b6020026020010151511415801561143a5750600082828151811061142e5761142d6126f1565b5b60200260200101515114155b611479576040517f08c379a0000000000000000000000000000000000000000000000000000000008152600401611470906129d6565b60405180910390fd5b8080611484906128b0565b9150506113e9565b506000806000600a600260009054906101000a900460ff166114ae91906129f6565b60ff1660ff1681526020019081526020016000209050600a600260009054906101000a900460ff166114e091906129f6565b8160000160006101000a81548160ff021916908360ff16021790555042816001018190555089816002019081611516919061259e565b5034816003018190555088600081518110611534576115336126f1565b5b60200260200101518160040160016101000a81548173ffffffffffffffffffffffffffffffffffffffff021916908373ffffffffffffffffffffffffffffffffffffffff16021790555087600081518110611592576115916126f1565b5b60200260200101518160050190816115aa919061259e565b50866000815181106115bf576115be6126f1565b5b60200260200101518160060190816115d7919061259e565b5060005b89518160ff1610156117ff5760008260070160008360ff1660ff1681526020019081526020016000209050898260ff168151811061161c5761161b6126f1565b5b6020026020010151816000019081611634919061259e565b50888260ff168151811061164b5761164a6126f1565b5b6020026020010151816001019081611663919061259e565b508a8260ff168151811061167a576116796126f1565b5b60200260200101518160020160006101000a81548173ffffffffffffffffffffffffffffffffffffffff021916908373ffffffffffffffffffffffffffffffffffffffff160217905550600a600260009054906101000a900460ff166116e091906129f6565b8160020160146101000a81548160ff021916908360ff1602179055506000816003018190555060058160040160006101000a81548160ff021916908360ff16021790555082600401600081819054906101000a900460ff16809291906117459061269f565b91906101000a81548160ff021916908360ff160217905550508060020160149054906101000a900460ff16600160008360020160009054906101000a900473ffffffffffffffffffffffffffffffffffffffff1673ffffffffffffffffffffffffffffffffffffffff1673ffffffffffffffffffffffffffffffffffffffff16815260200190815260200160002060006101000a81548160ff021916908360ff1602179055505080806117f79061269f565b9150506115db565b506002600081819054906101000a900460ff168092919061181f9061269f565b91906101000a81548160ff021916908360ff1602179055505050505050505050505050565b60006020528060005260406000206000915090508060000160009054906101000a900460ff1690806001015490806002018054611880906123c1565b80601f01602080910402602001604051908101604052809291908181526020018280546118ac906123c1565b80156118f95780601f106118ce576101008083540402835291602001916118f9565b820191906000526020600020905b8154815290600101906020018083116118dc57829003601f168201915b5050505050908060030154908060040160009054906101000a900460ff16908060040160019054906101000a900473ffffffffffffffffffffffffffffffffffffffff169080600501805461194d906123c1565b80601f0160208091040260200160405190810160405280929190818152602001828054611979906123c1565b80156119c65780601f1061199b576101008083540402835291602001916119c6565b820191906000526020600020905b8154815290600101906020018083116119a957829003601f168201915b5050505050908060060180546119db906123c1565b80601f0160208091040260200160405190810160405280929190818152602001828054611a07906123c1565b8015611a545780601f10611a2957610100808354040283529160200191611a54565b820191906000526020600020905b815481529060010190602001808311611a3757829003601f168201915b5050505050905088565b600260009054906101000a900460ff1681565b60016020528060005260406000206000915054906101000a900460ff1681565b6000604051905090565b600080fd5b600080fd5b600073ffffffffffffffffffffffffffffffffffffffff82169050919050565b6000611ad082611aa5565b9050919050565b611ae081611ac5565b8114611aeb57600080fd5b50565b600081359050611afd81611ad7565b92915050565b600060208284031215611b1957611b18611a9b565b5b6000611b2784828501611aee565b91505092915050565b600060ff82169050919050565b611b4681611b30565b82525050565b611b5581611ac5565b82525050565b6000819050919050565b611b6e81611b5b565b82525050565b600081519050919050565b600082825260208201905092915050565b6000819050602082019050919050565b611ba981611ac5565b82525050565b6000611bbb8383611ba0565b60208301905092915050565b6000602082019050919050565b6000611bdf82611b74565b611be98185611b7f565b9350611bf483611b90565b8060005b83811015611c25578151611c0c8882611baf565b9750611c1783611bc7565b925050600181019050611bf8565b5085935050505092915050565b600081519050919050565b600082825260208201905092915050565b6000819050602082019050919050565b600081519050919050565b600082825260208201905092915050565b60005b83811015611c98578082015181840152602081019050611c7d565b60008484015250505050565b6000601f19601f8301169050919050565b6000611cc082611c5e565b611cca8185611c69565b9350611cda818560208601611c7a565b611ce381611ca4565b840191505092915050565b6000611cfa8383611cb5565b905092915050565b6000602082019050919050565b6000611d1a82611c32565b611d248185611c3d565b935083602082028501611d3685611c4e565b8060005b85811015611d725784840389528151611d538582611cee565b9450611d5e83611d02565b925060208a01995050600181019050611d3a565b50829750879550505050505092915050565b600060c082019050611d996000830189611b3d565b611da66020830188611b4c565b611db36040830187611b65565b8181036060830152611dc58186611bd4565b90508181036080830152611dd98185611d0f565b905081810360a0830152611ded8184611d0f565b9050979650505050505050565b600080fd5b600080fd5b7f4e487b7100000000000000000000000000000000000000000000000000000000600052604160045260246000fd5b611e3c82611ca4565b810181811067ffffffffffffffff82111715611e5b57611e5a611e04565b5b80604052505050565b6000611e6e611a91565b9050611e7a8282611e33565b919050565b600067ffffffffffffffff821115611e9a57611e99611e04565b5b611ea382611ca4565b9050602081019050919050565b82818337600083830152505050565b6000611ed2611ecd84611e7f565b611e64565b905082815260208101848484011115611eee57611eed611dff565b5b611ef9848285611eb0565b509392505050565b600082601f830112611f1657611f15611dfa565b5b8135611f26848260208601611ebf565b91505092915050565b600067ffffffffffffffff821115611f4a57611f49611e04565b5b602082029050602081019050919050565b600080fd5b6000611f73611f6e84611f2f565b611e64565b90508083825260208201905060208402830185811115611f9657611f95611f5b565b5b835b81811015611fbf5780611fab8882611aee565b845260208401935050602081019050611f98565b5050509392505050565b600082601f830112611fde57611fdd611dfa565b5b8135611fee848260208601611f60565b91505092915050565b600067ffffffffffffffff82111561201257612011611e04565b5b602082029050602081019050919050565b600061203661203184611ff7565b611e64565b9050808382526020820190506020840283018581111561205957612058611f5b565b5b835b818110156120a057803567ffffffffffffffff81111561207e5761207d611dfa565b5b80860161208b8982611f01565b8552602085019450505060208101905061205b565b5050509392505050565b600082601f8301126120bf576120be611dfa565b5b81356120cf848260208601612023565b91505092915050565b600080600080608085870312156120f2576120f1611a9b565b5b600085013567ffffffffffffffff8111156121105761210f611aa0565b5b61211c87828801611f01565b945050602085013567ffffffffffffffff81111561213d5761213c611aa0565b5b61214987828801611fc9565b935050604085013567ffffffffffffffff81111561216a57612169611aa0565b5b612176878288016120aa565b925050606085013567ffffffffffffffff81111561219757612196611aa0565b5b6121a3878288016120aa565b91505092959194509250565b6121b881611b30565b81146121c357600080fd5b50565b6000813590506121d5816121af565b92915050565b6000602082840312156121f1576121f0611a9b565b5b60006121ff848285016121c6565b91505092915050565b600082825260208201905092915050565b600061222482611c5e565b61222e8185612208565b935061223e818560208601611c7a565b61224781611ca4565b840191505092915050565b600061010082019050612268600083018b611b3d565b612275602083018a611b65565b81810360408301526122878189612219565b90506122966060830188611b65565b6122a36080830187611b3d565b6122b060a0830186611b4c565b81810360c08301526122c28185612219565b905081810360e08301526122d68184612219565b90509998505050505050505050565b60006020820190506122fa6000830184611b3d565b92915050565b7f5468652077616c6c6574206e6565647320746f2068617665206174206c65617360008201527f7420312075736572000000000000000000000000000000000000000000000000602082015250565b600061235c602883612208565b915061236782612300565b604082019050919050565b6000602082019050818103600083015261238b8161234f565b9050919050565b7f4e487b7100000000000000000000000000000000000000000000000000000000600052602260045260246000fd5b600060028204905060018216806123d957607f821691505b6020821081036123ec576123eb612392565b5b50919050565b60008190508160005260206000209050919050565b60006020601f8301049050919050565b600082821b905092915050565b6000600883026124547fffffffffffffffffffffffffffffffffffffffffffffffffffffffffffffffff82612417565b61245e8683612417565b95508019841693508086168417925050509392505050565b6000819050919050565b600061249b61249661249184611b5b565b612476565b611b5b565b9050919050565b6000819050919050565b6124b583612480565b6124c96124c1826124a2565b848454612424565b825550505050565b600090565b6124de6124d1565b6124e98184846124ac565b505050565b5b8181101561250d576125026000826124d6565b6001810190506124ef565b5050565b601f82111561255257612523816123f2565b61252c84612407565b8101602085101561253b578190505b61254f61254785612407565b8301826124ee565b50505b505050565b600082821c905092915050565b600061257560001984600802612557565b1980831691505092915050565b600061258e8383612564565b9150826002028217905092915050565b6125a782611c5e565b67ffffffffffffffff8111156125c0576125bf611e04565b5b6125ca82546123c1565b6125d5828285612511565b600060209050601f83116001811461260857600084156125f6578287015190505b6126008582612582565b865550612668565b601f198416612616866123f2565b60005b8281101561263e57848901518255600182019150602085019450602081019050612619565b8683101561265b5784890151612657601f891682612564565b8355505b6001600288020188555050505b505050505050565b7f4e487b7100000000000000000000000000000000000000000000000000000000600052601160045260246000fd5b60006126aa82611b30565b915060ff82036126bd576126bc612670565b5b600182019050919050565b60006126d382611b30565b9150600082036126e6576126e5612670565b5b600182039050919050565b7f4e487b7100000000000000000000000000000000000000000000000000000000600052603260045260246000fd5b7f412077616c6c6574206e65656473206174206c65617374206f6e652075736572600082015250565b6000612756602083612208565b915061276182612720565b602082019050919050565b6000602082019050818103600083015261278581612749565b9050919050565b7f4f6e65206f72206d6f7265207573657273206861766520616c7265616479206a60008201527f6f696e656420616e6f746865722077616c6c6574000000000000000000000000602082015250565b60006127e8603483612208565b91506127f38261278c565b604082019050919050565b60006020820190508181036000830152612817816127db565b9050919050565b7f5468652077616c6c65742063616e206e6f742068617665206475706c6963617460008201527f6520616464726573736573000000000000000000000000000000000000000000602082015250565b600061287a602b83612208565b91506128858261281e565b604082019050919050565b600060208201905081810360008301526128a98161286d565b9050919050565b60006128bb82611b5b565b91507fffffffffffffffffffffffffffffffffffffffffffffffffffffffffffffffff82036128ed576128ec612670565b5b600182019050919050565b7f5468652077616c6c6574206e656564732061206e616d65000000000000000000600082015250565b600061292e601783612208565b9150612939826128f8565b602082019050919050565b6000602082019050818103600083015261295d81612921565b9050919050565b7f546865207573657273206e65656420746f206861766520626f7468206669727360008201527f7420616e64206c617374206e616d657300000000000000000000000000000000602082015250565b60006129c0603083612208565b91506129cb82612964565b604082019050919050565b600060208201905081810360008301526129ef816129b3565b9050919050565b6000612a0182611b30565b9150612a0c83611b30565b9250828201905060ff811115612a2557612a24612670565b5b9291505056fea26469706673582212202d62d7845b570c59075e8650eb51895f7268a341ac9727d5a5d9f4dfadc0af6d64736f6c63430008110033",
  "linkReferences": {},
  "deployedLinkReferences": {}
}