{
  "_format": "hh-sol-artifact-1",
  "contractName": "TheVault",
  "sourceName": "contracts/TheVault.sol",
  "abi": [
    {
      "inputs": [
        {
          "internalType": "string",
          "name": "walletName",
          "type": "string"
        }
      ],
      "name": "getWalletBalance",
      "outputs": [
        {
          "internalType": "uint256",
          "name": "",
          "type": "uint256"
        }
      ],
      "stateMutability": "view",
      "type": "function"
    },
    {
      "inputs": [
        {
          "internalType": "string",
          "name": "walletName",
          "type": "string"
        }
      ],
      "name": "getWalletId",
      "outputs": [
        {
          "internalType": "uint8",
          "name": "",
          "type": "uint8"
        }
      ],
      "stateMutability": "view",
      "type": "function"
    },
    {
      "inputs": [
        {
          "internalType": "string",
          "name": "walletName",
          "type": "string"
        }
      ],
      "name": "getWalletMemberCounter",
      "outputs": [
        {
          "internalType": "uint8",
          "name": "",
          "type": "uint8"
        }
      ],
      "stateMutability": "view",
      "type": "function"
    },
    {
      "inputs": [
        {
          "internalType": "string",
          "name": "walletName",
          "type": "string"
        }
      ],
      "name": "getWalletMembers",
      "outputs": [
        {
          "internalType": "string[]",
          "name": "",
          "type": "string[]"
        }
      ],
      "stateMutability": "view",
      "type": "function"
    },
    {
      "inputs": [
        {
          "internalType": "string",
          "name": "walletName",
          "type": "string"
        }
      ],
      "name": "getWalletOwner",
      "outputs": [
        {
          "internalType": "address",
          "name": "",
          "type": "address"
        }
      ],
      "stateMutability": "view",
      "type": "function"
    },
    {
      "inputs": [
        {
          "internalType": "string",
          "name": "walletName",
          "type": "string"
        },
        {
          "internalType": "address[]",
          "name": "membersAddresses",
          "type": "address[]"
        },
        {
          "internalType": "string[]",
          "name": "membersFirstNames",
          "type": "string[]"
        },
        {
          "internalType": "string[]",
          "name": "membersLastNames",
          "type": "string[]"
        }
      ],
      "name": "initializeWallet",
      "outputs": [],
      "stateMutability": "payable",
      "type": "function"
    },
    {
      "inputs": [
        {
          "internalType": "address",
          "name": "",
          "type": "address"
        }
      ],
      "name": "memberWalletId",
      "outputs": [
        {
          "internalType": "uint8",
          "name": "",
          "type": "uint8"
        }
      ],
      "stateMutability": "view",
      "type": "function"
    },
    {
      "inputs": [
        {
          "internalType": "string",
          "name": "",
          "type": "string"
        }
      ],
      "name": "wallet",
      "outputs": [
        {
          "internalType": "uint8",
          "name": "id",
          "type": "uint8"
        },
        {
          "internalType": "uint256",
          "name": "creationDate",
          "type": "uint256"
        },
        {
          "internalType": "string",
          "name": "name",
          "type": "string"
        },
        {
          "internalType": "uint256",
          "name": "balance",
          "type": "uint256"
        },
        {
          "internalType": "uint8",
          "name": "memberCounter",
          "type": "uint8"
        },
        {
          "internalType": "address",
          "name": "ownerAddress",
          "type": "address"
        },
        {
          "internalType": "string",
          "name": "ownerFirstName",
          "type": "string"
        },
        {
          "internalType": "string",
          "name": "ownerLastName",
          "type": "string"
        }
      ],
      "stateMutability": "view",
      "type": "function"
    },
    {
      "inputs": [],
      "name": "walletCounter",
      "outputs": [
        {
          "internalType": "uint8",
          "name": "",
          "type": "uint8"
        }
      ],
      "stateMutability": "view",
      "type": "function"
    }
  ],
  "bytecode": "0x608060405234801561001057600080fd5b50611fb3806100206000396000f3fe6080604052600436106100865760003560e01c8063a6fd415811610059578063a6fd41581461017f578063af0be2571461019b578063f64d7060146101df578063f83367b51461020a578063fbca23731461024757610086565b8063263c82e11461008b5780632bf82765146100c8578063811652ef146101055780639dafb39114610142575b600080fd5b34801561009757600080fd5b506100b260048036038101906100ad9190611225565b610284565b6040516100bf9190611287565b60405180910390f35b3480156100d457600080fd5b506100ef60048036038101906100ea9190611225565b6102ae565b6040516100fc91906112e3565b60405180910390f35b34801561011157600080fd5b5061012c60048036038101906101279190611225565b6102f8565b604051610139919061143f565b60405180910390f35b34801561014e57600080fd5b5061016960048036038101906101649190611225565b61074f565b604051610176919061147d565b60405180910390f35b6101996004803603810190610194919061166d565b610786565b005b3480156101a757600080fd5b506101c260048036038101906101bd9190611225565b610e31565b6040516101d698979695949392919061178e565b60405180910390f35b3480156101eb57600080fd5b506101f4611061565b604051610201919061147d565b60405180910390f35b34801561021657600080fd5b50610231600480360381019061022c9190611225565b611074565b60405161023e919061147d565b60405180910390f35b34801561025357600080fd5b5061026e60048036038101906102699190611821565b6110ab565b60405161027b919061147d565b60405180910390f35b60008082604051610295919061188a565b9081526020016040518091039020600301549050919050565b600080826040516102bf919061188a565b908152602001604051809103902060040160019054906101000a900473ffffffffffffffffffffffffffffffffffffffff169050919050565b60606000808360405161030b919061188a565b908152602001604051809103902060040160009054906101000a900460ff1660ff1667ffffffffffffffff811115610346576103456110fa565b5b6040519080825280602002602001820160405280156103745781602001602082028036833780820191505090505b50905060008084604051610388919061188a565b908152602001604051809103902060040160009054906101000a900460ff1660ff1667ffffffffffffffff8111156103c3576103c26110fa565b5b6040519080825280602002602001820160405280156103f657816020015b60608152602001906001900390816103e15790505b5090506000808560405161040a919061188a565b908152602001604051809103902060040160009054906101000a900460ff1660ff1667ffffffffffffffff811115610445576104446110fa565b5b60405190808252806020026020018201604052801561047857816020015b60608152602001906001900390816104635790505b50905060005b60008660405161048e919061188a565b908152602001604051809103902060040160009054906101000a900460ff1660ff168160ff161015610743576000866040516104ca919061188a565b908152602001604051809103902060080160008260ff1660ff1681526020019081526020016000206000018054610500906118d0565b80601f016020809104026020016040519081016040528092919081815260200182805461052c906118d0565b80156105795780601f1061054e57610100808354040283529160200191610579565b820191906000526020600020905b81548152906001019060200180831161055c57829003601f168201915b5050505050838260ff168151811061059457610593611901565b5b60200260200101819052506000866040516105af919061188a565b908152602001604051809103902060080160008260ff1660ff16815260200190815260200160002060010180546105e5906118d0565b80601f0160208091040260200160405190810160405280929190818152602001828054610611906118d0565b801561065e5780601f106106335761010080835404028352916020019161065e565b820191906000526020600020905b81548152906001019060200180831161064157829003601f168201915b5050505050828260ff168151811061067957610678611901565b5b6020026020010181905250600086604051610694919061188a565b908152602001604051809103902060080160008260ff1660ff16815260200190815260200160002060020160009054906101000a900473ffffffffffffffffffffffffffffffffffffffff16848260ff16815181106106f6576106f5611901565b5b602002602001019073ffffffffffffffffffffffffffffffffffffffff16908173ffffffffffffffffffffffffffffffffffffffff1681525050808061073b9061195f565b91505061047e565b50819350505050919050565b60008082604051610760919061188a565b908152602001604051809103902060000160009054906101000a900460ff169050919050565b828251600081116107cc576040517f08c379a00000000000000000000000000000000000000000000000000000000081526004016107c3906119d4565b60405180910390fd5b60005b818110156108dc576000600160008584815181106107f0576107ef611901565b5b602002602001015173ffffffffffffffffffffffffffffffffffffffff1673ffffffffffffffffffffffffffffffffffffffff16815260200190815260200160002060009054906101000a900460ff1660ff1614610883576040517f08c379a000000000000000000000000000000000000000000000000000000000815260040161087a90611a66565b60405180910390fd5b6000818110156108c8576040517f08c379a00000000000000000000000000000000000000000000000000000000081526004016108bf90611af8565b60405180910390fd5b5080806108d490611b18565b9150506107cf565b50856000815103610922576040517f08c379a000000000000000000000000000000000000000000000000000000000815260040161091990611bac565b60405180910390fd5b60008082604051610933919061188a565b908152602001604051809103902060000160009054906101000a900460ff1660ff1614610995576040517f08c379a000000000000000000000000000000000000000000000000000000000815260040161098c90611c18565b60405180910390fd5b8484805182511480156109aa57506000825114155b6109e9576040517f08c379a00000000000000000000000000000000000000000000000000000000081526004016109e090611caa565b60405180910390fd5b60005b8251811015610a8f576000838281518110610a0a57610a09611901565b5b60200260200101515114158015610a3d57506000828281518110610a3157610a30611901565b5b60200260200101515114155b610a7c576040517f08c379a0000000000000000000000000000000000000000000000000000000008152600401610a7390611caa565b60405180910390fd5b8080610a8790611b18565b9150506109ec565b506000808a604051610aa1919061188a565b908152602001604051809103902090506064600260009054906101000a900460ff16610acd9190611cca565b8160000160006101000a81548160ff021916908360ff16021790555042816001018190555089816002019081610b039190611eab565b5034816003018190555088600081518110610b2157610b20611901565b5b60200260200101518160040160016101000a81548173ffffffffffffffffffffffffffffffffffffffff021916908373ffffffffffffffffffffffffffffffffffffffff16021790555087600081518110610b7f57610b7e611901565b5b6020026020010151816005019081610b979190611eab565b5086600081518110610bac57610bab611901565b5b6020026020010151816006019081610bc49190611eab565b5060005b89518160ff161015610dec5760008260080160008360ff1660ff1681526020019081526020016000209050898260ff1681518110610c0957610c08611901565b5b6020026020010151816000019081610c219190611eab565b50888260ff1681518110610c3857610c37611901565b5b6020026020010151816001019081610c509190611eab565b508a8260ff1681518110610c6757610c66611901565b5b60200260200101518160020160006101000a81548173ffffffffffffffffffffffffffffffffffffffff021916908373ffffffffffffffffffffffffffffffffffffffff1602179055506064600260009054906101000a900460ff16610ccd9190611cca565b8160020160146101000a81548160ff021916908360ff1602179055506000816003018190555060058160040160006101000a81548160ff021916908360ff16021790555082600401600081819054906101000a900460ff1680929190610d329061195f565b91906101000a81548160ff021916908360ff160217905550508060020160149054906101000a900460ff16600160008360020160009054906101000a900473ffffffffffffffffffffffffffffffffffffffff1673ffffffffffffffffffffffffffffffffffffffff1673ffffffffffffffffffffffffffffffffffffffff16815260200190815260200160002060006101000a81548160ff021916908360ff160217905550508080610de49061195f565b915050610bc8565b506002600081819054906101000a900460ff1680929190610e0c9061195f565b91906101000a81548160ff021916908360ff1602179055505050505050505050505050565b6000818051602081018201805184825260208301602085012081835280955050505050506000915090508060000160009054906101000a900460ff1690806001015490806002018054610e83906118d0565b80601f0160208091040260200160405190810160405280929190818152602001828054610eaf906118d0565b8015610efc5780601f10610ed157610100808354040283529160200191610efc565b820191906000526020600020905b815481529060010190602001808311610edf57829003601f168201915b5050505050908060030154908060040160009054906101000a900460ff16908060040160019054906101000a900473ffffffffffffffffffffffffffffffffffffffff1690806005018054610f50906118d0565b80601f0160208091040260200160405190810160405280929190818152602001828054610f7c906118d0565b8015610fc95780601f10610f9e57610100808354040283529160200191610fc9565b820191906000526020600020905b815481529060010190602001808311610fac57829003601f168201915b505050505090806006018054610fde906118d0565b80601f016020809104026020016040519081016040528092919081815260200182805461100a906118d0565b80156110575780601f1061102c57610100808354040283529160200191611057565b820191906000526020600020905b81548152906001019060200180831161103a57829003601f168201915b5050505050905088565b600260009054906101000a900460ff1681565b60008082604051611085919061188a565b908152602001604051809103902060040160009054906101000a900460ff169050919050565b60016020528060005260406000206000915054906101000a900460ff1681565b6000604051905090565b600080fd5b600080fd5b600080fd5b600080fd5b6000601f19601f8301169050919050565b7f4e487b7100000000000000000000000000000000000000000000000000000000600052604160045260246000fd5b611132826110e9565b810181811067ffffffffffffffff82111715611151576111506110fa565b5b80604052505050565b60006111646110cb565b90506111708282611129565b919050565b600067ffffffffffffffff8211156111905761118f6110fa565b5b611199826110e9565b9050602081019050919050565b82818337600083830152505050565b60006111c86111c384611175565b61115a565b9050828152602081018484840111156111e4576111e36110e4565b5b6111ef8482856111a6565b509392505050565b600082601f83011261120c5761120b6110df565b5b813561121c8482602086016111b5565b91505092915050565b60006020828403121561123b5761123a6110d5565b5b600082013567ffffffffffffffff811115611259576112586110da565b5b611265848285016111f7565b91505092915050565b6000819050919050565b6112818161126e565b82525050565b600060208201905061129c6000830184611278565b92915050565b600073ffffffffffffffffffffffffffffffffffffffff82169050919050565b60006112cd826112a2565b9050919050565b6112dd816112c2565b82525050565b60006020820190506112f860008301846112d4565b92915050565b600081519050919050565b600082825260208201905092915050565b6000819050602082019050919050565b600081519050919050565b600082825260208201905092915050565b60005b83811015611364578082015181840152602081019050611349565b60008484015250505050565b600061137b8261132a565b6113858185611335565b9350611395818560208601611346565b61139e816110e9565b840191505092915050565b60006113b58383611370565b905092915050565b6000602082019050919050565b60006113d5826112fe565b6113df8185611309565b9350836020820285016113f18561131a565b8060005b8581101561142d578484038952815161140e85826113a9565b9450611419836113bd565b925060208a019950506001810190506113f5565b50829750879550505050505092915050565b6000602082019050818103600083015261145981846113ca565b905092915050565b600060ff82169050919050565b61147781611461565b82525050565b6000602082019050611492600083018461146e565b92915050565b600067ffffffffffffffff8211156114b3576114b26110fa565b5b602082029050602081019050919050565b600080fd5b6114d2816112c2565b81146114dd57600080fd5b50565b6000813590506114ef816114c9565b92915050565b600061150861150384611498565b61115a565b9050808382526020820190506020840283018581111561152b5761152a6114c4565b5b835b81811015611554578061154088826114e0565b84526020840193505060208101905061152d565b5050509392505050565b600082601f830112611573576115726110df565b5b81356115838482602086016114f5565b91505092915050565b600067ffffffffffffffff8211156115a7576115a66110fa565b5b602082029050602081019050919050565b60006115cb6115c68461158c565b61115a565b905080838252602082019050602084028301858111156115ee576115ed6114c4565b5b835b8181101561163557803567ffffffffffffffff811115611613576116126110df565b5b80860161162089826111f7565b855260208501945050506020810190506115f0565b5050509392505050565b600082601f830112611654576116536110df565b5b81356116648482602086016115b8565b91505092915050565b60008060008060808587031215611687576116866110d5565b5b600085013567ffffffffffffffff8111156116a5576116a46110da565b5b6116b1878288016111f7565b945050602085013567ffffffffffffffff8111156116d2576116d16110da565b5b6116de8782880161155e565b935050604085013567ffffffffffffffff8111156116ff576116fe6110da565b5b61170b8782880161163f565b925050606085013567ffffffffffffffff81111561172c5761172b6110da565b5b6117388782880161163f565b91505092959194509250565b600082825260208201905092915050565b60006117608261132a565b61176a8185611744565b935061177a818560208601611346565b611783816110e9565b840191505092915050565b6000610100820190506117a4600083018b61146e565b6117b1602083018a611278565b81810360408301526117c38189611755565b90506117d26060830188611278565b6117df608083018761146e565b6117ec60a08301866112d4565b81810360c08301526117fe8185611755565b905081810360e08301526118128184611755565b90509998505050505050505050565b600060208284031215611837576118366110d5565b5b6000611845848285016114e0565b91505092915050565b600081905092915050565b60006118648261132a565b61186e818561184e565b935061187e818560208601611346565b80840191505092915050565b60006118968284611859565b915081905092915050565b7f4e487b7100000000000000000000000000000000000000000000000000000000600052602260045260246000fd5b600060028204905060018216806118e857607f821691505b6020821081036118fb576118fa6118a1565b5b50919050565b7f4e487b7100000000000000000000000000000000000000000000000000000000600052603260045260246000fd5b7f4e487b7100000000000000000000000000000000000000000000000000000000600052601160045260246000fd5b600061196a82611461565b915060ff820361197d5761197c611930565b5b600182019050919050565b7f412077616c6c6574206e65656473206174206c65617374206f6e652075736572600082015250565b60006119be602083611744565b91506119c982611988565b602082019050919050565b600060208201905081810360008301526119ed816119b1565b9050919050565b7f4f6e65206f72206d6f7265207573657273206861766520616c7265616479206a60008201527f6f696e656420616e6f746865722077616c6c6574000000000000000000000000602082015250565b6000611a50603483611744565b9150611a5b826119f4565b604082019050919050565b60006020820190508181036000830152611a7f81611a43565b9050919050565b7f5468652077616c6c65742063616e206e6f742068617665206475706c6963617460008201527f6520616464726573736573000000000000000000000000000000000000000000602082015250565b6000611ae2602b83611744565b9150611aed82611a86565b604082019050919050565b60006020820190508181036000830152611b1181611ad5565b9050919050565b6000611b238261126e565b91507fffffffffffffffffffffffffffffffffffffffffffffffffffffffffffffffff8203611b5557611b54611930565b5b600182019050919050565b7f5468652077616c6c6574206e656564732061206e616d65000000000000000000600082015250565b6000611b96601783611744565b9150611ba182611b60565b602082019050919050565b60006020820190508181036000830152611bc581611b89565b9050919050565b7f412077616c6c657420616c7265616479206861732074686973206e616d650000600082015250565b6000611c02601e83611744565b9150611c0d82611bcc565b602082019050919050565b60006020820190508181036000830152611c3181611bf5565b9050919050565b7f546865207573657273206e65656420746f206861766520626f7468206669727360008201527f7420616e64206c617374206e616d657300000000000000000000000000000000602082015250565b6000611c94603083611744565b9150611c9f82611c38565b604082019050919050565b60006020820190508181036000830152611cc381611c87565b9050919050565b6000611cd582611461565b9150611ce083611461565b9250828201905060ff811115611cf957611cf8611930565b5b92915050565b60008190508160005260206000209050919050565b60006020601f8301049050919050565b600082821b905092915050565b600060088302611d617fffffffffffffffffffffffffffffffffffffffffffffffffffffffffffffffff82611d24565b611d6b8683611d24565b95508019841693508086168417925050509392505050565b6000819050919050565b6000611da8611da3611d9e8461126e565b611d83565b61126e565b9050919050565b6000819050919050565b611dc283611d8d565b611dd6611dce82611daf565b848454611d31565b825550505050565b600090565b611deb611dde565b611df6818484611db9565b505050565b5b81811015611e1a57611e0f600082611de3565b600181019050611dfc565b5050565b601f821115611e5f57611e3081611cff565b611e3984611d14565b81016020851015611e48578190505b611e5c611e5485611d14565b830182611dfb565b50505b505050565b600082821c905092915050565b6000611e8260001984600802611e64565b1980831691505092915050565b6000611e9b8383611e71565b9150826002028217905092915050565b611eb48261132a565b67ffffffffffffffff811115611ecd57611ecc6110fa565b5b611ed782546118d0565b611ee2828285611e1e565b600060209050601f831160018114611f155760008415611f03578287015190505b611f0d8582611e8f565b865550611f75565b601f198416611f2386611cff565b60005b82811015611f4b57848901518255600182019150602085019450602081019050611f26565b86831015611f685784890151611f64601f891682611e71565b8355505b6001600288020188555050505b50505050505056fea2646970667358221220b6f569f2bb5f0e557caaa9fb250714c6d4d37fd68fdfde34ff975140d04b7c4564736f6c63430008110033",
  "linkReferences": {},
  "deployedLinkReferences": {}
}