{
  "_format": "hh-sol-artifact-1",
  "contractName": "TheVault",
  "sourceName": "contracts/TheVault.sol",
  "abi": [
    {
      "inputs": [
        {
          "internalType": "uint256",
          "name": "amount",
          "type": "uint256"
        },
        {
          "internalType": "uint256",
          "name": "limit",
          "type": "uint256"
        }
      ],
      "name": "checkWithdrawalLimit",
      "outputs": [
        {
          "internalType": "bool",
          "name": "",
          "type": "bool"
        }
      ],
      "stateMutability": "view",
      "type": "function"
    },
    {
      "inputs": [
        {
          "internalType": "address",
          "name": "memberAddress",
          "type": "address"
        }
      ],
      "name": "getWalletBalance",
      "outputs": [
        {
          "internalType": "uint256",
          "name": "",
          "type": "uint256"
        }
      ],
      "stateMutability": "view",
      "type": "function"
    },
    {
      "inputs": [
        {
          "internalType": "address",
          "name": "memberAddress",
          "type": "address"
        }
      ],
      "name": "getWalletId",
      "outputs": [
        {
          "internalType": "uint8",
          "name": "",
          "type": "uint8"
        }
      ],
      "stateMutability": "view",
      "type": "function"
    },
    {
      "inputs": [
        {
          "internalType": "address",
          "name": "memberAddress",
          "type": "address"
        }
      ],
      "name": "getWalletMembersAddresses",
      "outputs": [
        {
          "internalType": "address[]",
          "name": "",
          "type": "address[]"
        }
      ],
      "stateMutability": "view",
      "type": "function"
    },
    {
      "inputs": [
        {
          "internalType": "address",
          "name": "memberAddress",
          "type": "address"
        }
      ],
      "name": "getWalletMembersBalances",
      "outputs": [
        {
          "internalType": "uint256[]",
          "name": "",
          "type": "uint256[]"
        }
      ],
      "stateMutability": "view",
      "type": "function"
    },
    {
      "inputs": [
        {
          "internalType": "address",
          "name": "memberAddress",
          "type": "address"
        }
      ],
      "name": "getWalletMembersFirstNames",
      "outputs": [
        {
          "internalType": "string[]",
          "name": "",
          "type": "string[]"
        }
      ],
      "stateMutability": "view",
      "type": "function"
    },
    {
      "inputs": [
        {
          "internalType": "address",
          "name": "memberAddress",
          "type": "address"
        }
      ],
      "name": "getWalletMembersLastNames",
      "outputs": [
        {
          "internalType": "string[]",
          "name": "",
          "type": "string[]"
        }
      ],
      "stateMutability": "view",
      "type": "function"
    },
    {
      "inputs": [
        {
          "internalType": "address",
          "name": "memberAddress",
          "type": "address"
        }
      ],
      "name": "getWalletMembersWithdrawalLimits",
      "outputs": [
        {
          "internalType": "uint256[]",
          "name": "",
          "type": "uint256[]"
        }
      ],
      "stateMutability": "view",
      "type": "function"
    },
    {
      "inputs": [
        {
          "internalType": "address",
          "name": "memberAddress",
          "type": "address"
        }
      ],
      "name": "getWalletName",
      "outputs": [
        {
          "internalType": "string",
          "name": "",
          "type": "string"
        }
      ],
      "stateMutability": "view",
      "type": "function"
    },
    {
      "inputs": [
        {
          "internalType": "address",
          "name": "memberAddress",
          "type": "address"
        }
      ],
      "name": "getWalletOwner",
      "outputs": [
        {
          "internalType": "address",
          "name": "",
          "type": "address"
        }
      ],
      "stateMutability": "view",
      "type": "function"
    },
    {
      "inputs": [
        {
          "internalType": "address",
          "name": "memberAddress",
          "type": "address"
        }
      ],
      "name": "getWalletPublicFunds",
      "outputs": [
        {
          "internalType": "uint256",
          "name": "",
          "type": "uint256"
        }
      ],
      "stateMutability": "view",
      "type": "function"
    },
    {
      "inputs": [
        {
          "internalType": "address",
          "name": "memberAddress",
          "type": "address"
        }
      ],
      "name": "getWalletTransactions",
      "outputs": [
        {
          "components": [
            {
              "internalType": "uint256",
              "name": "date",
              "type": "uint256"
            },
            {
              "internalType": "uint256",
              "name": "value",
              "type": "uint256"
            },
            {
              "internalType": "address",
              "name": "senderAddress",
              "type": "address"
            },
            {
              "internalType": "address",
              "name": "recipientAddress",
              "type": "address"
            },
            {
              "internalType": "string",
              "name": "txType",
              "type": "string"
            }
          ],
          "internalType": "struct TheVault.Transaction[]",
          "name": "",
          "type": "tuple[]"
        }
      ],
      "stateMutability": "view",
      "type": "function"
    },
    {
      "inputs": [
        {
          "internalType": "string",
          "name": "walletName",
          "type": "string"
        },
        {
          "internalType": "address[]",
          "name": "membersAddresses",
          "type": "address[]"
        },
        {
          "internalType": "string[]",
          "name": "membersFirstNames",
          "type": "string[]"
        },
        {
          "internalType": "string[]",
          "name": "membersLastNames",
          "type": "string[]"
        },
        {
          "internalType": "uint256[]",
          "name": "membersWithdrawalLimits",
          "type": "uint256[]"
        }
      ],
      "name": "initializeWallet",
      "outputs": [],
      "stateMutability": "payable",
      "type": "function"
    },
    {
      "inputs": [
        {
          "internalType": "address",
          "name": "memberAddress",
          "type": "address"
        }
      ],
      "name": "leaveWallet",
      "outputs": [],
      "stateMutability": "nonpayable",
      "type": "function"
    },
    {
      "inputs": [
        {
          "internalType": "address",
          "name": "recipientAddress",
          "type": "address"
        }
      ],
      "name": "sendFundsToMember",
      "outputs": [],
      "stateMutability": "payable",
      "type": "function"
    },
    {
      "inputs": [],
      "name": "sendFundsToWallet",
      "outputs": [],
      "stateMutability": "payable",
      "type": "function"
    },
    {
      "inputs": [
        {
          "internalType": "uint8",
          "name": "",
          "type": "uint8"
        }
      ],
      "name": "wallet",
      "outputs": [
        {
          "internalType": "uint8",
          "name": "id",
          "type": "uint8"
        },
        {
          "internalType": "uint256",
          "name": "creationDate",
          "type": "uint256"
        },
        {
          "internalType": "string",
          "name": "name",
          "type": "string"
        },
        {
          "internalType": "uint256",
          "name": "balance",
          "type": "uint256"
        },
        {
          "internalType": "uint256",
          "name": "publicFunds",
          "type": "uint256"
        },
        {
          "internalType": "uint8",
          "name": "memberCounter",
          "type": "uint8"
        },
        {
          "internalType": "address",
          "name": "ownerAddress",
          "type": "address"
        },
        {
          "internalType": "string",
          "name": "ownerFirstName",
          "type": "string"
        },
        {
          "internalType": "string",
          "name": "ownerLastName",
          "type": "string"
        }
      ],
      "stateMutability": "view",
      "type": "function"
    },
    {
      "inputs": [],
      "name": "walletCounter",
      "outputs": [
        {
          "internalType": "uint8",
          "name": "",
          "type": "uint8"
        }
      ],
      "stateMutability": "view",
      "type": "function"
    },
    {
      "inputs": [
        {
          "internalType": "address",
          "name": "",
          "type": "address"
        }
      ],
      "name": "walletMemberId",
      "outputs": [
        {
          "internalType": "uint8",
          "name": "",
          "type": "uint8"
        }
      ],
      "stateMutability": "view",
      "type": "function"
    },
    {
      "inputs": [
        {
          "internalType": "uint256",
          "name": "amount",
          "type": "uint256"
        }
      ],
      "name": "withdrawFundsFromWallet",
      "outputs": [],
      "stateMutability": "nonpayable",
      "type": "function"
    },
    {
      "inputs": [
        {
          "internalType": "uint256",
          "name": "amount",
          "type": "uint256"
        }
      ],
      "name": "withdrawMemberFunds",
      "outputs": [],
      "stateMutability": "nonpayable",
      "type": "function"
    }
  ],
  "bytecode": "0x608060405234801561001057600080fd5b5061365b806100206000396000f3fe60806040526004361061012a5760003560e01c806388785882116100ab578063b6206b441161006f578063b6206b44146103ee578063babf53af1461041b578063e428c2891461043b578063ed8ec19414610470578063f64d7060146104b8578063fa59d636146104d257600080fd5b806388785882146102f9578063966708a5146103195780639c36c46a14610381578063a02c15d7146103ae578063a967028a146103c157600080fd5b8063265c4214116100f2578063265c42141461020e5780633b6610021461022e5780635623aee61461024e5780635a8ff96914610290578063694cdfd2146102c957600080fd5b8063026e66231461012f5780630afa1f0b1461018a578063117d94f5146101b7578063145045e6146101c15780631a3ca69c146101ee575b600080fd5b34801561013b57600080fd5b5061017761014a366004612c44565b6001600160a01b031660009081526001602090815260408083205460ff1683529082905290206004015490565b6040519081526020015b60405180910390f35b34801561019657600080fd5b506101aa6101a5366004612c44565b6104e5565b6040516101819190612c66565b6101bf61060c565b005b3480156101cd57600080fd5b506101e16101dc366004612c44565b610749565b6040516101819190612cf0565b3480156101fa57600080fd5b506101aa610209366004612c44565b61091b565b34801561021a57600080fd5b506101bf610229366004612c44565b610a3b565b34801561023a57600080fd5b506101bf610249366004612d93565b611141565b34801561025a57600080fd5b5061027e610269366004612c44565b60016020526000908152604090205460ff1681565b60405160ff9091168152602001610181565b34801561029c57600080fd5b5061027e6102ab366004612c44565b6001600160a01b031660009081526001602052604090205460ff1690565b3480156102d557600080fd5b506102e96102e4366004612dac565b6113a8565b6040519015158152602001610181565b34801561030557600080fd5b506101bf610314366004612d93565b6117e5565b34801561032557600080fd5b50610369610334366004612c44565b6001600160a01b0390811660009081526001602090815260408083205460ff1683529082905290206005015461010090041690565b6040516001600160a01b039091168152602001610181565b34801561038d57600080fd5b506103a161039c366004612c44565b611ba3565b6040516101819190612dce565b6101bf6103bc366004613033565b611cd3565b3480156103cd57600080fd5b506103e16103dc366004612c44565b6123b7565b6040516101819190613104565b3480156103fa57600080fd5b5061040e610409366004612c44565b612475565b6040516101819190613117565b34801561042757600080fd5b5061040e610436366004612c44565b612622565b34801561044757600080fd5b5061045b610456366004613179565b6127d1565b6040516101819998979695949392919061319c565b34801561047c57600080fd5b5061017761048b366004612c44565b6001600160a01b031660009081526001602090815260408083205460ff1683529082905290206003015490565b3480156104c457600080fd5b5060025461027e9060ff1681565b6101bf6104e0366004612c44565b6129c5565b6001600160a01b03811660009081526001602090815260408083205460ff90811684529183905282206005015460609291166001600160401b0381111561052e5761052e612e0f565b604051908082528060200260200182016040528015610557578160200160208202803683370190505b50905060005b6001600160a01b03841660009081526001602090815260408083205460ff9081168452918390529091206005015481169082161015610605576001600160a01b03841660009081526001602090815260408083205460ff908116845283835281842090851680855260089091019092529091206003015483519091849181106105e8576105e861321e565b6020908102919091010152806105fd8161324a565b91505061055d565b5092915050565b34600081116106365760405162461bcd60e51b815260040161062d90613269565b60405180910390fd5b3360009081526001602090815260408083205460ff16835290829052812060040180543492906106679084906132ad565b90915550506040805160a08101825242815234602080830191825233838501818152306060860190815286518088018852601081526f1cd95b99155cd95c951bd5d85b1b195d60821b8186015260808701908152600093845260018086528885205460ff1685528486529784206009018054808a01825590855294909320865160059095020193845593519583019590955593516002820180546001600160a01b03199081166001600160a01b0393841617909155925160038301805490941691161790915591519091829160048201906107429082613340565b5050505050565b6001600160a01b03811660009081526001602090815260408083205460ff16835290829052812060090154606091906001600160401b0381111561078f5761078f612e0f565b6040519080825280602002602001820160405280156107c857816020015b6107b5612be7565b8152602001906001900390816107ad5790505b506001600160a01b03841660009081526001602090815260408083205460ff168352828252808320600901805482518185028101850190935280835294955090939092909184015b8282101561090f5760008481526020908190206040805160a081018252600586029092018054835260018101549383019390935260028301546001600160a01b0390811691830191909152600383015416606082015260048201805491929160808401919061087e906132c0565b80601f01602080910402602001604051908101604052809291908181526020018280546108aa906132c0565b80156108f75780601f106108cc576101008083540402835291602001916108f7565b820191906000526020600020905b8154815290600101906020018083116108da57829003601f168201915b50505050508152505081526020019060010190610810565b50929695505050505050565b6001600160a01b03811660009081526001602090815260408083205460ff90811684529183905282206005015460609291166001600160401b0381111561096457610964612e0f565b60405190808252806020026020018201604052801561098d578160200160208202803683370190505b50905060005b6001600160a01b03841660009081526001602090815260408083205460ff9081168452918390529091206005015481169082161015610605576001600160a01b03841660009081526001602090815260408083205460ff90811684528383528184209085168085526008909101909252909120600401548351909184918110610a1e57610a1e61321e565b602090810291909101015280610a338161324a565b915050610993565b6001600160a01b03811660009081526001602090815260408083205460ff90811684529183905290912060050154829116610ac95760405162461bcd60e51b815260206004820152602860248201527f5468652077616c6c6574206e6565647320746f2068617665206174206c6561736044820152673a1018903ab9b2b960c11b606482015260840161062d565b6000805b6001600160a01b03841660009081526001602090815260408083205460ff9081168452918390529091206005015481169082161015610c8b576001600160a01b0380851660008181526001602090815260408083205460ff9081168452838352818420908716845260080190915290206002015490911603610c79576001600160a01b03841660009081526001602081815260408084205460ff908116855291849052909220600501549293508392610b8692166133ff565b60ff168160ff1603610c79576040805160e081018252600060c08201818152825282516020818101855282825280840191909152828401829052606083018290526080830182905260a083018290526001600160a01b0388168252600181528382205460ff9081168352828252848320908616835260080190529190912081518190610c129082613340565b5060208201516001820190610c279082613340565b506040820151600282018054606085015160ff16600160a01b026001600160a81b03199091166001600160a01b03909316929092179190911790556080820151600382015560a0909101516004909101555b80610c838161324a565b915050610acd565b506001600160a01b03831660009081526001602081815260408084205460ff90811685529184905290922060050154610cc492166133ff565b60ff168160ff1614610fc857805b6001600160a01b03841660009081526001602081815260408084205460ff90811685529184905290922060050154610d0a92166133ff565b60ff168160ff161015610fc6576001600160a01b03841660009081526001602081815260408084205460ff1684529083905282206008019190610d4e908490613418565b60ff9081168252602080830193909352604091820160009081206001600160a01b038916825260018552838220548316825281855283822092861682526008909201909352912090610da09082613431565b506001600160a01b03841660009081526001602081815260408084205460ff1684529083905282206008019190610dd8908490613418565b60ff9081168252602080830193909352604091820160009081206001600160a01b0389168252600180865284832054841683528286528483209387168352600890930190945291909120810191610e30910182613431565b506001600160a01b03841660009081526001602081815260408084205460ff1684529083905282206008019190610e68908490613418565b60ff9081168252602080830193909352604091820160009081206002908101546001600160a01b038a8116845260018088528685208054871686528589528786208a8816875260089081018a5288872090950180546001600160a01b03191693909416929092179092555490931682529381905291822090920191610eee908490613418565b60ff9081168252602080830193909352604091820160009081206003908101546001600160a01b038a168352600180875285842080548616855284885286852089871686526008908101895287862090940192909255905490931682529381905291822090920191610f61908490613418565b60ff9081168252602080830193909352604091820160009081206004908101546001600160a01b038a16835260018652848320548416835282865284832093871683526008909301909452919091209091015580610fbe8161324a565b915050610cd2565b505b6001600160a01b03831660009081526001602090815260408083205460ff908116845291839052822060050180549091169161100383613503565b82546101009290920a60ff8181021990931691831602179091556001600160a01b03851660009081526001602090815260408220805460ff191690558180528190527fad3228b676f7d3cd4284a5443f17f1962b36e491b30a40b2405849e597ba5fba549091169003905061113c576001600160a01b0383166000908152600160208181526040808420805460ff9081168652858452828620805460ff19169055815481168652828620909401859055815180840183528581529054909316845290839052909120600201906110d99082613340565b506001600160a01b0383166000908152600160209081526040808320805460ff9081168552928490528184206003018490558054831684528184206005908101805460ff1916905590549092168352909120018054610100600160a81b03191690555b505050565b80600081116111625760405162461bcd60e51b815260040161062d90613269565b81804710156111be5760405162461bcd60e51b815260206004820152602260248201527f496e73756666696369656e742066756e647320696e2074686520636f6e74726160448201526118dd60f21b606482015260840161062d565b3360009081526001602090815260408083205460ff16835290829052902060040154839081111561123f5760405162461bcd60e51b815260206004820152602560248201527f5468652077616c6c657420646f6573206e6f74206861766520656e6f7567682060448201526466756e647360d81b606482015260840161062d565b604051600090339086908381818185875af1925050503d8060008114611281576040519150601f19603f3d011682016040523d82523d6000602084013e611286565b606091505b505090508015610742573360009081526001602090815260408083205460ff16835290829052812060040180548792906112c1908490613520565b90915550506040805160a08101825242815260208082018881523083850190815233606085018181528651808801885260148152733bb4ba34323930bbabb0b63632ba2a37aab9b2b960611b8187015260808701908152600092835260018087528884205460ff1684528387529783206009018054808a018255908452959092208651600590960201948555925195840195909555516002830180546001600160a01b03199081166001600160a01b039384161790915591516003840180549093169116179055915190918291600482019061139d9082613340565b505050505050505050565b600080828411156113bd5760009150506117df565b3360009081526001602090815260408083205460ff168352908290528120600901546001600160401b038111156113f6576113f6612e0f565b60405190808252806020026020018201604052801561142f57816020015b61141c612be7565b8152602001906001900390816114145790505b508051909150156117bc5760006001825161144a9190613520565b90505b801561161157604051713bb4ba34323930bbaab9b2b92a37aab9b2b960711b602082015260320160408051601f198184030181529181528151602092830120336000908152600184528281205460ff1681529283905291206009018054839081106114ba576114ba61321e565b90600052602060002090600502016004016040516020016114db9190613533565b6040516020818303038152906040528051906020012014801561154b57503360008181526001602090815260408083205460ff16835290829052902060090180548390811061152c5761152c61321e565b60009182526020909120600360059092020101546001600160a01b0316145b80156115a757503360009081526001602090815260408083205460ff1683529082905290206009018054829081106115855761158561321e565b906000526020600020906005020160000154610e106115a491906132ad565b42105b156115ff573360009081526001602090815260408083205460ff1683529082905290206009018054829081106115df576115df61321e565b906000526020600020906005020160010154836115fc91906132ad565b92505b80611609816135a5565b91505061144d565b50604051713bb4ba34323930bbaab9b2b92a37aab9b2b960711b602082015260320160408051601f198184030181529181528151602092830120336000908152600184528281205460ff1681529283905290822060090180549192909161167a5761167a61321e565b906000526020600020906005020160040160405160200161169b9190613533565b6040516020818303038152906040528051906020012014801561170a57503360008181526001602090815260408083205460ff16835290829052812060090180549091906116eb576116eb61321e565b60009182526020909120600360059092020101546001600160a01b0316145b801561176557503360009081526001602090815260408083205460ff16835290829052812060090180549091906117435761174361321e565b906000526020600020906005020160000154610e1061176291906132ad565b42105b156117bc573360009081526001602090815260408083205460ff168352908290528120600901805490919061179c5761179c61321e565b906000526020600020906005020160010154826117b991906132ad565b91505b836117c786846132ad565b11156117d8576000925050506117df565b6001925050505b92915050565b80600081116118065760405162461bcd60e51b815260040161062d90613269565b8160005b3360009081526001602090815260408083205460ff908116845291839052909120600501548116908216101561190c573360008181526001602090815260408083205460ff908116845283835281842090861684526008019091529020600201546001600160a01b031690036118fa573360009081526001602090815260408083205460ff908116845283835281842090851684526008019091529020600301548211156118fa5760405162461bcd60e51b815260206004820152601c60248201527f596f7520646f206e6f74206861766520656e6f7567682066756e647300000000604482015260640161062d565b806119048161324a565b91505061180a565b50604051600090339085908381818185875af1925050503d806000811461194f576040519150601f19603f3d011682016040523d82523d6000602084013e611954565b606091505b50509050806119bb5760405162461bcd60e51b815260206004820152602d60248201527f4661696c656420746f2073656e6420457468657220746f20746865207265636960448201526c7069656e74206164647265737360981b606482015260840161062d565b8015611b9d573360009081526001602090815260408083205460ff16835290829052812060030180548692906119f2908490613520565b90915550600090505b3360009081526001602090815260408083205460ff9081168452918390529091206005015481169082161015611ac2573360008181526001602090815260408083205460ff908116845283835281842090861684526008019091529020600201546001600160a01b031603611ab0573360009081526001602090815260408083205460ff9081168452838352818420908516845260080190915281206003018054879290611aaa908490613520565b90915550505b80611aba8161324a565b9150506119fb565b506040805160a081018252428152602080820187815233838501818152606085018281528651808801885260128152713bb4ba34323930bbaab9b2b92a37aab9b2b960711b8187015260808701908152600093845260018087528885205460ff1685528487529784206009018054808a01825590855295909320865160059096020194855592519584019590955593516002830180546001600160a01b03199081166001600160a01b0393841617909155915160038401805490931691161790559151909182916004820190611b989082613340565b505050505b50505050565b6001600160a01b03811660009081526001602090815260408083205460ff90811684529183905282206005015460609291166001600160401b03811115611bec57611bec612e0f565b604051908082528060200260200182016040528015611c15578160200160208202803683370190505b50905060005b6001600160a01b03841660009081526001602090815260408083205460ff9081168452918390529091206005015481169082161015610605576001600160a01b0380851660009081526001602090815260408083205460ff908116845283835281842090861680855260089091019092529091206002015484519216918491908110611ca957611ca961321e565b6001600160a01b039092166020928302919091019091015280611ccb8161324a565b915050611c1b565b3460008111611cf45760405162461bcd60e51b815260040161062d90613269565b84845160008111611d475760405162461bcd60e51b815260206004820181905260248201527f412077616c6c6574206e65656473206174206c65617374206f6e652075736572604482015260640161062d565b60005b81811015611ed05760016000848381518110611d6857611d6861321e565b6020908102919091018101516001600160a01b031682528101919091526040016000205460ff1615611df95760405162461bcd60e51b815260206004820152603460248201527f4f6e65206f72206d6f7265207573657273206861766520616c7265616479206a6044820152731bda5b995908185b9bdd1a195c881dd85b1b195d60621b606482015260840161062d565b60005b81811015611ebd57838181518110611e1657611e1661321e565b60200260200101516001600160a01b0316848381518110611e3957611e3961321e565b60200260200101516001600160a01b031603611eab5760405162461bcd60e51b815260206004820152602b60248201527f5468652077616c6c65742063616e206e6f742068617665206475706c6963617460448201526a652061646472657373657360a81b606482015260840161062d565b80611eb5816135bc565b915050611dfc565b5080611ec8816135bc565b915050611d4a565b50878051600003611f235760405162461bcd60e51b815260206004820152601760248201527f5468652077616c6c6574206e656564732061206e616d65000000000000000000604482015260640161062d565b868680518251148015611f365750815115155b611f525760405162461bcd60e51b815260040161062d906135d5565b60005b8251811015611fd257828181518110611f7057611f7061321e565b602002602001015151600014158015611fa45750818181518110611f9657611f9661321e565b602002602001015151600014155b611fc05760405162461bcd60e51b815260040161062d906135d5565b80611fca816135bc565b915050611f55565b508688805182511461204c5760405162461bcd60e51b815260206004820152603a60248201527f45766572792075736572206e6565647320746f20686176652061206d6f6e746860448201527f6c79207769746864726177616c206c696d697420736574207570000000000000606482015260840161062d565b60005b82518110156120e657600083828151811061206c5761206c61321e565b602002602001015110156120d45760405162461bcd60e51b815260206004820152602960248201527f546865207769746864726177616c206c696d6974732063616e206e6f74206265604482015268206e6567617469766560b81b606482015260840161062d565b806120de816135bc565b91505061204f565b50600254600090819081906120ff9060ff16600a613418565b60ff908116825260208201929092526040016000206002549092506121269116600a613418565b815460ff191660ff91909116178155426001820155600281016121498f82613340565b503460048201558c518d906000906121635761216361321e565b60200260200101518160050160016101000a8154816001600160a01b0302191690836001600160a01b031602179055508b6000815181106121a6576121a661321e565b60200260200101518160060190816121be9190613340565b508a6000815181106121d2576121d261321e565b60200260200101518160070190816121ea9190613340565b5060005b8d518160ff16101561237a5760ff8116600081815260088401602052604090208e5190918f9181106122225761222261321e565b602002602001015181600001908161223a9190613340565b508c8260ff16815181106122505761225061321e565b60200260200101518160010190816122689190613340565b508e8260ff168151811061227e5761227e61321e565b6020908102919091010151600282810180546001600160a01b0319166001600160a01b0390931692909217909155546122bb9060ff16600a613418565b60028201805460ff60a01b1916600160a01b60ff93841602179055600060038301558c518d9184169081106122f2576122f261321e565b6020908102919091010151600482015560058301805460ff169060006123178361324a565b825460ff9182166101009390930a9283029282021916919091179091556002909201546001600160a01b0381166000908152600160205260409020805460ff1916600160a01b9092049093161790915550806123728161324a565b9150506121ee565b506002805460ff1690600061238e8361324a565b91906101000a81548160ff021916908360ff160217905550505050505050505050505050505050565b6001600160a01b03811660009081526001602090815260408083205460ff1683529082905290206002018054606091906123f0906132c0565b80601f016020809104026020016040519081016040528092919081815260200182805461241c906132c0565b80156124695780601f1061243e57610100808354040283529160200191612469565b820191906000526020600020905b81548152906001019060200180831161244c57829003601f168201915b50505050509050919050565b6001600160a01b03811660009081526001602090815260408083205460ff90811684529183905282206005015460609291166001600160401b038111156124be576124be612e0f565b6040519080825280602002602001820160405280156124f157816020015b60608152602001906001900390816124dc5790505b50905060005b6001600160a01b03841660009081526001602090815260408083205460ff9081168452918390529091206005015481169082161015610605576001600160a01b03841660009081526001602090815260408083205460ff9081168452838352818420908516845260080190915290208054612571906132c0565b80601f016020809104026020016040519081016040528092919081815260200182805461259d906132c0565b80156125ea5780601f106125bf576101008083540402835291602001916125ea565b820191906000526020600020905b8154815290600101906020018083116125cd57829003601f168201915b5050505050828260ff16815181106126045761260461321e565b6020026020010181905250808061261a9061324a565b9150506124f7565b6001600160a01b03811660009081526001602090815260408083205460ff90811684529183905282206005015460609291166001600160401b0381111561266b5761266b612e0f565b60405190808252806020026020018201604052801561269e57816020015b60608152602001906001900390816126895790505b50905060005b6001600160a01b03841660009081526001602090815260408083205460ff9081168452918390529091206005015481169082161015610605576001600160a01b03841660009081526001602081815260408084205460ff90811685528483528185209086168552600801909152909120018054612720906132c0565b80601f016020809104026020016040519081016040528092919081815260200182805461274c906132c0565b80156127995780601f1061276e57610100808354040283529160200191612799565b820191906000526020600020905b81548152906001019060200180831161277c57829003601f168201915b5050505050828260ff16815181106127b3576127b361321e565b602002602001018190525080806127c99061324a565b9150506126a4565b60006020819052908152604090208054600182015460028301805460ff9093169391926127fd906132c0565b80601f0160208091040260200160405190810160405280929190818152602001828054612829906132c0565b80156128765780601f1061284b57610100808354040283529160200191612876565b820191906000526020600020905b81548152906001019060200180831161285957829003601f168201915b505050506003830154600484015460058501546006860180549596939592945060ff8216936101009092046001600160a01b0316926128b4906132c0565b80601f01602080910402602001604051908101604052809291908181526020018280546128e0906132c0565b801561292d5780601f106129025761010080835404028352916020019161292d565b820191906000526020600020905b81548152906001019060200180831161291057829003601f168201915b505050505090806007018054612942906132c0565b80601f016020809104026020016040519081016040528092919081815260200182805461296e906132c0565b80156129bb5780601f10612990576101008083540402835291602001916129bb565b820191906000526020600020905b81548152906001019060200180831161299e57829003601f168201915b5050505050905089565b34600081116129e65760405162461bcd60e51b815260040161062d90613269565b6001600160a01b03821660009081526001602090815260408083205460ff1683529082905281206003018054349290612a209084906132ad565b90915550600090505b6001600160a01b03831660009081526001602090815260408083205460ff9081168452918390529091206005015481169082161015612b06576001600160a01b0380841660008181526001602090815260408083205460ff9081168452838352818420908716845260080190915290206002015490911603612af4576001600160a01b03831660009081526001602090815260408083205460ff9081168452838352818420908516845260080190915281206003018054349290612aee9084906132ad565b90915550505b80612afe8161324a565b915050612a29565b506040805160a081018252428152346020808301918252338385019081526001600160a01b038781166060860181815287518089018952600e81526d39b2b7322ab9b2b92a37aab9b2b960911b8187015260808801908152600092835260018087528984205460ff1684528387529883206009018054808b01825590845295909220875160059096020194855594519684019690965590516002830180546001600160a01b031990811692841692909217905592516003830180549094169116179091559151909182916004820190612bdf9082613340565b505050505050565b6040518060a00160405280600081526020016000815260200160006001600160a01b0316815260200160006001600160a01b03168152602001606081525090565b80356001600160a01b0381168114612c3f57600080fd5b919050565b600060208284031215612c5657600080fd5b612c5f82612c28565b9392505050565b6020808252825182820181905260009190848201906040850190845b81811015612c9e57835183529284019291840191600101612c82565b50909695505050505050565b6000815180845260005b81811015612cd057602081850181015186830182015201612cb4565b506000602082860101526020601f19601f83011685010191505092915050565b60006020808301818452808551808352604092508286019150828160051b87010184880160005b83811015612d8557888303603f190185528151805184528781015188850152868101516001600160a01b03908116888601526060808301519091169085015260809081015160a091850182905290612d7181860183612caa565b968901969450505090860190600101612d17565b509098975050505050505050565b600060208284031215612da557600080fd5b5035919050565b60008060408385031215612dbf57600080fd5b50508035926020909101359150565b6020808252825182820181905260009190848201906040850190845b81811015612c9e5783516001600160a01b031683529284019291840191600101612dea565b634e487b7160e01b600052604160045260246000fd5b604051601f8201601f191681016001600160401b0381118282101715612e4d57612e4d612e0f565b604052919050565b600082601f830112612e6657600080fd5b81356001600160401b03811115612e7f57612e7f612e0f565b612e92601f8201601f1916602001612e25565b818152846020838601011115612ea757600080fd5b816020850160208301376000918101602001919091529392505050565b60006001600160401b03821115612edd57612edd612e0f565b5060051b60200190565b600082601f830112612ef857600080fd5b81356020612f0d612f0883612ec4565b612e25565b82815260059290921b84018101918181019086841115612f2c57600080fd5b8286015b84811015612f4e57612f4181612c28565b8352918301918301612f30565b509695505050505050565b600082601f830112612f6a57600080fd5b81356020612f7a612f0883612ec4565b82815260059290921b84018101918181019086841115612f9957600080fd5b8286015b84811015612f4e5780356001600160401b03811115612fbc5760008081fd5b612fca8986838b0101612e55565b845250918301918301612f9d565b600082601f830112612fe957600080fd5b81356020612ff9612f0883612ec4565b82815260059290921b8401810191818101908684111561301857600080fd5b8286015b84811015612f4e578035835291830191830161301c565b600080600080600060a0868803121561304b57600080fd5b85356001600160401b038082111561306257600080fd5b61306e89838a01612e55565b9650602088013591508082111561308457600080fd5b61309089838a01612ee7565b955060408801359150808211156130a657600080fd5b6130b289838a01612f59565b945060608801359150808211156130c857600080fd5b6130d489838a01612f59565b935060808801359150808211156130ea57600080fd5b506130f788828901612fd8565b9150509295509295909350565b602081526000612c5f6020830184612caa565b6000602080830181845280855180835260408601915060408160051b870101925083870160005b8281101561316c57603f1988860301845261315a858351612caa565b9450928501929085019060010161313e565b5092979650505050505050565b60006020828403121561318b57600080fd5b813560ff81168114612c5f57600080fd5b600061012060ff8c1683528a60208401528060408401526131bf8184018b612caa565b606084018a90526080840189905260ff881660a08501526001600160a01b03871660c085015283810360e085015290506131f98186612caa565b905082810361010084015261320e8185612caa565b9c9b505050505050505050505050565b634e487b7160e01b600052603260045260246000fd5b634e487b7160e01b600052601160045260246000fd5b600060ff821660ff810361326057613260613234565b60010192915050565b60208082526024908201527f54686520616d6f756e74206e6565647320746f206265206869676865722074686040820152630616e20360e41b606082015260800190565b808201808211156117df576117df613234565b600181811c908216806132d457607f821691505b6020821081036132f457634e487b7160e01b600052602260045260246000fd5b50919050565b601f82111561113c57600081815260208120601f850160051c810160208610156133215750805b601f850160051c820191505b81811015612bdf5782815560010161332d565b81516001600160401b0381111561335957613359612e0f565b61336d8161336784546132c0565b846132fa565b602080601f8311600181146133a2576000841561338a5750858301515b600019600386901b1c1916600185901b178555612bdf565b600085815260208120601f198616915b828110156133d1578886015182559484019460019091019084016133b2565b50858210156133ef5787850151600019600388901b60f8161c191681555b5050505050600190811b01905550565b60ff82811682821603908111156117df576117df613234565b60ff81811683821601908111156117df576117df613234565b81810361343c575050565b61344682546132c0565b6001600160401b0381111561345d5761345d612e0f565b61346b8161336784546132c0565b6000601f82116001811461349f57600083156134875750848201545b600019600385901b1c1916600184901b178455610742565b600085815260209020601f19841690600086815260209020845b838110156134d957828601548255600195860195909101906020016134b9565b50858310156133ef5793015460001960f8600387901b161c19169092555050600190811b01905550565b600060ff82168061351657613516613234565b6000190192915050565b818103818111156117df576117df613234565b6000808354613541816132c0565b60018281168015613559576001811461356e5761090f565b60ff198416875282151583028701945061090f565b8760005260208060002060005b858110156135945781548a82015290840190820161357b565b505050959091019695505050505050565b6000816135b4576135b4613234565b506000190190565b6000600182016135ce576135ce613234565b5060010190565b60208082526030908201527f546865207573657273206e65656420746f206861766520626f7468206669727360408201526f7420616e64206c617374206e616d657360801b60608201526080019056fea2646970667358221220822c1d78bc72be80ed42eae07dd579e4e0f68a3d024f6f36c084afdb69cc821664736f6c63430008110033",
  "linkReferences": {},
  "deployedLinkReferences": {}
}