{
  "_format": "hh-sol-artifact-1",
  "contractName": "TheVault",
  "sourceName": "contracts/TheVault.sol",
  "abi": [
    {
      "inputs": [
        {
          "internalType": "address",
          "name": "memberAddress",
          "type": "address"
        }
      ],
      "name": "getWalletData",
      "outputs": [
        {
          "internalType": "uint8",
          "name": "",
          "type": "uint8"
        },
        {
          "internalType": "address",
          "name": "",
          "type": "address"
        },
        {
          "internalType": "uint256",
          "name": "",
          "type": "uint256"
        },
        {
          "internalType": "address[]",
          "name": "",
          "type": "address[]"
        },
        {
          "internalType": "string[]",
          "name": "",
          "type": "string[]"
        },
        {
          "internalType": "string[]",
          "name": "",
          "type": "string[]"
        }
      ],
      "stateMutability": "view",
      "type": "function"
    },
    {
      "inputs": [
        {
          "internalType": "string",
          "name": "walletName",
          "type": "string"
        },
        {
          "internalType": "address[]",
          "name": "membersAddresses",
          "type": "address[]"
        },
        {
          "internalType": "string[]",
          "name": "membersFirstNames",
          "type": "string[]"
        },
        {
          "internalType": "string[]",
          "name": "membersLastNames",
          "type": "string[]"
        }
      ],
      "name": "initializeWallet",
      "outputs": [],
      "stateMutability": "payable",
      "type": "function"
    },
    {
      "inputs": [
        {
          "internalType": "address",
          "name": "",
          "type": "address"
        }
      ],
      "name": "memberWalletId",
      "outputs": [
        {
          "internalType": "uint8",
          "name": "",
          "type": "uint8"
        }
      ],
      "stateMutability": "view",
      "type": "function"
    },
    {
      "inputs": [
        {
          "internalType": "uint8",
          "name": "",
          "type": "uint8"
        }
      ],
      "name": "wallet",
      "outputs": [
        {
          "internalType": "uint8",
          "name": "id",
          "type": "uint8"
        },
        {
          "internalType": "uint256",
          "name": "creationDate",
          "type": "uint256"
        },
        {
          "internalType": "string",
          "name": "name",
          "type": "string"
        },
        {
          "internalType": "uint256",
          "name": "balance",
          "type": "uint256"
        },
        {
          "internalType": "uint8",
          "name": "memberCounter",
          "type": "uint8"
        },
        {
          "internalType": "address",
          "name": "ownerAddress",
          "type": "address"
        },
        {
          "internalType": "string",
          "name": "ownerFirstName",
          "type": "string"
        },
        {
          "internalType": "string",
          "name": "ownerLastName",
          "type": "string"
        }
      ],
      "stateMutability": "view",
      "type": "function"
    },
    {
      "inputs": [],
      "name": "walletCounter",
      "outputs": [
        {
          "internalType": "uint8",
          "name": "",
          "type": "uint8"
        }
      ],
      "stateMutability": "view",
      "type": "function"
    }
  ],
  "bytecode": "0x608060405234801561001057600080fd5b5061211d806100206000396000f3fe60806040526004361061004a5760003560e01c8063857923c41461004f578063a6fd415814610091578063e428c289146100ad578063f64d7060146100f1578063fbca23731461011c575b600080fd5b34801561005b57600080fd5b506100766004803603810190610071919061127a565b610159565b604051610088969594939291906114fb565b60405180910390f35b6100ab60048036038101906100a6919061184f565b6108f2565b005b3480156100b957600080fd5b506100d460048036038101906100cf9190611952565b610fbb565b6040516100e89897969594939291906119c9565b60405180910390f35b3480156100fd57600080fd5b506101066111d5565b6040516101139190611a5c565b60405180910390f35b34801561012857600080fd5b50610143600480360381019061013e919061127a565b6111e8565b6040516101509190611a5c565b60405180910390f35b600080600060608060606000806000600160008b73ffffffffffffffffffffffffffffffffffffffff1673ffffffffffffffffffffffffffffffffffffffff16815260200190815260200160002060009054906101000a900460ff1660ff1660ff16815260200190815260200160002060040160009054906101000a900460ff1660ff1667ffffffffffffffff8111156101f6576101f561157b565b5b6040519080825280602002602001820160405280156102245781602001602082028036833780820191505090505b5090506000806000600160008c73ffffffffffffffffffffffffffffffffffffffff1673ffffffffffffffffffffffffffffffffffffffff16815260200190815260200160002060009054906101000a900460ff1660ff1660ff16815260200190815260200160002060040160009054906101000a900460ff1660ff1667ffffffffffffffff8111156102ba576102b961157b565b5b6040519080825280602002602001820160405280156102ed57816020015b60608152602001906001900390816102d85790505b5090506000806000600160008d73ffffffffffffffffffffffffffffffffffffffff1673ffffffffffffffffffffffffffffffffffffffff16815260200190815260200160002060009054906101000a900460ff1660ff1660ff16815260200190815260200160002060040160009054906101000a900460ff1660ff1667ffffffffffffffff8111156103835761038261157b565b5b6040519080825280602002602001820160405280156103b657816020015b60608152602001906001900390816103a15790505b50905060005b600080600160008e73ffffffffffffffffffffffffffffffffffffffff1673ffffffffffffffffffffffffffffffffffffffff16815260200190815260200160002060009054906101000a900460ff1660ff1660ff16815260200190815260200160002060040160009054906101000a900460ff1660ff168160ff16101561079957600080600160008e73ffffffffffffffffffffffffffffffffffffffff1673ffffffffffffffffffffffffffffffffffffffff16815260200190815260200160002060009054906101000a900460ff1660ff1660ff16815260200190815260200160002060080160008260ff1660ff16815260200190815260200160002060000180546104ca90611aa6565b80601f01602080910402602001604051908101604052809291908181526020018280546104f690611aa6565b80156105435780601f1061051857610100808354040283529160200191610543565b820191906000526020600020905b81548152906001019060200180831161052657829003601f168201915b5050505050838260ff168151811061055e5761055d611ad7565b5b6020026020010181905250600080600160008e73ffffffffffffffffffffffffffffffffffffffff1673ffffffffffffffffffffffffffffffffffffffff16815260200190815260200160002060009054906101000a900460ff1660ff1660ff16815260200190815260200160002060080160008260ff1660ff16815260200190815260200160002060010180546105f590611aa6565b80601f016020809104026020016040519081016040528092919081815260200182805461062190611aa6565b801561066e5780601f106106435761010080835404028352916020019161066e565b820191906000526020600020905b81548152906001019060200180831161065157829003601f168201915b5050505050828260ff168151811061068957610688611ad7565b5b6020026020010181905250600080600160008e73ffffffffffffffffffffffffffffffffffffffff1673ffffffffffffffffffffffffffffffffffffffff16815260200190815260200160002060009054906101000a900460ff1660ff1660ff16815260200190815260200160002060080160008260ff1660ff16815260200190815260200160002060020160009054906101000a900473ffffffffffffffffffffffffffffffffffffffff16848260ff168151811061074c5761074b611ad7565b5b602002602001019073ffffffffffffffffffffffffffffffffffffffff16908173ffffffffffffffffffffffffffffffffffffffff1681525050808061079190611b35565b9150506103bc565b50600160008b73ffffffffffffffffffffffffffffffffffffffff1673ffffffffffffffffffffffffffffffffffffffff16815260200190815260200160002060009054906101000a900460ff16600080600160008e73ffffffffffffffffffffffffffffffffffffffff1673ffffffffffffffffffffffffffffffffffffffff16815260200190815260200160002060009054906101000a900460ff1660ff1660ff16815260200190815260200160002060040160019054906101000a900473ffffffffffffffffffffffffffffffffffffffff16600080600160008f73ffffffffffffffffffffffffffffffffffffffff1673ffffffffffffffffffffffffffffffffffffffff16815260200190815260200160002060009054906101000a900460ff1660ff1660ff1681526020019081526020016000206003015485858598509850985098509850985050505091939550919395565b82825160008111610938576040517f08c379a000000000000000000000000000000000000000000000000000000000815260040161092f90611baa565b60405180910390fd5b60005b81811015610ac35760006001600085848151811061095c5761095b611ad7565b5b602002602001015173ffffffffffffffffffffffffffffffffffffffff1673ffffffffffffffffffffffffffffffffffffffff16815260200190815260200160002060009054906101000a900460ff1660ff16146109ef576040517f08c379a00000000000000000000000000000000000000000000000000000000081526004016109e690611c3c565b60405180910390fd5b60005b81811015610aaf57838181518110610a0d57610a0c611ad7565b5b602002602001015173ffffffffffffffffffffffffffffffffffffffff16848381518110610a3e57610a3d611ad7565b5b602002602001015173ffffffffffffffffffffffffffffffffffffffff1603610a9c576040517f08c379a0000000000000000000000000000000000000000000000000000000008152600401610a9390611cce565b60405180910390fd5b8080610aa790611cee565b9150506109f2565b508080610abb90611cee565b91505061093b565b50856000815103610b09576040517f08c379a0000000000000000000000000000000000000000000000000000000008152600401610b0090611d82565b60405180910390fd5b848480518251148015610b1e57506000825114155b610b5d576040517f08c379a0000000000000000000000000000000000000000000000000000000008152600401610b5490611e14565b60405180910390fd5b60005b8251811015610c03576000838281518110610b7e57610b7d611ad7565b5b60200260200101515114158015610bb157506000828281518110610ba557610ba4611ad7565b5b60200260200101515114155b610bf0576040517f08c379a0000000000000000000000000000000000000000000000000000000008152600401610be790611e14565b60405180910390fd5b8080610bfb90611cee565b915050610b60565b506000806000600a600260009054906101000a900460ff16610c259190611e34565b60ff1660ff1681526020019081526020016000209050600a600260009054906101000a900460ff16610c579190611e34565b8160000160006101000a81548160ff021916908360ff16021790555042816001018190555089816002019081610c8d9190612015565b5034816003018190555088600081518110610cab57610caa611ad7565b5b60200260200101518160040160016101000a81548173ffffffffffffffffffffffffffffffffffffffff021916908373ffffffffffffffffffffffffffffffffffffffff16021790555087600081518110610d0957610d08611ad7565b5b6020026020010151816005019081610d219190612015565b5086600081518110610d3657610d35611ad7565b5b6020026020010151816006019081610d4e9190612015565b5060005b89518160ff161015610f765760008260080160008360ff1660ff1681526020019081526020016000209050898260ff1681518110610d9357610d92611ad7565b5b6020026020010151816000019081610dab9190612015565b50888260ff1681518110610dc257610dc1611ad7565b5b6020026020010151816001019081610dda9190612015565b508a8260ff1681518110610df157610df0611ad7565b5b60200260200101518160020160006101000a81548173ffffffffffffffffffffffffffffffffffffffff021916908373ffffffffffffffffffffffffffffffffffffffff160217905550600a600260009054906101000a900460ff16610e579190611e34565b8160020160146101000a81548160ff021916908360ff1602179055506000816003018190555060058160040160006101000a81548160ff021916908360ff16021790555082600401600081819054906101000a900460ff1680929190610ebc90611b35565b91906101000a81548160ff021916908360ff160217905550508060020160149054906101000a900460ff16600160008360020160009054906101000a900473ffffffffffffffffffffffffffffffffffffffff1673ffffffffffffffffffffffffffffffffffffffff1673ffffffffffffffffffffffffffffffffffffffff16815260200190815260200160002060006101000a81548160ff021916908360ff160217905550508080610f6e90611b35565b915050610d52565b506002600081819054906101000a900460ff1680929190610f9690611b35565b91906101000a81548160ff021916908360ff1602179055505050505050505050505050565b60006020528060005260406000206000915090508060000160009054906101000a900460ff1690806001015490806002018054610ff790611aa6565b80601f016020809104026020016040519081016040528092919081815260200182805461102390611aa6565b80156110705780601f1061104557610100808354040283529160200191611070565b820191906000526020600020905b81548152906001019060200180831161105357829003601f168201915b5050505050908060030154908060040160009054906101000a900460ff16908060040160019054906101000a900473ffffffffffffffffffffffffffffffffffffffff16908060050180546110c490611aa6565b80601f01602080910402602001604051908101604052809291908181526020018280546110f090611aa6565b801561113d5780601f106111125761010080835404028352916020019161113d565b820191906000526020600020905b81548152906001019060200180831161112057829003601f168201915b50505050509080600601805461115290611aa6565b80601f016020809104026020016040519081016040528092919081815260200182805461117e90611aa6565b80156111cb5780601f106111a0576101008083540402835291602001916111cb565b820191906000526020600020905b8154815290600101906020018083116111ae57829003601f168201915b5050505050905088565b600260009054906101000a900460ff1681565b60016020528060005260406000206000915054906101000a900460ff1681565b6000604051905090565b600080fd5b600080fd5b600073ffffffffffffffffffffffffffffffffffffffff82169050919050565b60006112478261121c565b9050919050565b6112578161123c565b811461126257600080fd5b50565b6000813590506112748161124e565b92915050565b6000602082840312156112905761128f611212565b5b600061129e84828501611265565b91505092915050565b600060ff82169050919050565b6112bd816112a7565b82525050565b6112cc8161123c565b82525050565b6000819050919050565b6112e5816112d2565b82525050565b600081519050919050565b600082825260208201905092915050565b6000819050602082019050919050565b6113208161123c565b82525050565b60006113328383611317565b60208301905092915050565b6000602082019050919050565b6000611356826112eb565b61136081856112f6565b935061136b83611307565b8060005b8381101561139c5781516113838882611326565b975061138e8361133e565b92505060018101905061136f565b5085935050505092915050565b600081519050919050565b600082825260208201905092915050565b6000819050602082019050919050565b600081519050919050565b600082825260208201905092915050565b60005b8381101561140f5780820151818401526020810190506113f4565b60008484015250505050565b6000601f19601f8301169050919050565b6000611437826113d5565b61144181856113e0565b93506114518185602086016113f1565b61145a8161141b565b840191505092915050565b6000611471838361142c565b905092915050565b6000602082019050919050565b6000611491826113a9565b61149b81856113b4565b9350836020820285016114ad856113c5565b8060005b858110156114e957848403895281516114ca8582611465565b94506114d583611479565b925060208a019950506001810190506114b1565b50829750879550505050505092915050565b600060c08201905061151060008301896112b4565b61151d60208301886112c3565b61152a60408301876112dc565b818103606083015261153c818661134b565b905081810360808301526115508185611486565b905081810360a08301526115648184611486565b9050979650505050505050565b600080fd5b600080fd5b7f4e487b7100000000000000000000000000000000000000000000000000000000600052604160045260246000fd5b6115b38261141b565b810181811067ffffffffffffffff821117156115d2576115d161157b565b5b80604052505050565b60006115e5611208565b90506115f182826115aa565b919050565b600067ffffffffffffffff8211156116115761161061157b565b5b61161a8261141b565b9050602081019050919050565b82818337600083830152505050565b6000611649611644846115f6565b6115db565b90508281526020810184848401111561166557611664611576565b5b611670848285611627565b509392505050565b600082601f83011261168d5761168c611571565b5b813561169d848260208601611636565b91505092915050565b600067ffffffffffffffff8211156116c1576116c061157b565b5b602082029050602081019050919050565b600080fd5b60006116ea6116e5846116a6565b6115db565b9050808382526020820190506020840283018581111561170d5761170c6116d2565b5b835b8181101561173657806117228882611265565b84526020840193505060208101905061170f565b5050509392505050565b600082601f83011261175557611754611571565b5b81356117658482602086016116d7565b91505092915050565b600067ffffffffffffffff8211156117895761178861157b565b5b602082029050602081019050919050565b60006117ad6117a88461176e565b6115db565b905080838252602082019050602084028301858111156117d0576117cf6116d2565b5b835b8181101561181757803567ffffffffffffffff8111156117f5576117f4611571565b5b8086016118028982611678565b855260208501945050506020810190506117d2565b5050509392505050565b600082601f83011261183657611835611571565b5b813561184684826020860161179a565b91505092915050565b6000806000806080858703121561186957611868611212565b5b600085013567ffffffffffffffff81111561188757611886611217565b5b61189387828801611678565b945050602085013567ffffffffffffffff8111156118b4576118b3611217565b5b6118c087828801611740565b935050604085013567ffffffffffffffff8111156118e1576118e0611217565b5b6118ed87828801611821565b925050606085013567ffffffffffffffff81111561190e5761190d611217565b5b61191a87828801611821565b91505092959194509250565b61192f816112a7565b811461193a57600080fd5b50565b60008135905061194c81611926565b92915050565b60006020828403121561196857611967611212565b5b60006119768482850161193d565b91505092915050565b600082825260208201905092915050565b600061199b826113d5565b6119a5818561197f565b93506119b58185602086016113f1565b6119be8161141b565b840191505092915050565b6000610100820190506119df600083018b6112b4565b6119ec602083018a6112dc565b81810360408301526119fe8189611990565b9050611a0d60608301886112dc565b611a1a60808301876112b4565b611a2760a08301866112c3565b81810360c0830152611a398185611990565b905081810360e0830152611a4d8184611990565b90509998505050505050505050565b6000602082019050611a7160008301846112b4565b92915050565b7f4e487b7100000000000000000000000000000000000000000000000000000000600052602260045260246000fd5b60006002820490506001821680611abe57607f821691505b602082108103611ad157611ad0611a77565b5b50919050565b7f4e487b7100000000000000000000000000000000000000000000000000000000600052603260045260246000fd5b7f4e487b7100000000000000000000000000000000000000000000000000000000600052601160045260246000fd5b6000611b40826112a7565b915060ff8203611b5357611b52611b06565b5b600182019050919050565b7f412077616c6c6574206e65656473206174206c65617374206f6e652075736572600082015250565b6000611b9460208361197f565b9150611b9f82611b5e565b602082019050919050565b60006020820190508181036000830152611bc381611b87565b9050919050565b7f4f6e65206f72206d6f7265207573657273206861766520616c7265616479206a60008201527f6f696e656420616e6f746865722077616c6c6574000000000000000000000000602082015250565b6000611c2660348361197f565b9150611c3182611bca565b604082019050919050565b60006020820190508181036000830152611c5581611c19565b9050919050565b7f5468652077616c6c65742063616e206e6f742068617665206475706c6963617460008201527f6520616464726573736573000000000000000000000000000000000000000000602082015250565b6000611cb8602b8361197f565b9150611cc382611c5c565b604082019050919050565b60006020820190508181036000830152611ce781611cab565b9050919050565b6000611cf9826112d2565b91507fffffffffffffffffffffffffffffffffffffffffffffffffffffffffffffffff8203611d2b57611d2a611b06565b5b600182019050919050565b7f5468652077616c6c6574206e656564732061206e616d65000000000000000000600082015250565b6000611d6c60178361197f565b9150611d7782611d36565b602082019050919050565b60006020820190508181036000830152611d9b81611d5f565b9050919050565b7f546865207573657273206e65656420746f206861766520626f7468206669727360008201527f7420616e64206c617374206e616d657300000000000000000000000000000000602082015250565b6000611dfe60308361197f565b9150611e0982611da2565b604082019050919050565b60006020820190508181036000830152611e2d81611df1565b9050919050565b6000611e3f826112a7565b9150611e4a836112a7565b9250828201905060ff811115611e6357611e62611b06565b5b92915050565b60008190508160005260206000209050919050565b60006020601f8301049050919050565b600082821b905092915050565b600060088302611ecb7fffffffffffffffffffffffffffffffffffffffffffffffffffffffffffffffff82611e8e565b611ed58683611e8e565b95508019841693508086168417925050509392505050565b6000819050919050565b6000611f12611f0d611f08846112d2565b611eed565b6112d2565b9050919050565b6000819050919050565b611f2c83611ef7565b611f40611f3882611f19565b848454611e9b565b825550505050565b600090565b611f55611f48565b611f60818484611f23565b505050565b5b81811015611f8457611f79600082611f4d565b600181019050611f66565b5050565b601f821115611fc957611f9a81611e69565b611fa384611e7e565b81016020851015611fb2578190505b611fc6611fbe85611e7e565b830182611f65565b50505b505050565b600082821c905092915050565b6000611fec60001984600802611fce565b1980831691505092915050565b60006120058383611fdb565b9150826002028217905092915050565b61201e826113d5565b67ffffffffffffffff8111156120375761203661157b565b5b6120418254611aa6565b61204c828285611f88565b600060209050601f83116001811461207f576000841561206d578287015190505b6120778582611ff9565b8655506120df565b601f19841661208d86611e69565b60005b828110156120b557848901518255600182019150602085019450602081019050612090565b868310156120d257848901516120ce601f891682611fdb565b8355505b6001600288020188555050505b50505050505056fea2646970667358221220c3efd4984fe5719ffc5209f0d693fed2127bc1745dc1fcc65a4fb94ec8fcc7a864736f6c63430008110033",
  "linkReferences": {},
  "deployedLinkReferences": {}
}