{
  "_format": "hh-sol-artifact-1",
  "contractName": "TheVault",
  "sourceName": "contracts/TheVault.sol",
  "abi": [
    {
      "inputs": [
        {
          "internalType": "address",
          "name": "memberAddress",
          "type": "address"
        }
      ],
      "name": "getWalletBalance",
      "outputs": [
        {
          "internalType": "uint256",
          "name": "",
          "type": "uint256"
        }
      ],
      "stateMutability": "view",
      "type": "function"
    },
    {
      "inputs": [
        {
          "internalType": "address",
          "name": "memberAddress",
          "type": "address"
        }
      ],
      "name": "getWalletId",
      "outputs": [
        {
          "internalType": "uint8",
          "name": "",
          "type": "uint8"
        }
      ],
      "stateMutability": "view",
      "type": "function"
    },
    {
      "inputs": [
        {
          "internalType": "address",
          "name": "memberAddress",
          "type": "address"
        }
      ],
      "name": "getWalletMembersAddresses",
      "outputs": [
        {
          "internalType": "address[]",
          "name": "",
          "type": "address[]"
        }
      ],
      "stateMutability": "view",
      "type": "function"
    },
    {
      "inputs": [
        {
          "internalType": "address",
          "name": "memberAddress",
          "type": "address"
        }
      ],
      "name": "getWalletMembersBalances",
      "outputs": [
        {
          "internalType": "uint256[]",
          "name": "",
          "type": "uint256[]"
        }
      ],
      "stateMutability": "view",
      "type": "function"
    },
    {
      "inputs": [
        {
          "internalType": "address",
          "name": "memberAddress",
          "type": "address"
        }
      ],
      "name": "getWalletMembersFirstNames",
      "outputs": [
        {
          "internalType": "string[]",
          "name": "",
          "type": "string[]"
        }
      ],
      "stateMutability": "view",
      "type": "function"
    },
    {
      "inputs": [
        {
          "internalType": "address",
          "name": "memberAddress",
          "type": "address"
        }
      ],
      "name": "getWalletMembersLastNames",
      "outputs": [
        {
          "internalType": "string[]",
          "name": "",
          "type": "string[]"
        }
      ],
      "stateMutability": "view",
      "type": "function"
    },
    {
      "inputs": [
        {
          "internalType": "address",
          "name": "memberAddress",
          "type": "address"
        }
      ],
      "name": "getWalletName",
      "outputs": [
        {
          "internalType": "string",
          "name": "",
          "type": "string"
        }
      ],
      "stateMutability": "view",
      "type": "function"
    },
    {
      "inputs": [
        {
          "internalType": "address",
          "name": "memberAddress",
          "type": "address"
        }
      ],
      "name": "getWalletOwner",
      "outputs": [
        {
          "internalType": "address",
          "name": "",
          "type": "address"
        }
      ],
      "stateMutability": "view",
      "type": "function"
    },
    {
      "inputs": [
        {
          "internalType": "address",
          "name": "memberAddress",
          "type": "address"
        }
      ],
      "name": "getWalletTransactions",
      "outputs": [
        {
          "components": [
            {
              "internalType": "uint256",
              "name": "date",
              "type": "uint256"
            },
            {
              "internalType": "uint256",
              "name": "value",
              "type": "uint256"
            },
            {
              "internalType": "address",
              "name": "senderAddress",
              "type": "address"
            },
            {
              "internalType": "address",
              "name": "recipientAddress",
              "type": "address"
            },
            {
              "internalType": "string",
              "name": "txType",
              "type": "string"
            }
          ],
          "internalType": "struct TheVault.Transaction[]",
          "name": "",
          "type": "tuple[]"
        }
      ],
      "stateMutability": "view",
      "type": "function"
    },
    {
      "inputs": [
        {
          "internalType": "string",
          "name": "walletName",
          "type": "string"
        },
        {
          "internalType": "address[]",
          "name": "membersAddresses",
          "type": "address[]"
        },
        {
          "internalType": "string[]",
          "name": "membersFirstNames",
          "type": "string[]"
        },
        {
          "internalType": "string[]",
          "name": "membersLastNames",
          "type": "string[]"
        }
      ],
      "name": "initializeWallet",
      "outputs": [],
      "stateMutability": "payable",
      "type": "function"
    },
    {
      "inputs": [
        {
          "internalType": "address",
          "name": "memberAddress",
          "type": "address"
        }
      ],
      "name": "leaveWallet",
      "outputs": [],
      "stateMutability": "nonpayable",
      "type": "function"
    },
    {
      "inputs": [
        {
          "internalType": "address",
          "name": "recipientAddress",
          "type": "address"
        }
      ],
      "name": "sendFundsToMember",
      "outputs": [],
      "stateMutability": "payable",
      "type": "function"
    },
    {
      "inputs": [],
      "name": "sendFundsToWallet",
      "outputs": [],
      "stateMutability": "payable",
      "type": "function"
    },
    {
      "inputs": [
        {
          "internalType": "uint8",
          "name": "",
          "type": "uint8"
        }
      ],
      "name": "wallet",
      "outputs": [
        {
          "internalType": "uint8",
          "name": "id",
          "type": "uint8"
        },
        {
          "internalType": "uint256",
          "name": "creationDate",
          "type": "uint256"
        },
        {
          "internalType": "string",
          "name": "name",
          "type": "string"
        },
        {
          "internalType": "uint256",
          "name": "balance",
          "type": "uint256"
        },
        {
          "internalType": "uint8",
          "name": "memberCounter",
          "type": "uint8"
        },
        {
          "internalType": "address",
          "name": "ownerAddress",
          "type": "address"
        },
        {
          "internalType": "string",
          "name": "ownerFirstName",
          "type": "string"
        },
        {
          "internalType": "string",
          "name": "ownerLastName",
          "type": "string"
        }
      ],
      "stateMutability": "view",
      "type": "function"
    },
    {
      "inputs": [],
      "name": "walletCounter",
      "outputs": [
        {
          "internalType": "uint8",
          "name": "",
          "type": "uint8"
        }
      ],
      "stateMutability": "view",
      "type": "function"
    },
    {
      "inputs": [
        {
          "internalType": "address",
          "name": "",
          "type": "address"
        }
      ],
      "name": "walletMemberId",
      "outputs": [
        {
          "internalType": "uint8",
          "name": "",
          "type": "uint8"
        }
      ],
      "stateMutability": "view",
      "type": "function"
    },
    {
      "inputs": [
        {
          "internalType": "uint256",
          "name": "amount",
          "type": "uint256"
        }
      ],
      "name": "withdrawFundsFromWallet",
      "outputs": [],
      "stateMutability": "nonpayable",
      "type": "function"
    },
    {
      "inputs": [
        {
          "internalType": "uint256",
          "name": "amount",
          "type": "uint256"
        }
      ],
      "name": "withdrawMemberFunds",
      "outputs": [],
      "stateMutability": "nonpayable",
      "type": "function"
    }
  ],
  "bytecode": "0x608060405234801561001057600080fd5b50614f18806100206000396000f3fe6080604052600436106101095760003560e01c80639c36c46a11610095578063babf53af11610064578063babf53af14610397578063e428c289146103d4578063ed8ec19414610418578063f64d706014610455578063fa59d6361461048057610109565b80639c36c46a146102c4578063a6fd415814610301578063a967028a1461031d578063b6206b441461035a57610109565b80633b661002116100dc5780633b661002146101bb5780635623aee6146101e45780635a8ff96914610221578063887858821461025e578063966708a51461028757610109565b80630afa1f0b1461010e578063117d94f51461014b578063145045e614610155578063265c421414610192575b600080fd5b34801561011a57600080fd5b506101356004803603810190610130919061399f565b61049c565b6040516101429190613a94565b60405180910390f35b6101536106a8565b005b34801561016157600080fd5b5061017c6004803603810190610177919061399f565b610945565b6040516101899190613c8d565b60405180910390f35b34801561019e57600080fd5b506101b960048036038101906101b4919061399f565b610c23565b005b3480156101c757600080fd5b506101e260048036038101906101dd9190613cdb565b611478565b005b3480156101f057600080fd5b5061020b6004803603810190610206919061399f565b61187b565b6040516102189190613d24565b60405180910390f35b34801561022d57600080fd5b506102486004803603810190610243919061399f565b61189b565b6040516102559190613d24565b60405180910390f35b34801561026a57600080fd5b5061028560048036038101906102809190613cdb565b6118f1565b005b34801561029357600080fd5b506102ae60048036038101906102a9919061399f565b61216e565b6040516102bb9190613d4e565b60405180910390f35b3480156102d057600080fd5b506102eb60048036038101906102e6919061399f565b6121ff565b6040516102f89190613e18565b60405180910390f35b61031b60048036038101906103169190614118565b612459565b005b34801561032957600080fd5b50610344600480360381019061033f919061399f565b612b67565b6040516103519190614239565b60405180910390f35b34801561036657600080fd5b50610381600480360381019061037c919061399f565b612c60565b60405161038e919061431d565b60405180910390f35b3480156103a357600080fd5b506103be60048036038101906103b9919061399f565b612ef8565b6040516103cb919061431d565b60405180910390f35b3480156103e057600080fd5b506103fb60048036038101906103f6919061436b565b613190565b60405161040f9897969594939291906143a7565b60405180910390f35b34801561042457600080fd5b5061043f600480360381019061043a919061399f565b6133aa565b60405161044c919061443a565b60405180910390f35b34801561046157600080fd5b5061046a61341b565b6040516104779190613d24565b60405180910390f35b61049a6004803603810190610495919061399f565b61342e565b005b60606000806000600160008673ffffffffffffffffffffffffffffffffffffffff1673ffffffffffffffffffffffffffffffffffffffff16815260200190815260200160002060009054906101000a900460ff1660ff1660ff16815260200190815260200160002060040160009054906101000a900460ff1660ff1667ffffffffffffffff81111561053157610530613e44565b5b60405190808252806020026020018201604052801561055f5781602001602082028036833780820191505090505b50905060005b600080600160008773ffffffffffffffffffffffffffffffffffffffff1673ffffffffffffffffffffffffffffffffffffffff16815260200190815260200160002060009054906101000a900460ff1660ff1660ff16815260200190815260200160002060040160009054906101000a900460ff1660ff168160ff16101561069e57600080600160008773ffffffffffffffffffffffffffffffffffffffff1673ffffffffffffffffffffffffffffffffffffffff16815260200190815260200160002060009054906101000a900460ff1660ff1660ff16815260200190815260200160002060070160008260ff1660ff16815260200190815260200160002060030154828260ff168151811061067f5761067e614455565b5b6020026020010181815250508080610696906144b3565b915050610565565b5080915050919050565b34600081116106ec576040517f08c379a00000000000000000000000000000000000000000000000000000000081526004016106e39061454e565b60405180910390fd5b34600080600160003373ffffffffffffffffffffffffffffffffffffffff1673ffffffffffffffffffffffffffffffffffffffff16815260200190815260200160002060009054906101000a900460ff1660ff1660ff1681526020019081526020016000206003016000828254610763919061456e565b9250508190555060006040518060a001604052804281526020013481526020013373ffffffffffffffffffffffffffffffffffffffff1681526020013073ffffffffffffffffffffffffffffffffffffffff1681526020016040518060400160405280601081526020017f73656e6455736572546f57616c6c6574000000000000000000000000000000008152508152509050600080600160003373ffffffffffffffffffffffffffffffffffffffff1673ffffffffffffffffffffffffffffffffffffffff16815260200190815260200160002060009054906101000a900460ff1660ff1660ff168152602001908152602001600020600801819080600181540180825580915050600190039060005260206000209060050201600090919091909150600082015181600001556020820151816001015560408201518160020160006101000a81548173ffffffffffffffffffffffffffffffffffffffff021916908373ffffffffffffffffffffffffffffffffffffffff16021790555060608201518160030160006101000a81548173ffffffffffffffffffffffffffffffffffffffff021916908373ffffffffffffffffffffffffffffffffffffffff160217905550608082015181600401908161093e91906147ae565b5050505050565b60606000806000600160008673ffffffffffffffffffffffffffffffffffffffff1673ffffffffffffffffffffffffffffffffffffffff16815260200190815260200160002060009054906101000a900460ff1660ff1660ff1681526020019081526020016000206008018054905067ffffffffffffffff8111156109cd576109cc613e44565b5b604051908082528060200260200182016040528015610a0657816020015b6109f36138d2565b8152602001906001900390816109eb5790505b509050600080600160008673ffffffffffffffffffffffffffffffffffffffff1673ffffffffffffffffffffffffffffffffffffffff16815260200190815260200160002060009054906101000a900460ff1660ff1660ff168152602001908152602001600020600801805480602002602001604051908101604052809291908181526020016000905b82821015610c1457838290600052602060002090600502016040518060a001604052908160008201548152602001600182015481526020016002820160009054906101000a900473ffffffffffffffffffffffffffffffffffffffff1673ffffffffffffffffffffffffffffffffffffffff1673ffffffffffffffffffffffffffffffffffffffff1681526020016003820160009054906101000a900473ffffffffffffffffffffffffffffffffffffffff1673ffffffffffffffffffffffffffffffffffffffff1673ffffffffffffffffffffffffffffffffffffffff168152602001600482018054610b83906145d1565b80601f0160208091040260200160405190810160405280929190818152602001828054610baf906145d1565b8015610bfc5780601f10610bd157610100808354040283529160200191610bfc565b820191906000526020600020905b815481529060010190602001808311610bdf57829003601f168201915b50505050508152505081526020019060010190610a90565b50505050905080915050919050565b806000806000600160008573ffffffffffffffffffffffffffffffffffffffff1673ffffffffffffffffffffffffffffffffffffffff16815260200190815260200160002060009054906101000a900460ff1660ff1660ff16815260200190815260200160002060040160009054906101000a900460ff1660ff1611610cde576040517f08c379a0000000000000000000000000000000000000000000000000000000008152600401610cd5906148f2565b60405180910390fd5b60005b600080600160008673ffffffffffffffffffffffffffffffffffffffff1673ffffffffffffffffffffffffffffffffffffffff16815260200190815260200160002060009054906101000a900460ff1660ff1660ff16815260200190815260200160002060040160009054906101000a900460ff1660ff168160ff161015610ff6578273ffffffffffffffffffffffffffffffffffffffff16600080600160008773ffffffffffffffffffffffffffffffffffffffff1673ffffffffffffffffffffffffffffffffffffffff16815260200190815260200160002060009054906101000a900460ff1660ff1660ff16815260200190815260200160002060070160008360ff1660ff16815260200190815260200160002060020160009054906101000a900473ffffffffffffffffffffffffffffffffffffffff1673ffffffffffffffffffffffffffffffffffffffff1603610fe3576040518060c00160405280604051806020016040528060008152508152602001604051806020016040528060008152508152602001600073ffffffffffffffffffffffffffffffffffffffff168152602001600060ff16815260200160008152602001600060ff16815250600080600160008773ffffffffffffffffffffffffffffffffffffffff1673ffffffffffffffffffffffffffffffffffffffff16815260200190815260200160002060009054906101000a900460ff1660ff1660ff16815260200190815260200160002060070160008360ff1660ff1681526020019081526020016000206000820151816000019081610f3591906147ae565b506020820151816001019081610f4b91906147ae565b5060408201518160020160006101000a81548173ffffffffffffffffffffffffffffffffffffffff021916908373ffffffffffffffffffffffffffffffffffffffff16021790555060608201518160020160146101000a81548160ff021916908360ff1602179055506080820151816003015560a08201518160040160006101000a81548160ff021916908360ff1602179055509050505b8080610fee906144b3565b915050610ce1565b50600080600160008573ffffffffffffffffffffffffffffffffffffffff1673ffffffffffffffffffffffffffffffffffffffff16815260200190815260200160002060009054906101000a900460ff1660ff1660ff168152602001908152602001600020600401600081819054906101000a900460ff168092919061107b90614912565b91906101000a81548160ff021916908360ff160217905550506000600160008473ffffffffffffffffffffffffffffffffffffffff1673ffffffffffffffffffffffffffffffffffffffff16815260200190815260200160002060006101000a81548160ff021916908360ff1602179055506000806000600160008673ffffffffffffffffffffffffffffffffffffffff1673ffffffffffffffffffffffffffffffffffffffff16815260200190815260200160002060009054906101000a900460ff1660ff1660ff16815260200190815260200160002060040160009054906101000a900460ff1660ff1603611474576000806000600160008673ffffffffffffffffffffffffffffffffffffffff1673ffffffffffffffffffffffffffffffffffffffff16815260200190815260200160002060009054906101000a900460ff1660ff1660ff16815260200190815260200160002060000160006101000a81548160ff021916908360ff1602179055506000806000600160008673ffffffffffffffffffffffffffffffffffffffff1673ffffffffffffffffffffffffffffffffffffffff16815260200190815260200160002060009054906101000a900460ff1660ff1660ff1681526020019081526020016000206001018190555060405180602001604052806000815250600080600160008673ffffffffffffffffffffffffffffffffffffffff1673ffffffffffffffffffffffffffffffffffffffff16815260200190815260200160002060009054906101000a900460ff1660ff1660ff16815260200190815260200160002060020190816112dd91906147ae565b506000806000600160008673ffffffffffffffffffffffffffffffffffffffff1673ffffffffffffffffffffffffffffffffffffffff16815260200190815260200160002060009054906101000a900460ff1660ff1660ff168152602001908152602001600020600301819055506000806000600160008673ffffffffffffffffffffffffffffffffffffffff1673ffffffffffffffffffffffffffffffffffffffff16815260200190815260200160002060009054906101000a900460ff1660ff1660ff16815260200190815260200160002060040160006101000a81548160ff021916908360ff1602179055506000806000600160008673ffffffffffffffffffffffffffffffffffffffff1673ffffffffffffffffffffffffffffffffffffffff16815260200190815260200160002060009054906101000a900460ff1660ff1660ff16815260200190815260200160002060040160016101000a81548173ffffffffffffffffffffffffffffffffffffffff021916908373ffffffffffffffffffffffffffffffffffffffff1602179055505b5050565b80600081116114bc576040517f08c379a00000000000000000000000000000000000000000000000000000000081526004016114b39061454e565b60405180910390fd5b8180471015611500576040517f08c379a00000000000000000000000000000000000000000000000000000000081526004016114f7906149ad565b60405180910390fd5b8280600080600160003373ffffffffffffffffffffffffffffffffffffffff1673ffffffffffffffffffffffffffffffffffffffff16815260200190815260200160002060009054906101000a900460ff1660ff1660ff1681526020019081526020016000206003015410156115ab576040517f08c379a00000000000000000000000000000000000000000000000000000000081526004016115a290614a3f565b60405180910390fd5b60003373ffffffffffffffffffffffffffffffffffffffff16856040516115d190614a90565b60006040518083038185875af1925050503d806000811461160e576040519150601f19603f3d011682016040523d82523d6000602084013e611613565b606091505b5050905080156118745784600080600160003373ffffffffffffffffffffffffffffffffffffffff1673ffffffffffffffffffffffffffffffffffffffff16815260200190815260200160002060009054906101000a900460ff1660ff1660ff16815260200190815260200160002060030160008282546116949190614aa5565b9250508190555060006040518060a001604052804281526020018781526020013073ffffffffffffffffffffffffffffffffffffffff1681526020013373ffffffffffffffffffffffffffffffffffffffff1681526020016040518060400160405280601481526020017f776974686472617757616c6c6574546f557365720000000000000000000000008152508152509050600080600160003373ffffffffffffffffffffffffffffffffffffffff1673ffffffffffffffffffffffffffffffffffffffff16815260200190815260200160002060009054906101000a900460ff1660ff1660ff168152602001908152602001600020600801819080600181540180825580915050600190039060005260206000209060050201600090919091909150600082015181600001556020820151816001015560408201518160020160006101000a81548173ffffffffffffffffffffffffffffffffffffffff021916908373ffffffffffffffffffffffffffffffffffffffff16021790555060608201518160030160006101000a81548173ffffffffffffffffffffffffffffffffffffffff021916908373ffffffffffffffffffffffffffffffffffffffff160217905550608082015181600401908161186f91906147ae565b505050505b5050505050565b60016020528060005260406000206000915054906101000a900460ff1681565b6000600160008373ffffffffffffffffffffffffffffffffffffffff1673ffffffffffffffffffffffffffffffffffffffff16815260200190815260200160002060009054906101000a900460ff169050919050565b8060008111611935576040517f08c379a000000000000000000000000000000000000000000000000000000000815260040161192c9061454e565b60405180910390fd5b8180471015611979576040517f08c379a0000000000000000000000000000000000000000000000000000000008152600401611970906149ad565b60405180910390fd5b8260005b600080600160003373ffffffffffffffffffffffffffffffffffffffff1673ffffffffffffffffffffffffffffffffffffffff16815260200190815260200160002060009054906101000a900460ff1660ff1660ff16815260200190815260200160002060040160009054906101000a900460ff1660ff168160ff161015611bab57600080600160003373ffffffffffffffffffffffffffffffffffffffff1673ffffffffffffffffffffffffffffffffffffffff16815260200190815260200160002060009054906101000a900460ff1660ff1660ff16815260200190815260200160002060070160008260ff1660ff16815260200190815260200160002060020160009054906101000a900473ffffffffffffffffffffffffffffffffffffffff1673ffffffffffffffffffffffffffffffffffffffff163373ffffffffffffffffffffffffffffffffffffffff1603611b985781600080600160003373ffffffffffffffffffffffffffffffffffffffff1673ffffffffffffffffffffffffffffffffffffffff16815260200190815260200160002060009054906101000a900460ff1660ff1660ff16815260200190815260200160002060070160008360ff1660ff168152602001908152602001600020600301541015611b97576040517f08c379a0000000000000000000000000000000000000000000000000000000008152600401611b8e90614b25565b60405180910390fd5b5b8080611ba3906144b3565b91505061197d565b508380600080600160003373ffffffffffffffffffffffffffffffffffffffff1673ffffffffffffffffffffffffffffffffffffffff16815260200190815260200160002060009054906101000a900460ff1660ff1660ff168152602001908152602001600020600301541015611c57576040517f08c379a0000000000000000000000000000000000000000000000000000000008152600401611c4e90614a3f565b60405180910390fd5b60003373ffffffffffffffffffffffffffffffffffffffff1686604051611c7d90614a90565b60006040518083038185875af1925050503d8060008114611cba576040519150601f19603f3d011682016040523d82523d6000602084013e611cbf565b606091505b5050905080611d03576040517f08c379a0000000000000000000000000000000000000000000000000000000008152600401611cfa90614bb7565b60405180910390fd5b80156121665785600080600160003373ffffffffffffffffffffffffffffffffffffffff1673ffffffffffffffffffffffffffffffffffffffff16815260200190815260200160002060009054906101000a900460ff1660ff1660ff1681526020019081526020016000206003016000828254611d809190614aa5565b9250508190555060005b600080600160003373ffffffffffffffffffffffffffffffffffffffff1673ffffffffffffffffffffffffffffffffffffffff16815260200190815260200160002060009054906101000a900460ff1660ff1660ff16815260200190815260200160002060040160009054906101000a900460ff1660ff168160ff161015611f8c573373ffffffffffffffffffffffffffffffffffffffff16600080600160003373ffffffffffffffffffffffffffffffffffffffff1673ffffffffffffffffffffffffffffffffffffffff16815260200190815260200160002060009054906101000a900460ff1660ff1660ff16815260200190815260200160002060070160008360ff1660ff16815260200190815260200160002060020160009054906101000a900473ffffffffffffffffffffffffffffffffffffffff1673ffffffffffffffffffffffffffffffffffffffff1603611f795786600080600160003373ffffffffffffffffffffffffffffffffffffffff1673ffffffffffffffffffffffffffffffffffffffff16815260200190815260200160002060009054906101000a900460ff1660ff1660ff16815260200190815260200160002060070160008360ff1660ff1681526020019081526020016000206003016000828254611f719190614aa5565b925050819055505b8080611f84906144b3565b915050611d8a565b5060006040518060a001604052804281526020018881526020013373ffffffffffffffffffffffffffffffffffffffff1681526020013373ffffffffffffffffffffffffffffffffffffffff1681526020016040518060400160405280601281526020017f776974686472617755736572546f5573657200000000000000000000000000008152508152509050600080600160003373ffffffffffffffffffffffffffffffffffffffff1673ffffffffffffffffffffffffffffffffffffffff16815260200190815260200160002060009054906101000a900460ff1660ff1660ff168152602001908152602001600020600801819080600181540180825580915050600190039060005260206000209060050201600090919091909150600082015181600001556020820151816001015560408201518160020160006101000a81548173ffffffffffffffffffffffffffffffffffffffff021916908373ffffffffffffffffffffffffffffffffffffffff16021790555060608201518160030160006101000a81548173ffffffffffffffffffffffffffffffffffffffff021916908373ffffffffffffffffffffffffffffffffffffffff160217905550608082015181600401908161216191906147ae565b505050505b505050505050565b6000806000600160008573ffffffffffffffffffffffffffffffffffffffff1673ffffffffffffffffffffffffffffffffffffffff16815260200190815260200160002060009054906101000a900460ff1660ff1660ff16815260200190815260200160002060040160019054906101000a900473ffffffffffffffffffffffffffffffffffffffff169050919050565b60606000806000600160008673ffffffffffffffffffffffffffffffffffffffff1673ffffffffffffffffffffffffffffffffffffffff16815260200190815260200160002060009054906101000a900460ff1660ff1660ff16815260200190815260200160002060040160009054906101000a900460ff1660ff1667ffffffffffffffff81111561229457612293613e44565b5b6040519080825280602002602001820160405280156122c25781602001602082028036833780820191505090505b50905060005b600080600160008773ffffffffffffffffffffffffffffffffffffffff1673ffffffffffffffffffffffffffffffffffffffff16815260200190815260200160002060009054906101000a900460ff1660ff1660ff16815260200190815260200160002060040160009054906101000a900460ff1660ff168160ff16101561244f57600080600160008773ffffffffffffffffffffffffffffffffffffffff1673ffffffffffffffffffffffffffffffffffffffff16815260200190815260200160002060009054906101000a900460ff1660ff1660ff16815260200190815260200160002060070160008260ff1660ff16815260200190815260200160002060020160009054906101000a900473ffffffffffffffffffffffffffffffffffffffff16828260ff168151811061240257612401614455565b5b602002602001019073ffffffffffffffffffffffffffffffffffffffff16908173ffffffffffffffffffffffffffffffffffffffff16815250508080612447906144b3565b9150506122c8565b5080915050919050565b346000811161249d576040517f08c379a00000000000000000000000000000000000000000000000000000000081526004016124949061454e565b60405180910390fd5b838351600081116124e3576040517f08c379a00000000000000000000000000000000000000000000000000000000081526004016124da90614c23565b60405180910390fd5b60005b8181101561266e5760006001600085848151811061250757612506614455565b5b602002602001015173ffffffffffffffffffffffffffffffffffffffff1673ffffffffffffffffffffffffffffffffffffffff16815260200190815260200160002060009054906101000a900460ff1660ff161461259a576040517f08c379a000000000000000000000000000000000000000000000000000000000815260040161259190614cb5565b60405180910390fd5b60005b8181101561265a578381815181106125b8576125b7614455565b5b602002602001015173ffffffffffffffffffffffffffffffffffffffff168483815181106125e9576125e8614455565b5b602002602001015173ffffffffffffffffffffffffffffffffffffffff1603612647576040517f08c379a000000000000000000000000000000000000000000000000000000000815260040161263e90614d47565b60405180910390fd5b808061265290614d67565b91505061259d565b50808061266690614d67565b9150506124e6565b508660008151036126b4576040517f08c379a00000000000000000000000000000000000000000000000000000000081526004016126ab90614dfb565b60405180910390fd5b8585805182511480156126c957506000825114155b612708576040517f08c379a00000000000000000000000000000000000000000000000000000000081526004016126ff90614e8d565b60405180910390fd5b60005b82518110156127ae57600083828151811061272957612728614455565b5b6020026020010151511415801561275c575060008282815181106127505761274f614455565b5b60200260200101515114155b61279b576040517f08c379a000000000000000000000000000000000000000000000000000000000815260040161279290614e8d565b60405180910390fd5b80806127a690614d67565b91505061270b565b506000806000600a600260009054906101000a900460ff166127d09190614ead565b60ff1660ff1681526020019081526020016000209050600a600260009054906101000a900460ff166128029190614ead565b8160000160006101000a81548160ff021916908360ff1602179055504281600101819055508a81600201908161283891906147ae565b503481600301819055508960008151811061285657612855614455565b5b60200260200101518160040160016101000a81548173ffffffffffffffffffffffffffffffffffffffff021916908373ffffffffffffffffffffffffffffffffffffffff160217905550886000815181106128b4576128b3614455565b5b60200260200101518160050190816128cc91906147ae565b50876000815181106128e1576128e0614455565b5b60200260200101518160060190816128f991906147ae565b5060005b8a518160ff161015612b215760008260070160008360ff1660ff16815260200190815260200160002090508a8260ff168151811061293e5761293d614455565b5b602002602001015181600001908161295691906147ae565b50898260ff168151811061296d5761296c614455565b5b602002602001015181600101908161298591906147ae565b508b8260ff168151811061299c5761299b614455565b5b60200260200101518160020160006101000a81548173ffffffffffffffffffffffffffffffffffffffff021916908373ffffffffffffffffffffffffffffffffffffffff160217905550600a600260009054906101000a900460ff16612a029190614ead565b8160020160146101000a81548160ff021916908360ff1602179055506000816003018190555060058160040160006101000a81548160ff021916908360ff16021790555082600401600081819054906101000a900460ff1680929190612a67906144b3565b91906101000a81548160ff021916908360ff160217905550508060020160149054906101000a900460ff16600160008360020160009054906101000a900473ffffffffffffffffffffffffffffffffffffffff1673ffffffffffffffffffffffffffffffffffffffff1673ffffffffffffffffffffffffffffffffffffffff16815260200190815260200160002060006101000a81548160ff021916908360ff160217905550508080612b19906144b3565b9150506128fd565b506002600081819054906101000a900460ff1680929190612b41906144b3565b91906101000a81548160ff021916908360ff160217905550505050505050505050505050565b6060600080600160008573ffffffffffffffffffffffffffffffffffffffff1673ffffffffffffffffffffffffffffffffffffffff16815260200190815260200160002060009054906101000a900460ff1660ff1660ff1681526020019081526020016000206002018054612bdb906145d1565b80601f0160208091040260200160405190810160405280929190818152602001828054612c07906145d1565b8015612c545780601f10612c2957610100808354040283529160200191612c54565b820191906000526020600020905b815481529060010190602001808311612c3757829003601f168201915b50505050509050919050565b60606000806000600160008673ffffffffffffffffffffffffffffffffffffffff1673ffffffffffffffffffffffffffffffffffffffff16815260200190815260200160002060009054906101000a900460ff1660ff1660ff16815260200190815260200160002060040160009054906101000a900460ff1660ff1667ffffffffffffffff811115612cf557612cf4613e44565b5b604051908082528060200260200182016040528015612d2857816020015b6060815260200190600190039081612d135790505b50905060005b600080600160008773ffffffffffffffffffffffffffffffffffffffff1673ffffffffffffffffffffffffffffffffffffffff16815260200190815260200160002060009054906101000a900460ff1660ff1660ff16815260200190815260200160002060040160009054906101000a900460ff1660ff168160ff161015612eee57600080600160008773ffffffffffffffffffffffffffffffffffffffff1673ffffffffffffffffffffffffffffffffffffffff16815260200190815260200160002060009054906101000a900460ff1660ff1660ff16815260200190815260200160002060070160008260ff1660ff1681526020019081526020016000206000018054612e3c906145d1565b80601f0160208091040260200160405190810160405280929190818152602001828054612e68906145d1565b8015612eb55780601f10612e8a57610100808354040283529160200191612eb5565b820191906000526020600020905b815481529060010190602001808311612e9857829003601f168201915b5050505050828260ff1681518110612ed057612ecf614455565b5b60200260200101819052508080612ee6906144b3565b915050612d2e565b5080915050919050565b60606000806000600160008673ffffffffffffffffffffffffffffffffffffffff1673ffffffffffffffffffffffffffffffffffffffff16815260200190815260200160002060009054906101000a900460ff1660ff1660ff16815260200190815260200160002060040160009054906101000a900460ff1660ff1667ffffffffffffffff811115612f8d57612f8c613e44565b5b604051908082528060200260200182016040528015612fc057816020015b6060815260200190600190039081612fab5790505b50905060005b600080600160008773ffffffffffffffffffffffffffffffffffffffff1673ffffffffffffffffffffffffffffffffffffffff16815260200190815260200160002060009054906101000a900460ff1660ff1660ff16815260200190815260200160002060040160009054906101000a900460ff1660ff168160ff16101561318657600080600160008773ffffffffffffffffffffffffffffffffffffffff1673ffffffffffffffffffffffffffffffffffffffff16815260200190815260200160002060009054906101000a900460ff1660ff1660ff16815260200190815260200160002060070160008260ff1660ff16815260200190815260200160002060010180546130d4906145d1565b80601f0160208091040260200160405190810160405280929190818152602001828054613100906145d1565b801561314d5780601f106131225761010080835404028352916020019161314d565b820191906000526020600020905b81548152906001019060200180831161313057829003601f168201915b5050505050828260ff168151811061316857613167614455565b5b6020026020010181905250808061317e906144b3565b915050612fc6565b5080915050919050565b60006020528060005260406000206000915090508060000160009054906101000a900460ff16908060010154908060020180546131cc906145d1565b80601f01602080910402602001604051908101604052809291908181526020018280546131f8906145d1565b80156132455780601f1061321a57610100808354040283529160200191613245565b820191906000526020600020905b81548152906001019060200180831161322857829003601f168201915b5050505050908060030154908060040160009054906101000a900460ff16908060040160019054906101000a900473ffffffffffffffffffffffffffffffffffffffff1690806005018054613299906145d1565b80601f01602080910402602001604051908101604052809291908181526020018280546132c5906145d1565b80156133125780601f106132e757610100808354040283529160200191613312565b820191906000526020600020905b8154815290600101906020018083116132f557829003601f168201915b505050505090806006018054613327906145d1565b80601f0160208091040260200160405190810160405280929190818152602001828054613353906145d1565b80156133a05780601f10613375576101008083540402835291602001916133a0565b820191906000526020600020905b81548152906001019060200180831161338357829003601f168201915b5050505050905088565b6000806000600160008573ffffffffffffffffffffffffffffffffffffffff1673ffffffffffffffffffffffffffffffffffffffff16815260200190815260200160002060009054906101000a900460ff1660ff1660ff168152602001908152602001600020600301549050919050565b600260009054906101000a900460ff1681565b3460008111613472576040517f08c379a00000000000000000000000000000000000000000000000000000000081526004016134699061454e565b60405180910390fd5b34600080600160008673ffffffffffffffffffffffffffffffffffffffff1673ffffffffffffffffffffffffffffffffffffffff16815260200190815260200160002060009054906101000a900460ff1660ff1660ff16815260200190815260200160002060030160008282546134e9919061456e565b9250508190555060005b600080600160008673ffffffffffffffffffffffffffffffffffffffff1673ffffffffffffffffffffffffffffffffffffffff16815260200190815260200160002060009054906101000a900460ff1660ff1660ff16815260200190815260200160002060040160009054906101000a900460ff1660ff168160ff1610156136f5578273ffffffffffffffffffffffffffffffffffffffff16600080600160008773ffffffffffffffffffffffffffffffffffffffff1673ffffffffffffffffffffffffffffffffffffffff16815260200190815260200160002060009054906101000a900460ff1660ff1660ff16815260200190815260200160002060070160008360ff1660ff16815260200190815260200160002060020160009054906101000a900473ffffffffffffffffffffffffffffffffffffffff1673ffffffffffffffffffffffffffffffffffffffff16036136e25734600080600160008773ffffffffffffffffffffffffffffffffffffffff1673ffffffffffffffffffffffffffffffffffffffff16815260200190815260200160002060009054906101000a900460ff1660ff1660ff16815260200190815260200160002060070160008360ff1660ff16815260200190815260200160002060030160008282546136da919061456e565b925050819055505b80806136ed906144b3565b9150506134f3565b5060006040518060a001604052804281526020013481526020013373ffffffffffffffffffffffffffffffffffffffff1681526020018473ffffffffffffffffffffffffffffffffffffffff1681526020016040518060400160405280600e81526020017f73656e6455736572546f557365720000000000000000000000000000000000008152508152509050600080600160008673ffffffffffffffffffffffffffffffffffffffff1673ffffffffffffffffffffffffffffffffffffffff16815260200190815260200160002060009054906101000a900460ff1660ff1660ff168152602001908152602001600020600801819080600181540180825580915050600190039060005260206000209060050201600090919091909150600082015181600001556020820151816001015560408201518160020160006101000a81548173ffffffffffffffffffffffffffffffffffffffff021916908373ffffffffffffffffffffffffffffffffffffffff16021790555060608201518160030160006101000a81548173ffffffffffffffffffffffffffffffffffffffff021916908373ffffffffffffffffffffffffffffffffffffffff16021790555060808201518160040190816138ca91906147ae565b505050505050565b6040518060a001604052806000815260200160008152602001600073ffffffffffffffffffffffffffffffffffffffff168152602001600073ffffffffffffffffffffffffffffffffffffffff168152602001606081525090565b6000604051905090565b600080fd5b600080fd5b600073ffffffffffffffffffffffffffffffffffffffff82169050919050565b600061396c82613941565b9050919050565b61397c81613961565b811461398757600080fd5b50565b60008135905061399981613973565b92915050565b6000602082840312156139b5576139b4613937565b5b60006139c38482850161398a565b91505092915050565b600081519050919050565b600082825260208201905092915050565b6000819050602082019050919050565b6000819050919050565b613a0b816139f8565b82525050565b6000613a1d8383613a02565b60208301905092915050565b6000602082019050919050565b6000613a41826139cc565b613a4b81856139d7565b9350613a56836139e8565b8060005b83811015613a87578151613a6e8882613a11565b9750613a7983613a29565b925050600181019050613a5a565b5085935050505092915050565b60006020820190508181036000830152613aae8184613a36565b905092915050565b600081519050919050565b600082825260208201905092915050565b6000819050602082019050919050565b613aeb81613961565b82525050565b600081519050919050565b600082825260208201905092915050565b60005b83811015613b2b578082015181840152602081019050613b10565b60008484015250505050565b6000601f19601f8301169050919050565b6000613b5382613af1565b613b5d8185613afc565b9350613b6d818560208601613b0d565b613b7681613b37565b840191505092915050565b600060a083016000830151613b996000860182613a02565b506020830151613bac6020860182613a02565b506040830151613bbf6040860182613ae2565b506060830151613bd26060860182613ae2565b5060808301518482036080860152613bea8282613b48565b9150508091505092915050565b6000613c038383613b81565b905092915050565b6000602082019050919050565b6000613c2382613ab6565b613c2d8185613ac1565b935083602082028501613c3f85613ad2565b8060005b85811015613c7b5784840389528151613c5c8582613bf7565b9450613c6783613c0b565b925060208a01995050600181019050613c43565b50829750879550505050505092915050565b60006020820190508181036000830152613ca78184613c18565b905092915050565b613cb8816139f8565b8114613cc357600080fd5b50565b600081359050613cd581613caf565b92915050565b600060208284031215613cf157613cf0613937565b5b6000613cff84828501613cc6565b91505092915050565b600060ff82169050919050565b613d1e81613d08565b82525050565b6000602082019050613d396000830184613d15565b92915050565b613d4881613961565b82525050565b6000602082019050613d636000830184613d3f565b92915050565b600081519050919050565b600082825260208201905092915050565b6000819050602082019050919050565b6000613da18383613ae2565b60208301905092915050565b6000602082019050919050565b6000613dc582613d69565b613dcf8185613d74565b9350613dda83613d85565b8060005b83811015613e0b578151613df28882613d95565b9750613dfd83613dad565b925050600181019050613dde565b5085935050505092915050565b60006020820190508181036000830152613e328184613dba565b905092915050565b600080fd5b600080fd5b7f4e487b7100000000000000000000000000000000000000000000000000000000600052604160045260246000fd5b613e7c82613b37565b810181811067ffffffffffffffff82111715613e9b57613e9a613e44565b5b80604052505050565b6000613eae61392d565b9050613eba8282613e73565b919050565b600067ffffffffffffffff821115613eda57613ed9613e44565b5b613ee382613b37565b9050602081019050919050565b82818337600083830152505050565b6000613f12613f0d84613ebf565b613ea4565b905082815260208101848484011115613f2e57613f2d613e3f565b5b613f39848285613ef0565b509392505050565b600082601f830112613f5657613f55613e3a565b5b8135613f66848260208601613eff565b91505092915050565b600067ffffffffffffffff821115613f8a57613f89613e44565b5b602082029050602081019050919050565b600080fd5b6000613fb3613fae84613f6f565b613ea4565b90508083825260208201905060208402830185811115613fd657613fd5613f9b565b5b835b81811015613fff5780613feb888261398a565b845260208401935050602081019050613fd8565b5050509392505050565b600082601f83011261401e5761401d613e3a565b5b813561402e848260208601613fa0565b91505092915050565b600067ffffffffffffffff82111561405257614051613e44565b5b602082029050602081019050919050565b600061407661407184614037565b613ea4565b9050808382526020820190506020840283018581111561409957614098613f9b565b5b835b818110156140e057803567ffffffffffffffff8111156140be576140bd613e3a565b5b8086016140cb8982613f41565b8552602085019450505060208101905061409b565b5050509392505050565b600082601f8301126140ff576140fe613e3a565b5b813561410f848260208601614063565b91505092915050565b6000806000806080858703121561413257614131613937565b5b600085013567ffffffffffffffff8111156141505761414f61393c565b5b61415c87828801613f41565b945050602085013567ffffffffffffffff81111561417d5761417c61393c565b5b61418987828801614009565b935050604085013567ffffffffffffffff8111156141aa576141a961393c565b5b6141b6878288016140ea565b925050606085013567ffffffffffffffff8111156141d7576141d661393c565b5b6141e3878288016140ea565b91505092959194509250565b600082825260208201905092915050565b600061420b82613af1565b61421581856141ef565b9350614225818560208601613b0d565b61422e81613b37565b840191505092915050565b600060208201905081810360008301526142538184614200565b905092915050565b600081519050919050565b600082825260208201905092915050565b6000819050602082019050919050565b60006142938383613b48565b905092915050565b6000602082019050919050565b60006142b38261425b565b6142bd8185614266565b9350836020820285016142cf85614277565b8060005b8581101561430b57848403895281516142ec8582614287565b94506142f78361429b565b925060208a019950506001810190506142d3565b50829750879550505050505092915050565b6000602082019050818103600083015261433781846142a8565b905092915050565b61434881613d08565b811461435357600080fd5b50565b6000813590506143658161433f565b92915050565b60006020828403121561438157614380613937565b5b600061438f84828501614356565b91505092915050565b6143a1816139f8565b82525050565b6000610100820190506143bd600083018b613d15565b6143ca602083018a614398565b81810360408301526143dc8189614200565b90506143eb6060830188614398565b6143f86080830187613d15565b61440560a0830186613d3f565b81810360c08301526144178185614200565b905081810360e083015261442b8184614200565b90509998505050505050505050565b600060208201905061444f6000830184614398565b92915050565b7f4e487b7100000000000000000000000000000000000000000000000000000000600052603260045260246000fd5b7f4e487b7100000000000000000000000000000000000000000000000000000000600052601160045260246000fd5b60006144be82613d08565b915060ff82036144d1576144d0614484565b5b600182019050919050565b7f54686520616d6f756e74206e6565647320746f2062652068696768657220746860008201527f616e203000000000000000000000000000000000000000000000000000000000602082015250565b60006145386024836141ef565b9150614543826144dc565b604082019050919050565b600060208201905081810360008301526145678161452b565b9050919050565b6000614579826139f8565b9150614584836139f8565b925082820190508082111561459c5761459b614484565b5b92915050565b7f4e487b7100000000000000000000000000000000000000000000000000000000600052602260045260246000fd5b600060028204905060018216806145e957607f821691505b6020821081036145fc576145fb6145a2565b5b50919050565b60008190508160005260206000209050919050565b60006020601f8301049050919050565b600082821b905092915050565b6000600883026146647fffffffffffffffffffffffffffffffffffffffffffffffffffffffffffffffff82614627565b61466e8683614627565b95508019841693508086168417925050509392505050565b6000819050919050565b60006146ab6146a66146a1846139f8565b614686565b6139f8565b9050919050565b6000819050919050565b6146c583614690565b6146d96146d1826146b2565b848454614634565b825550505050565b600090565b6146ee6146e1565b6146f98184846146bc565b505050565b5b8181101561471d576147126000826146e6565b6001810190506146ff565b5050565b601f8211156147625761473381614602565b61473c84614617565b8101602085101561474b578190505b61475f61475785614617565b8301826146fe565b50505b505050565b600082821c905092915050565b600061478560001984600802614767565b1980831691505092915050565b600061479e8383614774565b9150826002028217905092915050565b6147b782613af1565b67ffffffffffffffff8111156147d0576147cf613e44565b5b6147da82546145d1565b6147e5828285614721565b600060209050601f8311600181146148185760008415614806578287015190505b6148108582614792565b865550614878565b601f19841661482686614602565b60005b8281101561484e57848901518255600182019150602085019450602081019050614829565b8683101561486b5784890151614867601f891682614774565b8355505b6001600288020188555050505b505050505050565b7f5468652077616c6c6574206e6565647320746f2068617665206174206c65617360008201527f7420312075736572000000000000000000000000000000000000000000000000602082015250565b60006148dc6028836141ef565b91506148e782614880565b604082019050919050565b6000602082019050818103600083015261490b816148cf565b9050919050565b600061491d82613d08565b9150600082036149305761492f614484565b5b600182039050919050565b7f496e73756666696369656e742066756e647320696e2074686520636f6e74726160008201527f6374000000000000000000000000000000000000000000000000000000000000602082015250565b60006149976022836141ef565b91506149a28261493b565b604082019050919050565b600060208201905081810360008301526149c68161498a565b9050919050565b7f5468652077616c6c657420646f6573206e6f74206861766520656e6f7567682060008201527f66756e6473000000000000000000000000000000000000000000000000000000602082015250565b6000614a296025836141ef565b9150614a34826149cd565b604082019050919050565b60006020820190508181036000830152614a5881614a1c565b9050919050565b600081905092915050565b50565b6000614a7a600083614a5f565b9150614a8582614a6a565b600082019050919050565b6000614a9b82614a6d565b9150819050919050565b6000614ab0826139f8565b9150614abb836139f8565b9250828203905081811115614ad357614ad2614484565b5b92915050565b7f596f7520646f206e6f74206861766520656e6f7567682066756e647300000000600082015250565b6000614b0f601c836141ef565b9150614b1a82614ad9565b602082019050919050565b60006020820190508181036000830152614b3e81614b02565b9050919050565b7f4661696c656420746f2073656e6420457468657220746f20746865207265636960008201527f7069656e74206164647265737300000000000000000000000000000000000000602082015250565b6000614ba1602d836141ef565b9150614bac82614b45565b604082019050919050565b60006020820190508181036000830152614bd081614b94565b9050919050565b7f412077616c6c6574206e65656473206174206c65617374206f6e652075736572600082015250565b6000614c0d6020836141ef565b9150614c1882614bd7565b602082019050919050565b60006020820190508181036000830152614c3c81614c00565b9050919050565b7f4f6e65206f72206d6f7265207573657273206861766520616c7265616479206a60008201527f6f696e656420616e6f746865722077616c6c6574000000000000000000000000602082015250565b6000614c9f6034836141ef565b9150614caa82614c43565b604082019050919050565b60006020820190508181036000830152614cce81614c92565b9050919050565b7f5468652077616c6c65742063616e206e6f742068617665206475706c6963617460008201527f6520616464726573736573000000000000000000000000000000000000000000602082015250565b6000614d31602b836141ef565b9150614d3c82614cd5565b604082019050919050565b60006020820190508181036000830152614d6081614d24565b9050919050565b6000614d72826139f8565b91507fffffffffffffffffffffffffffffffffffffffffffffffffffffffffffffffff8203614da457614da3614484565b5b600182019050919050565b7f5468652077616c6c6574206e656564732061206e616d65000000000000000000600082015250565b6000614de56017836141ef565b9150614df082614daf565b602082019050919050565b60006020820190508181036000830152614e1481614dd8565b9050919050565b7f546865207573657273206e65656420746f206861766520626f7468206669727360008201527f7420616e64206c617374206e616d657300000000000000000000000000000000602082015250565b6000614e776030836141ef565b9150614e8282614e1b565b604082019050919050565b60006020820190508181036000830152614ea681614e6a565b9050919050565b6000614eb882613d08565b9150614ec383613d08565b9250828201905060ff811115614edc57614edb614484565b5b9291505056fea26469706673582212200cfa46ea1df52f82bee0cf208623abda1cbe5c3e1553cea44ef2bc5db3d420c664736f6c63430008110033",
  "linkReferences": {},
  "deployedLinkReferences": {}
}