{
  "_format": "hh-sol-artifact-1",
  "contractName": "TheVault",
  "sourceName": "contracts/TheVault.sol",
  "abi": [
    {
      "inputs": [
        {
          "internalType": "string",
          "name": "walletName",
          "type": "string"
        }
      ],
      "name": "getWalletBalance",
      "outputs": [
        {
          "internalType": "uint256",
          "name": "",
          "type": "uint256"
        }
      ],
      "stateMutability": "view",
      "type": "function"
    },
    {
      "inputs": [
        {
          "internalType": "string",
          "name": "walletName",
          "type": "string"
        }
      ],
      "name": "getWalletId",
      "outputs": [
        {
          "internalType": "uint256",
          "name": "",
          "type": "uint256"
        }
      ],
      "stateMutability": "view",
      "type": "function"
    },
    {
      "inputs": [
        {
          "internalType": "string",
          "name": "walletName",
          "type": "string"
        }
      ],
      "name": "getWalletMemberCounter",
      "outputs": [
        {
          "internalType": "uint8",
          "name": "",
          "type": "uint8"
        }
      ],
      "stateMutability": "view",
      "type": "function"
    },
    {
      "inputs": [
        {
          "internalType": "string",
          "name": "walletName",
          "type": "string"
        }
      ],
      "name": "getWalletMembers",
      "outputs": [
        {
          "internalType": "string[]",
          "name": "",
          "type": "string[]"
        }
      ],
      "stateMutability": "view",
      "type": "function"
    },
    {
      "inputs": [
        {
          "internalType": "string",
          "name": "walletName",
          "type": "string"
        },
        {
          "internalType": "address[]",
          "name": "membersAddresses",
          "type": "address[]"
        },
        {
          "internalType": "string[]",
          "name": "membersFirstNames",
          "type": "string[]"
        },
        {
          "internalType": "string[]",
          "name": "membersLastNames",
          "type": "string[]"
        }
      ],
      "name": "initializeWallet",
      "outputs": [],
      "stateMutability": "payable",
      "type": "function"
    },
    {
      "inputs": [
        {
          "internalType": "address",
          "name": "",
          "type": "address"
        }
      ],
      "name": "memberWalletId",
      "outputs": [
        {
          "internalType": "uint256",
          "name": "",
          "type": "uint256"
        }
      ],
      "stateMutability": "view",
      "type": "function"
    },
    {
      "inputs": [
        {
          "internalType": "string",
          "name": "",
          "type": "string"
        }
      ],
      "name": "wallet",
      "outputs": [
        {
          "internalType": "uint256",
          "name": "id",
          "type": "uint256"
        },
        {
          "internalType": "uint256",
          "name": "creationDate",
          "type": "uint256"
        },
        {
          "internalType": "string",
          "name": "name",
          "type": "string"
        },
        {
          "internalType": "uint256",
          "name": "balance",
          "type": "uint256"
        },
        {
          "internalType": "uint8",
          "name": "memberCounter",
          "type": "uint8"
        }
      ],
      "stateMutability": "view",
      "type": "function"
    },
    {
      "inputs": [],
      "name": "walletCounter",
      "outputs": [
        {
          "internalType": "uint8",
          "name": "",
          "type": "uint8"
        }
      ],
      "stateMutability": "view",
      "type": "function"
    }
  ],
  "bytecode": "0x608060405234801561001057600080fd5b50611925806100206000396000f3fe60806040526004361061007b5760003560e01c8063af0be2571161004e578063af0be25714610153578063f64d706014610194578063f83367b5146101bf578063fbca2373146101fc5761007b565b8063263c82e114610080578063811652ef146100bd5780639dafb391146100fa578063a6fd415814610137575b600080fd5b34801561008c57600080fd5b506100a760048036038101906100a29190610d8a565b610239565b6040516100b49190610dec565b60405180910390f35b3480156100c957600080fd5b506100e460048036038101906100df9190610d8a565b610263565b6040516100f19190610f48565b60405180910390f35b34801561010657600080fd5b50610121600480360381019061011c9190610d8a565b6106ba565b60405161012e9190610dec565b60405180910390f35b610151600480360381019061014c9190611171565b6106e4565b005b34801561015f57600080fd5b5061017a60048036038101906101759190610d8a565b610aed565b60405161018b9594939291906112ae565b60405180910390f35b3480156101a057600080fd5b506101a9610bce565b6040516101b69190611308565b60405180910390f35b3480156101cb57600080fd5b506101e660048036038101906101e19190610d8a565b610be1565b6040516101f39190611308565b60405180910390f35b34801561020857600080fd5b50610223600480360381019061021e9190611323565b610c18565b6040516102309190610dec565b60405180910390f35b6000808260405161024a919061138c565b9081526020016040518091039020600301549050919050565b606060008083604051610276919061138c565b908152602001604051809103902060040160009054906101000a900460ff1660ff1667ffffffffffffffff8111156102b1576102b0610c5f565b5b6040519080825280602002602001820160405280156102df5781602001602082028036833780820191505090505b509050600080846040516102f3919061138c565b908152602001604051809103902060040160009054906101000a900460ff1660ff1667ffffffffffffffff81111561032e5761032d610c5f565b5b60405190808252806020026020018201604052801561036157816020015b606081526020019060019003908161034c5790505b50905060008085604051610375919061138c565b908152602001604051809103902060040160009054906101000a900460ff1660ff1667ffffffffffffffff8111156103b0576103af610c5f565b5b6040519080825280602002602001820160405280156103e357816020015b60608152602001906001900390816103ce5790505b50905060005b6000866040516103f9919061138c565b908152602001604051809103902060040160009054906101000a900460ff1660ff168160ff1610156106ae57600086604051610435919061138c565b908152602001604051809103902060060160008260ff1660ff168152602001908152602001600020600001805461046b906113d2565b80601f0160208091040260200160405190810160405280929190818152602001828054610497906113d2565b80156104e45780601f106104b9576101008083540402835291602001916104e4565b820191906000526020600020905b8154815290600101906020018083116104c757829003601f168201915b5050505050838260ff16815181106104ff576104fe611403565b5b602002602001018190525060008660405161051a919061138c565b908152602001604051809103902060060160008260ff1660ff1681526020019081526020016000206001018054610550906113d2565b80601f016020809104026020016040519081016040528092919081815260200182805461057c906113d2565b80156105c95780601f1061059e576101008083540402835291602001916105c9565b820191906000526020600020905b8154815290600101906020018083116105ac57829003601f168201915b5050505050828260ff16815181106105e4576105e3611403565b5b60200260200101819052506000866040516105ff919061138c565b908152602001604051809103902060060160008260ff1660ff16815260200190815260200160002060020160009054906101000a900473ffffffffffffffffffffffffffffffffffffffff16848260ff168151811061066157610660611403565b5b602002602001019073ffffffffffffffffffffffffffffffffffffffff16908173ffffffffffffffffffffffffffffffffffffffff168152505080806106a690611461565b9150506103e9565b50819350505050919050565b600080826040516106cb919061138c565b9081526020016040518091039020600001549050919050565b8282516000811161072a576040517f08c379a0000000000000000000000000000000000000000000000000000000008152600401610721906114d6565b60405180910390fd5b60005b818110156107e45760006001600085848151811061074e5761074d611403565b5b602002602001015173ffffffffffffffffffffffffffffffffffffffff1673ffffffffffffffffffffffffffffffffffffffff16815260200190815260200160002054146107d1576040517f08c379a00000000000000000000000000000000000000000000000000000000081526004016107c890611568565b60405180910390fd5b80806107dc90611588565b91505061072d565b5085600080826040516107f7919061138c565b90815260200160405180910390206000015414610849576040517f08c379a00000000000000000000000000000000000000000000000000000000081526004016108409061161c565b60405180910390fd5b6000808860405161085a919061138c565b908152602001604051809103902090506064600260009054906101000a900460ff16610886919061163c565b60ff168160000181905550428160010181905550878160020190816108ab919061181d565b5034816003018190555060005b87518160ff161015610aaa5760008260060160008360ff1660ff1681526020019081526020016000209050878260ff16815181106108f9576108f8611403565b5b6020026020010151816000019081610911919061181d565b50868260ff168151811061092857610927611403565b5b6020026020010151816001019081610940919061181d565b50888260ff168151811061095757610956611403565b5b60200260200101518160020160006101000a81548173ffffffffffffffffffffffffffffffffffffffff021916908373ffffffffffffffffffffffffffffffffffffffff1602179055506064600260009054906101000a900460ff166109bd919061163c565b60ff1681600301819055506000816004018190555060058160050160006101000a81548160ff021916908360ff16021790555082600401600081819054906101000a900460ff1680929190610a1190611461565b91906101000a81548160ff021916908360ff160217905550508060030154600160008360020160009054906101000a900473ffffffffffffffffffffffffffffffffffffffff1673ffffffffffffffffffffffffffffffffffffffff1673ffffffffffffffffffffffffffffffffffffffff16815260200190815260200160002081905550508080610aa290611461565b9150506108b8565b506002600081819054906101000a900460ff1680929190610aca90611461565b91906101000a81548160ff021916908360ff160217905550505050505050505050565b600081805160208101820180518482526020830160208501208183528095505050505050600091509050806000015490806001015490806002018054610b32906113d2565b80601f0160208091040260200160405190810160405280929190818152602001828054610b5e906113d2565b8015610bab5780601f10610b8057610100808354040283529160200191610bab565b820191906000526020600020905b815481529060010190602001808311610b8e57829003601f168201915b5050505050908060030154908060040160009054906101000a900460ff16905085565b600260009054906101000a900460ff1681565b60008082604051610bf2919061138c565b908152602001604051809103902060040160009054906101000a900460ff169050919050565b60016020528060005260406000206000915090505481565b6000604051905090565b600080fd5b600080fd5b600080fd5b600080fd5b6000601f19601f8301169050919050565b7f4e487b7100000000000000000000000000000000000000000000000000000000600052604160045260246000fd5b610c9782610c4e565b810181811067ffffffffffffffff82111715610cb657610cb5610c5f565b5b80604052505050565b6000610cc9610c30565b9050610cd58282610c8e565b919050565b600067ffffffffffffffff821115610cf557610cf4610c5f565b5b610cfe82610c4e565b9050602081019050919050565b82818337600083830152505050565b6000610d2d610d2884610cda565b610cbf565b905082815260208101848484011115610d4957610d48610c49565b5b610d54848285610d0b565b509392505050565b600082601f830112610d7157610d70610c44565b5b8135610d81848260208601610d1a565b91505092915050565b600060208284031215610da057610d9f610c3a565b5b600082013567ffffffffffffffff811115610dbe57610dbd610c3f565b5b610dca84828501610d5c565b91505092915050565b6000819050919050565b610de681610dd3565b82525050565b6000602082019050610e016000830184610ddd565b92915050565b600081519050919050565b600082825260208201905092915050565b6000819050602082019050919050565b600081519050919050565b600082825260208201905092915050565b60005b83811015610e6d578082015181840152602081019050610e52565b60008484015250505050565b6000610e8482610e33565b610e8e8185610e3e565b9350610e9e818560208601610e4f565b610ea781610c4e565b840191505092915050565b6000610ebe8383610e79565b905092915050565b6000602082019050919050565b6000610ede82610e07565b610ee88185610e12565b935083602082028501610efa85610e23565b8060005b85811015610f365784840389528151610f178582610eb2565b9450610f2283610ec6565b925060208a01995050600181019050610efe565b50829750879550505050505092915050565b60006020820190508181036000830152610f628184610ed3565b905092915050565b600067ffffffffffffffff821115610f8557610f84610c5f565b5b602082029050602081019050919050565b600080fd5b600073ffffffffffffffffffffffffffffffffffffffff82169050919050565b6000610fc682610f9b565b9050919050565b610fd681610fbb565b8114610fe157600080fd5b50565b600081359050610ff381610fcd565b92915050565b600061100c61100784610f6a565b610cbf565b9050808382526020820190506020840283018581111561102f5761102e610f96565b5b835b8181101561105857806110448882610fe4565b845260208401935050602081019050611031565b5050509392505050565b600082601f83011261107757611076610c44565b5b8135611087848260208601610ff9565b91505092915050565b600067ffffffffffffffff8211156110ab576110aa610c5f565b5b602082029050602081019050919050565b60006110cf6110ca84611090565b610cbf565b905080838252602082019050602084028301858111156110f2576110f1610f96565b5b835b8181101561113957803567ffffffffffffffff81111561111757611116610c44565b5b8086016111248982610d5c565b855260208501945050506020810190506110f4565b5050509392505050565b600082601f83011261115857611157610c44565b5b81356111688482602086016110bc565b91505092915050565b6000806000806080858703121561118b5761118a610c3a565b5b600085013567ffffffffffffffff8111156111a9576111a8610c3f565b5b6111b587828801610d5c565b945050602085013567ffffffffffffffff8111156111d6576111d5610c3f565b5b6111e287828801611062565b935050604085013567ffffffffffffffff81111561120357611202610c3f565b5b61120f87828801611143565b925050606085013567ffffffffffffffff8111156112305761122f610c3f565b5b61123c87828801611143565b91505092959194509250565b600082825260208201905092915050565b600061126482610e33565b61126e8185611248565b935061127e818560208601610e4f565b61128781610c4e565b840191505092915050565b600060ff82169050919050565b6112a881611292565b82525050565b600060a0820190506112c36000830188610ddd565b6112d06020830187610ddd565b81810360408301526112e28186611259565b90506112f16060830185610ddd565b6112fe608083018461129f565b9695505050505050565b600060208201905061131d600083018461129f565b92915050565b60006020828403121561133957611338610c3a565b5b600061134784828501610fe4565b91505092915050565b600081905092915050565b600061136682610e33565b6113708185611350565b9350611380818560208601610e4f565b80840191505092915050565b6000611398828461135b565b915081905092915050565b7f4e487b7100000000000000000000000000000000000000000000000000000000600052602260045260246000fd5b600060028204905060018216806113ea57607f821691505b6020821081036113fd576113fc6113a3565b5b50919050565b7f4e487b7100000000000000000000000000000000000000000000000000000000600052603260045260246000fd5b7f4e487b7100000000000000000000000000000000000000000000000000000000600052601160045260246000fd5b600061146c82611292565b915060ff820361147f5761147e611432565b5b600182019050919050565b7f412077616c6c6574206e65656473206174206c65617374206f6e652075736572600082015250565b60006114c0602083611248565b91506114cb8261148a565b602082019050919050565b600060208201905081810360008301526114ef816114b3565b9050919050565b7f4f6e65206f72206d6f7265207573657273206861766520616c7265616479206a60008201527f6f696e656420616e6f746865722077616c6c6574000000000000000000000000602082015250565b6000611552603483611248565b915061155d826114f6565b604082019050919050565b6000602082019050818103600083015261158181611545565b9050919050565b600061159382610dd3565b91507fffffffffffffffffffffffffffffffffffffffffffffffffffffffffffffffff82036115c5576115c4611432565b5b600182019050919050565b7f412077616c6c657420616c7265616479206861732074686973206e616d650000600082015250565b6000611606601e83611248565b9150611611826115d0565b602082019050919050565b60006020820190508181036000830152611635816115f9565b9050919050565b600061164782611292565b915061165283611292565b9250828201905060ff81111561166b5761166a611432565b5b92915050565b60008190508160005260206000209050919050565b60006020601f8301049050919050565b600082821b905092915050565b6000600883026116d37fffffffffffffffffffffffffffffffffffffffffffffffffffffffffffffffff82611696565b6116dd8683611696565b95508019841693508086168417925050509392505050565b6000819050919050565b600061171a61171561171084610dd3565b6116f5565b610dd3565b9050919050565b6000819050919050565b611734836116ff565b61174861174082611721565b8484546116a3565b825550505050565b600090565b61175d611750565b61176881848461172b565b505050565b5b8181101561178c57611781600082611755565b60018101905061176e565b5050565b601f8211156117d1576117a281611671565b6117ab84611686565b810160208510156117ba578190505b6117ce6117c685611686565b83018261176d565b50505b505050565b600082821c905092915050565b60006117f4600019846008026117d6565b1980831691505092915050565b600061180d83836117e3565b9150826002028217905092915050565b61182682610e33565b67ffffffffffffffff81111561183f5761183e610c5f565b5b61184982546113d2565b611854828285611790565b600060209050601f8311600181146118875760008415611875578287015190505b61187f8582611801565b8655506118e7565b601f19841661189586611671565b60005b828110156118bd57848901518255600182019150602085019450602081019050611898565b868310156118da57848901516118d6601f8916826117e3565b8355505b6001600288020188555050505b50505050505056fea26469706673582212205e196544bffb83bd0dd1f868db3f1bfbf5a2f59be1ed8075a050bf993be71bbc64736f6c63430008110033",
  "linkReferences": {},
  "deployedLinkReferences": {}
}